{
  "contractName": "Post_Factory",
  "abi": [
    {
      "constant": true,
      "inputs": [],
      "name": "getInstanceType",
      "outputs": [
        {
          "name": "instanceType",
          "type": "bytes4"
        }
      ],
      "payable": false,
      "stateMutability": "view",
      "type": "function"
    },
    {
      "constant": true,
      "inputs": [],
      "name": "getTemplate",
      "outputs": [
        {
          "name": "template",
          "type": "address"
        }
      ],
      "payable": false,
      "stateMutability": "view",
      "type": "function"
    },
    {
      "constant": true,
      "inputs": [
        {
          "name": "instance",
          "type": "address"
        }
      ],
      "name": "getInstanceCreator",
      "outputs": [
        {
          "name": "creator",
          "type": "address"
        }
      ],
      "payable": false,
      "stateMutability": "view",
      "type": "function"
    },
    {
      "constant": true,
      "inputs": [],
      "name": "getInstanceRegistry",
      "outputs": [
        {
          "name": "instanceRegistry",
          "type": "address"
        }
      ],
      "payable": false,
      "stateMutability": "view",
      "type": "function"
    },
    {
      "constant": true,
      "inputs": [],
      "name": "getInitdataABI",
      "outputs": [
        {
          "name": "initdataABI",
          "type": "string"
        }
      ],
      "payable": false,
      "stateMutability": "view",
      "type": "function"
    },
    {
      "constant": true,
      "inputs": [],
      "name": "getInstanceCount",
      "outputs": [
        {
          "name": "count",
          "type": "uint256"
        }
      ],
      "payable": false,
      "stateMutability": "view",
      "type": "function"
    },
    {
      "constant": true,
      "inputs": [
        {
          "name": "startIndex",
          "type": "uint256"
        },
        {
          "name": "endIndex",
          "type": "uint256"
        }
      ],
      "name": "getPaginatedInstances",
      "outputs": [
        {
          "name": "instances",
          "type": "address[]"
        }
      ],
      "payable": false,
      "stateMutability": "view",
      "type": "function"
    },
    {
      "constant": true,
      "inputs": [],
      "name": "getInstances",
      "outputs": [
        {
          "name": "instances",
          "type": "address[]"
        }
      ],
      "payable": false,
      "stateMutability": "view",
      "type": "function"
    },
    {
      "constant": true,
      "inputs": [
        {
          "name": "index",
          "type": "uint256"
        }
      ],
      "name": "getInstance",
      "outputs": [
        {
          "name": "instance",
          "type": "address"
        }
      ],
      "payable": false,
      "stateMutability": "view",
      "type": "function"
    },
    {
      "inputs": [
        {
          "name": "instanceRegistry",
          "type": "address"
        }
      ],
      "payable": false,
      "stateMutability": "nonpayable",
      "type": "constructor"
    },
    {
      "anonymous": false,
      "inputs": [
        {
          "indexed": false,
          "name": "operator",
          "type": "address"
        },
        {
          "indexed": false,
          "name": "proofHash",
          "type": "bytes"
        },
        {
          "indexed": false,
          "name": "staticMetadata",
          "type": "bytes"
        },
        {
          "indexed": false,
          "name": "variableMetadata",
          "type": "bytes"
        }
      ],
      "name": "ExplicitInitData",
      "type": "event"
    },
    {
      "anonymous": false,
      "inputs": [
        {
          "indexed": true,
          "name": "instance",
          "type": "address"
        },
        {
          "indexed": true,
          "name": "creator",
          "type": "address"
        },
        {
          "indexed": false,
          "name": "callData",
          "type": "bytes"
        }
      ],
      "name": "InstanceCreated",
      "type": "event"
    },
    {
      "constant": false,
      "inputs": [
        {
          "name": "callData",
          "type": "bytes"
        }
      ],
      "name": "create",
      "outputs": [
        {
          "name": "instance",
          "type": "address"
        }
      ],
      "payable": false,
      "stateMutability": "nonpayable",
      "type": "function"
    },
    {
      "constant": false,
      "inputs": [
        {
          "name": "initdata",
          "type": "bytes"
        }
      ],
      "name": "createEncoded",
      "outputs": [
        {
          "name": "instance",
          "type": "address"
        }
      ],
      "payable": false,
      "stateMutability": "nonpayable",
      "type": "function"
    },
    {
      "constant": false,
      "inputs": [
        {
          "name": "operator",
          "type": "address"
        },
        {
          "name": "proofHash",
          "type": "bytes"
        },
        {
          "name": "staticMetadata",
          "type": "bytes"
        },
        {
          "name": "variableMetadata",
          "type": "bytes"
        }
      ],
      "name": "createExplicit",
      "outputs": [
        {
          "name": "instance",
          "type": "address"
        }
      ],
      "payable": false,
      "stateMutability": "nonpayable",
      "type": "function"
    }
  ],
  "bytecode": "0x60806040523480156200001157600080fd5b5060405160208062003783833981018060405260208110156200003357600080fd5b81019080805190602001909291905050506000604051620000549062000308565b604051809103906000f08015801562000071573d6000803e3d6000fd5b50905060006040518060400160405280600481526020017f506f73740000000000000000000000000000000000000000000000000000000081525080519060200120905060606040518060400160405280601b81526020017f28616464726573732c62797465732c62797465732c6279746573290000000000815250905062000108848484846200011260201b620017fd1760201c565b50505050620003c5565b83600460006101000a81548173ffffffffffffffffffffffffffffffffffffffff021916908373ffffffffffffffffffffffffffffffffffffffff16021790555082600260006101000a81548173ffffffffffffffffffffffffffffffffffffffff021916908373ffffffffffffffffffffffffffffffffffffffff1602179055508060039080519060200190620001ac92919062000316565b508373ffffffffffffffffffffffffffffffffffffffff166318c2f4cf6040518163ffffffff1660e01b815260040160206040518083038186803b158015620001f457600080fd5b505afa15801562000209573d6000803e3d6000fd5b505050506040513d60208110156200022057600080fd5b81019080805190602001909291905050507bffffffffffffffffffffffffffffffffffffffffffffffffffffffff1916827bffffffffffffffffffffffffffffffffffffffffffffffffffffffff191614620002e4576040517f08c379a00000000000000000000000000000000000000000000000000000000081526004018080602001828103825260178152602001807f696e636f727265637420696e7374616e6365207479706500000000000000000081525060200191505060405180910390fd5b81600460146101000a81548163ffffffff021916908360e01c021790555050505050565b61169e80620020e583390190565b828054600181600116156101000203166002900490600052602060002090601f016020900481019282601f106200035957805160ff19168380011785556200038a565b828001600101855582156200038a579182015b82811115620003895782518255916020019190600101906200036c565b5b5090506200039991906200039d565b5090565b620003c291905b80821115620003be576000816000905550600101620003a4565b5090565b90565b611d1080620003d56000396000f3fe608060405234801561001057600080fd5b50600436106100b45760003560e01c8063a61352e111610071578063a61352e114610571578063ae34325c146105f4578063b71f2e7214610612578063cf5ba53f1461069f578063d35fdd791461079a578063ebd348de146107f9576100b4565b80631361552e146100b957806318c2f4cf14610302578063321c48f21461035e5780636bf71982146103a85780636f8d11e61461042c578063a5e1390414610527575b600080fd5b6102c0600480360360808110156100cf57600080fd5b81019080803573ffffffffffffffffffffffffffffffffffffffff1690602001909291908035906020019064010000000081111561010c57600080fd5b82018360208201111561011e57600080fd5b8035906020019184600183028401116401000000008311171561014057600080fd5b91908080601f016020809104026020016040519081016040528093929190818152602001838380828437600081840152601f19601f820116905080830192505050505050509192919290803590602001906401000000008111156101a357600080fd5b8201836020820111156101b557600080fd5b803590602001918460018302840111640100000000831117156101d757600080fd5b91908080601f016020809104026020016040519081016040528093929190818152602001838380828437600081840152601f19601f8201169050808301925050505050505091929192908035906020019064010000000081111561023a57600080fd5b82018360208201111561024c57600080fd5b8035906020019184600183028401116401000000008311171561026e57600080fd5b91908080601f016020809104026020016040519081016040528093929190818152602001838380828437600081840152601f19601f820116905080830192505050505050509192919290505050610867565b604051808273ffffffffffffffffffffffffffffffffffffffff1673ffffffffffffffffffffffffffffffffffffffff16815260200191505060405180910390f35b61030a610c2f565b60405180827bffffffffffffffffffffffffffffffffffffffffffffffffffffffff19167bffffffffffffffffffffffffffffffffffffffffffffffffffffffff1916815260200191505060405180910390f35b610366610c46565b604051808273ffffffffffffffffffffffffffffffffffffffff1673ffffffffffffffffffffffffffffffffffffffff16815260200191505060405180910390f35b6103ea600480360360208110156103be57600080fd5b81019080803573ffffffffffffffffffffffffffffffffffffffff169060200190929190505050610c70565b604051808273ffffffffffffffffffffffffffffffffffffffff1673ffffffffffffffffffffffffffffffffffffffff16815260200191505060405180910390f35b6104e56004803603602081101561044257600080fd5b810190808035906020019064010000000081111561045f57600080fd5b82018360208201111561047157600080fd5b8035906020019184600183028401116401000000008311171561049357600080fd5b91908080601f016020809104026020016040519081016040528093929190818152602001838380828437600081840152601f19601f820116905080830192505050505050509192919290505050610cd9565b604051808273ffffffffffffffffffffffffffffffffffffffff1673ffffffffffffffffffffffffffffffffffffffff16815260200191505060405180910390f35b61052f610e10565b604051808273ffffffffffffffffffffffffffffffffffffffff1673ffffffffffffffffffffffffffffffffffffffff16815260200191505060405180910390f35b610579610e3a565b6040518080602001828103825283818151815260200191508051906020019080838360005b838110156105b957808201518184015260208101905061059e565b50505050905090810190601f1680156105e65780820380516001836020036101000a031916815260200191505b509250505060405180910390f35b6105fc610edc565b6040518082815260200191505060405180910390f35b6106486004803603604081101561062857600080fd5b810190808035906020019092919080359060200190929190505050610ee8565b6040518080602001828103825283818151815260200191508051906020019060200280838360005b8381101561068b578082015181840152602081019050610670565b505050509050019250505060405180910390f35b610758600480360360208110156106b557600080fd5b81019080803590602001906401000000008111156106d257600080fd5b8201836020820111156106e457600080fd5b8035906020019184600183028401116401000000008311171561070657600080fd5b91908080601f016020809104026020016040519081016040528093929190818152602001838380828437600081840152601f19601f820116905080830192505050505050509192919290505050611099565b604051808273ffffffffffffffffffffffffffffffffffffffff1673ffffffffffffffffffffffffffffffffffffffff16815260200191505060405180910390f35b6107a26110ab565b6040518080602001828103825283818151815260200191508051906020019060200280838360005b838110156107e55780820151818401526020810190506107ca565b505050509050019250505060405180910390f35b6108256004803603602081101561080f57600080fd5b8101908080359060200190929190505050611139565b604051808273ffffffffffffffffffffffffffffffffffffffff1673ffffffffffffffffffffffffffffffffffffffff16815260200191505060405180910390f35b60008060608173ffffffffffffffffffffffffffffffffffffffff1663ca6a18c9905060e01b87878787604051602401808573ffffffffffffffffffffffffffffffffffffffff1673ffffffffffffffffffffffffffffffffffffffff168152602001806020018060200180602001848103845287818151815260200191508051906020019080838360005b8381101561090e5780820151818401526020810190506108f3565b50505050905090810190601f16801561093b5780820380516001836020036101000a031916815260200191505b50848103835286818151815260200191508051906020019080838360005b83811015610974578082015181840152602081019050610959565b50505050905090810190601f1680156109a15780820380516001836020036101000a031916815260200191505b50848103825285818151815260200191508051906020019080838360005b838110156109da5780820151818401526020810190506109bf565b50505050905090810190601f168015610a075780820380516001836020036101000a031916815260200191505b50975050505050505050604051602081830303815290604052907bffffffffffffffffffffffffffffffffffffffffffffffffffffffff19166020820180517bffffffffffffffffffffffffffffffffffffffffffffffffffffffff83818316178352505050509050610a79816111f3565b92507f3bee4023a38d9b593332daa07d4eed822721c3959ef23b236aa8a375a35dd29e87878787604051808573ffffffffffffffffffffffffffffffffffffffff1673ffffffffffffffffffffffffffffffffffffffff168152602001806020018060200180602001848103845287818151815260200191508051906020019080838360005b83811015610b1a578082015181840152602081019050610aff565b50505050905090810190601f168015610b475780820380516001836020036101000a031916815260200191505b50848103835286818151815260200191508051906020019080838360005b83811015610b80578082015181840152602081019050610b65565b50505050905090810190601f168015610bad5780820380516001836020036101000a031916815260200191505b50848103825285818151815260200191508051906020019080838360005b83811015610be6578082015181840152602081019050610bcb565b50505050905090810190601f168015610c135780820380516001836020036101000a031916815260200191505b5097505050505050505060405180910390a15050949350505050565b6000600460149054906101000a900460e01b905090565b6000600260009054906101000a900473ffffffffffffffffffffffffffffffffffffffff16905090565b6000600160008373ffffffffffffffffffffffffffffffffffffffff1673ffffffffffffffffffffffffffffffffffffffff16815260200190815260200160002060009054906101000a900473ffffffffffffffffffffffffffffffffffffffff169050919050565b6000806060806060858060200190516080811015610cf657600080fd5b81019080805190602001909291908051640100000000811115610d1857600080fd5b82810190506020810184811115610d2e57600080fd5b8151856001820283011164010000000082111715610d4b57600080fd5b50509291906020018051640100000000811115610d6757600080fd5b82810190506020810184811115610d7d57600080fd5b8151856001820283011164010000000082111715610d9a57600080fd5b50509291906020018051640100000000811115610db657600080fd5b82810190506020810184811115610dcc57600080fd5b8151856001820283011164010000000082111715610de957600080fd5b50509291905050509350935093509350610e0584848484610867565b945050505050919050565b6000600460009054906101000a900473ffffffffffffffffffffffffffffffffffffffff16905090565b606060038054600181600116156101000203166002900480601f016020809104026020016040519081016040528092919081815260200182805460018160011615610100020316600290048015610ed25780601f10610ea757610100808354040283529160200191610ed2565b820191906000526020600020905b815481529060010190602001808311610eb557829003601f168201915b5050505050905090565b60008080549050905090565b6060818310610f42576040517f08c379a0000000000000000000000000000000000000000000000000000000008152600401808060200182810382526025815260200180611cc06025913960400191505060405180910390fd5b600080549050821115610fbd576040517f08c379a00000000000000000000000000000000000000000000000000000000081526004018080602001828103825260168152602001807f656e6420696e646578206f7574206f662072616e67650000000000000000000081525060200191505060405180910390fd5b6060838303604051908082528060200260200182016040528015610ff05781602001602082028038833980820191505090505b50905060008490505b8381101561108e576000818154811061100e57fe5b9060005260206000200160009054906101000a900473ffffffffffffffffffffffffffffffffffffffff16828683038151811061104757fe5b602002602001019073ffffffffffffffffffffffffffffffffffffffff16908173ffffffffffffffffffffffffffffffffffffffff16815250508080600101915050610ff9565b508091505092915050565b60006110a4826111f3565b9050919050565b6060600080548060200260200160405190810160405280929190818152602001828054801561112f57602002820191906000526020600020905b8160009054906101000a900473ffffffffffffffffffffffffffffffffffffffff1673ffffffffffffffffffffffffffffffffffffffff16815260200190600101908083116110e5575b5050505050905090565b6000808054905082106111b4576040517f08c379a00000000000000000000000000000000000000000000000000000000081526004018080602001828103825260128152602001807f696e646578206f7574206f662072616e6765000000000000000000000000000081525060200191505060405180910390fd5b600082815481106111c157fe5b9060005260206000200160009054906101000a900473ffffffffffffffffffffffffffffffffffffffff169050919050565b6000611206611200610c46565b836114ac565b905060008190806001815401808255809150509060018203906000526020600020016000909192909190916101000a81548173ffffffffffffffffffffffffffffffffffffffff021916908373ffffffffffffffffffffffffffffffffffffffff1602179055505033600160008373ffffffffffffffffffffffffffffffffffffffff1673ffffffffffffffffffffffffffffffffffffffff16815260200190815260200160002060006101000a81548173ffffffffffffffffffffffffffffffffffffffff021916908373ffffffffffffffffffffffffffffffffffffffff1602179055506112f4610e10565b73ffffffffffffffffffffffffffffffffffffffff1663bba83f64823360006040518463ffffffff1660e01b8152600401808473ffffffffffffffffffffffffffffffffffffffff1673ffffffffffffffffffffffffffffffffffffffff1681526020018373ffffffffffffffffffffffffffffffffffffffff1673ffffffffffffffffffffffffffffffffffffffff1681526020018267ffffffffffffffff1669ffffffffffffffffffff1681526020019350505050600060405180830381600087803b1580156113c557600080fd5b505af11580156113d9573d6000803e3d6000fd5b505050503373ffffffffffffffffffffffffffffffffffffffff168173ffffffffffffffffffffffffffffffffffffffff167fab60131c1462939275d0fd3738e07ab853e22af6296cf75e71bbdf3a497791a2846040518080602001828103825283818151815260200191508051906020019080838360005b8381101561146d578082015181840152602081019050611452565b50505050905090810190601f16801561149a5780820380516001836020036101000a031916815260200191505b509250505060405180910390a3919050565b60006060604051806020016114c0906117f0565b6020820181038252601f19601f820116604052508484604051602001808373ffffffffffffffffffffffffffffffffffffffff1673ffffffffffffffffffffffffffffffffffffffff16815260200180602001828103825283818151815260200191508051906020019080838360005b8381101561154b578082015181840152602081019050611530565b50505050905090810190601f1680156115785780820380516001836020036101000a031916815260200191505b5093505050506040516020818303038152906040526040516020018083805190602001908083835b602083106115c357805182526020820191506020810190506020830392506115a0565b6001836020036101000a03801982511681845116808217855250505050505090500182805190602001908083835b6020831061161457805182526020820191506020810190506020830392506115f1565b6001836020036101000a0380198251168184511680821785525050505050509050019250505060405160208183030381529060405290506116548161165d565b91505092915050565b60008061166983611690565b50905082602001835182818334f5935083611688573d6000803e3d6000fd5b505050919050565b600080600083805190602001209050600080905060005b6001156117e8573382604051602001808373ffffffffffffffffffffffffffffffffffffffff1673ffffffffffffffffffffffffffffffffffffffff1660601b81526014018281526020019250505060405160208183030381529060405280519060200120945060ff60f81b30868560405160200180857effffffffffffffffffffffffffffffffffffffffffffffffffffffffffffff19167effffffffffffffffffffffffffffffffffffffffffffffffffffffffffffff191681526001018473ffffffffffffffffffffffffffffffffffffffff1673ffffffffffffffffffffffffffffffffffffffff1660601b81526014018381526020018281526020019450505050506040516020818303038152906040528051906020012060001c9350833b905060008114156117db576117e8565b81806001019250506116a7565b505050915091565b61022d80611a9383390190565b83600460006101000a81548173ffffffffffffffffffffffffffffffffffffffff021916908373ffffffffffffffffffffffffffffffffffffffff16021790555082600260006101000a81548173ffffffffffffffffffffffffffffffffffffffff021916908373ffffffffffffffffffffffffffffffffffffffff16021790555080600390805190602001906118959291906119ed565b508373ffffffffffffffffffffffffffffffffffffffff166318c2f4cf6040518163ffffffff1660e01b815260040160206040518083038186803b1580156118dc57600080fd5b505afa1580156118f0573d6000803e3d6000fd5b505050506040513d602081101561190657600080fd5b81019080805190602001909291905050507bffffffffffffffffffffffffffffffffffffffffffffffffffffffff1916827bffffffffffffffffffffffffffffffffffffffffffffffffffffffff1916146119c9576040517f08c379a00000000000000000000000000000000000000000000000000000000081526004018080602001828103825260178152602001807f696e636f727265637420696e7374616e6365207479706500000000000000000081525060200191505060405180910390fd5b81600460146101000a81548163ffffffff021916908360e01c021790555050505050565b828054600181600116156101000203166002900490600052602060002090601f016020900481019282601f10611a2e57805160ff1916838001178555611a5c565b82800160010185558215611a5c579182015b82811115611a5b578251825591602001919060010190611a40565b5b509050611a699190611a6d565b5090565b611a8f91905b80821115611a8b576000816000905550600101611a73565b5090565b9056fe608060405260405161022d38038061022d8339810180604052604081101561002657600080fd5b8101908080519060200190929190805164010000000081111561004857600080fd5b8281019050602081018481111561005e57600080fd5b815185600182028301116401000000008211171561007b57600080fd5b505092919050505060008273ffffffffffffffffffffffffffffffffffffffff16826040518082805190602001908083835b602083106100d057805182526020820191506020810190506020830392506100ad565b6001836020036101000a038019825116818451168082178552505050505050905001915050600060405180830381855af49150503d8060008114610130576040519150601f19603f3d011682016040523d82523d6000602084013e610135565b606091505b5050905080610148573d6000803e3d6000fd5b606069363d3d373d3d3d363d7360b01b846e5af43d82803e903d91602b57fd5bf360881b604051602001808475ffffffffffffffffffffffffffffffffffffffffffff191675ffffffffffffffffffffffffffffffffffffffffffff19168152600a018373ffffffffffffffffffffffffffffffffffffffff1673ffffffffffffffffffffffffffffffffffffffff1660601b81526014018270ffffffffffffffffffffffffffffffffff191670ffffffffffffffffffffffffffffffffff19168152600f0193505050506040516020818303038152906040529050602d81602001f3fe7374617274496e646578206d757374206265206c657373207468616e20656e64496e646578a165627a7a72305820f0eb45d1b5e950aeda4fe46069b2c83a9353e784d585d348adf61e6fe5f584d70029608060405234801561001057600080fd5b5061167e806100206000396000f3fe608060405234801561001057600080fd5b506004361061009e5760003560e01c80637a5b4f59116100665780637a5b4f59146102e3578063923b1762146103d2578063ca6a18c9146103f4578063e7f43c68146105fd578063efd46065146106475761009e565b80630ee2cb10146100a357806327305e83146100ed5780633367cca5146101a857806355e03373146102045780636d70f7ae14610287575b600080fd5b6100ab6106a3565b604051808273ffffffffffffffffffffffffffffffffffffffff1673ffffffffffffffffffffffffffffffffffffffff16815260200191505060405180910390f35b6101a66004803603602081101561010357600080fd5b810190808035906020019064010000000081111561012057600080fd5b82018360208201111561013257600080fd5b8035906020019184600183028401116401000000008311171561015457600080fd5b91908080601f016020809104026020016040519081016040528093929190818152602001838380828437600081840152601f19601f820116905080830192505050505050509192919290505050610784565b005b6101ea600480360360208110156101be57600080fd5b81019080803573ffffffffffffffffffffffffffffffffffffffff16906020019092919050505061081b565b604051808215151515815260200191505060405180910390f35b61020c61083d565b6040518080602001828103825283818151815260200191508051906020019080838360005b8381101561024c578082015181840152602081019050610231565b50505050905090810190601f1680156102795780820380516001836020036101000a031916815260200191505b509250505060405180910390f35b6102c96004803603602081101561029d57600080fd5b81019080803573ffffffffffffffffffffffffffffffffffffffff16906020019092919050505061089d565b604051808215151515815260200191505060405180910390f35b6102eb6108dc565b604051808060200180602001838103835285818151815260200191508051906020019080838360005b8381101561032f578082015181840152602081019050610314565b50505050905090810190601f16801561035c5780820380516001836020036101000a031916815260200191505b50838103825284818151815260200191508051906020019080838360005b8381101561039557808201518184015260208101905061037a565b50505050905090810190601f1680156103c25780820380516001836020036101000a031916815260200191505b5094505050505060405180910390f35b6103da610a1d565b604051808215151515815260200191505060405180910390f35b6105fb6004803603608081101561040a57600080fd5b81019080803573ffffffffffffffffffffffffffffffffffffffff1690602001909291908035906020019064010000000081111561044757600080fd5b82018360208201111561045957600080fd5b8035906020019184600183028401116401000000008311171561047b57600080fd5b91908080601f016020809104026020016040519081016040528093929190818152602001838380828437600081840152601f19601f820116905080830192505050505050509192919290803590602001906401000000008111156104de57600080fd5b8201836020820111156104f057600080fd5b8035906020019184600183028401116401000000008311171561051257600080fd5b91908080601f016020809104026020016040519081016040528093929190818152602001838380828437600081840152601f19601f8201169050808301925050505050505091929192908035906020019064010000000081111561057557600080fd5b82018360208201111561058757600080fd5b803590602001918460018302840111640100000000831117156105a957600080fd5b91908080601f016020809104026020016040519081016040528093929190818152602001838380828437600081840152601f19601f820116905080830192505050505050509192919290505050610a34565b005b610605610cec565b604051808273ffffffffffffffffffffffffffffffffffffffff1673ffffffffffffffffffffffffffffffffffffffff16815260200191505060405180910390f35b6106896004803603602081101561065d57600080fd5b81019080803573ffffffffffffffffffffffffffffffffffffffff169060200190929190505050610d16565b604051808215151515815260200191505060405180910390f35b6000600560009054906101000a900473ffffffffffffffffffffffffffffffffffffffff1673ffffffffffffffffffffffffffffffffffffffff16636bf71982306040518263ffffffff1660e01b8152600401808273ffffffffffffffffffffffffffffffffffffffff1673ffffffffffffffffffffffffffffffffffffffff16815260200191505060206040518083038186803b15801561074457600080fd5b505afa158015610758573d6000803e3d6000fd5b505050506040513d602081101561076e57600080fd5b8101908080519060200190929190505050905090565b61078d33610d16565b8061079d575061079c3361081b565b5b61080f576040517f08c379a000000000000000000000000000000000000000000000000000000000815260040180806020018281038252601f8152602001807f6f6e6c7920616374697665206f70657261746f72206f722063726561746f720081525060200191505060405180910390fd5b61081881610d55565b50565b60006108268261089d565b80156108365750610835610a1d565b5b9050919050565b60606108986000604051806060016040529081600082015481526020016001820160009054906101000a900460ff1660ff1660ff1681526020016001820160019054906101000a900460ff1660ff1660ff1681525050610e0b565b905090565b60006108a7610cec565b73ffffffffffffffffffffffffffffffffffffffff168273ffffffffffffffffffffffffffffffffffffffff16149050919050565b60608060038054600181600116156101000203166002900480601f0160208091040260200160405190810160405280929190818152602001828054600181600116156101000203166002900480156109755780601f1061094a57610100808354040283529160200191610975565b820191906000526020600020905b81548152906001019060200180831161095857829003601f168201915b5050505050915060048054600181600116156101000203166002900480601f016020809104026020016040519081016040528092919081815260200182805460018160011615610100020316600290048015610a125780601f106109e757610100808354040283529160200191610a12565b820191906000526020600020905b8154815290600101906020018083116109f557829003601f168201915b505050505090509091565b6000600260149054906101000a900460ff16905090565b33600560006101000a81548173ffffffffffffffffffffffffffffffffffffffff021916908373ffffffffffffffffffffffffffffffffffffffff1602179055506000303b905060008163ffffffff1614610ada576040517f08c379a000000000000000000000000000000000000000000000000000000000815260040180806020018281038252602a815260200180611629602a913960400191505060405180910390fd5b610ae384610f4e565b600073ffffffffffffffffffffffffffffffffffffffff168573ffffffffffffffffffffffffffffffffffffffff1614610b2957610b208561107a565b610b286111f8565b5b610b3283611322565b610b3b82610d55565b7fbddaaf7b282a81102d0a8d60ff92a6183f68ada98c4f4362a5a1c31798c8464185858585604051808573ffffffffffffffffffffffffffffffffffffffff1673ffffffffffffffffffffffffffffffffffffffff168152602001806020018060200180602001848103845287818151815260200191508051906020019080838360005b83811015610bda578082015181840152602081019050610bbf565b50505050905090810190601f168015610c075780820380516001836020036101000a031916815260200191505b50848103835286818151815260200191508051906020019080838360005b83811015610c40578082015181840152602081019050610c25565b50505050905090810190601f168015610c6d5780820380516001836020036101000a031916815260200191505b50848103825285818151815260200191508051906020019080838360005b83811015610ca6578082015181840152602081019050610c8b565b50505050905090810190601f168015610cd35780820380516001836020036101000a031916815260200191505b5097505050505050505060405180910390a15050505050565b6000600260009054906101000a900473ffffffffffffffffffffffffffffffffffffffff16905090565b6000610d206106a3565b73ffffffffffffffffffffffffffffffffffffffff168273ffffffffffffffffffffffffffffffffffffffff16149050919050565b8060049080519060200190610d6b929190611538565b507fec391f097a91107044327f7588bc67ac8b9daf871413fc181f768c437c66cda9816040518080602001828103825283818151815260200191508051906020019080838360005b83811015610dce578082015181840152602081019050610db3565b50505050905090810190601f168015610dfb5780820380516001836020036101000a031916815260200191505b509250505060405180910390a150565b60608060226040519080825280601f01601f191660200182016040528015610e425781602001600182028038833980820191505090505b509050826020015160f81b81600081518110610e5a57fe5b60200101907effffffffffffffffffffffffffffffffffffffffffffffffffffffffffffff1916908160001a905350826040015160f81b81600181518110610e9e57fe5b60200101907effffffffffffffffffffffffffffffffffffffffffffffffffffffffffffff1916908160001a90535060008090505b60208160ff161015610f445783600001518160ff1660208110610ef257fe5b1a60f81b826002830160ff1681518110610f0857fe5b60200101907effffffffffffffffffffffffffffffffffffffffffffffffffffffffffffff1916908160001a9053508080600101915050610ed3565b8192505050919050565b610f5781611447565b600080820151816000015560208201518160010160006101000a81548160ff021916908360ff16021790555060408201518160010160016101000a81548160ff021916908360ff1602179055509050507f7407ed1a5db68d1f1b75b603b6a31410f20a906472eac47876a4573a5fb43f923382604051808373ffffffffffffffffffffffffffffffffffffffff1673ffffffffffffffffffffffffffffffffffffffff16815260200180602001828103825283818151815260200191508051906020019080838360005b8381101561103c578082015181840152602081019050611021565b50505050905090810190601f1680156110695780820380516001836020036101000a031916815260200191505b50935050505060405180910390a150565b8073ffffffffffffffffffffffffffffffffffffffff16600260009054906101000a900473ffffffffffffffffffffffffffffffffffffffff1673ffffffffffffffffffffffffffffffffffffffff16141561113e576040517f08c379a00000000000000000000000000000000000000000000000000000000081526004018080602001828103825260188152602001807f63616e6e6f74207365742073616d65206f70657261746f72000000000000000081525060200191505060405180910390fd5b80600260006101000a81548173ffffffffffffffffffffffffffffffffffffffff021916908373ffffffffffffffffffffffffffffffffffffffff1602179055507f966c160e1c4dbc7df8d69af4ace01e9297c3cf016397b7914971f2fbfa32672d816111a9610a1d565b604051808373ffffffffffffffffffffffffffffffffffffffff1673ffffffffffffffffffffffffffffffffffffffff168152602001821515151581526020019250505060405180910390a150565b611200610a1d565b15611273576040517f08c379a000000000000000000000000000000000000000000000000000000000815260040180806020018281038252601d8152602001807f6f6e6c79207768656e206f70657261746f72206e6f742061637469766500000081525060200191505060405180910390fd5b6001600260146101000a81548160ff0219169083151502179055507f966c160e1c4dbc7df8d69af4ace01e9297c3cf016397b7914971f2fbfa32672d600260009054906101000a900473ffffffffffffffffffffffffffffffffffffffff166001604051808373ffffffffffffffffffffffffffffffffffffffff1673ffffffffffffffffffffffffffffffffffffffff168152602001821515151581526020019250505060405180910390a1565b6000600380546001816001161561010002031660029004905014611391576040517f08c379a00000000000000000000000000000000000000000000000000000000081526004018080602001828103825260218152602001806116086021913960400191505060405180910390fd5b80600390805190602001906113a7929190611538565b507fd2bb68a4c0cbd7fabc3f8e787a6e54384db17d54dedeede61c35819f5f49edca816040518080602001828103825283818151815260200191508051906020019080838360005b8381101561140a5780820151818401526020810190506113ef565b50505050905090810190601f1680156114375780820380516001836020036101000a031916815260200191505b509250505060405180910390a150565b61144f6115b8565b60228251146114c6576040517f08c379a000000000000000000000000000000000000000000000000000000000815260040180806020018281038252601b8152602001807f6c656e677468206f6620736f75726365206d757374206265203334000000000081525060200191505060405180910390fd5b6000826000815181106114d557fe5b602001015160f81c60f81b60f81c90506000836001815181106114f457fe5b602001015160f81c60f81b60f81c905060006022850151905060405180606001604052808281526020018460ff1681526020018360ff168152509350505050919050565b828054600181600116156101000203166002900490600052602060002090601f016020900481019282601f1061157957805160ff19168380011785556115a7565b828001600101855582156115a7579182015b828111156115a657825182559160200191906001019061158b565b5b5090506115b491906115e2565b5090565b604051806060016040528060008019168152602001600060ff168152602001600060ff1681525090565b61160491905b808211156116005760008160009055506001016115e8565b5090565b9056fe737461746963206d657461646174612063616e6e6f74206265206368616e6765646d7573742062652063616c6c65642077697468696e20636f6e747261637420636f6e7374727563746f72a165627a7a7230582094da76cabb6160f796a61bc27ba4289b02fd6dcf24dbd0f3a186eae0846d03dc0029",
  "source": "pragma solidity ^0.5.0;\n\nimport \"../modules/Factory.sol\";\nimport \"./Post.sol\";\n\n\ncontract Post_Factory is Factory {\n\n    constructor(address instanceRegistry) public {\n        // deploy template contract\n        address templateContract = address(new Post());\n        // set instance type\n        bytes4 instanceType = bytes4(keccak256(bytes('Post')));\n        // set initdataABI\n        string memory initdataABI = '(address,bytes,bytes,bytes)';\n        // initialize factory params\n        Factory._initialize(instanceRegistry, templateContract, instanceType, initdataABI);\n    }\n\n    event ExplicitInitData(address operator, bytes proofHash, bytes staticMetadata, bytes variableMetadata);\n\n    function create(bytes memory callData) public returns (address instance) {\n        // deploy instance\n        instance = Factory._create(callData);\n    }\n\n    function createEncoded(bytes memory initdata) public returns (address instance) {\n        // decode initdata\n        (\n            address operator,\n            bytes memory proofHash,\n            bytes memory staticMetadata,\n            bytes memory variableMetadata\n        ) = abi.decode(initdata, (address,bytes,bytes,bytes));\n\n        // call explicit create\n        instance = createExplicit(operator, proofHash, staticMetadata, variableMetadata);\n    }\n\n    function createExplicit(\n        address operator,\n        bytes memory proofHash,\n        bytes memory staticMetadata,\n        bytes memory variableMetadata\n    ) public returns (address instance) {\n        // declare template in memory\n        Post template;\n\n        // construct the data payload used when initializing the new contract.\n        bytes memory callData = abi.encodeWithSelector(\n            template.initialize.selector, // selector\n            operator,\n            proofHash,\n            staticMetadata,\n            variableMetadata\n        );\n\n        // deploy instance\n        instance = Factory._create(callData);\n\n        // emit event\n        emit ExplicitInitData(operator, proofHash, staticMetadata, variableMetadata);\n    }\n\n}\n"
}