{
  "contractName": "CountdownGriefingEscrow",
  "abi": [
    {
      "anonymous": false,
      "inputs": [],
      "name": "Cancelled",
      "type": "event"
    },
    {
      "anonymous": false,
      "inputs": [
        {
          "indexed": false,
          "internalType": "bytes",
          "name": "data",
          "type": "bytes"
        }
      ],
      "name": "DataSubmitted",
      "type": "event"
    },
    {
      "anonymous": false,
      "inputs": [
        {
          "indexed": false,
          "internalType": "uint256",
          "name": "deadline",
          "type": "uint256"
        }
      ],
      "name": "DeadlineSet",
      "type": "event"
    },
    {
      "anonymous": false,
      "inputs": [
        {
          "indexed": false,
          "internalType": "enum TokenManager.Tokens",
          "name": "tokenID",
          "type": "uint8"
        },
        {
          "indexed": false,
          "internalType": "address",
          "name": "user",
          "type": "address"
        },
        {
          "indexed": false,
          "internalType": "uint256",
          "name": "amount",
          "type": "uint256"
        },
        {
          "indexed": false,
          "internalType": "uint256",
          "name": "newDeposit",
          "type": "uint256"
        }
      ],
      "name": "DepositDecreased",
      "type": "event"
    },
    {
      "anonymous": false,
      "inputs": [
        {
          "indexed": false,
          "internalType": "enum TokenManager.Tokens",
          "name": "tokenID",
          "type": "uint8"
        },
        {
          "indexed": false,
          "internalType": "address",
          "name": "user",
          "type": "address"
        },
        {
          "indexed": false,
          "internalType": "uint256",
          "name": "amount",
          "type": "uint256"
        },
        {
          "indexed": false,
          "internalType": "uint256",
          "name": "newDeposit",
          "type": "uint256"
        }
      ],
      "name": "DepositIncreased",
      "type": "event"
    },
    {
      "anonymous": false,
      "inputs": [
        {
          "indexed": false,
          "internalType": "address",
          "name": "agreement",
          "type": "address"
        }
      ],
      "name": "Finalized",
      "type": "event"
    },
    {
      "anonymous": false,
      "inputs": [
        {
          "indexed": false,
          "internalType": "address",
          "name": "operator",
          "type": "address"
        },
        {
          "indexed": false,
          "internalType": "address",
          "name": "buyer",
          "type": "address"
        },
        {
          "indexed": false,
          "internalType": "address",
          "name": "seller",
          "type": "address"
        },
        {
          "indexed": false,
          "internalType": "enum TokenManager.Tokens",
          "name": "tokenID",
          "type": "uint8"
        },
        {
          "indexed": false,
          "internalType": "uint256",
          "name": "paymentAmount",
          "type": "uint256"
        },
        {
          "indexed": false,
          "internalType": "uint256",
          "name": "stakeAmount",
          "type": "uint256"
        },
        {
          "indexed": false,
          "internalType": "uint256",
          "name": "countdownLength",
          "type": "uint256"
        },
        {
          "indexed": false,
          "internalType": "bytes",
          "name": "metadata",
          "type": "bytes"
        },
        {
          "indexed": false,
          "internalType": "bytes",
          "name": "agreementParams",
          "type": "bytes"
        }
      ],
      "name": "Initialized",
      "type": "event"
    },
    {
      "anonymous": false,
      "inputs": [
        {
          "indexed": false,
          "internalType": "uint256",
          "name": "length",
          "type": "uint256"
        }
      ],
      "name": "LengthSet",
      "type": "event"
    },
    {
      "anonymous": false,
      "inputs": [
        {
          "indexed": false,
          "internalType": "bytes",
          "name": "metadata",
          "type": "bytes"
        }
      ],
      "name": "MetadataSet",
      "type": "event"
    },
    {
      "anonymous": false,
      "inputs": [
        {
          "indexed": false,
          "internalType": "address",
          "name": "operator",
          "type": "address"
        }
      ],
      "name": "OperatorUpdated",
      "type": "event"
    },
    {
      "anonymous": false,
      "inputs": [
        {
          "indexed": false,
          "internalType": "address",
          "name": "buyer",
          "type": "address"
        },
        {
          "indexed": false,
          "internalType": "uint256",
          "name": "amount",
          "type": "uint256"
        }
      ],
      "name": "PaymentDeposited",
      "type": "event"
    },
    {
      "anonymous": false,
      "inputs": [
        {
          "indexed": false,
          "internalType": "enum TokenManager.Tokens",
          "name": "tokenID",
          "type": "uint8"
        },
        {
          "indexed": false,
          "internalType": "address",
          "name": "staker",
          "type": "address"
        },
        {
          "indexed": false,
          "internalType": "uint256",
          "name": "amount",
          "type": "uint256"
        }
      ],
      "name": "StakeBurned",
      "type": "event"
    },
    {
      "anonymous": false,
      "inputs": [
        {
          "indexed": false,
          "internalType": "address",
          "name": "seller",
          "type": "address"
        },
        {
          "indexed": false,
          "internalType": "uint256",
          "name": "amount",
          "type": "uint256"
        }
      ],
      "name": "StakeDeposited",
      "type": "event"
    },
    {
      "constant": true,
      "inputs": [],
      "name": "getCountdownStatus",
      "outputs": [
        {
          "internalType": "enum Countdown.CountdownStatus",
          "name": "status",
          "type": "uint8"
        }
      ],
      "payable": false,
      "stateMutability": "view",
      "type": "function"
    },
    {
      "constant": true,
      "inputs": [],
      "name": "getCreator",
      "outputs": [
        {
          "internalType": "address",
          "name": "creator",
          "type": "address"
        }
      ],
      "payable": false,
      "stateMutability": "view",
      "type": "function"
    },
    {
      "constant": true,
      "inputs": [],
      "name": "getDeadline",
      "outputs": [
        {
          "internalType": "uint256",
          "name": "deadline",
          "type": "uint256"
        }
      ],
      "payable": false,
      "stateMutability": "view",
      "type": "function"
    },
    {
      "constant": true,
      "inputs": [],
      "name": "getDeadlineStatus",
      "outputs": [
        {
          "internalType": "enum Deadline.DeadlineStatus",
          "name": "status",
          "type": "uint8"
        }
      ],
      "payable": false,
      "stateMutability": "view",
      "type": "function"
    },
    {
      "constant": true,
      "inputs": [],
      "name": "getFactory",
      "outputs": [
        {
          "internalType": "address",
          "name": "factory",
          "type": "address"
        }
      ],
      "payable": false,
      "stateMutability": "view",
      "type": "function"
    },
    {
      "constant": true,
      "inputs": [],
      "name": "getLength",
      "outputs": [
        {
          "internalType": "uint256",
          "name": "length",
          "type": "uint256"
        }
      ],
      "payable": false,
      "stateMutability": "view",
      "type": "function"
    },
    {
      "constant": true,
      "inputs": [],
      "name": "getOperator",
      "outputs": [
        {
          "internalType": "address",
          "name": "operator",
          "type": "address"
        }
      ],
      "payable": false,
      "stateMutability": "view",
      "type": "function"
    },
    {
      "constant": true,
      "inputs": [],
      "name": "getTimeRemaining",
      "outputs": [
        {
          "internalType": "uint256",
          "name": "time",
          "type": "uint256"
        }
      ],
      "payable": false,
      "stateMutability": "view",
      "type": "function"
    },
    {
      "constant": true,
      "inputs": [
        {
          "internalType": "enum TokenManager.Tokens",
          "name": "tokenID",
          "type": "uint8"
        }
      ],
      "name": "getTokenAddress",
      "outputs": [
        {
          "internalType": "address",
          "name": "tokenAddress",
          "type": "address"
        }
      ],
      "payable": false,
      "stateMutability": "pure",
      "type": "function"
    },
    {
      "constant": false,
      "inputs": [
        {
          "internalType": "address",
          "name": "operator",
          "type": "address"
        },
        {
          "internalType": "address",
          "name": "buyer",
          "type": "address"
        },
        {
          "internalType": "address",
          "name": "seller",
          "type": "address"
        },
        {
          "internalType": "enum TokenManager.Tokens",
          "name": "tokenID",
          "type": "uint8"
        },
        {
          "internalType": "uint256",
          "name": "paymentAmount",
          "type": "uint256"
        },
        {
          "internalType": "uint256",
          "name": "stakeAmount",
          "type": "uint256"
        },
        {
          "internalType": "uint256",
          "name": "escrowCountdown",
          "type": "uint256"
        },
        {
          "internalType": "bytes",
          "name": "metadata",
          "type": "bytes"
        },
        {
          "internalType": "bytes",
          "name": "agreementParams",
          "type": "bytes"
        }
      ],
      "name": "initialize",
      "outputs": [],
      "payable": false,
      "stateMutability": "nonpayable",
      "type": "function"
    },
    {
      "constant": false,
      "inputs": [
        {
          "internalType": "bytes",
          "name": "metadata",
          "type": "bytes"
        }
      ],
      "name": "setMetadata",
      "outputs": [],
      "payable": false,
      "stateMutability": "nonpayable",
      "type": "function"
    },
    {
      "constant": false,
      "inputs": [
        {
          "internalType": "address",
          "name": "seller",
          "type": "address"
        }
      ],
      "name": "depositAndSetSeller",
      "outputs": [],
      "payable": false,
      "stateMutability": "nonpayable",
      "type": "function"
    },
    {
      "constant": false,
      "inputs": [],
      "name": "depositStake",
      "outputs": [],
      "payable": false,
      "stateMutability": "nonpayable",
      "type": "function"
    },
    {
      "constant": false,
      "inputs": [
        {
          "internalType": "address",
          "name": "buyer",
          "type": "address"
        }
      ],
      "name": "depositAndSetBuyer",
      "outputs": [],
      "payable": false,
      "stateMutability": "nonpayable",
      "type": "function"
    },
    {
      "constant": false,
      "inputs": [],
      "name": "depositPayment",
      "outputs": [],
      "payable": false,
      "stateMutability": "nonpayable",
      "type": "function"
    },
    {
      "constant": false,
      "inputs": [],
      "name": "finalize",
      "outputs": [],
      "payable": false,
      "stateMutability": "nonpayable",
      "type": "function"
    },
    {
      "constant": false,
      "inputs": [
        {
          "internalType": "bytes",
          "name": "data",
          "type": "bytes"
        }
      ],
      "name": "submitData",
      "outputs": [],
      "payable": false,
      "stateMutability": "nonpayable",
      "type": "function"
    },
    {
      "constant": false,
      "inputs": [],
      "name": "cancel",
      "outputs": [],
      "payable": false,
      "stateMutability": "nonpayable",
      "type": "function"
    },
    {
      "constant": false,
      "inputs": [],
      "name": "timeout",
      "outputs": [],
      "payable": false,
      "stateMutability": "nonpayable",
      "type": "function"
    },
    {
      "constant": false,
      "inputs": [
        {
          "internalType": "address",
          "name": "operator",
          "type": "address"
        }
      ],
      "name": "transferOperator",
      "outputs": [],
      "payable": false,
      "stateMutability": "nonpayable",
      "type": "function"
    },
    {
      "constant": false,
      "inputs": [],
      "name": "renounceOperator",
      "outputs": [],
      "payable": false,
      "stateMutability": "nonpayable",
      "type": "function"
    },
    {
      "constant": true,
      "inputs": [],
      "name": "getBuyer",
      "outputs": [
        {
          "internalType": "address",
          "name": "buyer",
          "type": "address"
        }
      ],
      "payable": false,
      "stateMutability": "view",
      "type": "function"
    },
    {
      "constant": true,
      "inputs": [],
      "name": "getSeller",
      "outputs": [
        {
          "internalType": "address",
          "name": "seller",
          "type": "address"
        }
      ],
      "payable": false,
      "stateMutability": "view",
      "type": "function"
    },
    {
      "constant": true,
      "inputs": [
        {
          "internalType": "address",
          "name": "user",
          "type": "address"
        }
      ],
      "name": "getDeposit",
      "outputs": [
        {
          "internalType": "uint256",
          "name": "amount",
          "type": "uint256"
        }
      ],
      "payable": false,
      "stateMutability": "view",
      "type": "function"
    },
    {
      "constant": true,
      "inputs": [],
      "name": "getData",
      "outputs": [
        {
          "internalType": "enum TokenManager.Tokens",
          "name": "tokenID",
          "type": "uint8"
        },
        {
          "internalType": "uint128",
          "name": "paymentAmount",
          "type": "uint128"
        },
        {
          "internalType": "uint128",
          "name": "stakeAmount",
          "type": "uint128"
        },
        {
          "internalType": "uint120",
          "name": "ratio",
          "type": "uint120"
        },
        {
          "internalType": "enum Griefing.RatioType",
          "name": "ratioType",
          "type": "uint8"
        },
        {
          "internalType": "uint128",
          "name": "countdownLength",
          "type": "uint128"
        }
      ],
      "payable": false,
      "stateMutability": "view",
      "type": "function"
    },
    {
      "constant": true,
      "inputs": [],
      "name": "getEscrowStatus",
      "outputs": [
        {
          "internalType": "enum CountdownGriefingEscrow.EscrowStatus",
          "name": "status",
          "type": "uint8"
        }
      ],
      "payable": false,
      "stateMutability": "view",
      "type": "function"
    }
  ],
  "bytecode": "0x608060405234801561001057600080fd5b50614968806100206000396000f3fe608060405234801561001057600080fd5b506004361061018e5760003560e01c80637fe07abf116100de578063dac6270d11610097578063e1254fba11610071578063e1254fba1461088c578063e7f43c68146108e4578063ea8a1af01461092e578063ee57e36f146109385761018e565b8063dac6270d146107f8578063dbd0e1b614610816578063de2229fe146108605761018e565b80637fe07abf146104a957806388cc58e4146104ed578063aa5e215314610537578063b7ac763f14610541578063be1c766b146105fc578063d53000041461061a5761018e565b80634bb278f31161014b578063603daf9a11610125578063603daf9a146103e55780636234216d1461042f578063665b0a191461045b57806370dea79a1461049f5761018e565b80634bb278f31461034c5780635ad3f918146103565780635f8d96de146103c75761018e565b80630d2d76a2146101935780630ee2cb101461019d57806319fbb48e146101e757806329605e77146102135780632ab6f8db146102575780633bc5de3014610261575b600080fd5b61019b6109f3565b005b6101a5610b50565b604051808273ffffffffffffffffffffffffffffffffffffffff1673ffffffffffffffffffffffffffffffffffffffff16815260200191505060405180910390f35b6101ef610c31565b604051808260038111156101ff57fe5b60ff16815260200191505060405180910390f35b6102556004803603602081101561022957600080fd5b81019080803573ffffffffffffffffffffffffffffffffffffffff169060200190929190505050610caa565b005b61025f610d31565b005b610269610db6565b6040518087600281111561027957fe5b60ff168152602001866fffffffffffffffffffffffffffffffff166fffffffffffffffffffffffffffffffff168152602001856fffffffffffffffffffffffffffffffff166fffffffffffffffffffffffffffffffff168152602001846effffffffffffffffffffffffffffff166effffffffffffffffffffffffffffff16815260200183600281111561030957fe5b60ff168152602001826fffffffffffffffffffffffffffffffff166fffffffffffffffffffffffffffffffff168152602001965050505050505060405180910390f35b610354610e89565b005b6103856004803603602081101561036c57600080fd5b81019080803560ff169060200190929190505050611a14565b604051808273ffffffffffffffffffffffffffffffffffffffff1673ffffffffffffffffffffffffffffffffffffffff16815260200191505060405180910390f35b6103cf611a7b565b6040518082815260200191505060405180910390f35b6103ed611a84565b604051808273ffffffffffffffffffffffffffffffffffffffff1673ffffffffffffffffffffffffffffffffffffffff16815260200191505060405180910390f35b610437611ab1565b6040518082600581111561044757fe5b60ff16815260200191505060405180910390f35b61049d6004803603602081101561047157600080fd5b81019080803573ffffffffffffffffffffffffffffffffffffffff169060200190929190505050611acb565b005b6104a7611be1565b005b6104eb600480360360208110156104bf57600080fd5b81019080803573ffffffffffffffffffffffffffffffffffffffff169060200190929190505050611d00565b005b6104f5611e16565b604051808273ffffffffffffffffffffffffffffffffffffffff1673ffffffffffffffffffffffffffffffffffffffff16815260200191505060405180910390f35b61053f611e40565b005b6105fa6004803603602081101561055757600080fd5b810190808035906020019064010000000081111561057457600080fd5b82018360208201111561058657600080fd5b803590602001918460018302840111640100000000831117156105a857600080fd5b91908080601f016020809104026020016040519081016040528093929190818152602001838380828437600081840152601f19601f820116905080830192505050505050509192919290505050611f9d565b005b610604612141565b6040518082815260200191505060405180910390f35b6107f6600480360361012081101561063157600080fd5b81019080803573ffffffffffffffffffffffffffffffffffffffff169060200190929190803573ffffffffffffffffffffffffffffffffffffffff169060200190929190803573ffffffffffffffffffffffffffffffffffffffff169060200190929190803560ff169060200190929190803590602001909291908035906020019092919080359060200190929190803590602001906401000000008111156106d957600080fd5b8201836020820111156106eb57600080fd5b8035906020019184600183028401116401000000008311171561070d57600080fd5b91908080601f016020809104026020016040519081016040528093929190818152602001838380828437600081840152601f19601f8201169050808301925050505050505091929192908035906020019064010000000081111561077057600080fd5b82018360208201111561078257600080fd5b803590602001918460018302840111640100000000831117156107a457600080fd5b91908080601f016020809104026020016040519081016040528093929190818152602001838380828437600081840152601f19601f82011690508083019250505050505050919291929050505061214b565b005b6108006129ab565b6040518082815260200191505060405180910390f35b61081e6129db565b604051808273ffffffffffffffffffffffffffffffffffffffff1673ffffffffffffffffffffffffffffffffffffffff16815260200191505060405180910390f35b610868612a08565b6040518082600281111561087857fe5b60ff16815260200191505060405180910390f35b6108ce600480360360208110156108a257600080fd5b81019080803573ffffffffffffffffffffffffffffffffffffffff169060200190929190505050612a38565b6040518082815260200191505060405180910390f35b6108ec612a5d565b604051808273ffffffffffffffffffffffffffffffffffffffff1673ffffffffffffffffffffffffffffffffffffffff16815260200191505060405180910390f35b610936612a87565b005b6109f16004803603602081101561094e57600080fd5b810190808035906020019064010000000081111561096b57600080fd5b82018360208201111561097d57600080fd5b8035906020019184600183028401116401000000008311171561099f57600080fd5b91908080601f016020809104026020016040519081016040528093929190818152602001838380828437600081840152601f19601f820116905080830192505050505050509192919290505050612ba7565b005b6109fc33612c2e565b80610a0c5750610a0b33612c6d565b5b610a7e576040517f08c379a00000000000000000000000000000000000000000000000000000000081526004018080602001828103825260178152602001807f6f6e6c792073656c6c6572206f72206f70657261746f7200000000000000000081525060200191505060405180910390fd5b600073ffffffffffffffffffffffffffffffffffffffff16600560010160009054906101000a900473ffffffffffffffffffffffffffffffffffffffff1673ffffffffffffffffffffffffffffffffffffffff161415610b46576040517f08c379a00000000000000000000000000000000000000000000000000000000081526004018080602001828103825260128152602001807f73656c6c6572206e6f742079657420736574000000000000000000000000000081525060200191505060405180910390fd5b610b4e612cc7565b565b6000600460009054906101000a900473ffffffffffffffffffffffffffffffffffffffff1673ffffffffffffffffffffffffffffffffffffffff16636bf71982306040518263ffffffff1660e01b8152600401808273ffffffffffffffffffffffffffffffffffffffff1673ffffffffffffffffffffffffffffffffffffffff16815260200191505060206040518083038186803b158015610bf157600080fd5b505afa158015610c05573d6000803e3d6000fd5b505050506040513d6020811015610c1b57600080fd5b8101908080519060200190929190505050905090565b6000806001541415610c465760009050610ca7565b60006002811115610c5357fe5b610c5b612a08565b6002811115610c6657fe5b1415610c755760019050610ca7565b600280811115610c8157fe5b610c89612a08565b6002811115610c9457fe5b14610ca25760029050610ca7565b600390505b90565b610cb333612c6d565b610d25576040517f08c379a000000000000000000000000000000000000000000000000000000000815260040180806020018281038252600d8152602001807f6f6e6c79206f70657261746f720000000000000000000000000000000000000081525060200191505060405180910390fd5b610d2e81612eb2565b50565b610d3a33612c6d565b610dac576040517f08c379a000000000000000000000000000000000000000000000000000000000815260040180806020018281038252600d8152602001807f6f6e6c79206f70657261746f720000000000000000000000000000000000000081525060200191505060405180910390fd5b610db46130c1565b565b600080600080600080600560010160149054906101000a900460ff16600560020160009054906101000a90046fffffffffffffffffffffffffffffffff16600560020160109054906101000a90046fffffffffffffffffffffffffffffffff16600560040160000160009054906101000a90046effffffffffffffffffffffffffffff166005600401600001600f9054906101000a900460ff16600560040160000160109054906101000a90046fffffffffffffffffffffffffffffffff16955095509550955095509550909192939495565b610e9233612c2e565b80610ea25750610ea133612c6d565b5b610f14576040517f08c379a00000000000000000000000000000000000000000000000000000000081526004018080602001828103825260178152602001807f6f6e6c792073656c6c6572206f72206f70657261746f7200000000000000000081525060200191505060405180910390fd5b610f1c61322e565b610f8e576040517f08c379a00000000000000000000000000000000000000000000000000000000081526004018080602001828103825260128152602001807f6f6e6c79206166746572206465706f736974000000000000000000000000000081525060200191505060405180910390fd5b600080610f99611e16565b905060008173ffffffffffffffffffffffffffffffffffffffff1663a5e139046040518163ffffffff1660e01b815260040160206040518083038186803b158015610fe357600080fd5b505afa158015610ff7573d6000803e3d6000fd5b505050506040513d602081101561100d57600080fd5b8101908080519060200190929190505050905060008173ffffffffffffffffffffffffffffffffffffffff166345bdfb1e846040518263ffffffff1660e01b8152600401808273ffffffffffffffffffffffffffffffffffffffff1673ffffffffffffffffffffffffffffffffffffffff16815260200191505060006040518083038186803b15801561109f57600080fd5b505afa1580156110b3573d6000803e3d6000fd5b505050506040513d6000823e3d601f19601f8201168201806040525060208110156110dd57600080fd5b81019080805160405193929190846401000000008211156110fd57600080fd5b8382019150602082018581111561111357600080fd5b825186600182028301116401000000008211171561113057600080fd5b8083526020830192505050908051906020019080838360005b83811015611164578082015181840152602081019050611149565b50505050905090810190601f1680156111915780820380516001836020036101000a031916815260200191505b5060405250505080602001905160208110156111ac57600080fd5b8101908080519060200190929190505050905060608173ffffffffffffffffffffffffffffffffffffffff166354ed633b6040518163ffffffff1660e01b815260040160206040518083038186803b15801561120757600080fd5b505afa15801561121b573d6000803e3d6000fd5b505050506040513d602081101561123157600080fd5b810190808051906020019092919050505030600560010160009054906101000a900473ffffffffffffffffffffffffffffffffffffffff16600560000160009054906101000a900473ffffffffffffffffffffffffffffffffffffffff16600560010160149054906101000a900460ff16600560040160000160009054906101000a90046effffffffffffffffffffffffffffff166effffffffffffffffffffffffffffff166005600401600001600f9054906101000a900460ff16600560040160000160109054906101000a90046fffffffffffffffffffffffffffffffff166fffffffffffffffffffffffffffffffff1660405180602001604052806000815250604051602401808973ffffffffffffffffffffffffffffffffffffffff1673ffffffffffffffffffffffffffffffffffffffff1681526020018873ffffffffffffffffffffffffffffffffffffffff1673ffffffffffffffffffffffffffffffffffffffff1681526020018773ffffffffffffffffffffffffffffffffffffffff1673ffffffffffffffffffffffffffffffffffffffff1681526020018660028111156113dd57fe5b60ff1681526020018581526020018460028111156113f757fe5b60ff16815260200183815260200180602001828103825283818151815260200191508051906020019080838360005b83811015611441578082015181840152602081019050611426565b50505050905090810190601f16801561146e5780820380516001836020036101000a031916815260200191505b509950505050505050505050604051602081830303815290604052907bffffffffffffffffffffffffffffffffffffffffffffffffffffffff19166020820180517bffffffffffffffffffffffffffffffffffffffffffffffffffffffff838183161783525050505090508173ffffffffffffffffffffffffffffffffffffffff1663cf5ba53f826040518263ffffffff1660e01b81526004018080602001828103825283818151815260200191508051906020019080838360005b8381101561154557808201518184015260208101905061152a565b50505050905090810190601f1680156115725780820380516001836020036101000a031916815260200191505b5092505050602060405180830381600087803b15801561159157600080fd5b505af11580156115a5573d6000803e3d6000fd5b505050506040513d60208110156115bb57600080fd5b8101908080519060200190929190505050945050505050600080611616600560010160149054906101000a900460ff16600560000160009054906101000a900473ffffffffffffffffffffffffffffffffffffffff16613256565b9050600061165b600560010160149054906101000a900460ff16600560010160009054906101000a900473ffffffffffffffffffffffffffffffffffffffff16613256565b905061167081836132cd90919063ffffffff16565b9250505060008111156117065761169a600560010160149054906101000a900460ff168383613355565b8173ffffffffffffffffffffffffffffffffffffffff1663eedad66b826040518263ffffffff1660e01b815260040180828152602001915050600060405180830381600087803b1580156116ed57600080fd5b505af1158015611701573d6000803e3d6000fd5b505050505b8173ffffffffffffffffffffffffffffffffffffffff16635e5365c16040518163ffffffff1660e01b8152600401602060405180830381600087803b15801561174e57600080fd5b505af1158015611762573d6000803e3d6000fd5b505050506040513d602081101561177857600080fd5b8101908080519060200190929190505050506000611794612a5d565b9050600073ffffffffffffffffffffffffffffffffffffffff168173ffffffffffffffffffffffffffffffffffffffff1614611866578273ffffffffffffffffffffffffffffffffffffffff166329605e77826040518263ffffffff1660e01b8152600401808273ffffffffffffffffffffffffffffffffffffffff1673ffffffffffffffffffffffffffffffffffffffff168152602001915050600060405180830381600087803b15801561184957600080fd5b505af115801561185d573d6000803e3d6000fd5b505050506118c7565b8273ffffffffffffffffffffffffffffffffffffffff16632ab6f8db6040518163ffffffff1660e01b8152600401600060405180830381600087803b1580156118ae57600080fd5b505af11580156118c2573d6000803e3d6000fd5b505050505b6004600560030160006101000a81548160ff021916908360058111156118e957fe5b0217905550600560010160146101000a81549060ff0219169055600560020160006101000a8154906fffffffffffffffffffffffffffffffff0219169055600560020160106101000a8154906fffffffffffffffffffffffffffffffff02191690556005600401600080820160006101000a8154906effffffffffffffffffffffffffffff021916905560008201600f6101000a81549060ff02191690556000820160106101000a8154906fffffffffffffffffffffffffffffffff021916905550507f8e500951de09bcc6854e88c0810bafb819503505895751e657a92df6578d3d9983604051808273ffffffffffffffffffffffffffffffffffffffff1673ffffffffffffffffffffffffffffffffffffffff16815260200191505060405180910390a1505050565b6000600280811115611a2257fe5b826002811115611a2e57fe5b1415611a4357611a3c613790565b9050611a76565b60016002811115611a5057fe5b826002811115611a5c57fe5b1415611a7157611a6a6137ac565b9050611a76565b600090505b919050565b60008054905090565b6000600560000160009054906101000a900473ffffffffffffffffffffffffffffffffffffffff16905090565b6000600560030160009054906101000a900460ff16905090565b600073ffffffffffffffffffffffffffffffffffffffff16600560010160009054906101000a900473ffffffffffffffffffffffffffffffffffffffff1673ffffffffffffffffffffffffffffffffffffffff1614611b92576040517f08c379a00000000000000000000000000000000000000000000000000000000081526004018080602001828103825260128152602001807f73656c6c657220616c726561647920736574000000000000000000000000000081525060200191505060405180910390fd5b80600560010160006101000a81548173ffffffffffffffffffffffffffffffffffffffff021916908373ffffffffffffffffffffffffffffffffffffffff160217905550611bde612cc7565b50565b611bea336137c8565b80611bfa5750611bf933612c6d565b5b611c6c576040517f08c379a00000000000000000000000000000000000000000000000000000000081526004018080602001828103825260168152602001807f6f6e6c79206275796572206f72206f70657261746f720000000000000000000081525060200191505060405180910390fd5b611c7461322e565b8015611c845750611c83613807565b5b611cf6576040517f08c379a000000000000000000000000000000000000000000000000000000000815260040180806020018281038252601a8152602001807f6f6e6c7920616674657220636f756e74646f776e20656e64656400000000000081525060200191505060405180910390fd5b611cfe61382e565b565b600073ffffffffffffffffffffffffffffffffffffffff16600560000160009054906101000a900473ffffffffffffffffffffffffffffffffffffffff1673ffffffffffffffffffffffffffffffffffffffff1614611dc7576040517f08c379a00000000000000000000000000000000000000000000000000000000081526004018080602001828103825260118152602001807f627579657220616c72656164792073657400000000000000000000000000000081525060200191505060405180910390fd5b80600560000160006101000a81548173ffffffffffffffffffffffffffffffffffffffff021916908373ffffffffffffffffffffffffffffffffffffffff160217905550611e136139ea565b50565b6000600460009054906101000a900473ffffffffffffffffffffffffffffffffffffffff16905090565b611e49336137c8565b80611e595750611e5833612c6d565b5b611ecb576040517f08c379a00000000000000000000000000000000000000000000000000000000081526004018080602001828103825260168152602001807f6f6e6c79206275796572206f72206f70657261746f720000000000000000000081525060200191505060405180910390fd5b600073ffffffffffffffffffffffffffffffffffffffff16600560000160009054906101000a900473ffffffffffffffffffffffffffffffffffffffff1673ffffffffffffffffffffffffffffffffffffffff161415611f93576040517f08c379a00000000000000000000000000000000000000000000000000000000081526004018080602001828103825260118152602001807f6275796572206e6f74207965742073657400000000000000000000000000000081525060200191505060405180910390fd5b611f9b6139ea565b565b611fa633612c2e565b80611fb65750611fb533612c6d565b5b612028576040517f08c379a00000000000000000000000000000000000000000000000000000000081526004018080602001828103825260178152602001807f6f6e6c792073656c6c6572206f72206f70657261746f7200000000000000000081525060200191505060405180910390fd5b612030613bd6565b6120a2576040517f08c379a00000000000000000000000000000000000000000000000000000000081526004018080602001828103825260148152602001807f6f6e6c792061667465722066696e616c697a656400000000000000000000000081525060200191505060405180910390fd5b7ffdf4f8571e6f770be30bc9e95e66f21bc368a871788c0b61c32628b1a8af1157816040518080602001828103825283818151815260200191508051906020019080838360005b838110156121045780820151818401526020810190506120e9565b50505050905090810190601f1680156121315780820380516001836020036101000a031916815260200191505b509250505060405180910390a150565b6000600154905090565b33600460006101000a81548173ffffffffffffffffffffffffffffffffffffffff021916908373ffffffffffffffffffffffffffffffffffffffff1602179055506000303b905060008163ffffffff16146121f1576040517f08c379a000000000000000000000000000000000000000000000000000000000815260040180806020018281038252602a8152602001806148e8602a913960400191505060405180910390fd5b600073ffffffffffffffffffffffffffffffffffffffff168973ffffffffffffffffffffffffffffffffffffffff161461226a5788600560000160006101000a81548173ffffffffffffffffffffffffffffffffffffffff021916908373ffffffffffffffffffffffffffffffffffffffff1602179055505b600073ffffffffffffffffffffffffffffffffffffffff168873ffffffffffffffffffffffffffffffffffffffff16146122e35787600560010160006101000a81548173ffffffffffffffffffffffffffffffffffffffff021916908373ffffffffffffffffffffffffffffffffffffffff1602179055505b600073ffffffffffffffffffffffffffffffffffffffff168a73ffffffffffffffffffffffffffffffffffffffff1614612321576123208a613bfe565b5b61232a87613e0c565b61239c576040517f08c379a000000000000000000000000000000000000000000000000000000000815260040180806020018281038252600d8152602001807f696e76616c696420746f6b656e0000000000000000000000000000000000000081525060200191505060405180910390fd5b86600560010160146101000a81548160ff021916908360028111156123bd57fe5b02179055506000861461248f57856fffffffffffffffffffffffffffffffff16861115612452576040517f08c379a000000000000000000000000000000000000000000000000000000000815260040180806020018281038252601a8152602001807f7061796d656e74416d6f756e7420697320746f6f206c6172676500000000000081525060200191505060405180910390fd5b85600560020160006101000a8154816fffffffffffffffffffffffffffffffff02191690836fffffffffffffffffffffffffffffffff1602179055505b6000851461255b57846fffffffffffffffffffffffffffffffff16851461251e576040517f08c379a00000000000000000000000000000000000000000000000000000000081526004018080602001828103825260188152602001807f7374616b65416d6f756e7420697320746f6f206c61726765000000000000000081525060200191505060405180910390fd5b84600560020160106101000a8154816fffffffffffffffffffffffffffffffff02191690836fffffffffffffffffffffffffffffffff1602179055505b61256484613e4f565b60008351146125775761257683613e90565b5b60008251146127cc57600080600084806020019051606081101561259a57600080fd5b81019080805190602001909291908051906020019092919080519060200190929190505050925092509250826effffffffffffffffffffffffffffff16831461264b576040517f08c379a00000000000000000000000000000000000000000000000000000000081526004018080602001828103825260138152602001807f726174696f206f7574206f6620626f756e64730000000000000000000000000081525060200191505060405180910390fd5b806fffffffffffffffffffffffffffffffff1681146126d2576040517f08c379a00000000000000000000000000000000000000000000000000000000081526004018080602001828103825260208152602001807f61677265656d656e74436f756e74646f776e206f7574206f6620626f756e647381525060200191505060405180910390fd5b6040518060600160405280846effffffffffffffffffffffffffffff16815260200183600281111561270057fe5b8152602001826fffffffffffffffffffffffffffffffff16815250600560040160008201518160000160006101000a8154816effffffffffffffffffffffffffffff02191690836effffffffffffffffffffffffffffff160217905550602082015181600001600f6101000a81548160ff0219169083600281111561278157fe5b021790555060408201518160000160106101000a8154816fffffffffffffffffffffffffffffffff02191690836fffffffffffffffffffffffffffffffff1602179055509050505050505b7f99880b4349a7b82fe6896e4e8328b90e92d300c30e31cbe61acddf287c77fdb48a8a8a8a8a8a8a8a8a604051808a73ffffffffffffffffffffffffffffffffffffffff1673ffffffffffffffffffffffffffffffffffffffff1681526020018973ffffffffffffffffffffffffffffffffffffffff1673ffffffffffffffffffffffffffffffffffffffff1681526020018873ffffffffffffffffffffffffffffffffffffffff1673ffffffffffffffffffffffffffffffffffffffff16815260200187600281111561289c57fe5b60ff1681526020018681526020018581526020018481526020018060200180602001838103835285818151815260200191508051906020019080838360005b838110156128f65780820151818401526020810190506128db565b50505050905090810190601f1680156129235780820380516001836020036101000a031916815260200191505b50838103825284818151815260200191508051906020019080838360005b8381101561295c578082015181840152602081019050612941565b50505050905090810190601f1680156129895780820380516001836020036101000a031916815260200191505b509b50505050505050505050505060405180910390a150505050505050505050565b60004260005411156129d3576129cc42600054613f2f90919063ffffffff16565b90506129d8565b600090505b90565b6000600560010160009054906101000a900473ffffffffffffffffffffffffffffffffffffffff16905090565b6000806000541415612a1d5760009050612a35565b426000541115612a305760019050612a35565b600290505b90565b6000612a56600560010160149054906101000a900460ff1683613f79565b9050919050565b6000600360009054906101000a900473ffffffffffffffffffffffffffffffffffffffff16905090565b612a9033612c2e565b80612aa05750612a9f336137c8565b5b80612ab05750612aaf33612c6d565b5b612b22576040517f08c379a00000000000000000000000000000000000000000000000000000000081526004018080602001828103825260208152602001807f6f6e6c792073656c6c6572206f72206275796572206f72206f70657261746f7281525060200191505060405180910390fd5b612b2a613fdf565b80612b395750612b38614006565b5b80612b485750612b4761402e565b5b612b9d576040517f08c379a00000000000000000000000000000000000000000000000000000000081526004018080602001828103825260228152602001806149126022913960400191505060405180910390fd5b612ba561382e565b565b612bb033612c6d565b612c22576040517f08c379a000000000000000000000000000000000000000000000000000000000815260040180806020018281038252600d8152602001807f6f6e6c79206f70657261746f720000000000000000000000000000000000000081525060200191505060405180910390fd5b612c2b81613e90565b50565b6000612c386129db565b73ffffffffffffffffffffffffffffffffffffffff168273ffffffffffffffffffffffffffffffffffffffff16149050919050565b6000600360009054906101000a900473ffffffffffffffffffffffffffffffffffffffff1673ffffffffffffffffffffffffffffffffffffffff168273ffffffffffffffffffffffffffffffffffffffff16149050919050565b612ccf613fdf565b80612cde5750612cdd61402e565b5b612d50576040517f08c379a000000000000000000000000000000000000000000000000000000000815260040180806020018281038252601b8152602001807f63616e206f6e6c79206465706f736974207374616b65206f6e6365000000000081525060200191505060405180910390fd5b6000600560010160009054906101000a900473ffffffffffffffffffffffffffffffffffffffff1690506000600560020160109054906101000a90046fffffffffffffffffffffffffffffffff166fffffffffffffffffffffffffffffffff16905060008114612dda57612dd8600560010160149054906101000a900460ff16833384614056565b505b7f0a7bb2e28cc4698aac06db79cf9163bfcc20719286cf59fa7d492ceda1b8edc28282604051808373ffffffffffffffffffffffffffffffffffffffff1673ffffffffffffffffffffffffffffffffffffffff1681526020018281526020019250505060405180910390a1612e4d61402e565b15612e86576003600560030160006101000a81548160ff02191690836005811115612e7457fe5b0217905550612e81610e89565b612eae565b6001600560030160006101000a81548160ff02191690836005811115612ea857fe5b02179055505b5050565b600073ffffffffffffffffffffffffffffffffffffffff16600360009054906101000a900473ffffffffffffffffffffffffffffffffffffffff1673ffffffffffffffffffffffffffffffffffffffff161415612f77576040517f08c379a00000000000000000000000000000000000000000000000000000000081526004018080602001828103825260168152602001807f6f6e6c79207768656e206f70657261746f72207365740000000000000000000081525060200191505060405180910390fd5b600073ffffffffffffffffffffffffffffffffffffffff168173ffffffffffffffffffffffffffffffffffffffff16141561301a576040517f08c379a00000000000000000000000000000000000000000000000000000000081526004018080602001828103825260208152602001807f63616e6e6f7420736574206f70657261746f7220746f2061646472657373203081525060200191505060405180910390fd5b80600360006101000a81548173ffffffffffffffffffffffffffffffffffffffff021916908373ffffffffffffffffffffffffffffffffffffffff1602179055507fb3b3f5f64ab192e4b5fefde1f51ce9733bbdcf831951543b325aebd49cc27ec481604051808273ffffffffffffffffffffffffffffffffffffffff1673ffffffffffffffffffffffffffffffffffffffff16815260200191505060405180910390a150565b600073ffffffffffffffffffffffffffffffffffffffff16600360009054906101000a900473ffffffffffffffffffffffffffffffffffffffff1673ffffffffffffffffffffffffffffffffffffffff161415613186576040517f08c379a00000000000000000000000000000000000000000000000000000000081526004018080602001828103825260168152602001807f6f6e6c79207768656e206f70657261746f72207365740000000000000000000081525060200191505060405180910390fd5b6000600360006101000a81548173ffffffffffffffffffffffffffffffffffffffff021916908373ffffffffffffffffffffffffffffffffffffffff1602179055507fb3b3f5f64ab192e4b5fefde1f51ce9733bbdcf831951543b325aebd49cc27ec46000604051808273ffffffffffffffffffffffffffffffffffffffff1673ffffffffffffffffffffffffffffffffffffffff16815260200191505060405180910390a1565b60006003600581111561323d57fe5b613245611ab1565b600581111561325057fe5b14905090565b6000806002600085600281111561326957fe5b815260200190815260200160002060008473ffffffffffffffffffffffffffffffffffffffff1673ffffffffffffffffffffffffffffffffffffffff1681526020019081526020016000205490506132c284848361407c565b508091505092915050565b60008082840190508381101561334b576040517f08c379a000000000000000000000000000000000000000000000000000000000815260040180806020018281038252601b8152602001807f536166654d6174683a206164646974696f6e206f766572666c6f77000000000081525060200191505060405180910390fd5b8091505092915050565b8261335f81613e0c565b6133d1576040517f08c379a000000000000000000000000000000000000000000000000000000000815260040180806020018281038252600f8152602001807f696e76616c696420746f6b656e4944000000000000000000000000000000000081525060200191505060405180910390fd5b6002808111156133dd57fe5b8460028111156133e957fe5b141561352f576133f7613790565b73ffffffffffffffffffffffffffffffffffffffff1663095ea7b384846040518363ffffffff1660e01b8152600401808373ffffffffffffffffffffffffffffffffffffffff1673ffffffffffffffffffffffffffffffffffffffff16815260200182815260200192505050602060405180830381600087803b15801561347d57600080fd5b505af1158015613491573d6000803e3d6000fd5b505050506040513d60208110156134a757600080fd5b810190808051906020019092919050505061352a576040517f08c379a00000000000000000000000000000000000000000000000000000000081526004018080602001828103825260158152602001807f746f6b656e20617070726f76616c206661696c6564000000000000000000000081525060200191505060405180910390fd5b61378a565b6001600281111561353c57fe5b84600281111561354857fe5b14156137895760006135586137ac565b905060008173ffffffffffffffffffffffffffffffffffffffff1663dd62ed3e33876040518363ffffffff1660e01b8152600401808373ffffffffffffffffffffffffffffffffffffffff1673ffffffffffffffffffffffffffffffffffffffff1681526020018273ffffffffffffffffffffffffffffffffffffffff1673ffffffffffffffffffffffffffffffffffffffff1681526020019250505060206040518083038186803b15801561360d57600080fd5b505afa158015613621573d6000803e3d6000fd5b505050506040513d602081101561363757600080fd5b810190808051906020019092919050505090508173ffffffffffffffffffffffffffffffffffffffff16639281cd658683876040518463ffffffff1660e01b8152600401808473ffffffffffffffffffffffffffffffffffffffff1673ffffffffffffffffffffffffffffffffffffffff1681526020018381526020018281526020019350505050602060405180830381600087803b1580156136d957600080fd5b505af11580156136ed573d6000803e3d6000fd5b505050506040513d602081101561370357600080fd5b8101908080519060200190929190505050613786576040517f08c379a00000000000000000000000000000000000000000000000000000000081526004018080602001828103825260158152602001807f746f6b656e20617070726f76616c206661696c6564000000000000000000000081525060200191505060405180910390fd5b50505b5b50505050565b6000736b175474e89094c44da98b954eedeac495271d0f905090565b6000731776e1f26f98b1a5df9cd347953a26dd3cb46671905090565b60006137d2611a84565b73ffffffffffffffffffffffffffffffffffffffff168273ffffffffffffffffffffffffffffffffffffffff16149050919050565b600060038081111561381557fe5b61381d610c31565b600381111561382857fe5b14905090565b6000600560010160009054906101000a900473ffffffffffffffffffffffffffffffffffffffff1690506000600560000160009054906101000a900473ffffffffffffffffffffffffffffffffffffffff1690506000600560010160149054906101000a900460ff16905060006138a58285613f79565b146138b7576138b581848561425c565b505b60006138c38284613f79565b146138d5576138d381838461425c565b505b60058060030160006101000a81548160ff021916908360058111156138f657fe5b0217905550600560010160146101000a81549060ff0219169055600560020160006101000a8154906fffffffffffffffffffffffffffffffff0219169055600560020160106101000a8154906fffffffffffffffffffffffffffffffff02191690556005600401600080820160006101000a8154906effffffffffffffffffffffffffffff021916905560008201600f6101000a81549060ff02191690556000820160106101000a8154906fffffffffffffffffffffffffffffffff021916905550507f63b958841f79ab97cb5456da181454b9932c0e15a3b17f1cbd27e2a8bc61043760405160405180910390a1505050565b6139f2613fdf565b80613a015750613a00614006565b5b613a73576040517f08c379a000000000000000000000000000000000000000000000000000000000815260040180806020018281038252601d8152602001807f63616e206f6e6c79206465706f736974207061796d656e74206f6e636500000081525060200191505060405180910390fd5b6000600560000160009054906101000a900473ffffffffffffffffffffffffffffffffffffffff1690506000600560020160009054906101000a90046fffffffffffffffffffffffffffffffff166fffffffffffffffffffffffffffffffff16905060008114613afd57613afb600560010160149054906101000a900460ff16833384614056565b505b7fd348a8f42fae8db1d0030271b37ed6d94a5e292ff36db57b244ffe13f494dd458282604051808373ffffffffffffffffffffffffffffffffffffffff1673ffffffffffffffffffffffffffffffffffffffff1681526020018281526020019250505060405180910390a1613b70614006565b15613baa576003600560030160006101000a81548160ff02191690836005811115613b9757fe5b0217905550613ba4614283565b50613bd2565b6002600560030160006101000a81548160ff02191690836005811115613bcc57fe5b02179055505b5050565b600060046005811115613be557fe5b613bed611ab1565b6005811115613bf857fe5b14905090565b600073ffffffffffffffffffffffffffffffffffffffff16600360009054906101000a900473ffffffffffffffffffffffffffffffffffffffff1673ffffffffffffffffffffffffffffffffffffffff1614613cc2576040517f08c379a00000000000000000000000000000000000000000000000000000000081526004018080602001828103825260148152602001807f6f70657261746f7220616c72656164792073657400000000000000000000000081525060200191505060405180910390fd5b600073ffffffffffffffffffffffffffffffffffffffff168173ffffffffffffffffffffffffffffffffffffffff161415613d65576040517f08c379a00000000000000000000000000000000000000000000000000000000081526004018080602001828103825260208152602001807f63616e6e6f7420736574206f70657261746f7220746f2061646472657373203081525060200191505060405180910390fd5b80600360006101000a81548173ffffffffffffffffffffffffffffffffffffffff021916908373ffffffffffffffffffffffffffffffffffffffff1602179055507fb3b3f5f64ab192e4b5fefde1f51ce9733bbdcf831951543b325aebd49cc27ec481604051808273ffffffffffffffffffffffffffffffffffffffff1673ffffffffffffffffffffffffffffffffffffffff16815260200191505060405180910390a150565b600060016002811115613e1b57fe5b826002811115613e2757fe5b1480613e485750600280811115613e3a57fe5b826002811115613e4657fe5b145b9050919050565b806001819055507f7caceb1091bbaa84d09ab116a1fd72387eaab8a33d70fc39168b9b75686ee32c816040518082815260200191505060405180910390a150565b7fbb39ebb37e60fb5d606ffdb749d2336e56b88e6c88c4bd6513b308f643186eed816040518080602001828103825283818151815260200191508051906020019080838360005b83811015613ef2578082015181840152602081019050613ed7565b50505050905090810190601f168015613f1f5780820380516001836020036101000a031916815260200191505b509250505060405180910390a150565b6000613f7183836040518060400160405280601e81526020017f536166654d6174683a207375627472616374696f6e206f766572666c6f7700008152506142ab565b905092915050565b600060026000846002811115613f8b57fe5b815260200190815260200160002060008373ffffffffffffffffffffffffffffffffffffffff1673ffffffffffffffffffffffffffffffffffffffff16815260200190815260200160002054905092915050565b6000806005811115613fed57fe5b613ff5611ab1565b600581111561400057fe5b14905090565b60006001600581111561401557fe5b61401d611ab1565b600581111561402857fe5b14905090565b60006002600581111561403d57fe5b614045611ab1565b600581111561405057fe5b14905090565b600061406385858461436b565b9050614071858430856144d0565b809050949350505050565b6000806002600086600281111561408f57fe5b815260200190815260200160002060008573ffffffffffffffffffffffffffffffffffffffff1673ffffffffffffffffffffffffffffffffffffffff16815260200190815260200160002054905082811015614153576040517f08c379a000000000000000000000000000000000000000000000000000000000815260040180806020018281038252601e8152602001807f696e73756666696369656e74206465706f73697420746f2072656d6f7665000081525060200191505060405180910390fd5b6141668382613f2f90919063ffffffff16565b9150816002600087600281111561417957fe5b815260200190815260200160002060008673ffffffffffffffffffffffffffffffffffffffff1673ffffffffffffffffffffffffffffffffffffffff168152602001908152602001600020819055507f9060f8ffc7acd8270abf2337023e6377669ca44d5b2a23f3513a29380940f35785858585604051808560028111156141fd57fe5b60ff1681526020018473ffffffffffffffffffffffffffffffffffffffff1673ffffffffffffffffffffffffffffffffffffffff16815260200183815260200182815260200194505050505060405180910390a1819150509392505050565b6000806142698585613f79565b9050614277858585846146c3565b50809150509392505050565b600061429a426001546132cd90919063ffffffff16565b90506142a5816146e8565b80905090565b6000838311158290614358576040517f08c379a00000000000000000000000000000000000000000000000000000000081526004018080602001828103825283818151815260200191508051906020019080838360005b8381101561431d578082015181840152602081019050614302565b50505050905090810190601f16801561434a5780820380516001836020036101000a031916815260200191505b509250505060405180910390fd5b5060008385039050809150509392505050565b60006143db826002600087600281111561438157fe5b815260200190815260200160002060008673ffffffffffffffffffffffffffffffffffffffff1673ffffffffffffffffffffffffffffffffffffffff168152602001908152602001600020546132cd90919063ffffffff16565b905080600260008660028111156143ee57fe5b815260200190815260200160002060008573ffffffffffffffffffffffffffffffffffffffff1673ffffffffffffffffffffffffffffffffffffffff168152602001908152602001600020819055507ffe2caf3897ec3e02a1d458d232d7c62c17809d25dbfe65864ce842162d6c217c848484846040518085600281111561447257fe5b60ff1681526020018473ffffffffffffffffffffffffffffffffffffffff1673ffffffffffffffffffffffffffffffffffffffff16815260200183815260200182815260200194505050505060405180910390a18090509392505050565b836144da81613e0c565b61454c576040517f08c379a000000000000000000000000000000000000000000000000000000000815260040180806020018281038252600f8152602001807f696e76616c696420746f6b656e4944000000000000000000000000000000000081525060200191505060405180910390fd5b61455585611a14565b73ffffffffffffffffffffffffffffffffffffffff166323b872dd8585856040518463ffffffff1660e01b8152600401808473ffffffffffffffffffffffffffffffffffffffff1673ffffffffffffffffffffffffffffffffffffffff1681526020018373ffffffffffffffffffffffffffffffffffffffff1673ffffffffffffffffffffffffffffffffffffffff1681526020018281526020019350505050602060405180830381600087803b15801561460f57600080fd5b505af1158015614623573d6000803e3d6000fd5b505050506040513d602081101561463957600080fd5b81019080805190602001909291905050506146bc576040517f08c379a00000000000000000000000000000000000000000000000000000000081526004018080602001828103825260158152602001807f746f6b656e207472616e73666572206661696c6564000000000000000000000081525060200191505060405180910390fd5b5050505050565b60006146d085858461407c565b90506146dd858484614729565b809050949350505050565b806000819055507f337b880688eb06df8adb77036a6c8def1da2b520bc901c04b3a5a23f9ae13039816040518082815260200191505060405180910390a150565b8261473381613e0c565b6147a5576040517f08c379a000000000000000000000000000000000000000000000000000000000815260040180806020018281038252600f8152602001807f696e76616c696420746f6b656e4944000000000000000000000000000000000081525060200191505060405180910390fd5b6147ae84611a14565b73ffffffffffffffffffffffffffffffffffffffff1663a9059cbb84846040518363ffffffff1660e01b8152600401808373ffffffffffffffffffffffffffffffffffffffff1673ffffffffffffffffffffffffffffffffffffffff16815260200182815260200192505050602060405180830381600087803b15801561483457600080fd5b505af1158015614848573d6000803e3d6000fd5b505050506040513d602081101561485e57600080fd5b81019080805190602001909291905050506148e1576040517f08c379a00000000000000000000000000000000000000000000000000000000081526004018080602001828103825260158152602001807f746f6b656e207472616e73666572206661696c6564000000000000000000000081525060200191505060405180910390fd5b5050505056fe6d7573742062652063616c6c65642077697468696e20636f6e747261637420636f6e7374727563746f726f6e6c79206265666f7265206465706f736974732061726520636f6d706c65746564a265627a7a72315820757f69317a7f2d78bcf5afa54b022354b795c64b5e2e8cb7e20b479856c3565464736f6c634300050d0032",
  "source": "pragma solidity ^0.5.13;\n\nimport \"@openzeppelin/contracts/math/SafeMath.sol\";\nimport \"@openzeppelin/contracts/token/ERC20/IERC20.sol\";\nimport \"../agreements/CountdownGriefing.sol\";\nimport \"../modules/iFactory.sol\";\nimport \"../modules/iRegistry.sol\";\nimport \"../modules/Countdown.sol\";\nimport \"../modules/Staking.sol\";\nimport \"../modules/EventMetadata.sol\";\nimport \"../modules/Operated.sol\";\nimport \"../modules/Template.sol\";\n\n/// @title CountdownGriefingEscrow\n/// @author Stephane Gosselin (@thegostep) for Numerai Inc\n/// @dev Security contact: security@numer.ai\n/// @dev Version: 1.3.0\n/// @dev State Machine: https://github.com/erasureprotocol/erasure-protocol/blob/release/v1.3.x/docs/state-machines/escrows/CountdownGriefingEscrow.png\n/// @notice This escrow allows for a buyer and a seller to deposit their stake and payment before sending it to a CountdownGriefing agreement.\n///         A new instance is initialized by the factory using the `initData` received. See the `initialize()` function for details.\n///         Notable features:\n///             - The deposited payment and stake become the stake of the agreement once the escrow is finalized.\n///             - If the buyer is not defined on creation, the first user to deposit the payment becomes the buyer.\n///             - If the seller is not defined on creation, the first user to deposit the stake becomes the seller.\n///             - Either party is able to cancel the escrow and retrieve their deposit if their counterparty never completes their deposit.\n///             - If the buyer deposits their payment after the stake has already been deposited by the seller, this starts a countdown for the seller to finalize the escrow.\n///             - If the seller does not finalize the escrow before the end of the countdown, the buyer can timeout the escrow and recover their stake.\n///             - An operator can optionally be defined to grant full permissions to a trusted external address or contract. This operator will be inherited by the spawned agreement.\n///         **Note**\n///             Given the nature of ethereum, it is possible that while a cancel request is pending, the counterparty finalizes the escrow and the deposits are transfered to the agreement.\n///             This contract is designed such that there is only two end states: deposits are returned to the buyer and the seller OR the agreement is successfully created.\n///             This is why a user CANNOT rely on the cancellation feature to always work.\ncontract CountdownGriefingEscrow is Countdown, Staking, EventMetadata, Operated, Template {\n\n    using SafeMath for uint256;\n\n    Data private _data;\n    struct Data {\n        address buyer;\n        address seller;\n        TokenManager.Tokens tokenID;\n        uint128 paymentAmount;\n        uint128 stakeAmount;\n        EscrowStatus status;\n        AgreementParams agreementParams;\n    }\n\n    struct AgreementParams {\n        uint120 ratio;\n        Griefing.RatioType ratioType;\n        uint128 countdownLength;\n    }\n\n    event Initialized(\n        address operator,\n        address buyer,\n        address seller,\n        TokenManager.Tokens tokenID,\n        uint256 paymentAmount,\n        uint256 stakeAmount,\n        uint256 countdownLength,\n        bytes metadata,\n        bytes agreementParams\n    );\n    event StakeDeposited(address seller, uint256 amount);\n    event PaymentDeposited(address buyer, uint256 amount);\n    event Finalized(address agreement);\n    event DataSubmitted(bytes data);\n    event Cancelled();\n\n    /// @notice Constructor used to initialize the escrow parameters.\n    /// @dev Access Control: only factory\n    ///      State Machine: before all\n    /// @param operator address of the operator that overrides access control. Optional parameter. Passing the address(0) will disable operator functionality.\n    /// @param buyer address of the buyer. Optional parameter. This address is the only one able to deposit the payment. If not set, the first to deposit the payment becomes the buyer.\n    /// @param seller address of the seller. Optional parameter. This address is the only one able to deposit the stake. If not set, the first to deposit the stake becomes the seller.\n    /// @param tokenID TokenManager.Tokens ID of the ERC20 token. Required parameter. This ID must be one of the IDs supported by TokenManager.\n    /// @param paymentAmount uint256 amount of tokens (18 decimals) to be deposited by buyer as payment. Required parameter. This number must fit in a uint128 for optimization reasons.\n    /// @param stakeAmount uint256 amount of tokens (18 decimals) to be deposited by seller as stake. Required parameter. This number must fit in a uint128 for optimization reasons.\n    /// @param escrowCountdown uint256 amount of time (in seconds) the seller has to finalize the escrow after the payment and stake is deposited. Required parameter.\n    /// @param metadata bytes data (any format) to emit as event on initialization. Optional parameter.\n    /// @param agreementParams bytes ABI-encoded parameters used by CountdownGriefing agreement on initialization. Required parameter.\n    ///                        This encoded data blob must contain the uint120 ratio, Griefing.RatioType ratioType, and uint128 agreementCountdown encoded as `abi.encode(ratio, ratioType, agreementCountdown)`.\n    ///                        See CountdownGriefing initialize function for additional details.\n    function initialize(\n        address operator,\n        address buyer,\n        address seller,\n        TokenManager.Tokens tokenID,\n        uint256 paymentAmount,\n        uint256 stakeAmount,\n        uint256 escrowCountdown,\n        bytes memory metadata,\n        bytes memory agreementParams\n    ) public initializeTemplate() {\n        // set participants if defined\n        if (buyer != address(0)) {\n            _data.buyer = buyer;\n        }\n        if (seller != address(0)) {\n            _data.seller = seller;\n        }\n\n        // set operator if defined\n        if (operator != address(0)) {\n            Operated._setOperator(operator);\n        }\n\n        // set token\n        require(TokenManager.isValidTokenID(tokenID), 'invalid token');\n        _data.tokenID = tokenID;\n\n        // set amounts if defined\n        if (paymentAmount != uint256(0)) {\n            require(paymentAmount <= uint256(uint128(paymentAmount)), \"paymentAmount is too large\");\n            _data.paymentAmount = uint128(paymentAmount);\n        }\n        if (stakeAmount != uint256(0)) {\n            require(stakeAmount == uint256(uint128(stakeAmount)), \"stakeAmount is too large\");\n            _data.stakeAmount = uint128(stakeAmount);\n        }\n\n        // set countdown length\n        Countdown._setLength(escrowCountdown);\n\n        // set metadata if defined\n        if (metadata.length != 0) {\n            EventMetadata._setMetadata(metadata);\n        }\n\n        // set agreementParams if defined\n        if (agreementParams.length != 0) {\n            (\n                uint256 ratio,\n                Griefing.RatioType ratioType,\n                uint256 agreementCountdown\n            ) = abi.decode(agreementParams, (uint256, Griefing.RatioType, uint256));\n            require(ratio == uint256(uint120(ratio)), \"ratio out of bounds\");\n            require(agreementCountdown == uint256(uint128(agreementCountdown)), \"agreementCountdown out of bounds\");\n            _data.agreementParams = AgreementParams(uint120(ratio), ratioType, uint128(agreementCountdown));\n        }\n\n        // emit event\n        emit Initialized(operator, buyer, seller, tokenID, paymentAmount, stakeAmount, escrowCountdown, metadata, agreementParams);\n    }\n\n    /// @notice Emit metadata event.\n    /// @dev Access Control: operator\n    ///      State Machine: always\n    /// @param metadata Data (any format) to emit as event\n    function setMetadata(bytes memory metadata) public {\n        // restrict access\n        require(Operated.isOperator(msg.sender), \"only operator\");\n\n        // update metadata\n        EventMetadata._setMetadata(metadata);\n    }\n\n    /// @notice Deposit Stake and set seller address.\n    ///          - tokens (ERC-20) are transfered from the caller and requires approval of this contract for appropriate amount.\n    ///          - if buyer already deposited the payment, finalize the escrow.\n    /// @dev Access Control: anyone\n    ///      State Machine: before finalize() OR before cancel()\n    /// @param seller address of the seller\n    function depositAndSetSeller(address seller) public {\n        // restrict state machine\n        require(_data.seller == address(0), \"seller already set\");\n\n        // set seller\n        _data.seller = seller;\n\n        // deposit stake\n        _depositStake();\n    }\n\n    /// @notice Deposit Stake.\n    ///          - tokens (ERC-20) are transfered from the caller and requires approval of this contract for appropriate amount.\n    ///          - if buyer already deposited the payment, finalize the escrow.\n    /// @dev Access Control: buyer OR operator\n    ///      State Machine: before finalize() OR before cancel()\n    function depositStake() public {\n        // restrict access control\n        require(isSeller(msg.sender) || Operated.isOperator(msg.sender), \"only seller or operator\");\n\n        // restrict state machine\n        require(_data.seller != address(0), \"seller not yet set\");\n\n        // deposit stake\n        _depositStake();\n    }\n\n    function _depositStake() private {\n        // restrict state machine\n        require(isOpen() || onlyPaymentDeposited(), \"can only deposit stake once\");\n\n        // declare storage variables in memory\n        address seller = _data.seller;\n        uint256 stakeAmount = uint256(_data.stakeAmount);\n\n        // Add the stake amount\n        if (stakeAmount != uint256(0)) {\n            Staking._addStake(_data.tokenID, seller, msg.sender, stakeAmount);\n        }\n\n        // emit event\n        emit StakeDeposited(seller, stakeAmount);\n\n        // If payment is deposited, finalize the escrow\n        if (onlyPaymentDeposited()) {\n            _data.status = EscrowStatus.isDeposited;\n            finalize();\n        } else {\n            _data.status = EscrowStatus.onlyStakeDeposited;\n        }\n    }\n\n    /// @notice Deposit Payment and set buyer address.\n    ///          - tokens (ERC-20) are transfered from the caller and requires approval of this contract for appropriate amount.\n    ///          - if seller already deposited the stake, start the finalization countdown.\n    /// @dev Access Control: anyone\n    ///      State Machine: before finalize() OR before cancel()\n    /// @param buyer address of the buyer\n    function depositAndSetBuyer(address buyer) public {\n        // restrict state machine\n        require(_data.buyer == address(0), \"buyer already set\");\n\n        // set buyer\n        _data.buyer = buyer;\n\n        // deposit payment\n        _depositPayment();\n    }\n\n    /// @notice Deposit Payment.\n    ///          - tokens (ERC-20) are transfered from the caller and requires approval of this contract for appropriate amount.\n    ///          - if seller already deposited the stake, start the finalization countdown.\n    /// @dev Access Control: buyer OR operator\n    ///      State Machine: before finalize() OR before cancel()\n    function depositPayment() public {\n        // restrict access control\n        require(isBuyer(msg.sender) || Operated.isOperator(msg.sender), \"only buyer or operator\");\n\n        // restrict state machine\n        require(_data.buyer != address(0), \"buyer not yet set\");\n\n        // deposit payment\n        _depositPayment();\n    }\n\n    function _depositPayment() private {\n        // restrict state machine\n        require(isOpen() || onlyStakeDeposited(), \"can only deposit payment once\");\n\n        // declare storage variables in memory\n        address buyer = _data.buyer;\n        uint256 paymentAmount = uint256(_data.paymentAmount);\n\n        // Add the payment as a stake\n        if (paymentAmount != uint256(0)) {\n            Staking._addStake(_data.tokenID, buyer, msg.sender, paymentAmount);\n        }\n\n        // emit event\n        emit PaymentDeposited(buyer, paymentAmount);\n\n        // If stake is deposited, start countdown for seller to finalize\n        if (onlyStakeDeposited()) {\n            _data.status = EscrowStatus.isDeposited;\n            Countdown._start();\n        } else {\n            _data.status = EscrowStatus.onlyPaymentDeposited;\n        }\n    }\n\n    /// @notice Finalize escrow and execute completion script\n    ///          - create the agreement\n    ///          - transfer deposited stake and payment to agreement\n    ///          - start agreement countdown\n    ///          - disable agreement operator\n    /// @dev Access Control: seller OR operator\n    ///      State Machine: after depositStake() AND after depositPayment()\n    function finalize() public {\n        // restrict access control\n        require(isSeller(msg.sender) || Operated.isOperator(msg.sender), \"only seller or operator\");\n        // restrict state machine\n        require(isDeposited(), \"only after deposit\");\n\n        // create the agreement\n\n        address agreement;\n        {\n            // get the agreement factory address\n            address escrowFactory = Template.getFactory();\n            address escrowRegistry = iFactory(escrowFactory).getInstanceRegistry();\n            address agreementFactory = abi.decode(iRegistry(escrowRegistry).getFactoryData(escrowFactory), (address));\n\n            // encode initialization function\n            bytes memory initCalldata = abi.encodeWithSelector(\n                iFactory(agreementFactory).getInitSelector(),\n                address(this), // operator\n                _data.seller,  // staker\n                _data.buyer,   // counterparty\n                _data.tokenID, // tokenID\n                uint256(_data.agreementParams.ratio),           // griefRatio\n                _data.agreementParams.ratioType,                // ratioType\n                uint256(_data.agreementParams.countdownLength), // countdownLength\n                bytes(\"\")      // metadata\n            );\n\n            // deploy and initialize agreement contract\n            agreement = iFactory(agreementFactory).create(initCalldata);\n        }\n\n        // transfer stake and payment to the agreement\n\n        uint256 totalStake;\n        {\n            uint256 paymentAmount = Deposit._clearDeposit(_data.tokenID, _data.buyer);\n            uint256 stakeAmount = Deposit._clearDeposit(_data.tokenID, _data.seller);\n            totalStake = paymentAmount.add(stakeAmount);\n        }\n\n        if (totalStake > 0) {\n            TokenManager._approve(_data.tokenID, agreement, totalStake);\n            CountdownGriefing(agreement).increaseStake(totalStake);\n        }\n\n        // start agreement countdown\n\n        CountdownGriefing(agreement).startCountdown();\n\n        // transfer operator\n        address operator = Operated.getOperator();\n        if (operator != address(0)) {\n            CountdownGriefing(agreement).transferOperator(operator);\n        } else {\n            CountdownGriefing(agreement).renounceOperator();\n        }\n\n        // update status\n        _data.status = EscrowStatus.isFinalized;\n\n        // delete storage\n        delete _data.tokenID;\n        delete _data.paymentAmount;\n        delete _data.stakeAmount;\n        delete _data.agreementParams;\n\n        // emit event\n        emit Finalized(agreement);\n    }\n\n    /// @notice Submit data to the buyer\n    /// @dev Access Control: seller OR operator\n    ///      State Machine: after finalize()\n    /// @param data Data (any format) to submit to the buyer\n    function submitData(bytes memory data) public {\n        // restrict access control\n        require(isSeller(msg.sender) || Operated.isOperator(msg.sender), \"only seller or operator\");\n        // restrict state machine\n        require(isFinalized(), \"only after finalized\");\n\n        // emit event\n        emit DataSubmitted(data);\n    }\n\n    /// @notice Cancel escrow because no interested counterparty\n    ///          - return deposit to caller\n    ///          - close escrow\n    /// @dev Access Control: seller OR buyer OR operator\n    ///      State Machine: before depositStake() OR before depositPayment()\n    function cancel() public {\n        // restrict access control\n        require(isSeller(msg.sender) || isBuyer(msg.sender) || Operated.isOperator(msg.sender), \"only seller or buyer or operator\");\n        // restrict state machine\n        require(isOpen() || onlyStakeDeposited() || onlyPaymentDeposited(), \"only before deposits are completed\");\n\n        // cancel escrow and return deposits\n        _cancel();\n    }\n\n    /// @notice Cancel escrow if seller does not finalize\n    ///          - return stake to seller\n    ///          - return payment to buyer\n    ///          - close escrow\n    /// @dev Access Control: buyer OR operator\n    ///      State Machine: after depositStake() AND after depositPayment() AND after Countdown.isOver()\n    function timeout() public {\n        // restrict access control\n        require(isBuyer(msg.sender) || Operated.isOperator(msg.sender), \"only buyer or operator\");\n        // restrict state machine\n        require(isDeposited() && Countdown.isOver(), \"only after countdown ended\");\n\n        // cancel escrow and return deposits\n        _cancel();\n    }\n\n    function _cancel() private {\n        // declare storage variables in memory\n        address seller = _data.seller;\n        address buyer = _data.buyer;\n        TokenManager.Tokens tokenID = _data.tokenID;\n\n        // return stake to seller\n        if (Deposit.getDeposit(tokenID, seller) != 0) {\n            Staking._takeFullStake(tokenID, seller, seller);\n        }\n\n        // return payment to buyer\n        if (Deposit.getDeposit(tokenID, buyer) != 0) {\n            Staking._takeFullStake(tokenID, buyer, buyer);\n        }\n\n        // update status\n        _data.status = EscrowStatus.isCancelled;\n\n        // delete storage\n        delete _data.tokenID;\n        delete _data.paymentAmount;\n        delete _data.stakeAmount;\n        delete _data.agreementParams;\n\n        // emit event\n        emit Cancelled();\n    }\n\n    /// @notice Called by the operator to transfer control to new operator\n    /// @dev Access Control: operator\n    ///      State Machine: anytime\n    /// @param operator Address of the new operator\n    function transferOperator(address operator) public {\n        // restrict access\n        require(Operated.isOperator(msg.sender), \"only operator\");\n\n        // transfer operator\n        Operated._transferOperator(operator);\n    }\n\n    /// @notice Called by the operator to renounce control\n    /// @dev Access Control: operator\n    ///      State Machine: anytime\n    function renounceOperator() public {\n        // restrict access\n        require(Operated.isOperator(msg.sender), \"only operator\");\n\n        // renounce operator\n        Operated._renounceOperator();\n    }\n\n    /// View functions\n\n    /// @notice Get the address of the buyer (if set)\n    /// @return buyer address of the buyer\n    function getBuyer() public view returns (address buyer) {\n        return _data.buyer;\n    }\n\n    /// @notice Validate if the address matches the stored buyer address\n    /// @param caller address to validate\n    /// @return validity bool true if matching address\n    function isBuyer(address caller) internal view returns (bool validity) {\n        return caller == getBuyer();\n    }\n\n    /// @notice Get the address of the seller (if set)\n    /// @return buyer address of the buyer\n    function getSeller() public view returns (address seller) {\n        return _data.seller;\n    }\n\n    /// @notice Validate if the address matches the stored seller address\n    /// @param caller address to validate\n    /// @return validity bool true if matching address\n    function isSeller(address caller) internal view returns (bool validity) {\n        return caller == getSeller();\n    }\n\n    /// @notice Return the amount of tokens deposited by the user\n    /// @param user address of the user to query the deposit\n    /// @return amount uint256 amount of tokens deposited\n    function getDeposit(address user) public view returns (uint256 amount) {\n        return Deposit.getDeposit(_data.tokenID, user);\n    }\n\n    /// @notice Get the data from storage.\n    /// @return tokenID TokenManager.Tokens ID of the ERC20 token.\n    /// @return uint128 paymentAmount set in initialization.\n    /// @return uint128 stakeAmount set in initialization.\n    /// @return uint120 ratio used for initialization of agreement on completion.\n    /// @return Griefing.RatioType ratioType used for initialization of agreement on completion.\n    /// @return uint128 countdownLength used for initialization of agreement on completion.\n    function getData() public view returns (\n        TokenManager.Tokens tokenID,\n        uint128 paymentAmount,\n        uint128 stakeAmount,\n        uint120 ratio,\n        Griefing.RatioType ratioType,\n        uint128 countdownLength\n    ) {\n        return (\n            _data.tokenID,\n            _data.paymentAmount,\n            _data.stakeAmount,\n            _data.agreementParams.ratio,\n            _data.agreementParams.ratioType,\n            _data.agreementParams.countdownLength\n        );\n    }\n\n    enum EscrowStatus { isOpen, onlyStakeDeposited, onlyPaymentDeposited, isDeposited, isFinalized, isCancelled }\n    /// @notice Return the status of the state machine\n    /// @return EscrowStatus status from of the following states:\n    ///          - isOpen: initialized but no deposits made\n    ///          - onlyStakeDeposited: only stake deposit completed\n    ///          - onlyPaymentDeposited: only payment deposit completed\n    ///          - isDeposited: both payment and stake deposit is completed\n    ///          - isFinalized: the escrow completed successfully\n    ///          - isCancelled: the escrow was cancelled\n    function getEscrowStatus() public view returns (EscrowStatus status) {\n        return _data.status;\n    }\n\n    /// @notice Validate if the state machine is in the EscrowStatus.isOpen state\n    /// @return validity bool true if correct state\n    function isOpen() internal view returns (bool validity) {\n        return getEscrowStatus() == EscrowStatus.isOpen;\n    }\n\n    /// @notice Validate if the state machine is in the EscrowStatus.onlyStakeDeposited state\n    /// @return validity bool true if correct state\n    function onlyStakeDeposited() internal view returns (bool validity) {\n        return getEscrowStatus() == EscrowStatus.onlyStakeDeposited;\n    }\n\n    /// @notice Validate if the state machine is in the EscrowStatus.onlyPaymentDeposited state\n    /// @return validity bool true if correct state\n    function onlyPaymentDeposited() internal view returns (bool validity) {\n        return getEscrowStatus() == EscrowStatus.onlyPaymentDeposited;\n    }\n\n    /// @notice Validate if the state machine is in the EscrowStatus.isDeposited state\n    /// @return validity bool true if correct state\n    function isDeposited() internal view returns (bool validity) {\n        return getEscrowStatus() == EscrowStatus.isDeposited;\n    }\n\n    /// @notice Validate if the state machine is in the EscrowStatus.isFinalized state\n    /// @return validity bool true if correct state\n    function isFinalized() internal view returns (bool validity) {\n        return getEscrowStatus() == EscrowStatus.isFinalized;\n    }\n\n    /// @notice Validate if the state machine is in the EscrowStatus.isCancelled state\n    /// @return validity bool true if correct state\n    function isCancelled() internal view returns (bool validity) {\n        return getEscrowStatus() == EscrowStatus.isCancelled;\n    }\n}\n"
}