{
  "contractName": "Feed",
  "abi": [
    {
      "anonymous": false,
      "inputs": [
        {
          "indexed": false,
          "internalType": "enum TokenManager.Tokens",
          "name": "tokenID",
          "type": "uint8"
        },
        {
          "indexed": false,
          "internalType": "address",
          "name": "user",
          "type": "address"
        },
        {
          "indexed": false,
          "internalType": "uint256",
          "name": "amount",
          "type": "uint256"
        },
        {
          "indexed": false,
          "internalType": "uint256",
          "name": "newDeposit",
          "type": "uint256"
        }
      ],
      "name": "DepositDecreased",
      "type": "event"
    },
    {
      "anonymous": false,
      "inputs": [
        {
          "indexed": false,
          "internalType": "enum TokenManager.Tokens",
          "name": "tokenID",
          "type": "uint8"
        },
        {
          "indexed": false,
          "internalType": "address",
          "name": "user",
          "type": "address"
        },
        {
          "indexed": false,
          "internalType": "uint256",
          "name": "amount",
          "type": "uint256"
        },
        {
          "indexed": false,
          "internalType": "uint256",
          "name": "newDeposit",
          "type": "uint256"
        }
      ],
      "name": "DepositIncreased",
      "type": "event"
    },
    {
      "anonymous": false,
      "inputs": [
        {
          "indexed": false,
          "internalType": "bytes32",
          "name": "hash",
          "type": "bytes32"
        }
      ],
      "name": "HashSubmitted",
      "type": "event"
    },
    {
      "anonymous": false,
      "inputs": [
        {
          "indexed": false,
          "internalType": "address",
          "name": "operator",
          "type": "address"
        },
        {
          "indexed": false,
          "internalType": "bytes",
          "name": "metadata",
          "type": "bytes"
        }
      ],
      "name": "Initialized",
      "type": "event"
    },
    {
      "anonymous": false,
      "inputs": [
        {
          "indexed": false,
          "internalType": "bytes",
          "name": "metadata",
          "type": "bytes"
        }
      ],
      "name": "MetadataSet",
      "type": "event"
    },
    {
      "anonymous": false,
      "inputs": [
        {
          "indexed": false,
          "internalType": "address",
          "name": "operator",
          "type": "address"
        }
      ],
      "name": "OperatorUpdated",
      "type": "event"
    },
    {
      "anonymous": false,
      "inputs": [
        {
          "indexed": false,
          "internalType": "enum TokenManager.Tokens",
          "name": "tokenID",
          "type": "uint8"
        },
        {
          "indexed": false,
          "internalType": "address",
          "name": "staker",
          "type": "address"
        },
        {
          "indexed": false,
          "internalType": "uint256",
          "name": "amount",
          "type": "uint256"
        }
      ],
      "name": "StakeBurned",
      "type": "event"
    },
    {
      "constant": true,
      "inputs": [],
      "name": "getCreator",
      "outputs": [
        {
          "internalType": "address",
          "name": "creator",
          "type": "address"
        }
      ],
      "payable": false,
      "stateMutability": "view",
      "type": "function"
    },
    {
      "constant": true,
      "inputs": [
        {
          "internalType": "enum TokenManager.Tokens",
          "name": "tokenID",
          "type": "uint8"
        }
      ],
      "name": "getExchangeAddress",
      "outputs": [
        {
          "internalType": "address",
          "name": "exchangeAddress",
          "type": "address"
        }
      ],
      "payable": false,
      "stateMutability": "pure",
      "type": "function"
    },
    {
      "constant": true,
      "inputs": [],
      "name": "getFactory",
      "outputs": [
        {
          "internalType": "address",
          "name": "factory",
          "type": "address"
        }
      ],
      "payable": false,
      "stateMutability": "view",
      "type": "function"
    },
    {
      "constant": true,
      "inputs": [],
      "name": "getOperator",
      "outputs": [
        {
          "internalType": "address",
          "name": "operator",
          "type": "address"
        }
      ],
      "payable": false,
      "stateMutability": "view",
      "type": "function"
    },
    {
      "constant": true,
      "inputs": [
        {
          "internalType": "enum TokenManager.Tokens",
          "name": "tokenID",
          "type": "uint8"
        }
      ],
      "name": "getTokenAddress",
      "outputs": [
        {
          "internalType": "address",
          "name": "tokenAddress",
          "type": "address"
        }
      ],
      "payable": false,
      "stateMutability": "pure",
      "type": "function"
    },
    {
      "constant": false,
      "inputs": [
        {
          "internalType": "address",
          "name": "operator",
          "type": "address"
        },
        {
          "internalType": "bytes",
          "name": "metadata",
          "type": "bytes"
        }
      ],
      "name": "initialize",
      "outputs": [],
      "payable": false,
      "stateMutability": "nonpayable",
      "type": "function"
    },
    {
      "constant": false,
      "inputs": [
        {
          "internalType": "bytes32",
          "name": "proofHash",
          "type": "bytes32"
        }
      ],
      "name": "submitHash",
      "outputs": [],
      "payable": false,
      "stateMutability": "nonpayable",
      "type": "function"
    },
    {
      "constant": false,
      "inputs": [
        {
          "internalType": "enum TokenManager.Tokens",
          "name": "tokenID",
          "type": "uint8"
        },
        {
          "internalType": "uint256",
          "name": "amountToAdd",
          "type": "uint256"
        }
      ],
      "name": "depositStake",
      "outputs": [
        {
          "internalType": "uint256",
          "name": "newStake",
          "type": "uint256"
        }
      ],
      "payable": false,
      "stateMutability": "nonpayable",
      "type": "function"
    },
    {
      "constant": false,
      "inputs": [
        {
          "internalType": "enum TokenManager.Tokens",
          "name": "tokenID",
          "type": "uint8"
        },
        {
          "internalType": "uint256",
          "name": "amountToRemove",
          "type": "uint256"
        }
      ],
      "name": "withdrawStake",
      "outputs": [
        {
          "internalType": "uint256",
          "name": "newStake",
          "type": "uint256"
        }
      ],
      "payable": false,
      "stateMutability": "nonpayable",
      "type": "function"
    },
    {
      "constant": false,
      "inputs": [
        {
          "internalType": "bytes",
          "name": "metadata",
          "type": "bytes"
        }
      ],
      "name": "setMetadata",
      "outputs": [],
      "payable": false,
      "stateMutability": "nonpayable",
      "type": "function"
    },
    {
      "constant": false,
      "inputs": [
        {
          "internalType": "address",
          "name": "operator",
          "type": "address"
        }
      ],
      "name": "transferOperator",
      "outputs": [],
      "payable": false,
      "stateMutability": "nonpayable",
      "type": "function"
    },
    {
      "constant": false,
      "inputs": [],
      "name": "renounceOperator",
      "outputs": [],
      "payable": false,
      "stateMutability": "nonpayable",
      "type": "function"
    },
    {
      "constant": true,
      "inputs": [
        {
          "internalType": "enum TokenManager.Tokens",
          "name": "tokenID",
          "type": "uint8"
        }
      ],
      "name": "getStake",
      "outputs": [
        {
          "internalType": "uint256",
          "name": "stake",
          "type": "uint256"
        }
      ],
      "payable": false,
      "stateMutability": "view",
      "type": "function"
    }
  ],
  "bytecode": "0x608060405234801561001057600080fd5b50611e45806100206000396000f3fe608060405234801561001057600080fd5b50600436106100cf5760003560e01c80637bbe0db71161008c578063c529ebfd11610066578063c529ebfd14610338578063d1f57894146103a9578063e7f43c6814610484578063ee57e36f146104ce576100cf565b80637bbe0db71461025a57806388cc58e41461029f578063c1159d5c146102e9576100cf565b806308891a32146100d45780630b78c7b4146101025780630ee2cb101461015157806329605e771461019b5780632ab6f8db146101df5780635ad3f918146101e9575b600080fd5b610100600480360360208110156100ea57600080fd5b8101908080359060200190929190505050610589565b005b61013b6004803603604081101561011857600080fd5b81019080803560ff16906020019092919080359060200190929190505050610620565b6040518082815260200191505060405180910390f35b6101596106cf565b604051808273ffffffffffffffffffffffffffffffffffffffff1673ffffffffffffffffffffffffffffffffffffffff16815260200191505060405180910390f35b6101dd600480360360208110156101b157600080fd5b81019080803573ffffffffffffffffffffffffffffffffffffffff1690602001909291905050506107b0565b005b6101e7610837565b005b610218600480360360208110156101ff57600080fd5b81019080803560ff1690602001909291905050506108bc565b604051808273ffffffffffffffffffffffffffffffffffffffff1673ffffffffffffffffffffffffffffffffffffffff16815260200191505060405180910390f35b6102896004803603602081101561027057600080fd5b81019080803560ff169060200190929190505050610923565b6040518082815260200191505060405180910390f35b6102a761093d565b604051808273ffffffffffffffffffffffffffffffffffffffff1673ffffffffffffffffffffffffffffffffffffffff16815260200191505060405180910390f35b610322600480360360408110156102ff57600080fd5b81019080803560ff16906020019092919080359060200190929190505050610967565b6040518082815260200191505060405180910390f35b6103676004803603602081101561034e57600080fd5b81019080803560ff169060200190929190505050610a0f565b604051808273ffffffffffffffffffffffffffffffffffffffff1673ffffffffffffffffffffffffffffffffffffffff16815260200191505060405180910390f35b610482600480360360408110156103bf57600080fd5b81019080803573ffffffffffffffffffffffffffffffffffffffff169060200190929190803590602001906401000000008111156103fc57600080fd5b82018360208201111561040e57600080fd5b8035906020019184600183028401116401000000008311171561043057600080fd5b91908080601f016020809104026020016040519081016040528093929190818152602001838380828437600081840152601f19601f820116905080830192505050505050509192919290505050610a76565b005b61048c610c42565b604051808273ffffffffffffffffffffffffffffffffffffffff1673ffffffffffffffffffffffffffffffffffffffff16815260200191505060405180910390f35b610587600480360360208110156104e457600080fd5b810190808035906020019064010000000081111561050157600080fd5b82018360208201111561051357600080fd5b8035906020019184600183028401116401000000008311171561053557600080fd5b91908080601f016020809104026020016040519081016040528093929190818152602001838380828437600081840152601f19601f820116905080830192505050505050509192919290505050610c6c565b005b61059233610d03565b806105a257506105a133610d42565b5b610614576040517f08c379a00000000000000000000000000000000000000000000000000000000081526004018080602001828103825260188152602001807f6f6e6c79206f70657261746f72206f722063726561746f72000000000000000081525060200191505060405180910390fd5b61061d81610d9c565b50565b600061062b33610d03565b8061063b575061063a33610d42565b5b6106ad576040517f08c379a00000000000000000000000000000000000000000000000000000000081526004018080602001828103825260188152602001807f6f6e6c79206f70657261746f72206f722063726561746f72000000000000000081525060200191505060405180910390fd5b6106c7836106b96106cf565b6106c16106cf565b85610dd6565b905092915050565b6000600260009054906101000a900473ffffffffffffffffffffffffffffffffffffffff1673ffffffffffffffffffffffffffffffffffffffff16636bf71982306040518263ffffffff1660e01b8152600401808273ffffffffffffffffffffffffffffffffffffffff1673ffffffffffffffffffffffffffffffffffffffff16815260200191505060206040518083038186803b15801561077057600080fd5b505afa158015610784573d6000803e3d6000fd5b505050506040513d602081101561079a57600080fd5b8101908080519060200190929190505050905090565b6107b933610d42565b61082b576040517f08c379a000000000000000000000000000000000000000000000000000000000815260040180806020018281038252600d8152602001807f6f6e6c79206f70657261746f720000000000000000000000000000000000000081525060200191505060405180910390fd5b61083481610dfb565b50565b61084033610d42565b6108b2576040517f08c379a000000000000000000000000000000000000000000000000000000000815260040180806020018281038252600d8152602001807f6f6e6c79206f70657261746f720000000000000000000000000000000000000081525060200191505060405180910390fd5b6108ba61100a565b565b60006002808111156108ca57fe5b8260028111156108d657fe5b14156108eb576108e4611177565b905061091e565b600160028111156108f857fe5b82600281111561090457fe5b141561091957610912611193565b905061091e565b600090505b919050565b6000610936826109316106cf565b6111af565b9050919050565b6000600260009054906101000a900473ffffffffffffffffffffffffffffffffffffffff16905090565b600061097233610d03565b80610982575061098133610d42565b5b6109f4576040517f08c379a00000000000000000000000000000000000000000000000000000000081526004018080602001828103825260188152602001807f6f6e6c79206f70657261746f72206f722063726561746f72000000000000000081525060200191505060405180910390fd5b610a0783610a006106cf565b3385611214565b905092915050565b6000600280811115610a1d57fe5b826002811115610a2957fe5b1415610a3e57610a3761123a565b9050610a71565b60016002811115610a4b57fe5b826002811115610a5757fe5b1415610a6c57610a65611256565b9050610a71565b600090505b919050565b33600260006101000a81548173ffffffffffffffffffffffffffffffffffffffff021916908373ffffffffffffffffffffffffffffffffffffffff1602179055506000303b905060008163ffffffff1614610b1c576040517f08c379a000000000000000000000000000000000000000000000000000000000815260040180806020018281038252602a815260200180611de7602a913960400191505060405180910390fd5b600073ffffffffffffffffffffffffffffffffffffffff168373ffffffffffffffffffffffffffffffffffffffff1614610b5a57610b5983611272565b5b6000825114610b6d57610b6c82611480565b5b7f3cb5fe4064ec54325ad5ab0ee054344095de51ed278a56b0e593a75679013b8a8383604051808373ffffffffffffffffffffffffffffffffffffffff1673ffffffffffffffffffffffffffffffffffffffff16815260200180602001828103825283818151815260200191508051906020019080838360005b83811015610c02578082015181840152602081019050610be7565b50505050905090810190601f168015610c2f5780820380516001836020036101000a031916815260200191505b50935050505060405180910390a1505050565b6000600160009054906101000a900473ffffffffffffffffffffffffffffffffffffffff16905090565b610c7533610d03565b80610c855750610c8433610d42565b5b610cf7576040517f08c379a00000000000000000000000000000000000000000000000000000000081526004018080602001828103825260188152602001807f6f6e6c79206f70657261746f72206f722063726561746f72000000000000000081525060200191505060405180910390fd5b610d0081611480565b50565b6000610d0d6106cf565b73ffffffffffffffffffffffffffffffffffffffff168273ffffffffffffffffffffffffffffffffffffffff16149050919050565b6000600160009054906101000a900473ffffffffffffffffffffffffffffffffffffffff1673ffffffffffffffffffffffffffffffffffffffff168273ffffffffffffffffffffffffffffffffffffffff16149050919050565b7f2f4d8d4a9e5c5541ce76256105ce4674c5f34e1cef22baf7e97eefb648943853816040518082815260200191505060405180910390a150565b6000610de385858461151f565b9050610df08584846116fd565b809050949350505050565b600073ffffffffffffffffffffffffffffffffffffffff16600160009054906101000a900473ffffffffffffffffffffffffffffffffffffffff1673ffffffffffffffffffffffffffffffffffffffff161415610ec0576040517f08c379a00000000000000000000000000000000000000000000000000000000081526004018080602001828103825260168152602001807f6f6e6c79207768656e206f70657261746f72207365740000000000000000000081525060200191505060405180910390fd5b600073ffffffffffffffffffffffffffffffffffffffff168173ffffffffffffffffffffffffffffffffffffffff161415610f63576040517f08c379a00000000000000000000000000000000000000000000000000000000081526004018080602001828103825260208152602001807f63616e6e6f7420736574206f70657261746f7220746f2061646472657373203081525060200191505060405180910390fd5b80600160006101000a81548173ffffffffffffffffffffffffffffffffffffffff021916908373ffffffffffffffffffffffffffffffffffffffff1602179055507fb3b3f5f64ab192e4b5fefde1f51ce9733bbdcf831951543b325aebd49cc27ec481604051808273ffffffffffffffffffffffffffffffffffffffff1673ffffffffffffffffffffffffffffffffffffffff16815260200191505060405180910390a150565b600073ffffffffffffffffffffffffffffffffffffffff16600160009054906101000a900473ffffffffffffffffffffffffffffffffffffffff1673ffffffffffffffffffffffffffffffffffffffff1614156110cf576040517f08c379a00000000000000000000000000000000000000000000000000000000081526004018080602001828103825260168152602001807f6f6e6c79207768656e206f70657261746f72207365740000000000000000000081525060200191505060405180910390fd5b6000600160006101000a81548173ffffffffffffffffffffffffffffffffffffffff021916908373ffffffffffffffffffffffffffffffffffffffff1602179055507fb3b3f5f64ab192e4b5fefde1f51ce9733bbdcf831951543b325aebd49cc27ec46000604051808273ffffffffffffffffffffffffffffffffffffffff1673ffffffffffffffffffffffffffffffffffffffff16815260200191505060405180910390a1565b6000737d669a64deb8a4a51eea755bb0e19fd39ce25ae9905090565b600073e9e2df04e6d699986a5e0f131eb37aaad4ba2bdc905090565b60008060008460028111156111c057fe5b815260200190815260200160002060008373ffffffffffffffffffffffffffffffffffffffff1673ffffffffffffffffffffffffffffffffffffffff16815260200190815260200160002054905092915050565b60006112218585846118bb565b905061122f85843085611a1e565b809050949350505050565b600073c9883d347c200d9cba014389220c4df45648f03a905090565b600073bfaadabfab5e3ff17f06dc15b128bfcc9fcca7ee905090565b600073ffffffffffffffffffffffffffffffffffffffff16600160009054906101000a900473ffffffffffffffffffffffffffffffffffffffff1673ffffffffffffffffffffffffffffffffffffffff1614611336576040517f08c379a00000000000000000000000000000000000000000000000000000000081526004018080602001828103825260148152602001807f6f70657261746f7220616c72656164792073657400000000000000000000000081525060200191505060405180910390fd5b600073ffffffffffffffffffffffffffffffffffffffff168173ffffffffffffffffffffffffffffffffffffffff1614156113d9576040517f08c379a00000000000000000000000000000000000000000000000000000000081526004018080602001828103825260208152602001807f63616e6e6f7420736574206f70657261746f7220746f2061646472657373203081525060200191505060405180910390fd5b80600160006101000a81548173ffffffffffffffffffffffffffffffffffffffff021916908373ffffffffffffffffffffffffffffffffffffffff1602179055507fb3b3f5f64ab192e4b5fefde1f51ce9733bbdcf831951543b325aebd49cc27ec481604051808273ffffffffffffffffffffffffffffffffffffffff1673ffffffffffffffffffffffffffffffffffffffff16815260200191505060405180910390a150565b7fbb39ebb37e60fb5d606ffdb749d2336e56b88e6c88c4bd6513b308f643186eed816040518080602001828103825283818151815260200191508051906020019080838360005b838110156114e25780820151818401526020810190506114c7565b50505050905090810190601f16801561150f5780820380516001836020036101000a031916815260200191505b509250505060405180910390a150565b60008060008086600281111561153157fe5b815260200190815260200160002060008573ffffffffffffffffffffffffffffffffffffffff1673ffffffffffffffffffffffffffffffffffffffff168152602001908152602001600020549050828110156115f5576040517f08c379a000000000000000000000000000000000000000000000000000000000815260040180806020018281038252601e8152602001807f696e73756666696369656e74206465706f73697420746f2072656d6f7665000081525060200191505060405180910390fd5b6116088382611c1190919063ffffffff16565b91508160008087600281111561161a57fe5b815260200190815260200160002060008673ffffffffffffffffffffffffffffffffffffffff1673ffffffffffffffffffffffffffffffffffffffff168152602001908152602001600020819055507f9060f8ffc7acd8270abf2337023e6377669ca44d5b2a23f3513a29380940f357858585856040518085600281111561169e57fe5b60ff1681526020018473ffffffffffffffffffffffffffffffffffffffff1673ffffffffffffffffffffffffffffffffffffffff16815260200183815260200182815260200194505050505060405180910390a1819150509392505050565b8261170781611c5b565b611779576040517f08c379a000000000000000000000000000000000000000000000000000000000815260040180806020018281038252600f8152602001807f696e76616c696420746f6b656e4944000000000000000000000000000000000081525060200191505060405180910390fd5b611782846108bc565b73ffffffffffffffffffffffffffffffffffffffff1663a9059cbb84846040518363ffffffff1660e01b8152600401808373ffffffffffffffffffffffffffffffffffffffff1673ffffffffffffffffffffffffffffffffffffffff16815260200182815260200192505050602060405180830381600087803b15801561180857600080fd5b505af115801561181c573d6000803e3d6000fd5b505050506040513d602081101561183257600080fd5b81019080805190602001909291905050506118b5576040517f08c379a00000000000000000000000000000000000000000000000000000000081526004018080602001828103825260158152602001807f746f6b656e207472616e73666572206661696c6564000000000000000000000081525060200191505060405180910390fd5b50505050565b600061192a826000808760028111156118d057fe5b815260200190815260200160002060008673ffffffffffffffffffffffffffffffffffffffff1673ffffffffffffffffffffffffffffffffffffffff16815260200190815260200160002054611c9e90919063ffffffff16565b90508060008086600281111561193c57fe5b815260200190815260200160002060008573ffffffffffffffffffffffffffffffffffffffff1673ffffffffffffffffffffffffffffffffffffffff168152602001908152602001600020819055507ffe2caf3897ec3e02a1d458d232d7c62c17809d25dbfe65864ce842162d6c217c84848484604051808560028111156119c057fe5b60ff1681526020018473ffffffffffffffffffffffffffffffffffffffff1673ffffffffffffffffffffffffffffffffffffffff16815260200183815260200182815260200194505050505060405180910390a18090509392505050565b83611a2881611c5b565b611a9a576040517f08c379a000000000000000000000000000000000000000000000000000000000815260040180806020018281038252600f8152602001807f696e76616c696420746f6b656e4944000000000000000000000000000000000081525060200191505060405180910390fd5b611aa3856108bc565b73ffffffffffffffffffffffffffffffffffffffff166323b872dd8585856040518463ffffffff1660e01b8152600401808473ffffffffffffffffffffffffffffffffffffffff1673ffffffffffffffffffffffffffffffffffffffff1681526020018373ffffffffffffffffffffffffffffffffffffffff1673ffffffffffffffffffffffffffffffffffffffff1681526020018281526020019350505050602060405180830381600087803b158015611b5d57600080fd5b505af1158015611b71573d6000803e3d6000fd5b505050506040513d6020811015611b8757600080fd5b8101908080519060200190929190505050611c0a576040517f08c379a00000000000000000000000000000000000000000000000000000000081526004018080602001828103825260158152602001807f746f6b656e207472616e73666572206661696c6564000000000000000000000081525060200191505060405180910390fd5b5050505050565b6000611c5383836040518060400160405280601e81526020017f536166654d6174683a207375627472616374696f6e206f766572666c6f770000815250611d26565b905092915050565b600060016002811115611c6a57fe5b826002811115611c7657fe5b1480611c975750600280811115611c8957fe5b826002811115611c9557fe5b145b9050919050565b600080828401905083811015611d1c576040517f08c379a000000000000000000000000000000000000000000000000000000000815260040180806020018281038252601b8152602001807f536166654d6174683a206164646974696f6e206f766572666c6f77000000000081525060200191505060405180910390fd5b8091505092915050565b6000838311158290611dd3576040517f08c379a00000000000000000000000000000000000000000000000000000000081526004018080602001828103825283818151815260200191508051906020019080838360005b83811015611d98578082015181840152602081019050611d7d565b50505050905090810190601f168015611dc55780820380516001836020036101000a031916815260200191505b509250505060405180910390fd5b506000838503905080915050939250505056fe6d7573742062652063616c6c65642077697468696e20636f6e747261637420636f6e7374727563746f72a265627a7a723158202200e7429470101e232ac198f32f21d1a352c2965e7fe9532b2fad786ca57a2164736f6c63430005100032",
  "source": "pragma solidity 0.5.16;\n\nimport \"../modules/EventMetadata.sol\";\nimport \"../modules/Operated.sol\";\nimport \"../modules/Template.sol\";\nimport \"../modules/Staking.sol\";\nimport \"../modules/ProofHashes.sol\";\n\n\n/// @title Feed\n/// @author Stephane Gosselin (@thegostep) for Numerai Inc\n/// @dev Security contact: security@numer.ai\n/// @dev Version: 1.3.0\n/// @notice A Feed allows for the creator to build a track record of timestamped submissions and deposit a stake to signal legitimacy.\ncontract Feed is Staking, ProofHashes, Operated, EventMetadata, Template {\n\n    event Initialized(address operator, bytes metadata);\n\n    /// @notice Constructor\n    /// @dev Access Control: only factory\n    ///      State Machine: before all\n    /// @param operator Address of the operator that overrides access control\n    /// @param metadata Data (any format) to emit as event on initialization\n    function initialize(\n        address operator,\n        bytes memory metadata\n    ) public initializeTemplate() {\n        // set operator\n        if (operator != address(0)) {\n            Operated._setOperator(operator);\n        }\n\n        // set metadata\n        if (metadata.length != 0) {\n            EventMetadata._setMetadata(metadata);\n        }\n\n        // log initialization params\n        emit Initialized(operator, metadata);\n    }\n\n    // state functions\n\n    /// @notice Submit proofhash to add to feed\n    /// @dev Access Control: creator OR operator\n    ///      State Machine: anytime\n    /// @param proofHash Proofhash (bytes32) sha256 hash of timestampled data\n    function submitHash(bytes32 proofHash) public {\n        // only operator or creator\n        require(Template.isCreator(msg.sender) || Operated.isOperator(msg.sender), \"only operator or creator\");\n\n        // submit proofHash\n        ProofHashes._submitHash(proofHash);\n    }\n\n    /// @notice Deposit one of the supported ERC20 token.\n    ///         - This deposit can be withdrawn at any time by the owner of the feed.\n    ///         - This requires the caller to do ERC20 approval for this contract for `amountToAdd`.\n    /// @dev Access Control: creator OR operator\n    ///      State Machine: anytime\n    /// @param tokenID TokenManager.Tokens id of the ERC20 token.\n    /// @param amountToAdd uint256 amount of ERC20 tokens (18 decimals) to add.\n    function depositStake(TokenManager.Tokens tokenID, uint256 amountToAdd) public returns (uint256 newStake) {\n        // only operator or creator\n        require(Template.isCreator(msg.sender) || Operated.isOperator(msg.sender), \"only operator or creator\");\n\n        // transfer and add tokens to stake\n        return Staking._addStake(tokenID, Template.getCreator(), msg.sender, amountToAdd);\n    }\n\n    /// @notice Withdraw one of the supported ERC20 token.\n    /// @dev Access Control: creator OR operator\n    ///      State Machine: anytime\n    /// @param tokenID TokenManager.Tokens id of the ERC20 token.\n    /// @param amountToRemove uint256 amount of ERC20 tokens (18 decimals) to add.\n    function withdrawStake(TokenManager.Tokens tokenID, uint256 amountToRemove) public returns (uint256 newStake) {\n        // only operator or creator\n        require(Template.isCreator(msg.sender) || Operated.isOperator(msg.sender), \"only operator or creator\");\n\n        // transfer and remove tokens from stake\n        return Staking._takeStake(tokenID, Template.getCreator(), Template.getCreator(), amountToRemove);\n    }\n\n    /// @notice Emit metadata event\n    /// @dev Access Control: creator OR operator\n    ///      State Machine: anytime\n    /// @param metadata Data (any format) to emit as event\n    function setMetadata(bytes memory metadata) public {\n        // only operator or creator\n        require(Template.isCreator(msg.sender) || Operated.isOperator(msg.sender), \"only operator or creator\");\n\n        // set metadata\n        EventMetadata._setMetadata(metadata);\n    }\n\n    /// @notice Called by the operator to transfer control to new operator\n    /// @dev Access Control: operator\n    ///      State Machine: anytime\n    /// @param operator Address of the new operator\n    function transferOperator(address operator) public {\n        // restrict access\n        require(Operated.isOperator(msg.sender), \"only operator\");\n\n        // transfer operator\n        Operated._transferOperator(operator);\n    }\n\n    /// @notice Called by the operator to renounce control\n    /// @dev Access Control: operator\n    ///      State Machine: anytime\n    function renounceOperator() public {\n        // restrict access\n        require(Operated.isOperator(msg.sender), \"only operator\");\n\n        // renounce operator\n        Operated._renounceOperator();\n    }\n\n    /// @notice Get the current stake for a given ERC20 token.\n    /// @dev Access Control: creator OR operator\n    ///      State Machine: anytime\n    /// @param tokenID TokenManager.Tokens id of the ERC20 token.\n    function getStake(TokenManager.Tokens tokenID) public view returns (uint256 stake) {\n        return Deposit.getDeposit(tokenID, Template.getCreator());\n    }\n\n}\n",
  "compiler": {
    "name": "solc",
    "version": "0.5.16+commit.9c3226ce.Emscripten.clang",
    "optimizer": false,
    "runs": 200
  }
}