{
  "contractName": "MockUniswapExchange",
  "abi": [
    {
      "inputs": [
        {
          "internalType": "address",
          "name": "token_addr",
          "type": "address"
        },
        {
          "internalType": "address",
          "name": "uniswap_factory",
          "type": "address"
        }
      ],
      "payable": false,
      "stateMutability": "nonpayable",
      "type": "constructor"
    },
    {
      "anonymous": false,
      "inputs": [
        {
          "indexed": true,
          "internalType": "address",
          "name": "provider",
          "type": "address"
        },
        {
          "indexed": true,
          "internalType": "uint256",
          "name": "eth_amount",
          "type": "uint256"
        },
        {
          "indexed": true,
          "internalType": "uint256",
          "name": "token_amount",
          "type": "uint256"
        }
      ],
      "name": "AddLiquidity",
      "type": "event"
    },
    {
      "anonymous": false,
      "inputs": [
        {
          "indexed": true,
          "internalType": "address",
          "name": "owner",
          "type": "address"
        },
        {
          "indexed": true,
          "internalType": "address",
          "name": "spender",
          "type": "address"
        },
        {
          "indexed": false,
          "internalType": "uint256",
          "name": "value",
          "type": "uint256"
        }
      ],
      "name": "Approval",
      "type": "event"
    },
    {
      "anonymous": false,
      "inputs": [
        {
          "indexed": true,
          "internalType": "address",
          "name": "buyer",
          "type": "address"
        },
        {
          "indexed": true,
          "internalType": "uint256",
          "name": "tokens_sold",
          "type": "uint256"
        },
        {
          "indexed": true,
          "internalType": "uint256",
          "name": "eth_bought",
          "type": "uint256"
        }
      ],
      "name": "EthPurchase",
      "type": "event"
    },
    {
      "anonymous": false,
      "inputs": [
        {
          "indexed": true,
          "internalType": "address",
          "name": "provider",
          "type": "address"
        },
        {
          "indexed": true,
          "internalType": "uint256",
          "name": "eth_amount",
          "type": "uint256"
        },
        {
          "indexed": true,
          "internalType": "uint256",
          "name": "token_amount",
          "type": "uint256"
        }
      ],
      "name": "RemoveLiquidity",
      "type": "event"
    },
    {
      "anonymous": false,
      "inputs": [
        {
          "indexed": true,
          "internalType": "address",
          "name": "buyer",
          "type": "address"
        },
        {
          "indexed": true,
          "internalType": "uint256",
          "name": "eth_sold",
          "type": "uint256"
        },
        {
          "indexed": true,
          "internalType": "uint256",
          "name": "tokens_bought",
          "type": "uint256"
        }
      ],
      "name": "TokenPurchase",
      "type": "event"
    },
    {
      "anonymous": false,
      "inputs": [
        {
          "indexed": true,
          "internalType": "address",
          "name": "from",
          "type": "address"
        },
        {
          "indexed": true,
          "internalType": "address",
          "name": "to",
          "type": "address"
        },
        {
          "indexed": false,
          "internalType": "uint256",
          "name": "value",
          "type": "uint256"
        }
      ],
      "name": "Transfer",
      "type": "event"
    },
    {
      "payable": true,
      "stateMutability": "payable",
      "type": "fallback"
    },
    {
      "constant": true,
      "inputs": [
        {
          "internalType": "address",
          "name": "owner",
          "type": "address"
        },
        {
          "internalType": "address",
          "name": "spender",
          "type": "address"
        }
      ],
      "name": "allowance",
      "outputs": [
        {
          "internalType": "uint256",
          "name": "",
          "type": "uint256"
        }
      ],
      "payable": false,
      "stateMutability": "view",
      "type": "function"
    },
    {
      "constant": false,
      "inputs": [
        {
          "internalType": "address",
          "name": "spender",
          "type": "address"
        },
        {
          "internalType": "uint256",
          "name": "amount",
          "type": "uint256"
        }
      ],
      "name": "approve",
      "outputs": [
        {
          "internalType": "bool",
          "name": "",
          "type": "bool"
        }
      ],
      "payable": false,
      "stateMutability": "nonpayable",
      "type": "function"
    },
    {
      "constant": true,
      "inputs": [
        {
          "internalType": "address",
          "name": "account",
          "type": "address"
        }
      ],
      "name": "balanceOf",
      "outputs": [
        {
          "internalType": "uint256",
          "name": "",
          "type": "uint256"
        }
      ],
      "payable": false,
      "stateMutability": "view",
      "type": "function"
    },
    {
      "constant": true,
      "inputs": [],
      "name": "decimals",
      "outputs": [
        {
          "internalType": "uint256",
          "name": "",
          "type": "uint256"
        }
      ],
      "payable": false,
      "stateMutability": "view",
      "type": "function"
    },
    {
      "constant": false,
      "inputs": [
        {
          "internalType": "address",
          "name": "spender",
          "type": "address"
        },
        {
          "internalType": "uint256",
          "name": "subtractedValue",
          "type": "uint256"
        }
      ],
      "name": "decreaseAllowance",
      "outputs": [
        {
          "internalType": "bool",
          "name": "",
          "type": "bool"
        }
      ],
      "payable": false,
      "stateMutability": "nonpayable",
      "type": "function"
    },
    {
      "constant": false,
      "inputs": [
        {
          "internalType": "address",
          "name": "spender",
          "type": "address"
        },
        {
          "internalType": "uint256",
          "name": "addedValue",
          "type": "uint256"
        }
      ],
      "name": "increaseAllowance",
      "outputs": [
        {
          "internalType": "bool",
          "name": "",
          "type": "bool"
        }
      ],
      "payable": false,
      "stateMutability": "nonpayable",
      "type": "function"
    },
    {
      "constant": true,
      "inputs": [],
      "name": "name",
      "outputs": [
        {
          "internalType": "bytes32",
          "name": "",
          "type": "bytes32"
        }
      ],
      "payable": false,
      "stateMutability": "view",
      "type": "function"
    },
    {
      "constant": true,
      "inputs": [],
      "name": "symbol",
      "outputs": [
        {
          "internalType": "bytes32",
          "name": "",
          "type": "bytes32"
        }
      ],
      "payable": false,
      "stateMutability": "view",
      "type": "function"
    },
    {
      "constant": true,
      "inputs": [],
      "name": "totalSupply",
      "outputs": [
        {
          "internalType": "uint256",
          "name": "",
          "type": "uint256"
        }
      ],
      "payable": false,
      "stateMutability": "view",
      "type": "function"
    },
    {
      "constant": false,
      "inputs": [
        {
          "internalType": "address",
          "name": "recipient",
          "type": "address"
        },
        {
          "internalType": "uint256",
          "name": "amount",
          "type": "uint256"
        }
      ],
      "name": "transfer",
      "outputs": [
        {
          "internalType": "bool",
          "name": "",
          "type": "bool"
        }
      ],
      "payable": false,
      "stateMutability": "nonpayable",
      "type": "function"
    },
    {
      "constant": false,
      "inputs": [
        {
          "internalType": "address",
          "name": "sender",
          "type": "address"
        },
        {
          "internalType": "address",
          "name": "recipient",
          "type": "address"
        },
        {
          "internalType": "uint256",
          "name": "amount",
          "type": "uint256"
        }
      ],
      "name": "transferFrom",
      "outputs": [
        {
          "internalType": "bool",
          "name": "",
          "type": "bool"
        }
      ],
      "payable": false,
      "stateMutability": "nonpayable",
      "type": "function"
    },
    {
      "constant": true,
      "inputs": [
        {
          "internalType": "uint256",
          "name": "input_amount",
          "type": "uint256"
        },
        {
          "internalType": "uint256",
          "name": "input_reserve",
          "type": "uint256"
        },
        {
          "internalType": "uint256",
          "name": "output_reserve",
          "type": "uint256"
        }
      ],
      "name": "getInputPrice",
      "outputs": [
        {
          "internalType": "uint256",
          "name": "",
          "type": "uint256"
        }
      ],
      "payable": false,
      "stateMutability": "pure",
      "type": "function"
    },
    {
      "constant": true,
      "inputs": [
        {
          "internalType": "uint256",
          "name": "output_amount",
          "type": "uint256"
        },
        {
          "internalType": "uint256",
          "name": "input_reserve",
          "type": "uint256"
        },
        {
          "internalType": "uint256",
          "name": "output_reserve",
          "type": "uint256"
        }
      ],
      "name": "getOutputPrice",
      "outputs": [
        {
          "internalType": "uint256",
          "name": "",
          "type": "uint256"
        }
      ],
      "payable": false,
      "stateMutability": "pure",
      "type": "function"
    },
    {
      "constant": false,
      "inputs": [
        {
          "internalType": "uint256",
          "name": "min_tokens",
          "type": "uint256"
        },
        {
          "internalType": "uint256",
          "name": "deadline",
          "type": "uint256"
        }
      ],
      "name": "ethToTokenSwapInput",
      "outputs": [
        {
          "internalType": "uint256",
          "name": "",
          "type": "uint256"
        }
      ],
      "payable": true,
      "stateMutability": "payable",
      "type": "function"
    },
    {
      "constant": false,
      "inputs": [
        {
          "internalType": "uint256",
          "name": "min_tokens",
          "type": "uint256"
        },
        {
          "internalType": "uint256",
          "name": "deadline",
          "type": "uint256"
        },
        {
          "internalType": "address",
          "name": "recipient",
          "type": "address"
        }
      ],
      "name": "ethToTokenTransferInput",
      "outputs": [
        {
          "internalType": "uint256",
          "name": "",
          "type": "uint256"
        }
      ],
      "payable": true,
      "stateMutability": "payable",
      "type": "function"
    },
    {
      "constant": false,
      "inputs": [
        {
          "internalType": "uint256",
          "name": "tokens_bought",
          "type": "uint256"
        },
        {
          "internalType": "uint256",
          "name": "deadline",
          "type": "uint256"
        }
      ],
      "name": "ethToTokenSwapOutput",
      "outputs": [
        {
          "internalType": "uint256",
          "name": "",
          "type": "uint256"
        }
      ],
      "payable": true,
      "stateMutability": "payable",
      "type": "function"
    },
    {
      "constant": false,
      "inputs": [
        {
          "internalType": "uint256",
          "name": "tokens_bought",
          "type": "uint256"
        },
        {
          "internalType": "uint256",
          "name": "deadline",
          "type": "uint256"
        },
        {
          "internalType": "address",
          "name": "recipient",
          "type": "address"
        }
      ],
      "name": "ethToTokenTransferOutput",
      "outputs": [
        {
          "internalType": "uint256",
          "name": "",
          "type": "uint256"
        }
      ],
      "payable": true,
      "stateMutability": "payable",
      "type": "function"
    },
    {
      "constant": false,
      "inputs": [
        {
          "internalType": "uint256",
          "name": "tokens_sold",
          "type": "uint256"
        },
        {
          "internalType": "uint256",
          "name": "min_eth",
          "type": "uint256"
        },
        {
          "internalType": "uint256",
          "name": "deadline",
          "type": "uint256"
        }
      ],
      "name": "tokenToEthSwapInput",
      "outputs": [
        {
          "internalType": "uint256",
          "name": "",
          "type": "uint256"
        }
      ],
      "payable": false,
      "stateMutability": "nonpayable",
      "type": "function"
    },
    {
      "constant": false,
      "inputs": [
        {
          "internalType": "uint256",
          "name": "tokens_sold",
          "type": "uint256"
        },
        {
          "internalType": "uint256",
          "name": "min_eth",
          "type": "uint256"
        },
        {
          "internalType": "uint256",
          "name": "deadline",
          "type": "uint256"
        },
        {
          "internalType": "address payable",
          "name": "recipient",
          "type": "address"
        }
      ],
      "name": "tokenToEthTransferInput",
      "outputs": [
        {
          "internalType": "uint256",
          "name": "",
          "type": "uint256"
        }
      ],
      "payable": false,
      "stateMutability": "nonpayable",
      "type": "function"
    },
    {
      "constant": false,
      "inputs": [
        {
          "internalType": "uint256",
          "name": "eth_bought",
          "type": "uint256"
        },
        {
          "internalType": "uint256",
          "name": "max_tokens",
          "type": "uint256"
        },
        {
          "internalType": "uint256",
          "name": "deadline",
          "type": "uint256"
        }
      ],
      "name": "tokenToEthSwapOutput",
      "outputs": [
        {
          "internalType": "uint256",
          "name": "",
          "type": "uint256"
        }
      ],
      "payable": false,
      "stateMutability": "nonpayable",
      "type": "function"
    },
    {
      "constant": false,
      "inputs": [
        {
          "internalType": "uint256",
          "name": "eth_bought",
          "type": "uint256"
        },
        {
          "internalType": "uint256",
          "name": "max_tokens",
          "type": "uint256"
        },
        {
          "internalType": "uint256",
          "name": "deadline",
          "type": "uint256"
        },
        {
          "internalType": "address payable",
          "name": "recipient",
          "type": "address"
        }
      ],
      "name": "tokenToEthTransferOutput",
      "outputs": [
        {
          "internalType": "uint256",
          "name": "",
          "type": "uint256"
        }
      ],
      "payable": false,
      "stateMutability": "nonpayable",
      "type": "function"
    },
    {
      "constant": false,
      "inputs": [
        {
          "internalType": "uint256",
          "name": "tokens_sold",
          "type": "uint256"
        },
        {
          "internalType": "uint256",
          "name": "min_tokens_bought",
          "type": "uint256"
        },
        {
          "internalType": "uint256",
          "name": "min_eth_bought",
          "type": "uint256"
        },
        {
          "internalType": "uint256",
          "name": "deadline",
          "type": "uint256"
        },
        {
          "internalType": "address",
          "name": "token_addr",
          "type": "address"
        }
      ],
      "name": "tokenToTokenSwapInput",
      "outputs": [
        {
          "internalType": "uint256",
          "name": "",
          "type": "uint256"
        }
      ],
      "payable": false,
      "stateMutability": "nonpayable",
      "type": "function"
    },
    {
      "constant": false,
      "inputs": [
        {
          "internalType": "uint256",
          "name": "tokens_sold",
          "type": "uint256"
        },
        {
          "internalType": "uint256",
          "name": "min_tokens_bought",
          "type": "uint256"
        },
        {
          "internalType": "uint256",
          "name": "min_eth_bought",
          "type": "uint256"
        },
        {
          "internalType": "uint256",
          "name": "deadline",
          "type": "uint256"
        },
        {
          "internalType": "address",
          "name": "recipient",
          "type": "address"
        },
        {
          "internalType": "address",
          "name": "token_addr",
          "type": "address"
        }
      ],
      "name": "tokenToTokenTransferInput",
      "outputs": [
        {
          "internalType": "uint256",
          "name": "",
          "type": "uint256"
        }
      ],
      "payable": false,
      "stateMutability": "nonpayable",
      "type": "function"
    },
    {
      "constant": false,
      "inputs": [
        {
          "internalType": "uint256",
          "name": "tokens_bought",
          "type": "uint256"
        },
        {
          "internalType": "uint256",
          "name": "max_tokens_sold",
          "type": "uint256"
        },
        {
          "internalType": "uint256",
          "name": "max_eth_sold",
          "type": "uint256"
        },
        {
          "internalType": "uint256",
          "name": "deadline",
          "type": "uint256"
        },
        {
          "internalType": "address",
          "name": "token_addr",
          "type": "address"
        }
      ],
      "name": "tokenToTokenSwapOutput",
      "outputs": [
        {
          "internalType": "uint256",
          "name": "",
          "type": "uint256"
        }
      ],
      "payable": false,
      "stateMutability": "nonpayable",
      "type": "function"
    },
    {
      "constant": false,
      "inputs": [
        {
          "internalType": "uint256",
          "name": "tokens_bought",
          "type": "uint256"
        },
        {
          "internalType": "uint256",
          "name": "max_tokens_sold",
          "type": "uint256"
        },
        {
          "internalType": "uint256",
          "name": "max_eth_sold",
          "type": "uint256"
        },
        {
          "internalType": "uint256",
          "name": "deadline",
          "type": "uint256"
        },
        {
          "internalType": "address",
          "name": "recipient",
          "type": "address"
        },
        {
          "internalType": "address",
          "name": "token_addr",
          "type": "address"
        }
      ],
      "name": "tokenToTokenTransferOutput",
      "outputs": [
        {
          "internalType": "uint256",
          "name": "",
          "type": "uint256"
        }
      ],
      "payable": false,
      "stateMutability": "nonpayable",
      "type": "function"
    },
    {
      "constant": false,
      "inputs": [
        {
          "internalType": "uint256",
          "name": "tokens_sold",
          "type": "uint256"
        },
        {
          "internalType": "uint256",
          "name": "min_tokens_bought",
          "type": "uint256"
        },
        {
          "internalType": "uint256",
          "name": "min_eth_bought",
          "type": "uint256"
        },
        {
          "internalType": "uint256",
          "name": "deadline",
          "type": "uint256"
        },
        {
          "internalType": "address payable",
          "name": "exchange_addr",
          "type": "address"
        }
      ],
      "name": "tokenToExchangeSwapInput",
      "outputs": [
        {
          "internalType": "uint256",
          "name": "",
          "type": "uint256"
        }
      ],
      "payable": false,
      "stateMutability": "nonpayable",
      "type": "function"
    },
    {
      "constant": false,
      "inputs": [
        {
          "internalType": "uint256",
          "name": "tokens_sold",
          "type": "uint256"
        },
        {
          "internalType": "uint256",
          "name": "min_tokens_bought",
          "type": "uint256"
        },
        {
          "internalType": "uint256",
          "name": "min_eth_bought",
          "type": "uint256"
        },
        {
          "internalType": "uint256",
          "name": "deadline",
          "type": "uint256"
        },
        {
          "internalType": "address",
          "name": "recipient",
          "type": "address"
        },
        {
          "internalType": "address payable",
          "name": "exchange_addr",
          "type": "address"
        }
      ],
      "name": "tokenToExchangeTransferInput",
      "outputs": [
        {
          "internalType": "uint256",
          "name": "",
          "type": "uint256"
        }
      ],
      "payable": false,
      "stateMutability": "nonpayable",
      "type": "function"
    },
    {
      "constant": false,
      "inputs": [
        {
          "internalType": "uint256",
          "name": "tokens_bought",
          "type": "uint256"
        },
        {
          "internalType": "uint256",
          "name": "max_tokens_sold",
          "type": "uint256"
        },
        {
          "internalType": "uint256",
          "name": "max_eth_sold",
          "type": "uint256"
        },
        {
          "internalType": "uint256",
          "name": "deadline",
          "type": "uint256"
        },
        {
          "internalType": "address payable",
          "name": "exchange_addr",
          "type": "address"
        }
      ],
      "name": "tokenToExchangeSwapOutput",
      "outputs": [
        {
          "internalType": "uint256",
          "name": "",
          "type": "uint256"
        }
      ],
      "payable": false,
      "stateMutability": "nonpayable",
      "type": "function"
    },
    {
      "constant": false,
      "inputs": [
        {
          "internalType": "uint256",
          "name": "tokens_bought",
          "type": "uint256"
        },
        {
          "internalType": "uint256",
          "name": "max_tokens_sold",
          "type": "uint256"
        },
        {
          "internalType": "uint256",
          "name": "max_eth_sold",
          "type": "uint256"
        },
        {
          "internalType": "uint256",
          "name": "deadline",
          "type": "uint256"
        },
        {
          "internalType": "address",
          "name": "recipient",
          "type": "address"
        },
        {
          "internalType": "address payable",
          "name": "exchange_addr",
          "type": "address"
        }
      ],
      "name": "tokenToExchangeTransferOutput",
      "outputs": [
        {
          "internalType": "uint256",
          "name": "",
          "type": "uint256"
        }
      ],
      "payable": false,
      "stateMutability": "nonpayable",
      "type": "function"
    },
    {
      "constant": true,
      "inputs": [
        {
          "internalType": "uint256",
          "name": "eth_sold",
          "type": "uint256"
        }
      ],
      "name": "getEthToTokenInputPrice",
      "outputs": [
        {
          "internalType": "uint256",
          "name": "",
          "type": "uint256"
        }
      ],
      "payable": false,
      "stateMutability": "view",
      "type": "function"
    },
    {
      "constant": true,
      "inputs": [
        {
          "internalType": "uint256",
          "name": "tokens_bought",
          "type": "uint256"
        }
      ],
      "name": "getEthToTokenOutputPrice",
      "outputs": [
        {
          "internalType": "uint256",
          "name": "",
          "type": "uint256"
        }
      ],
      "payable": false,
      "stateMutability": "view",
      "type": "function"
    },
    {
      "constant": true,
      "inputs": [
        {
          "internalType": "uint256",
          "name": "tokens_sold",
          "type": "uint256"
        }
      ],
      "name": "getTokenToEthInputPrice",
      "outputs": [
        {
          "internalType": "uint256",
          "name": "",
          "type": "uint256"
        }
      ],
      "payable": false,
      "stateMutability": "view",
      "type": "function"
    },
    {
      "constant": true,
      "inputs": [
        {
          "internalType": "uint256",
          "name": "eth_bought",
          "type": "uint256"
        }
      ],
      "name": "getTokenToEthOutputPrice",
      "outputs": [
        {
          "internalType": "uint256",
          "name": "",
          "type": "uint256"
        }
      ],
      "payable": false,
      "stateMutability": "view",
      "type": "function"
    },
    {
      "constant": true,
      "inputs": [],
      "name": "tokenAddress",
      "outputs": [
        {
          "internalType": "address",
          "name": "",
          "type": "address"
        }
      ],
      "payable": false,
      "stateMutability": "view",
      "type": "function"
    },
    {
      "constant": true,
      "inputs": [],
      "name": "factoryAddress",
      "outputs": [
        {
          "internalType": "address",
          "name": "",
          "type": "address"
        }
      ],
      "payable": false,
      "stateMutability": "view",
      "type": "function"
    },
    {
      "constant": false,
      "inputs": [
        {
          "internalType": "uint256",
          "name": "min_liquidity",
          "type": "uint256"
        },
        {
          "internalType": "uint256",
          "name": "max_tokens",
          "type": "uint256"
        },
        {
          "internalType": "uint256",
          "name": "deadline",
          "type": "uint256"
        }
      ],
      "name": "addLiquidity",
      "outputs": [
        {
          "internalType": "uint256",
          "name": "",
          "type": "uint256"
        }
      ],
      "payable": true,
      "stateMutability": "payable",
      "type": "function"
    },
    {
      "constant": false,
      "inputs": [
        {
          "internalType": "uint256",
          "name": "amount",
          "type": "uint256"
        },
        {
          "internalType": "uint256",
          "name": "min_eth",
          "type": "uint256"
        },
        {
          "internalType": "uint256",
          "name": "min_tokens",
          "type": "uint256"
        },
        {
          "internalType": "uint256",
          "name": "deadline",
          "type": "uint256"
        }
      ],
      "name": "removeLiquidity",
      "outputs": [
        {
          "internalType": "uint256",
          "name": "",
          "type": "uint256"
        },
        {
          "internalType": "uint256",
          "name": "",
          "type": "uint256"
        }
      ],
      "payable": false,
      "stateMutability": "nonpayable",
      "type": "function"
    }
  ],
  "bytecode": "0x60806040523480156200001157600080fd5b5060405162004f0838038062004f08833981810160405260408110156200003757600080fd5b810190808051906020019092919080519060200190929190505050600073ffffffffffffffffffffffffffffffffffffffff16600760009054906101000a900473ffffffffffffffffffffffffffffffffffffffff1673ffffffffffffffffffffffffffffffffffffffff16148015620000ff5750600073ffffffffffffffffffffffffffffffffffffffff16600660009054906101000a900473ffffffffffffffffffffffffffffffffffffffff1673ffffffffffffffffffffffffffffffffffffffff16145b8015620001395750600073ffffffffffffffffffffffffffffffffffffffff168273ffffffffffffffffffffffffffffffffffffffff1614155b620001ac576040517f08c379a000000000000000000000000000000000000000000000000000000000815260040180806020018281038252600f8152602001807f494e56414c49445f41444452455353000000000000000000000000000000000081525060200191505060405180910390fd5b80600760006101000a81548173ffffffffffffffffffffffffffffffffffffffff021916908373ffffffffffffffffffffffffffffffffffffffff16021790555081600660006101000a81548173ffffffffffffffffffffffffffffffffffffffff021916908373ffffffffffffffffffffffffffffffffffffffff1602179055507f556e69737761702056310000000000000000000000000000000000000000000060001b6003819055507f554e492d5631000000000000000000000000000000000000000000000000000060001b60048190555060126005819055505050614c6c806200029c6000396000f3fe60806040526004361061021a5760003560e01c8063966dae0e11610123578063d4e4841d116100ab578063f39b5b9b1161006f578063f39b5b9b14610f41578063f3c0efe914610f8d578063f552d91b1461103a578063f88bf15a146110e7578063fd11c2231461115b5761021a565b8063d4e4841d14610c72578063dd62ed3e14610cf5578063ddf7e1a714610d7a578063ea650c7d14610e07578063ec384a3e14610e945761021a565b8063a9059cbb116100f2578063a9059cbb14610a2a578063ad65d76d14610a9d578063b040d54514610b09578063b1cb43bf14610b96578063cd7724c314610c235761021a565b8063966dae0e1461085c578063981a1327146108b35780639d76ea5814610960578063a457c2d7146109b75761021a565b8063422f1043116101a65780637237e031116101755780637237e0311461069957806389f2a8711461071c57806395b68fe71461077f57806395d89b41146107ce57806395e3c50b146107f95761021a565b8063422f10431461054357806359e94862146105995780636b1d4db7146105e857806370a08231146106345761021a565b806318160ddd116101ed57806318160ddd1461039857806323b872dd146103c35780632640f62c14610456578063313ce567146104a557806339509351146104d05761021a565b8063013efd8b1461022b57806306fdde031461028e578063095ea7b3146102b95780630b5736381461032c575b6102283460014233336111be565b50005b34801561023757600080fd5b506102786004803603606081101561024e57600080fd5b81019080803590602001909291908035906020019092919080359060200190929190505050611448565b6040518082815260200191505060405180910390f35b34801561029a57600080fd5b506102a3611460565b6040518082815260200191505060405180910390f35b3480156102c557600080fd5b50610312600480360360408110156102dc57600080fd5b81019080803573ffffffffffffffffffffffffffffffffffffffff16906020019092919080359060200190929190505050611466565b604051808215151515815260200191505060405180910390f35b6103826004803603606081101561034257600080fd5b810190808035906020019092919080359060200190929190803573ffffffffffffffffffffffffffffffffffffffff169060200190929190505050611484565b6040518082815260200191505060405180910390f35b3480156103a457600080fd5b506103ad61150e565b6040518082815260200191505060405180910390f35b3480156103cf57600080fd5b5061043c600480360360608110156103e657600080fd5b81019080803573ffffffffffffffffffffffffffffffffffffffff169060200190929190803573ffffffffffffffffffffffffffffffffffffffff16906020019092919080359060200190929190505050611518565b604051808215151515815260200191505060405180910390f35b34801561046257600080fd5b5061048f6004803603602081101561047957600080fd5b81019080803590602001909291905050506115f1565b6040518082815260200191505060405180910390f35b3480156104b157600080fd5b506104ba611707565b6040518082815260200191505060405180910390f35b3480156104dc57600080fd5b50610529600480360360408110156104f357600080fd5b81019080803573ffffffffffffffffffffffffffffffffffffffff1690602001909291908035906020019092919050505061170d565b604051808215151515815260200191505060405180910390f35b6105836004803603606081101561055957600080fd5b810190808035906020019092919080359060200190929190803590602001909291905050506117c0565b6040518082815260200191505060405180910390f35b3480156105a557600080fd5b506105d2600480360360208110156105bc57600080fd5b81019080803590602001909291905050506120f4565b6040518082815260200191505060405180910390f35b61061e600480360360408110156105fe57600080fd5b810190808035906020019092919080359060200190929190505050612210565b6040518082815260200191505060405180910390f35b34801561064057600080fd5b506106836004803603602081101561065757600080fd5b81019080803573ffffffffffffffffffffffffffffffffffffffff169060200190929190505050612227565b6040518082815260200191505060405180910390f35b3480156106a557600080fd5b50610706600480360360808110156106bc57600080fd5b81019080803590602001909291908035906020019092919080359060200190929190803573ffffffffffffffffffffffffffffffffffffffff16906020019092919050505061226f565b6040518082815260200191505060405180910390f35b34801561072857600080fd5b506107696004803603606081101561073f57600080fd5b810190808035906020019092919080359060200190929190803590602001909291905050506122fa565b6040518082815260200191505060405180910390f35b34801561078b57600080fd5b506107b8600480360360208110156107a257600080fd5b81019080803590602001909291905050506123ee565b6040518082815260200191505060405180910390f35b3480156107da57600080fd5b506107e361250a565b6040518082815260200191505060405180910390f35b34801561080557600080fd5b506108466004803603606081101561081c57600080fd5b81019080803590602001909291908035906020019092919080359060200190929190505050612510565b6040518082815260200191505060405180910390f35b34801561086857600080fd5b50610871612528565b604051808273ffffffffffffffffffffffffffffffffffffffff1673ffffffffffffffffffffffffffffffffffffffff16815260200191505060405180910390f35b3480156108bf57600080fd5b5061094a600480360360c08110156108d657600080fd5b8101908080359060200190929190803590602001909291908035906020019092919080359060200190929190803573ffffffffffffffffffffffffffffffffffffffff169060200190929190803573ffffffffffffffffffffffffffffffffffffffff169060200190929190505050612552565b6040518082815260200191505060405180910390f35b34801561096c57600080fd5b506109756125a8565b604051808273ffffffffffffffffffffffffffffffffffffffff1673ffffffffffffffffffffffffffffffffffffffff16815260200191505060405180910390f35b3480156109c357600080fd5b50610a10600480360360408110156109da57600080fd5b81019080803573ffffffffffffffffffffffffffffffffffffffff169060200190929190803590602001909291905050506125d2565b604051808215151515815260200191505060405180910390f35b348015610a3657600080fd5b50610a8360048036036040811015610a4d57600080fd5b81019080803573ffffffffffffffffffffffffffffffffffffffff1690602001909291908035906020019092919050505061269f565b604051808215151515815260200191505060405180910390f35b610af360048036036060811015610ab357600080fd5b810190808035906020019092919080359060200190929190803573ffffffffffffffffffffffffffffffffffffffff1690602001909291905050506126bd565b6040518082815260200191505060405180910390f35b348015610b1557600080fd5b50610b80600480360360a0811015610b2c57600080fd5b8101908080359060200190929190803590602001909291908035906020019092919080359060200190929190803573ffffffffffffffffffffffffffffffffffffffff169060200190929190505050612747565b6040518082815260200191505060405180910390f35b348015610ba257600080fd5b50610c0d600480360360a0811015610bb957600080fd5b8101908080359060200190929190803590602001909291908035906020019092919080359060200190929190803573ffffffffffffffffffffffffffffffffffffffff169060200190929190505050612841565b6040518082815260200191505060405180910390f35b348015610c2f57600080fd5b50610c5c60048036036020811015610c4657600080fd5b810190808035906020019092919050505061285d565b6040518082815260200191505060405180910390f35b348015610c7e57600080fd5b50610cdf60048036036080811015610c9557600080fd5b81019080803590602001909291908035906020019092919080359060200190929190803573ffffffffffffffffffffffffffffffffffffffff169060200190929190505050612973565b6040518082815260200191505060405180910390f35b348015610d0157600080fd5b50610d6460048036036040811015610d1857600080fd5b81019080803573ffffffffffffffffffffffffffffffffffffffff169060200190929190803573ffffffffffffffffffffffffffffffffffffffff1690602001909291905050506129fe565b6040518082815260200191505060405180910390f35b348015610d8657600080fd5b50610df1600480360360a0811015610d9d57600080fd5b8101908080359060200190929190803590602001909291908035906020019092919080359060200190929190803573ffffffffffffffffffffffffffffffffffffffff169060200190929190505050612a85565b6040518082815260200191505060405180910390f35b348015610e1357600080fd5b50610e7e600480360360a0811015610e2a57600080fd5b8101908080359060200190929190803590602001909291908035906020019092919080359060200190929190803573ffffffffffffffffffffffffffffffffffffffff169060200190929190505050612b7f565b6040518082815260200191505060405180910390f35b348015610ea057600080fd5b50610f2b600480360360c0811015610eb757600080fd5b8101908080359060200190929190803590602001909291908035906020019092919080359060200190929190803573ffffffffffffffffffffffffffffffffffffffff169060200190929190803573ffffffffffffffffffffffffffffffffffffffff169060200190929190505050612b9b565b6040518082815260200191505060405180910390f35b610f7760048036036040811015610f5757600080fd5b810190808035906020019092919080359060200190929190505050612bf1565b6040518082815260200191505060405180910390f35b348015610f9957600080fd5b50611024600480360360c0811015610fb057600080fd5b8101908080359060200190929190803590602001909291908035906020019092919080359060200190929190803573ffffffffffffffffffffffffffffffffffffffff169060200190929190803573ffffffffffffffffffffffffffffffffffffffff169060200190929190505050612c08565b6040518082815260200191505060405180910390f35b34801561104657600080fd5b506110d1600480360360c081101561105d57600080fd5b8101908080359060200190929190803590602001909291908035906020019092919080359060200190929190803573ffffffffffffffffffffffffffffffffffffffff169060200190929190803573ffffffffffffffffffffffffffffffffffffffff169060200190929190505050612d03565b6040518082815260200191505060405180910390f35b3480156110f357600080fd5b5061113e6004803603608081101561110a57600080fd5b8101908080359060200190929190803590602001909291908035906020019092919080359060200190929190505050612dfe565b604051808381526020018281526020019250505060405180910390f35b34801561116757600080fd5b506111a86004803603606081101561117e57600080fd5b81019080803590602001909291908035906020019092919080359060200190929190505050613231565b6040518082815260200191505060405180910390f35b60004284101580156111d05750600086115b80156111dc5750600085115b6111e557600080fd5b6000600660009054906101000a900473ffffffffffffffffffffffffffffffffffffffff1673ffffffffffffffffffffffffffffffffffffffff166370a08231306040518263ffffffff1660e01b8152600401808273ffffffffffffffffffffffffffffffffffffffff1673ffffffffffffffffffffffffffffffffffffffff16815260200191505060206040518083038186803b15801561128657600080fd5b505afa15801561129a573d6000803e3d6000fd5b505050506040513d60208110156112b057600080fd5b8101908080519060200190929190505050905060006112f9886112f38a3073ffffffffffffffffffffffffffffffffffffffff16316132c990919063ffffffff16565b846122fa565b90508681101561130857600080fd5b600660009054906101000a900473ffffffffffffffffffffffffffffffffffffffff1673ffffffffffffffffffffffffffffffffffffffff1663a9059cbb85836040518363ffffffff1660e01b8152600401808373ffffffffffffffffffffffffffffffffffffffff1673ffffffffffffffffffffffffffffffffffffffff16815260200182815260200192505050602060405180830381600087803b1580156113b157600080fd5b505af11580156113c5573d6000803e3d6000fd5b505050506040513d60208110156113db57600080fd5b81019080805190602001909291905050506113f557600080fd5b80888673ffffffffffffffffffffffffffffffffffffffff167fcd60aa75dea3072fbc07ae6d7d856b5dc5f4eee88854f5b4abf7b680ef8bc50f60405160405180910390a4809250505095945050505050565b60006114578484843333613313565b90509392505050565b60035481565b600061147a6114736135fa565b8484613602565b6001905092915050565b60003073ffffffffffffffffffffffffffffffffffffffff168273ffffffffffffffffffffffffffffffffffffffff16141580156114ef5750600073ffffffffffffffffffffffffffffffffffffffff168273ffffffffffffffffffffffffffffffffffffffff1614155b6114f857600080fd5b61150584348533866137f9565b90509392505050565b6000600254905090565b6000611525848484613adf565b6115e6846115316135fa565b6115e185604051806060016040528060288152602001614b7460289139600160008b73ffffffffffffffffffffffffffffffffffffffff1673ffffffffffffffffffffffffffffffffffffffff16815260200190815260200160002060006115976135fa565b73ffffffffffffffffffffffffffffffffffffffff1673ffffffffffffffffffffffffffffffffffffffff16815260200190815260200160002054613d959092919063ffffffff16565b613602565b600190509392505050565b60008082116115ff57600080fd5b6000600660009054906101000a900473ffffffffffffffffffffffffffffffffffffffff1673ffffffffffffffffffffffffffffffffffffffff166370a08231306040518263ffffffff1660e01b8152600401808273ffffffffffffffffffffffffffffffffffffffff1673ffffffffffffffffffffffffffffffffffffffff16815260200191505060206040518083038186803b1580156116a057600080fd5b505afa1580156116b4573d6000803e3d6000fd5b505050506040513d60208110156116ca57600080fd5b810190808051906020019092919050505090506116ff83823073ffffffffffffffffffffffffffffffffffffffff1631613231565b915050919050565b60055481565b60006117b661171a6135fa565b846117b1856001600061172b6135fa565b73ffffffffffffffffffffffffffffffffffffffff1673ffffffffffffffffffffffffffffffffffffffff16815260200190815260200160002060008973ffffffffffffffffffffffffffffffffffffffff1673ffffffffffffffffffffffffffffffffffffffff16815260200190815260200160002054613e5590919063ffffffff16565b613602565b6001905092915050565b600042821180156117d15750600083115b80156117dd5750600034115b611832576040517f08c379a000000000000000000000000000000000000000000000000000000000815260040180806020018281038252602e815260200180614b9c602e913960400191505060405180910390fd5b600060025490506000811115611c4c576000851161184f57600080fd5b600061187b343073ffffffffffffffffffffffffffffffffffffffff16316132c990919063ffffffff16565b90506000600660009054906101000a900473ffffffffffffffffffffffffffffffffffffffff1673ffffffffffffffffffffffffffffffffffffffff166370a08231306040518263ffffffff1660e01b8152600401808273ffffffffffffffffffffffffffffffffffffffff1673ffffffffffffffffffffffffffffffffffffffff16815260200191505060206040518083038186803b15801561191e57600080fd5b505afa158015611932573d6000803e3d6000fd5b505050506040513d602081101561194857600080fd5b81019080805190602001909291905050509050600061198c6001846119768534613edd90919063ffffffff16565b8161197d57fe5b04613e5590919063ffffffff16565b90506000836119a48634613edd90919063ffffffff16565b816119ab57fe5b0490508188101580156119be5750888110155b6119c757600080fd5b611a18816000803373ffffffffffffffffffffffffffffffffffffffff1673ffffffffffffffffffffffffffffffffffffffff16815260200190815260200160002054613e5590919063ffffffff16565b6000803373ffffffffffffffffffffffffffffffffffffffff1673ffffffffffffffffffffffffffffffffffffffff16815260200190815260200160002081905550611a6d8186613e5590919063ffffffff16565b600281905550600660009054906101000a900473ffffffffffffffffffffffffffffffffffffffff1673ffffffffffffffffffffffffffffffffffffffff166323b872dd3330856040518463ffffffff1660e01b8152600401808473ffffffffffffffffffffffffffffffffffffffff1673ffffffffffffffffffffffffffffffffffffffff1681526020018373ffffffffffffffffffffffffffffffffffffffff1673ffffffffffffffffffffffffffffffffffffffff1681526020018281526020019350505050602060405180830381600087803b158015611b5057600080fd5b505af1158015611b64573d6000803e3d6000fd5b505050506040513d6020811015611b7a57600080fd5b8101908080519060200190929190505050611b9457600080fd5b81343373ffffffffffffffffffffffffffffffffffffffff167f06239653922ac7bea6aa2b19dc486b9361821d37712eb796adfd38d81de278ca60405160405180910390a43373ffffffffffffffffffffffffffffffffffffffff16600073ffffffffffffffffffffffffffffffffffffffff167fddf252ad1be2c89b69c2b068fc378daa952ba7f163c4a11628f55a4df523b3ef836040518082815260200191505060405180910390a380955050505050506120ed565b600073ffffffffffffffffffffffffffffffffffffffff16600760009054906101000a900473ffffffffffffffffffffffffffffffffffffffff1673ffffffffffffffffffffffffffffffffffffffff1614158015611cfa5750600073ffffffffffffffffffffffffffffffffffffffff16600660009054906101000a900473ffffffffffffffffffffffffffffffffffffffff1673ffffffffffffffffffffffffffffffffffffffff1614155b8015611d0a5750633b9aca003410155b611d7c576040517f08c379a000000000000000000000000000000000000000000000000000000000815260040180806020018281038252600d8152602001807f494e56414c49445f56414c55450000000000000000000000000000000000000081525060200191505060405180910390fd5b3073ffffffffffffffffffffffffffffffffffffffff16600760009054906101000a900473ffffffffffffffffffffffffffffffffffffffff1673ffffffffffffffffffffffffffffffffffffffff166306f2bf62600660009054906101000a900473ffffffffffffffffffffffffffffffffffffffff166040518263ffffffff1660e01b8152600401808273ffffffffffffffffffffffffffffffffffffffff1673ffffffffffffffffffffffffffffffffffffffff16815260200191505060206040518083038186803b158015611e5457600080fd5b505afa158015611e68573d6000803e3d6000fd5b505050506040513d6020811015611e7e57600080fd5b810190808051906020019092919050505073ffffffffffffffffffffffffffffffffffffffff1614611eaf57600080fd5b600084905060003073ffffffffffffffffffffffffffffffffffffffff1631905080600281905550806000803373ffffffffffffffffffffffffffffffffffffffff1673ffffffffffffffffffffffffffffffffffffffff16815260200190815260200160002081905550600660009054906101000a900473ffffffffffffffffffffffffffffffffffffffff1673ffffffffffffffffffffffffffffffffffffffff166323b872dd3330856040518463ffffffff1660e01b8152600401808473ffffffffffffffffffffffffffffffffffffffff1673ffffffffffffffffffffffffffffffffffffffff1681526020018373ffffffffffffffffffffffffffffffffffffffff1673ffffffffffffffffffffffffffffffffffffffff1681526020018281526020019350505050602060405180830381600087803b158015611ff757600080fd5b505af115801561200b573d6000803e3d6000fd5b505050506040513d602081101561202157600080fd5b810190808051906020019092919050505061203b57600080fd5b81343373ffffffffffffffffffffffffffffffffffffffff167f06239653922ac7bea6aa2b19dc486b9361821d37712eb796adfd38d81de278ca60405160405180910390a43373ffffffffffffffffffffffffffffffffffffffff16600073ffffffffffffffffffffffffffffffffffffffff167fddf252ad1be2c89b69c2b068fc378daa952ba7f163c4a11628f55a4df523b3ef836040518082815260200191505060405180910390a38093505050505b9392505050565b600080821161210257600080fd5b6000600660009054906101000a900473ffffffffffffffffffffffffffffffffffffffff1673ffffffffffffffffffffffffffffffffffffffff166370a08231306040518263ffffffff1660e01b8152600401808273ffffffffffffffffffffffffffffffffffffffff1673ffffffffffffffffffffffffffffffffffffffff16815260200191505060206040518083038186803b1580156121a357600080fd5b505afa1580156121b7573d6000803e3d6000fd5b505050506040513d60208110156121cd57600080fd5b810190808051906020019092919050505090506000612204843073ffffffffffffffffffffffffffffffffffffffff163184613231565b90508092505050919050565b600061221f83348433336137f9565b905092915050565b60008060008373ffffffffffffffffffffffffffffffffffffffff1673ffffffffffffffffffffffffffffffffffffffff168152602001908152602001600020549050919050565b60003073ffffffffffffffffffffffffffffffffffffffff168273ffffffffffffffffffffffffffffffffffffffff16141580156122da5750600073ffffffffffffffffffffffffffffffffffffffff168273ffffffffffffffffffffffffffffffffffffffff1614155b6122e357600080fd5b6122f08585853386613f63565b9050949350505050565b6000808311801561230b5750600082115b61237d576040517f08c379a000000000000000000000000000000000000000000000000000000000815260040180806020018281038252600d8152602001807f494e56414c49445f56414c55450000000000000000000000000000000000000081525060200191505060405180910390fd5b60006123946103e586613edd90919063ffffffff16565b905060006123ab8483613edd90919063ffffffff16565b905060006123d6836123c86103e889613edd90919063ffffffff16565b613e5590919063ffffffff16565b90508082816123e157fe5b0493505050509392505050565b60008082116123fc57600080fd5b6000600660009054906101000a900473ffffffffffffffffffffffffffffffffffffffff1673ffffffffffffffffffffffffffffffffffffffff166370a08231306040518263ffffffff1660e01b8152600401808273ffffffffffffffffffffffffffffffffffffffff1673ffffffffffffffffffffffffffffffffffffffff16815260200191505060206040518083038186803b15801561249d57600080fd5b505afa1580156124b1573d6000803e3d6000fd5b505050506040513d60208110156124c757600080fd5b8101908080519060200190929190505050905060006124fe84833073ffffffffffffffffffffffffffffffffffffffff16316122fa565b90508092505050919050565b60045481565b600061251f8484843333613f63565b90509392505050565b6000600760009054906101000a900473ffffffffffffffffffffffffffffffffffffffff16905090565b60003073ffffffffffffffffffffffffffffffffffffffff168373ffffffffffffffffffffffffffffffffffffffff16141561258d57600080fd5b61259c8787878733888861425c565b90509695505050505050565b6000600660009054906101000a900473ffffffffffffffffffffffffffffffffffffffff16905090565b60006126956125df6135fa565b8461269085604051806060016040528060258152602001614c1360259139600160006126096135fa565b73ffffffffffffffffffffffffffffffffffffffff1673ffffffffffffffffffffffffffffffffffffffff16815260200190815260200160002060008a73ffffffffffffffffffffffffffffffffffffffff1673ffffffffffffffffffffffffffffffffffffffff16815260200190815260200160002054613d959092919063ffffffff16565b613602565b6001905092915050565b60006126b36126ac6135fa565b8484613adf565b6001905092915050565b60003073ffffffffffffffffffffffffffffffffffffffff168273ffffffffffffffffffffffffffffffffffffffff16141580156127285750600073ffffffffffffffffffffffffffffffffffffffff168273ffffffffffffffffffffffffffffffffffffffff1614155b61273157600080fd5b61273e34858533866111be565b90509392505050565b600080600760009054906101000a900473ffffffffffffffffffffffffffffffffffffffff1673ffffffffffffffffffffffffffffffffffffffff166306f2bf62846040518263ffffffff1660e01b8152600401808273ffffffffffffffffffffffffffffffffffffffff1673ffffffffffffffffffffffffffffffffffffffff16815260200191505060206040518083038186803b1580156127e957600080fd5b505afa1580156127fd573d6000803e3d6000fd5b505050506040513d602081101561281357600080fd5b810190808051906020019092919050505090506128358787878733338761425c565b91505095945050505050565b6000612852868686863333886146e5565b905095945050505050565b600080821161286b57600080fd5b6000600660009054906101000a900473ffffffffffffffffffffffffffffffffffffffff1673ffffffffffffffffffffffffffffffffffffffff166370a08231306040518263ffffffff1660e01b8152600401808273ffffffffffffffffffffffffffffffffffffffff1673ffffffffffffffffffffffffffffffffffffffff16815260200191505060206040518083038186803b15801561290c57600080fd5b505afa158015612920573d6000803e3d6000fd5b505050506040513d602081101561293657600080fd5b8101908080519060200190929190505050905061296b833073ffffffffffffffffffffffffffffffffffffffff1631836122fa565b915050919050565b60003073ffffffffffffffffffffffffffffffffffffffff168273ffffffffffffffffffffffffffffffffffffffff16141580156129de5750600073ffffffffffffffffffffffffffffffffffffffff168273ffffffffffffffffffffffffffffffffffffffff1614155b6129e757600080fd5b6129f48585853386613313565b9050949350505050565b6000600160008473ffffffffffffffffffffffffffffffffffffffff1673ffffffffffffffffffffffffffffffffffffffff16815260200190815260200160002060008373ffffffffffffffffffffffffffffffffffffffff1673ffffffffffffffffffffffffffffffffffffffff16815260200190815260200160002054905092915050565b600080600760009054906101000a900473ffffffffffffffffffffffffffffffffffffffff1673ffffffffffffffffffffffffffffffffffffffff166306f2bf62846040518263ffffffff1660e01b8152600401808273ffffffffffffffffffffffffffffffffffffffff1673ffffffffffffffffffffffffffffffffffffffff16815260200191505060206040518083038186803b158015612b2757600080fd5b505afa158015612b3b573d6000803e3d6000fd5b505050506040513d6020811015612b5157600080fd5b81019080805190602001909291905050509050612b73878787873333876146e5565b91505095945050505050565b6000612b908686868633338861425c565b905095945050505050565b60003073ffffffffffffffffffffffffffffffffffffffff168373ffffffffffffffffffffffffffffffffffffffff161415612bd657600080fd5b612be5878787873388886146e5565b90509695505050505050565b6000612c0034848433336111be565b905092915050565b600080600760009054906101000a900473ffffffffffffffffffffffffffffffffffffffff1673ffffffffffffffffffffffffffffffffffffffff166306f2bf62846040518263ffffffff1660e01b8152600401808273ffffffffffffffffffffffffffffffffffffffff1673ffffffffffffffffffffffffffffffffffffffff16815260200191505060206040518083038186803b158015612caa57600080fd5b505afa158015612cbe573d6000803e3d6000fd5b505050506040513d6020811015612cd457600080fd5b81019080805190602001909291905050509050612cf68888888833898761425c565b9150509695505050505050565b600080600760009054906101000a900473ffffffffffffffffffffffffffffffffffffffff1673ffffffffffffffffffffffffffffffffffffffff166306f2bf62846040518263ffffffff1660e01b8152600401808273ffffffffffffffffffffffffffffffffffffffff1673ffffffffffffffffffffffffffffffffffffffff16815260200191505060206040518083038186803b158015612da557600080fd5b505afa158015612db9573d6000803e3d6000fd5b505050506040513d6020811015612dcf57600080fd5b81019080805190602001909291905050509050612df1888888883389876146e5565b9150509695505050505050565b600080600086118015612e1057504283115b8015612e1c5750600085115b8015612e285750600084115b612e3157600080fd5b6000600254905060008111612e4557600080fd5b6000600660009054906101000a900473ffffffffffffffffffffffffffffffffffffffff1673ffffffffffffffffffffffffffffffffffffffff166370a08231306040518263ffffffff1660e01b8152600401808273ffffffffffffffffffffffffffffffffffffffff1673ffffffffffffffffffffffffffffffffffffffff16815260200191505060206040518083038186803b158015612ee657600080fd5b505afa158015612efa573d6000803e3d6000fd5b505050506040513d6020811015612f1057600080fd5b81019080805190602001909291905050509050600082612f503073ffffffffffffffffffffffffffffffffffffffff16318b613edd90919063ffffffff16565b81612f5757fe5b049050600083612f70848c613edd90919063ffffffff16565b81612f7757fe5b049050888210158015612f8a5750878110155b612f9357600080fd5b612fe48a6000803373ffffffffffffffffffffffffffffffffffffffff1673ffffffffffffffffffffffffffffffffffffffff168152602001908152602001600020546132c990919063ffffffff16565b6000803373ffffffffffffffffffffffffffffffffffffffff1673ffffffffffffffffffffffffffffffffffffffff168152602001908152602001600020819055506130398a856132c990919063ffffffff16565b6002819055503373ffffffffffffffffffffffffffffffffffffffff166108fc839081150290604051600060405180830381858888f19350505050158015613085573d6000803e3d6000fd5b50600660009054906101000a900473ffffffffffffffffffffffffffffffffffffffff1673ffffffffffffffffffffffffffffffffffffffff1663a9059cbb33836040518363ffffffff1660e01b8152600401808373ffffffffffffffffffffffffffffffffffffffff1673ffffffffffffffffffffffffffffffffffffffff16815260200182815260200192505050602060405180830381600087803b15801561312f57600080fd5b505af1158015613143573d6000803e3d6000fd5b505050506040513d602081101561315957600080fd5b810190808051906020019092919050505061317357600080fd5b80823373ffffffffffffffffffffffffffffffffffffffff167f0fbf06c058b90cb038a618f8c2acbf6145f8b3570fd1fa56abb8f0f3f05b36e860405160405180910390a4600073ffffffffffffffffffffffffffffffffffffffff163373ffffffffffffffffffffffffffffffffffffffff167fddf252ad1be2c89b69c2b068fc378daa952ba7f163c4a11628f55a4df523b3ef8c6040518082815260200191505060405180910390a38181955095505050505094509492505050565b600080831180156132425750600082115b61324b57600080fd5b60006132746103e86132668787613edd90919063ffffffff16565b613edd90919063ffffffff16565b9050600061329f6103e561329188876132c990919063ffffffff16565b613edd90919063ffffffff16565b90506132be60018284816132af57fe5b04613e5590919063ffffffff16565b925050509392505050565b600061330b83836040518060400160405280601e81526020017f536166654d6174683a207375627472616374696f6e206f766572666c6f770000815250613d95565b905092915050565b60004284101580156133255750600086115b61332e57600080fd5b6000600660009054906101000a900473ffffffffffffffffffffffffffffffffffffffff1673ffffffffffffffffffffffffffffffffffffffff166370a08231306040518263ffffffff1660e01b8152600401808273ffffffffffffffffffffffffffffffffffffffff1673ffffffffffffffffffffffffffffffffffffffff16815260200191505060206040518083038186803b1580156133cf57600080fd5b505afa1580156133e3573d6000803e3d6000fd5b505050506040513d60208110156133f957600080fd5b81019080805190602001909291905050509050600061343088833073ffffffffffffffffffffffffffffffffffffffff1631613231565b90508087101561343f57600080fd5b8373ffffffffffffffffffffffffffffffffffffffff166108fc899081150290604051600060405180830381858888f19350505050158015613485573d6000803e3d6000fd5b50600660009054906101000a900473ffffffffffffffffffffffffffffffffffffffff1673ffffffffffffffffffffffffffffffffffffffff166323b872dd8630846040518463ffffffff1660e01b8152600401808473ffffffffffffffffffffffffffffffffffffffff1673ffffffffffffffffffffffffffffffffffffffff1681526020018373ffffffffffffffffffffffffffffffffffffffff1673ffffffffffffffffffffffffffffffffffffffff1681526020018281526020019350505050602060405180830381600087803b15801561356357600080fd5b505af1158015613577573d6000803e3d6000fd5b505050506040513d602081101561358d57600080fd5b81019080805190602001909291905050506135a757600080fd5b87818673ffffffffffffffffffffffffffffffffffffffff167f7f4091b46c33e918a0f3aa42307641d17bb67029427a5369e54b35398423870560405160405180910390a4809250505095945050505050565b600033905090565b600073ffffffffffffffffffffffffffffffffffffffff168373ffffffffffffffffffffffffffffffffffffffff161415613688576040517f08c379a0000000000000000000000000000000000000000000000000000000008152600401808060200182810382526024815260200180614bef6024913960400191505060405180910390fd5b600073ffffffffffffffffffffffffffffffffffffffff168273ffffffffffffffffffffffffffffffffffffffff16141561370e576040517f08c379a0000000000000000000000000000000000000000000000000000000008152600401808060200182810382526022815260200180614b0b6022913960400191505060405180910390fd5b80600160008573ffffffffffffffffffffffffffffffffffffffff1673ffffffffffffffffffffffffffffffffffffffff16815260200190815260200160002060008473ffffffffffffffffffffffffffffffffffffffff1673ffffffffffffffffffffffffffffffffffffffff168152602001908152602001600020819055508173ffffffffffffffffffffffffffffffffffffffff168373ffffffffffffffffffffffffffffffffffffffff167f8c5be1e5ebec7d5bd14f71427d1e84f3dd0314c0f7b2291e5b200ac8c7c3b925836040518082815260200191505060405180910390a3505050565b600042841015801561380b5750600086115b80156138175750600085115b61382057600080fd5b6000600660009054906101000a900473ffffffffffffffffffffffffffffffffffffffff1673ffffffffffffffffffffffffffffffffffffffff166370a08231306040518263ffffffff1660e01b8152600401808273ffffffffffffffffffffffffffffffffffffffff1673ffffffffffffffffffffffffffffffffffffffff16815260200191505060206040518083038186803b1580156138c157600080fd5b505afa1580156138d5573d6000803e3d6000fd5b505050506040513d60208110156138eb57600080fd5b8101908080519060200190929190505050905060006139348861392e893073ffffffffffffffffffffffffffffffffffffffff16316132c990919063ffffffff16565b84613231565b9050600061394b82896132c990919063ffffffff16565b9050600081111561399e578573ffffffffffffffffffffffffffffffffffffffff166108fc829081150290604051600060405180830381858888f1935050505015801561399c573d6000803e3d6000fd5b505b600660009054906101000a900473ffffffffffffffffffffffffffffffffffffffff1673ffffffffffffffffffffffffffffffffffffffff1663a9059cbb868b6040518363ffffffff1660e01b8152600401808373ffffffffffffffffffffffffffffffffffffffff1673ffffffffffffffffffffffffffffffffffffffff16815260200182815260200192505050602060405180830381600087803b158015613a4757600080fd5b505af1158015613a5b573d6000803e3d6000fd5b505050506040513d6020811015613a7157600080fd5b8101908080519060200190929190505050613a8b57600080fd5b88828773ffffffffffffffffffffffffffffffffffffffff167fcd60aa75dea3072fbc07ae6d7d856b5dc5f4eee88854f5b4abf7b680ef8bc50f60405160405180910390a481935050505095945050505050565b600073ffffffffffffffffffffffffffffffffffffffff168373ffffffffffffffffffffffffffffffffffffffff161415613b65576040517f08c379a0000000000000000000000000000000000000000000000000000000008152600401808060200182810382526025815260200180614bca6025913960400191505060405180910390fd5b600073ffffffffffffffffffffffffffffffffffffffff168273ffffffffffffffffffffffffffffffffffffffff161415613beb576040517f08c379a0000000000000000000000000000000000000000000000000000000008152600401808060200182810382526023815260200180614ae86023913960400191505060405180910390fd5b613c5681604051806060016040528060268152602001614b2d602691396000808773ffffffffffffffffffffffffffffffffffffffff1673ffffffffffffffffffffffffffffffffffffffff16815260200190815260200160002054613d959092919063ffffffff16565b6000808573ffffffffffffffffffffffffffffffffffffffff1673ffffffffffffffffffffffffffffffffffffffff16815260200190815260200160002081905550613ce9816000808573ffffffffffffffffffffffffffffffffffffffff1673ffffffffffffffffffffffffffffffffffffffff16815260200190815260200160002054613e5590919063ffffffff16565b6000808473ffffffffffffffffffffffffffffffffffffffff1673ffffffffffffffffffffffffffffffffffffffff168152602001908152602001600020819055508173ffffffffffffffffffffffffffffffffffffffff168373ffffffffffffffffffffffffffffffffffffffff167fddf252ad1be2c89b69c2b068fc378daa952ba7f163c4a11628f55a4df523b3ef836040518082815260200191505060405180910390a3505050565b6000838311158290613e42576040517f08c379a00000000000000000000000000000000000000000000000000000000081526004018080602001828103825283818151815260200191508051906020019080838360005b83811015613e07578082015181840152602081019050613dec565b50505050905090810190601f168015613e345780820380516001836020036101000a031916815260200191505b509250505060405180910390fd5b5060008385039050809150509392505050565b600080828401905083811015613ed3576040517f08c379a000000000000000000000000000000000000000000000000000000000815260040180806020018281038252601b8152602001807f536166654d6174683a206164646974696f6e206f766572666c6f77000000000081525060200191505060405180910390fd5b8091505092915050565b600080831415613ef05760009050613f5d565b6000828402905082848281613f0157fe5b0414613f58576040517f08c379a0000000000000000000000000000000000000000000000000000000008152600401808060200182810382526021815260200180614b536021913960400191505060405180910390fd5b809150505b92915050565b6000428410158015613f755750600086115b8015613f815750600085115b613f8a57600080fd5b6000600660009054906101000a900473ffffffffffffffffffffffffffffffffffffffff1673ffffffffffffffffffffffffffffffffffffffff166370a08231306040518263ffffffff1660e01b8152600401808273ffffffffffffffffffffffffffffffffffffffff1673ffffffffffffffffffffffffffffffffffffffff16815260200191505060206040518083038186803b15801561402b57600080fd5b505afa15801561403f573d6000803e3d6000fd5b505050506040513d602081101561405557600080fd5b81019080805190602001909291905050509050600061408c88833073ffffffffffffffffffffffffffffffffffffffff16316122fa565b90506000819050878110156140a057600080fd5b8473ffffffffffffffffffffffffffffffffffffffff166108fc829081150290604051600060405180830381858888f193505050501580156140e6573d6000803e3d6000fd5b50600660009054906101000a900473ffffffffffffffffffffffffffffffffffffffff1673ffffffffffffffffffffffffffffffffffffffff166323b872dd87308c6040518463ffffffff1660e01b8152600401808473ffffffffffffffffffffffffffffffffffffffff1673ffffffffffffffffffffffffffffffffffffffff1681526020018373ffffffffffffffffffffffffffffffffffffffff1673ffffffffffffffffffffffffffffffffffffffff1681526020018281526020019350505050602060405180830381600087803b1580156141c457600080fd5b505af11580156141d8573d6000803e3d6000fd5b505050506040513d60208110156141ee57600080fd5b810190808051906020019092919050505061420857600080fd5b80898773ffffffffffffffffffffffffffffffffffffffff167f7f4091b46c33e918a0f3aa42307641d17bb67029427a5369e54b35398423870560405160405180910390a480935050505095945050505050565b600042851015801561427a57506000881180156142795750600086115b5b61428357600080fd5b3073ffffffffffffffffffffffffffffffffffffffff168273ffffffffffffffffffffffffffffffffffffffff16141580156142ec5750600073ffffffffffffffffffffffffffffffffffffffff168273ffffffffffffffffffffffffffffffffffffffff1614155b6142f557600080fd5b60008273ffffffffffffffffffffffffffffffffffffffff166359e948628a6040518263ffffffff1660e01b81526004018082815260200191505060206040518083038186803b15801561434857600080fd5b505afa15801561435c573d6000803e3d6000fd5b505050506040513d602081101561437257600080fd5b810190808051906020019092919050505090506000600660009054906101000a900473ffffffffffffffffffffffffffffffffffffffff1673ffffffffffffffffffffffffffffffffffffffff166370a08231306040518263ffffffff1660e01b8152600401808273ffffffffffffffffffffffffffffffffffffffff1673ffffffffffffffffffffffffffffffffffffffff16815260200191505060206040518083038186803b15801561442657600080fd5b505afa15801561443a573d6000803e3d6000fd5b505050506040513d602081101561445057600080fd5b81019080805190602001909291905050509050600061448783833073ffffffffffffffffffffffffffffffffffffffff1631613231565b9050808a101580156144995750828910155b6144a257600080fd5b600660009054906101000a900473ffffffffffffffffffffffffffffffffffffffff1673ffffffffffffffffffffffffffffffffffffffff166323b872dd8830846040518463ffffffff1660e01b8152600401808473ffffffffffffffffffffffffffffffffffffffff1673ffffffffffffffffffffffffffffffffffffffff1681526020018373ffffffffffffffffffffffffffffffffffffffff1673ffffffffffffffffffffffffffffffffffffffff1681526020018281526020019350505050602060405180830381600087803b15801561457f57600080fd5b505af1158015614593573d6000803e3d6000fd5b505050506040513d60208110156145a957600080fd5b81019080805190602001909291905050506145c357600080fd5b8473ffffffffffffffffffffffffffffffffffffffff16630b573638848d8b8a6040518563ffffffff1660e01b8152600401808481526020018381526020018273ffffffffffffffffffffffffffffffffffffffff1673ffffffffffffffffffffffffffffffffffffffff16815260200193505050506020604051808303818588803b15801561465257600080fd5b505af1158015614666573d6000803e3d6000fd5b50505050506040513d602081101561467d57600080fd5b81019080805190602001909291905050505082818873ffffffffffffffffffffffffffffffffffffffff167f7f4091b46c33e918a0f3aa42307641d17bb67029427a5369e54b35398423870560405160405180910390a4809350505050979650505050505050565b60004285101580156146f75750600088115b80156147035750600087115b801561470f5750600086115b61471857600080fd5b3073ffffffffffffffffffffffffffffffffffffffff168273ffffffffffffffffffffffffffffffffffffffff16141580156147815750600073ffffffffffffffffffffffffffffffffffffffff168273ffffffffffffffffffffffffffffffffffffffff1614155b61478a57600080fd5b6000600660009054906101000a900473ffffffffffffffffffffffffffffffffffffffff1673ffffffffffffffffffffffffffffffffffffffff166370a08231306040518263ffffffff1660e01b8152600401808273ffffffffffffffffffffffffffffffffffffffff1673ffffffffffffffffffffffffffffffffffffffff16815260200191505060206040518083038186803b15801561482b57600080fd5b505afa15801561483f573d6000803e3d6000fd5b505050506040513d602081101561485557600080fd5b81019080805190602001909291905050509050600061488c8a833073ffffffffffffffffffffffffffffffffffffffff16316122fa565b90506000819050888110156148a057600080fd5b600660009054906101000a900473ffffffffffffffffffffffffffffffffffffffff1673ffffffffffffffffffffffffffffffffffffffff166323b872dd88308e6040518463ffffffff1660e01b8152600401808473ffffffffffffffffffffffffffffffffffffffff1673ffffffffffffffffffffffffffffffffffffffff1681526020018373ffffffffffffffffffffffffffffffffffffffff1673ffffffffffffffffffffffffffffffffffffffff1681526020018281526020019350505050602060405180830381600087803b15801561497d57600080fd5b505af1158015614991573d6000803e3d6000fd5b505050506040513d60208110156149a757600080fd5b81019080805190602001909291905050506149c157600080fd5b60008573ffffffffffffffffffffffffffffffffffffffff1663ad65d76d838d8c8b6040518563ffffffff1660e01b8152600401808481526020018381526020018273ffffffffffffffffffffffffffffffffffffffff1673ffffffffffffffffffffffffffffffffffffffff16815260200193505050506020604051808303818588803b158015614a5257600080fd5b505af1158015614a66573d6000803e3d6000fd5b50505050506040513d6020811015614a7d57600080fd5b81019080805190602001909291905050509050818c8973ffffffffffffffffffffffffffffffffffffffff167f7f4091b46c33e918a0f3aa42307641d17bb67029427a5369e54b35398423870560405160405180910390a48094505050505097965050505050505056fe45524332303a207472616e7366657220746f20746865207a65726f206164647265737345524332303a20617070726f766520746f20746865207a65726f206164647265737345524332303a207472616e7366657220616d6f756e7420657863656564732062616c616e6365536166654d6174683a206d756c7469706c69636174696f6e206f766572666c6f7745524332303a207472616e7366657220616d6f756e74206578636565647320616c6c6f77616e6365556e697377617045786368616e6765236164644c69717569646974793a20494e56414c49445f415247554d454e5445524332303a207472616e736665722066726f6d20746865207a65726f206164647265737345524332303a20617070726f76652066726f6d20746865207a65726f206164647265737345524332303a2064656372656173656420616c6c6f77616e63652062656c6f77207a65726fa265627a7a72315820224c11ca92362f79431e5e43bd51d2e2c85f4cc0d5daa02ce48e3b526b8c3f1864736f6c634300050d0032",
  "source": "pragma solidity ^0.5.13;\n\nimport \"./UniswapERC20.sol\";\nimport \"./IUniswapFactory.sol\";\nimport \"./IUniswapExchange.sol\";\n\n\ncontract MockUniswapExchange is UniswapERC20 {\n\n  /***********************************|\n  |        Variables && Events        |\n  |__________________________________*/\n\n  // Variables\n  bytes32 public name;         // Uniswap V1\n  bytes32 public symbol;       // UNI-V1\n  uint256 public decimals;     // 18\n  IERC20 token;                // address of the ERC20 token traded on this contract\n  IUniswapFactory factory;     // interface for the factory that created this contract\n  \n  // Events\n  event TokenPurchase(address indexed buyer, uint256 indexed eth_sold, uint256 indexed tokens_bought);\n  event EthPurchase(address indexed buyer, uint256 indexed tokens_sold, uint256 indexed eth_bought);\n  event AddLiquidity(address indexed provider, uint256 indexed eth_amount, uint256 indexed token_amount);\n  event RemoveLiquidity(address indexed provider, uint256 indexed eth_amount, uint256 indexed token_amount);\n\n\n  /***********************************|\n  |            Constsructor           |\n  |__________________________________*/\n\n  /**  \n   * @dev This function acts as a contract constructor which is not currently supported in contracts deployed\n   *      using create_with_code_of(). It is called once by the factory during contract creation.\n   */\n  constructor(address token_addr, address uniswap_factory) public {\n    require( \n      address(factory) == address(0) && address(token) == address(0) && token_addr != address(0), \n      \"INVALID_ADDRESS\"\n    );\n    factory = IUniswapFactory(uniswap_factory);\n    token = IERC20(token_addr);\n    name = 0x556e697377617020563100000000000000000000000000000000000000000000;\n    symbol = 0x554e492d56310000000000000000000000000000000000000000000000000000;\n    decimals = 18;\n  }\n\n\n  /***********************************|\n  |        Exchange Functions         |\n  |__________________________________*/\n\n\n  /**\n   * @notice Convert ETH to Tokens.\n   * @dev User specifies exact input (msg.value).\n   * @dev User cannot specify minimum output or deadline.\n   */\n  function () external payable {\n    ethToTokenInput(msg.value, 1, block.timestamp, msg.sender, msg.sender);\n  }\n\n /**\n   * @dev Pricing function for converting between ETH && Tokens.\n   * @param input_amount Amount of ETH or Tokens being sold.\n   * @param input_reserve Amount of ETH or Tokens (input type) in exchange reserves.\n   * @param output_reserve Amount of ETH or Tokens (output type) in exchange reserves.\n   * @return Amount of ETH or Tokens bought.\n   */\n  function getInputPrice(uint256 input_amount, uint256 input_reserve, uint256 output_reserve) public pure returns (uint256) {\n    require(input_reserve > 0 && output_reserve > 0, \"INVALID_VALUE\");\n    uint256 input_amount_with_fee = input_amount.mul(997);\n    uint256 numerator = input_amount_with_fee.mul(output_reserve);\n    uint256 denominator = input_reserve.mul(1000).add(input_amount_with_fee);\n    return numerator / denominator;\n  }\n\n /**\n   * @dev Pricing function for converting between ETH && Tokens.\n   * @param output_amount Amount of ETH or Tokens being bought.\n   * @param input_reserve Amount of ETH or Tokens (input type) in exchange reserves.\n   * @param output_reserve Amount of ETH or Tokens (output type) in exchange reserves.\n   * @return Amount of ETH or Tokens sold.\n   */\n  function getOutputPrice(uint256 output_amount, uint256 input_reserve, uint256 output_reserve) public pure returns (uint256) {\n    require(input_reserve > 0 && output_reserve > 0);\n    uint256 numerator = input_reserve.mul(output_amount).mul(1000);\n    uint256 denominator = (output_reserve.sub(output_amount)).mul(997);\n    return (numerator / denominator).add(1);\n  }\n\n  function ethToTokenInput(uint256 eth_sold, uint256 min_tokens, uint256 deadline, address buyer, address recipient) private returns (uint256) {\n    require(deadline >= block.timestamp && eth_sold > 0 && min_tokens > 0);\n    uint256 token_reserve = token.balanceOf(address(this));\n    uint256 tokens_bought = getInputPrice(eth_sold, address(this).balance.sub(eth_sold), token_reserve);\n    require(tokens_bought >= min_tokens);\n    require(token.transfer(recipient, tokens_bought));\n    emit TokenPurchase(buyer, eth_sold, tokens_bought);\n    return tokens_bought;\n  }\n\n  /** \n   * @notice Convert ETH to Tokens.\n   * @dev User specifies exact input (msg.value) && minimum output.\n   * @param min_tokens Minimum Tokens bought.\n   * @param deadline Time after which this transaction can no longer be executed.\n   * @return Amount of Tokens bought.\n   */ \n  function ethToTokenSwapInput(uint256 min_tokens, uint256 deadline) public payable returns (uint256) {\n    return ethToTokenInput(msg.value, min_tokens, deadline, msg.sender, msg.sender);\n  }\n\n  /** \n   * @notice Convert ETH to Tokens && transfers Tokens to recipient.\n   * @dev User specifies exact input (msg.value) && minimum output\n   * @param min_tokens Minimum Tokens bought.\n   * @param deadline Time after which this transaction can no longer be executed.\n   * @param recipient The address that receives output Tokens.\n   * @return  Amount of Tokens bought.\n   */\n  function ethToTokenTransferInput(uint256 min_tokens, uint256 deadline, address recipient) public payable returns(uint256) {\n    require(recipient != address(this) && recipient != address(0));\n    return ethToTokenInput(msg.value, min_tokens, deadline, msg.sender, recipient);\n  }\n\n  function ethToTokenOutput(uint256 tokens_bought, uint256 max_eth, uint256 deadline, address payable buyer, address recipient) private returns (uint256) {\n    require(deadline >= block.timestamp && tokens_bought > 0 && max_eth > 0);\n    uint256 token_reserve = token.balanceOf(address(this));\n    uint256 eth_sold = getOutputPrice(tokens_bought, address(this).balance.sub(max_eth), token_reserve);\n    // Throws if eth_sold > max_eth\n    uint256 eth_refund = max_eth.sub(eth_sold);\n    if (eth_refund > 0) {\n      buyer.transfer(eth_refund);\n    }\n    require(token.transfer(recipient, tokens_bought));\n    emit TokenPurchase(buyer, eth_sold, tokens_bought);\n    return eth_sold;\n  }\n\n  /** \n   * @notice Convert ETH to Tokens.\n   * @dev User specifies maximum input (msg.value) && exact output.\n   * @param tokens_bought Amount of tokens bought.\n   * @param deadline Time after which this transaction can no longer be executed.\n   * @return Amount of ETH sold.\n   */\n  function ethToTokenSwapOutput(uint256 tokens_bought, uint256 deadline) public payable returns(uint256) {\n    return ethToTokenOutput(tokens_bought, msg.value, deadline, msg.sender, msg.sender);\n  }\n\n  /** \n   * @notice Convert ETH to Tokens && transfers Tokens to recipient.\n   * @dev User specifies maximum input (msg.value) && exact output.\n   * @param tokens_bought Amount of tokens bought.\n   * @param deadline Time after which this transaction can no longer be executed.\n   * @param recipient The address that receives output Tokens.\n   * @return Amount of ETH sold.\n   */\n  function ethToTokenTransferOutput(uint256 tokens_bought, uint256 deadline, address recipient) public payable returns (uint256) {\n    require(recipient != address(this) && recipient != address(0));\n    return ethToTokenOutput(tokens_bought, msg.value, deadline, msg.sender, recipient);\n  }\n\n  function tokenToEthInput(uint256 tokens_sold, uint256 min_eth, uint256 deadline, address buyer, address payable recipient) private returns (uint256) {\n    require(deadline >= block.timestamp && tokens_sold > 0 && min_eth > 0);\n    uint256 token_reserve = token.balanceOf(address(this));\n    uint256 eth_bought = getInputPrice(tokens_sold, token_reserve, address(this).balance);\n    uint256 wei_bought = eth_bought;\n    require(wei_bought >= min_eth);\n    recipient.transfer(wei_bought);\n    require(token.transferFrom(buyer, address(this), tokens_sold));\n    emit EthPurchase(buyer, tokens_sold, wei_bought);\n    return wei_bought;\n  }\n\n  /** \n   * @notice Convert Tokens to ETH.\n   * @dev User specifies exact input && minimum output.\n   * @param tokens_sold Amount of Tokens sold.\n   * @param min_eth Minimum ETH purchased.\n   * @param deadline Time after which this transaction can no longer be executed.\n   * @return Amount of ETH bought.\n   */\n  function tokenToEthSwapInput(uint256 tokens_sold, uint256 min_eth, uint256 deadline) public returns (uint256) {\n    return tokenToEthInput(tokens_sold, min_eth, deadline, msg.sender, msg.sender);\n  }\n\n  /** \n   * @notice Convert Tokens to ETH && transfers ETH to recipient.\n   * @dev User specifies exact input && minimum output.\n   * @param tokens_sold Amount of Tokens sold.\n   * @param min_eth Minimum ETH purchased.\n   * @param deadline Time after which this transaction can no longer be executed.\n   * @param recipient The address that receives output ETH.\n   * @return  Amount of ETH bought.\n   */\n  function tokenToEthTransferInput(uint256 tokens_sold, uint256 min_eth, uint256 deadline, address payable recipient) public returns (uint256) {\n    require(recipient != address(this) && recipient != address(0));\n    return tokenToEthInput(tokens_sold, min_eth, deadline, msg.sender, recipient);\n  }\n\n  \n  function tokenToEthOutput(uint256 eth_bought, uint256 max_tokens, uint256 deadline, address buyer, address payable recipient) private returns (uint256) {\n    require(deadline >= block.timestamp && eth_bought > 0);\n    uint256 token_reserve = token.balanceOf(address(this));\n    uint256 tokens_sold = getOutputPrice(eth_bought, token_reserve, address(this).balance);\n    // tokens sold is always > 0\n    require(max_tokens >= tokens_sold);\n    recipient.transfer(eth_bought);\n    require(token.transferFrom(buyer, address(this), tokens_sold));\n    emit EthPurchase(buyer, tokens_sold, eth_bought);\n    return tokens_sold;\n  }\n\n  /** \n   * @notice Convert Tokens to ETH.\n   * @dev User specifies maximum input && exact output.\n   * @param eth_bought Amount of ETH purchased.\n   * @param max_tokens Maximum Tokens sold.\n   * @param deadline Time after which this transaction can no longer be executed.\n   * @return Amount of Tokens sold.\n   */\n  function tokenToEthSwapOutput(uint256 eth_bought, uint256 max_tokens, uint256 deadline) public returns (uint256) {\n    return tokenToEthOutput(eth_bought, max_tokens, deadline, msg.sender, msg.sender);\n  }\n\n  /**\n   * @notice Convert Tokens to ETH && transfers ETH to recipient.\n   * @dev User specifies maximum input && exact output.\n   * @param eth_bought Amount of ETH purchased.\n   * @param max_tokens Maximum Tokens sold.\n   * @param deadline Time after which this transaction can no longer be executed.\n   * @param recipient The address that receives output ETH.\n   * @return Amount of Tokens sold.\n   */\n  function tokenToEthTransferOutput(uint256 eth_bought, uint256 max_tokens, uint256 deadline, address payable recipient) public returns (uint256) {\n    require(recipient != address(this) && recipient != address(0));\n    return tokenToEthOutput(eth_bought, max_tokens, deadline, msg.sender, recipient);\n  }\n\n  function tokenToTokenInput(\n    uint256 tokens_sold, \n    uint256 min_tokens_bought, \n    uint256 min_eth_bought, \n    uint256 deadline,\n    address buyer, \n    address recipient, \n    address payable exchange_addr) \n    private returns (uint256) \n  {\n    require(deadline >= block.timestamp && tokens_sold > 0 && min_tokens_bought > 0 && min_eth_bought > 0);\n    require(exchange_addr != address(this) && exchange_addr != address(0));\n    uint256 token_reserve = token.balanceOf(address(this));\n    uint256 eth_bought = getInputPrice(tokens_sold, token_reserve, address(this).balance);\n    uint256 wei_bought = eth_bought;\n    require(wei_bought >= min_eth_bought);\n    require(token.transferFrom(buyer, address(this), tokens_sold));\n    uint256 tokens_bought = IUniswapExchange(exchange_addr).ethToTokenTransferInput.value(wei_bought)(min_tokens_bought, deadline, recipient);\n    emit EthPurchase(buyer, tokens_sold, wei_bought);\n    return tokens_bought;\n  }\n\n  /**\n   * @notice Convert Tokens (token) to Tokens (token_addr).\n   * @dev User specifies exact input && minimum output.\n   * @param tokens_sold Amount of Tokens sold.\n   * @param min_tokens_bought Minimum Tokens (token_addr) purchased.\n   * @param min_eth_bought Minimum ETH purchased as intermediary.\n   * @param deadline Time after which this transaction can no longer be executed.\n   * @param token_addr The address of the token being purchased.\n   * @return Amount of Tokens (token_addr) bought.\n   */\n  function tokenToTokenSwapInput(\n    uint256 tokens_sold, \n    uint256 min_tokens_bought, \n    uint256 min_eth_bought, \n    uint256 deadline, \n    address token_addr) \n    public returns (uint256) \n  {\n    address payable exchange_addr = factory.getExchange(token_addr);\n    return tokenToTokenInput(tokens_sold, min_tokens_bought, min_eth_bought, deadline, msg.sender, msg.sender, exchange_addr);\n  }\n\n  /**\n   * @notice Convert Tokens (token) to Tokens (token_addr) && transfers\n   *         Tokens (token_addr) to recipient.\n   * @dev User specifies exact input && minimum output.\n   * @param tokens_sold Amount of Tokens sold.\n   * @param min_tokens_bought Minimum Tokens (token_addr) purchased.\n   * @param min_eth_bought Minimum ETH purchased as intermediary.\n   * @param deadline Time after which this transaction can no longer be executed.\n   * @param recipient The address that receives output ETH.\n   * @param token_addr The address of the token being purchased.\n   * @return Amount of Tokens (token_addr) bought.\n   */\n  function tokenToTokenTransferInput(\n    uint256 tokens_sold, \n    uint256 min_tokens_bought, \n    uint256 min_eth_bought, \n    uint256 deadline, \n    address recipient, \n    address token_addr) \n    public returns (uint256) \n  {\n    address payable exchange_addr = factory.getExchange(token_addr);\n    return tokenToTokenInput(tokens_sold, min_tokens_bought, min_eth_bought, deadline, msg.sender, recipient, exchange_addr);\n  }\n\n  function tokenToTokenOutput(\n    uint256 tokens_bought, \n    uint256 max_tokens_sold, \n    uint256 max_eth_sold, \n    uint256 deadline, \n    address buyer, \n    address recipient, \n    address payable exchange_addr) \n    private returns (uint256) \n  {\n    require(deadline >= block.timestamp && (tokens_bought > 0 && max_eth_sold > 0));\n    require(exchange_addr != address(this) && exchange_addr != address(0));\n    uint256 eth_bought = IUniswapExchange(exchange_addr).getEthToTokenOutputPrice(tokens_bought);\n    uint256 token_reserve = token.balanceOf(address(this));\n    uint256 tokens_sold = getOutputPrice(eth_bought, token_reserve, address(this).balance);\n    // tokens sold is always > 0\n    require(max_tokens_sold >= tokens_sold && max_eth_sold >= eth_bought);\n    require(token.transferFrom(buyer, address(this), tokens_sold));\n    IUniswapExchange(exchange_addr).ethToTokenTransferOutput.value(eth_bought)(tokens_bought, deadline, recipient);\n    emit EthPurchase(buyer, tokens_sold, eth_bought);\n    return tokens_sold;\n  }\n\n  /**\n   * @notice Convert Tokens (token) to Tokens (token_addr).\n   * @dev User specifies maximum input && exact output.\n   * @param tokens_bought Amount of Tokens (token_addr) bought.\n   * @param max_tokens_sold Maximum Tokens (token) sold.\n   * @param max_eth_sold Maximum ETH purchased as intermediary.\n   * @param deadline Time after which this transaction can no longer be executed.\n   * @param token_addr The address of the token being purchased.\n   * @return Amount of Tokens (token) sold.\n   */\n  function tokenToTokenSwapOutput(\n    uint256 tokens_bought, \n    uint256 max_tokens_sold, \n    uint256 max_eth_sold, \n    uint256 deadline, \n    address token_addr) \n    public returns (uint256) \n  {\n    address payable exchange_addr = factory.getExchange(token_addr);\n    return tokenToTokenOutput(tokens_bought, max_tokens_sold, max_eth_sold, deadline, msg.sender, msg.sender, exchange_addr);\n  }\n\n  /**\n   * @notice Convert Tokens (token) to Tokens (token_addr) && transfers\n   *         Tokens (token_addr) to recipient.\n   * @dev User specifies maximum input && exact output.\n   * @param tokens_bought Amount of Tokens (token_addr) bought.\n   * @param max_tokens_sold Maximum Tokens (token) sold.\n   * @param max_eth_sold Maximum ETH purchased as intermediary.\n   * @param deadline Time after which this transaction can no longer be executed.\n   * @param recipient The address that receives output ETH.\n   * @param token_addr The address of the token being purchased.\n   * @return Amount of Tokens (token) sold.\n   */\n  function tokenToTokenTransferOutput(\n    uint256 tokens_bought, \n    uint256 max_tokens_sold, \n    uint256 max_eth_sold, \n    uint256 deadline, \n    address recipient, \n    address token_addr) \n    public returns (uint256) \n  {\n    address payable exchange_addr = factory.getExchange(token_addr);\n    return tokenToTokenOutput(tokens_bought, max_tokens_sold, max_eth_sold, deadline, msg.sender, recipient, exchange_addr);\n  }\n\n  /**\n   * @notice Convert Tokens (token) to Tokens (exchange_addr.token).\n   * @dev Allows trades through contracts that were not deployed from the same factory.\n   * @dev User specifies exact input && minimum output.\n   * @param tokens_sold Amount of Tokens sold.\n   * @param min_tokens_bought Minimum Tokens (token_addr) purchased.\n   * @param min_eth_bought Minimum ETH purchased as intermediary.\n   * @param deadline Time after which this transaction can no longer be executed.\n   * @param exchange_addr The address of the exchange for the token being purchased.\n   * @return Amount of Tokens (exchange_addr.token) bought.\n   */\n  function tokenToExchangeSwapInput(\n    uint256 tokens_sold, \n    uint256 min_tokens_bought, \n    uint256 min_eth_bought, \n    uint256 deadline, \n    address payable exchange_addr) \n    public returns (uint256) \n  {\n    return tokenToTokenInput(tokens_sold, min_tokens_bought, min_eth_bought, deadline, msg.sender, msg.sender, exchange_addr);\n  }\n\n  /**\n   * @notice Convert Tokens (token) to Tokens (exchange_addr.token) && transfers\n   *         Tokens (exchange_addr.token) to recipient.\n   * @dev Allows trades through contracts that were not deployed from the same factory.\n   * @dev User specifies exact input && minimum output.\n   * @param tokens_sold Amount of Tokens sold.\n   * @param min_tokens_bought Minimum Tokens (token_addr) purchased.\n   * @param min_eth_bought Minimum ETH purchased as intermediary.\n   * @param deadline Time after which this transaction can no longer be executed.\n   * @param recipient The address that receives output ETH.\n   * @param exchange_addr The address of the exchange for the token being purchased.\n   * @return Amount of Tokens (exchange_addr.token) bought.\n   */\n  function tokenToExchangeTransferInput(\n    uint256 tokens_sold, \n    uint256 min_tokens_bought, \n    uint256 min_eth_bought, \n    uint256 deadline, \n    address recipient, \n    address payable exchange_addr) \n    public returns (uint256) \n  {\n    require(recipient != address(this));\n    return tokenToTokenInput(tokens_sold, min_tokens_bought, min_eth_bought, deadline, msg.sender, recipient, exchange_addr);\n  }\n\n  /**\n   * @notice Convert Tokens (token) to Tokens (exchange_addr.token).\n   * @dev Allows trades through contracts that were not deployed from the same factory.\n   * @dev User specifies maximum input && exact output.\n   * @param tokens_bought Amount of Tokens (token_addr) bought.\n   * @param max_tokens_sold Maximum Tokens (token) sold.\n   * @param max_eth_sold Maximum ETH purchased as intermediary.\n   * @param deadline Time after which this transaction can no longer be executed.\n   * @param exchange_addr The address of the exchange for the token being purchased.\n   * @return Amount of Tokens (token) sold.\n   */\n  function tokenToExchangeSwapOutput(\n    uint256 tokens_bought, \n    uint256 max_tokens_sold, \n    uint256 max_eth_sold, \n    uint256 deadline, \n    address payable exchange_addr) \n    public returns (uint256) \n  {\n    return tokenToTokenOutput(tokens_bought, max_tokens_sold, max_eth_sold, deadline, msg.sender, msg.sender, exchange_addr);\n  }\n\n  /**\n   * @notice Convert Tokens (token) to Tokens (exchange_addr.token) && transfers\n   *         Tokens (exchange_addr.token) to recipient.\n   * @dev Allows trades through contracts that were not deployed from the same factory.\n   * @dev User specifies maximum input && exact output.\n   * @param tokens_bought Amount of Tokens (token_addr) bought.\n   * @param max_tokens_sold Maximum Tokens (token) sold.\n   * @param max_eth_sold Maximum ETH purchased as intermediary.\n   * @param deadline Time after which this transaction can no longer be executed.\n   * @param recipient The address that receives output ETH.\n   * @param exchange_addr The address of the exchange for the token being purchased.\n   * @return Amount of Tokens (token) sold.\n   */\n  function tokenToExchangeTransferOutput(\n    uint256 tokens_bought, \n    uint256 max_tokens_sold, \n    uint256 max_eth_sold, \n    uint256 deadline, \n    address recipient, \n    address payable exchange_addr) \n    public returns (uint256) \n  {\n    require(recipient != address(this));\n    return tokenToTokenOutput(tokens_bought, max_tokens_sold, max_eth_sold, deadline, msg.sender, recipient, exchange_addr);\n  }\n\n\n  /***********************************|\n  |         Getter Functions          |\n  |__________________________________*/\n\n  /**\n   * @notice Public price function for ETH to Token trades with an exact input.\n   * @param eth_sold Amount of ETH sold.\n   * @return Amount of Tokens that can be bought with input ETH.\n   */\n  function getEthToTokenInputPrice(uint256 eth_sold) public view returns (uint256) {\n    require(eth_sold > 0);\n    uint256 token_reserve = token.balanceOf(address(this));\n    return getInputPrice(eth_sold, address(this).balance, token_reserve);\n  }\n\n  /**\n   * @notice Public price function for ETH to Token trades with an exact output.\n   * @param tokens_bought Amount of Tokens bought.\n   * @return Amount of ETH needed to buy output Tokens.\n   */\n  function getEthToTokenOutputPrice(uint256 tokens_bought) public view returns (uint256) {\n    require(tokens_bought > 0);\n    uint256 token_reserve = token.balanceOf(address(this));\n    uint256 eth_sold = getOutputPrice(tokens_bought, address(this).balance, token_reserve);\n    return eth_sold;\n  }\n\n  /**\n   * @notice Public price function for Token to ETH trades with an exact input.\n   * @param tokens_sold Amount of Tokens sold.\n   * @return Amount of ETH that can be bought with input Tokens.\n   */\n  function getTokenToEthInputPrice(uint256 tokens_sold) public view returns (uint256) {\n    require(tokens_sold > 0);\n    uint256 token_reserve = token.balanceOf(address(this));\n    uint256 eth_bought = getInputPrice(tokens_sold, token_reserve, address(this).balance);\n    return eth_bought;\n  }\n\n  /**\n   * @notice Public price function for Token to ETH trades with an exact output.\n   * @param eth_bought Amount of output ETH.\n   * @return Amount of Tokens needed to buy output ETH.\n   */\n  function getTokenToEthOutputPrice(uint256 eth_bought) public view returns (uint256) {\n    require(eth_bought > 0);\n    uint256 token_reserve = token.balanceOf(address(this));\n    return getOutputPrice(eth_bought, token_reserve, address(this).balance);\n  }\n\n  /** \n   * @return Address of Token that is sold on this exchange.\n   */\n  function tokenAddress() public view returns (address) {\n    return address(token);\n  }\n\n  /**\n   * @return Address of factory that created this exchange.\n   */\n  function factoryAddress() public view returns (address) {\n    return address(factory);\n  }\n\n\n  /***********************************|\n  |        Liquidity Functions        |\n  |__________________________________*/\n\n  /** \n   * @notice Deposit ETH && Tokens (token) at current ratio to mint UNI tokens.\n   * @dev min_liquidity does nothing when total UNI supply is 0.\n   * @param min_liquidity Minimum number of UNI sender will mint if total UNI supply is greater than 0.\n   * @param max_tokens Maximum number of tokens deposited. Deposits max amount if total UNI supply is 0.\n   * @param deadline Time after which this transaction can no longer be executed.\n   * @return The amount of UNI minted.\n   */\n  function addLiquidity(uint256 min_liquidity, uint256 max_tokens, uint256 deadline) public payable returns (uint256) {\n    require(deadline > block.timestamp && max_tokens > 0 && msg.value > 0, 'UniswapExchange#addLiquidity: INVALID_ARGUMENT');\n    uint256 total_liquidity = _totalSupply;\n\n    if (total_liquidity > 0) {\n      require(min_liquidity > 0);\n      uint256 eth_reserve = address(this).balance.sub(msg.value);\n      uint256 token_reserve = token.balanceOf(address(this));\n      uint256 token_amount = (msg.value.mul(token_reserve) / eth_reserve).add(1);\n      uint256 liquidity_minted = msg.value.mul(total_liquidity) / eth_reserve;\n      require(max_tokens >= token_amount && liquidity_minted >= min_liquidity);\n      _balances[msg.sender] = _balances[msg.sender].add(liquidity_minted);\n      _totalSupply = total_liquidity.add(liquidity_minted);\n      require(token.transferFrom(msg.sender, address(this), token_amount));\n      emit AddLiquidity(msg.sender, msg.value, token_amount);\n      emit Transfer(address(0), msg.sender, liquidity_minted);\n      return liquidity_minted;\n\n    } else {\n      require(address(factory) != address(0) && address(token) != address(0) && msg.value >= 1000000000, \"INVALID_VALUE\");\n      require(factory.getExchange(address(token)) == address(this));\n      uint256 token_amount = max_tokens;\n      uint256 initial_liquidity = address(this).balance;\n      _totalSupply = initial_liquidity;\n      _balances[msg.sender] = initial_liquidity;\n      require(token.transferFrom(msg.sender, address(this), token_amount));\n      emit AddLiquidity(msg.sender, msg.value, token_amount);\n      emit Transfer(address(0), msg.sender, initial_liquidity);\n      return initial_liquidity;\n    }\n  }\n\n  /**\n   * @dev Burn UNI tokens to withdraw ETH && Tokens at current ratio.\n   * @param amount Amount of UNI burned.\n   * @param min_eth Minimum ETH withdrawn.\n   * @param min_tokens Minimum Tokens withdrawn.\n   * @param deadline Time after which this transaction can no longer be executed.\n   * @return The amount of ETH && Tokens withdrawn.\n   */\n  function removeLiquidity(uint256 amount, uint256 min_eth, uint256 min_tokens, uint256 deadline) public returns (uint256, uint256) {\n    require(amount > 0 && deadline > block.timestamp && min_eth > 0 && min_tokens > 0);\n    uint256 total_liquidity = _totalSupply;\n    require(total_liquidity > 0);\n    uint256 token_reserve = token.balanceOf(address(this));\n    uint256 eth_amount = amount.mul(address(this).balance) / total_liquidity;\n    uint256 token_amount = amount.mul(token_reserve) / total_liquidity;\n    require(eth_amount >= min_eth && token_amount >= min_tokens);\n\n    _balances[msg.sender] = _balances[msg.sender].sub(amount);\n    _totalSupply = total_liquidity.sub(amount);\n    msg.sender.transfer(eth_amount);\n    require(token.transfer(msg.sender, token_amount));\n    emit RemoveLiquidity(msg.sender, eth_amount, token_amount);\n    emit Transfer(msg.sender, address(0), amount);\n    return (eth_amount, token_amount);\n  }\n\n\n}"
}