{
  "contractName": "Post",
  "abi": [
    {
      "constant": true,
      "inputs": [],
      "name": "getCreator",
      "outputs": [
        {
          "internalType": "address",
          "name": "creator",
          "type": "address"
        }
      ],
      "payable": false,
      "stateMutability": "view",
      "type": "function"
    },
    {
      "constant": true,
      "inputs": [
        {
          "internalType": "address",
          "name": "caller",
          "type": "address"
        }
      ],
      "name": "isActiveOperator",
      "outputs": [
        {
          "internalType": "bool",
          "name": "ok",
          "type": "bool"
        }
      ],
      "payable": false,
      "stateMutability": "view",
      "type": "function"
    },
    {
      "constant": true,
      "inputs": [],
      "name": "getProofHash",
      "outputs": [
        {
          "internalType": "bytes",
          "name": "proofHash",
          "type": "bytes"
        }
      ],
      "payable": false,
      "stateMutability": "view",
      "type": "function"
    },
    {
      "constant": true,
      "inputs": [
        {
          "internalType": "address",
          "name": "caller",
          "type": "address"
        }
      ],
      "name": "isOperator",
      "outputs": [
        {
          "internalType": "bool",
          "name": "ok",
          "type": "bool"
        }
      ],
      "payable": false,
      "stateMutability": "view",
      "type": "function"
    },
    {
      "constant": true,
      "inputs": [],
      "name": "getFactory",
      "outputs": [
        {
          "internalType": "address",
          "name": "factory",
          "type": "address"
        }
      ],
      "payable": false,
      "stateMutability": "view",
      "type": "function"
    },
    {
      "constant": true,
      "inputs": [],
      "name": "hasActiveOperator",
      "outputs": [
        {
          "internalType": "bool",
          "name": "ok",
          "type": "bool"
        }
      ],
      "payable": false,
      "stateMutability": "view",
      "type": "function"
    },
    {
      "constant": true,
      "inputs": [],
      "name": "getOperator",
      "outputs": [
        {
          "internalType": "address",
          "name": "operator",
          "type": "address"
        }
      ],
      "payable": false,
      "stateMutability": "view",
      "type": "function"
    },
    {
      "constant": true,
      "inputs": [
        {
          "internalType": "address",
          "name": "caller",
          "type": "address"
        }
      ],
      "name": "isCreator",
      "outputs": [
        {
          "internalType": "bool",
          "name": "ok",
          "type": "bool"
        }
      ],
      "payable": false,
      "stateMutability": "view",
      "type": "function"
    },
    {
      "anonymous": false,
      "inputs": [
        {
          "indexed": false,
          "internalType": "address",
          "name": "operator",
          "type": "address"
        },
        {
          "indexed": false,
          "internalType": "bytes",
          "name": "multihash",
          "type": "bytes"
        },
        {
          "indexed": false,
          "internalType": "bytes",
          "name": "metadata",
          "type": "bytes"
        }
      ],
      "name": "Initialized",
      "type": "event"
    },
    {
      "anonymous": false,
      "inputs": [
        {
          "indexed": false,
          "internalType": "bytes",
          "name": "metadata",
          "type": "bytes"
        }
      ],
      "name": "MetadataSet",
      "type": "event"
    },
    {
      "anonymous": false,
      "inputs": [
        {
          "indexed": false,
          "internalType": "address",
          "name": "operator",
          "type": "address"
        },
        {
          "indexed": false,
          "internalType": "bool",
          "name": "status",
          "type": "bool"
        }
      ],
      "name": "OperatorUpdated",
      "type": "event"
    },
    {
      "anonymous": false,
      "inputs": [
        {
          "indexed": false,
          "internalType": "address",
          "name": "caller",
          "type": "address"
        },
        {
          "indexed": false,
          "internalType": "bytes",
          "name": "proofHash",
          "type": "bytes"
        }
      ],
      "name": "ProofHashSet",
      "type": "event"
    },
    {
      "constant": false,
      "inputs": [
        {
          "internalType": "address",
          "name": "operator",
          "type": "address"
        },
        {
          "internalType": "bytes",
          "name": "multihash",
          "type": "bytes"
        },
        {
          "internalType": "bytes",
          "name": "metadata",
          "type": "bytes"
        }
      ],
      "name": "initialize",
      "outputs": [],
      "payable": false,
      "stateMutability": "nonpayable",
      "type": "function"
    },
    {
      "constant": false,
      "inputs": [
        {
          "internalType": "bytes",
          "name": "metadata",
          "type": "bytes"
        }
      ],
      "name": "setMetadata",
      "outputs": [],
      "payable": false,
      "stateMutability": "nonpayable",
      "type": "function"
    },
    {
      "constant": false,
      "inputs": [
        {
          "internalType": "address",
          "name": "operator",
          "type": "address"
        }
      ],
      "name": "transferOperator",
      "outputs": [],
      "payable": false,
      "stateMutability": "nonpayable",
      "type": "function"
    },
    {
      "constant": false,
      "inputs": [],
      "name": "renounceOperator",
      "outputs": [],
      "payable": false,
      "stateMutability": "nonpayable",
      "type": "function"
    }
  ],
  "bytecode": "0x608060405234801561001057600080fd5b50610e39806100206000396000f3fe608060405234801561001057600080fd5b50600436106100b45760003560e01c806388cc58e41161007157806388cc58e4146101ea578063923b1762146101f2578063e7f43c68146101fa578063ee57e36f14610202578063ef6ce76e146102a8578063efd46065146103e5576100b4565b80630ee2cb10146100b957806329605e77146100dd5780632ab6f8db146101055780633367cca51461010d57806355e03373146101475780636d70f7ae146101c4575b600080fd5b6100c161040b565b604080516001600160a01b039092168252519081900360200190f35b610103600480360360208110156100f357600080fd5b50356001600160a01b0316610487565b005b6101036104e4565b6101336004803603602081101561012357600080fd5b50356001600160a01b031661053f565b604080519115158252519081900360200190f35b61014f61055f565b6040805160208082528351818301528351919283929083019185019080838360005b83811015610189578181015183820152602001610171565b50505050905090810190601f1680156101b65780820380516001836020036101000a031916815260200191505b509250505060405180910390f35b610133600480360360208110156101da57600080fd5b50356001600160a01b0316610598565b6100c16105bd565b6101336105cc565b6100c16105dc565b6101036004803603602081101561021857600080fd5b81019060208101813564010000000081111561023357600080fd5b82018360208201111561024557600080fd5b8035906020019184600183028401116401000000008311171561026757600080fd5b91908080601f0160208091040260200160405190810160405280939291908181526020018383808284376000920191909152509295506105eb945050505050565b610103600480360360608110156102be57600080fd5b6001600160a01b0382351691908101906040810160208201356401000000008111156102e957600080fd5b8201836020820111156102fb57600080fd5b8035906020019184600183028401116401000000008311171561031d57600080fd5b91908080601f016020809104026020016040519081016040528093929190818152602001838380828437600092019190915250929594936020810193503591505064010000000081111561037057600080fd5b82018360208201111561038257600080fd5b803590602001918460018302840111640100000000831117156103a457600080fd5b91908080601f01602080910402602001604051908101604052809392919081815260200183838082843760009201919091525092955061065d945050505050565b610133600480360360208110156103fb57600080fd5b50356001600160a01b0316610814565b600354604080516335fb8cc160e11b815230600482015290516000926001600160a01b031691636bf71982916024808301926020929190829003018186803b15801561045657600080fd5b505afa15801561046a573d6000803e3d6000fd5b505050506040513d602081101561048057600080fd5b5051919050565b6104903361053f565b6104d8576040805162461bcd60e51b815260206004820152601460248201527337b7363c9030b1ba34bb329037b832b930ba37b960611b604482015290519081900360640190fd5b6104e18161081e565b50565b6104ed3361053f565b610535576040805162461bcd60e51b815260206004820152601460248201527337b7363c9030b1ba34bb329037b832b930ba37b960611b604482015290519081900360640190fd5b61053d610877565b565b600061054a82610598565b801561055957506105596105cc565b92915050565b6040805160608181018352600054825260015460ff808216602085015261010090910416928201929092526105939061091d565b905090565b60006105a26105dc565b6001600160a01b0316826001600160a01b0316149050919050565b6003546001600160a01b031690565b600254600160a01b900460ff1690565b6002546001600160a01b031690565b6105f433610814565b8061060357506106033361053f565b610654576040805162461bcd60e51b815260206004820152601f60248201527f6f6e6c7920616374697665206f70657261746f72206f722063726561746f7200604482015290519081900360640190fd5b6104e1816109f3565b600380546001600160a01b03191633179055303b63ffffffff8116156106b45760405162461bcd60e51b815260040180806020018281038252602a815260200180610ddb602a913960400191505060405180910390fd5b8251156106c4576106c483610a8f565b6001600160a01b038416156106e4576106dc84610b74565b6106e4610c41565b8151156106f4576106f4826109f3565b7fd957b3c1cee5d1d2b948e4b71cf903f66d59a281bf26b412e09c834624d3b96184848460405180846001600160a01b03166001600160a01b031681526020018060200180602001838103835285818151815260200191508051906020019080838360005b83811015610771578181015183820152602001610759565b50505050905090810190601f16801561079e5780820380516001836020036101000a031916815260200191505b50838103825284518152845160209182019186019080838360005b838110156107d15781810151838201526020016107b9565b50505050905090810190601f1680156107fe5780820380516001836020036101000a031916815260200191505b509550505050505060405180910390a150505050565b60006105a261040b565b6002546001600160a01b031661086e576040805162461bcd60e51b815260206004820152601060248201526f1bdc195c985d1bdc881b9bdd081cd95d60821b604482015290519081900360640190fd5b6104e181610b74565b61087f6105cc565b6108d0576040805162461bcd60e51b815260206004820152601960248201527f6f6e6c79207768656e206f70657261746f722061637469766500000000000000604482015290519081900360640190fd5b600280546001600160a81b0319169055604080516000808252602082015281517f966c160e1c4dbc7df8d69af4ace01e9297c3cf016397b7914971f2fbfa32672d929181900390910190a1565b6040805160228082526060828101909352829190602082018180388339019050509050826020015160f81b8160008151811061095557fe5b60200101906001600160f81b031916908160001a905350826040015160f81b8160018151811061098157fe5b60200101906001600160f81b031916908160001a90535060005b60208160ff1610156109ec57835160ff8216602081106109b757fe5b1a60f81b828260020160ff16815181106109cd57fe5b60200101906001600160f81b031916908160001a90535060010161099b565b5092915050565b7fbb39ebb37e60fb5d606ffdb749d2336e56b88e6c88c4bd6513b308f643186eed816040518080602001828103825283818151815260200191508051906020019080838360005b83811015610a52578181015183820152602001610a3a565b50505050905090810190601f168015610a7f5780820380516001836020036101000a031916815260200191505b509250505060405180910390a150565b610a9881610cf6565b805160009081556020808301516001805460409586015160ff9081166101000261ff00199190941660ff19909216919091171691909117905582513380825281830185815286519583019590955285517f7407ed1a5db68d1f1b75b603b6a31410f20a906472eac47876a4573a5fb43f9295919487946060850192908601918190849084905b83811015610b36578181015183820152602001610b1e565b50505050905090810190601f168015610b635780820380516001836020036101000a031916815260200191505b50935050505060405180910390a150565b6002546001600160a01b0382811691161415610bd7576040805162461bcd60e51b815260206004820152601860248201527f63616e6e6f74207365742073616d65206f70657261746f720000000000000000604482015290519081900360640190fd5b600280546001600160a01b0319166001600160a01b0383161790557f966c160e1c4dbc7df8d69af4ace01e9297c3cf016397b7914971f2fbfa32672d81610c1c6105cc565b604080516001600160a01b03909316835290151560208301528051918290030190a150565b610c496105cc565b15610c9b576040805162461bcd60e51b815260206004820152601d60248201527f6f6e6c79207768656e206f70657261746f72206e6f7420616374697665000000604482015290519081900360640190fd5b6002805460ff60a01b1916600160a01b1790819055604080516001600160a01b0390921682526001602083015280517f966c160e1c4dbc7df8d69af4ace01e9297c3cf016397b7914971f2fbfa32672d9281900390910190a1565b610cfe610dba565b8151602214610d54576040805162461bcd60e51b815260206004820152601b60248201527f6c656e677468206f6620736f75726365206d7573742062652033340000000000604482015290519081900360640190fd5b600082600081518110610d6357fe5b602001015160f81c60f81b60f81c9050600083600181518110610d8257fe5b0160209081015160228601516040805160608101825291825260ff959095169281019290925260f81c92810192909252509050919050565b60408051606081018252600080825260208201819052918101919091529056fe6d7573742062652063616c6c65642077697468696e20636f6e747261637420636f6e7374727563746f72a265627a7a72315820ac14e01b212cdcfa07757055dd491ced6ffa79dba52cdba280afae5e2260f86864736f6c634300050b0032",
  "source": "pragma solidity ^0.5.0;\n\nimport \"../modules/ProofHash.sol\";\nimport \"../modules/EventMetadata.sol\";\nimport \"../modules/Operated.sol\";\nimport \"../modules/Template.sol\";\n\n\ncontract Post is ProofHash, Operated, EventMetadata, Template {\n\n    event Initialized(address operator, bytes multihash, bytes metadata);\n\n    function initialize(\n        address operator,\n        bytes memory multihash,\n        bytes memory metadata\n    ) public initializeTemplate() {\n\n        // set storage variables\n        if (multihash.length != 0) {\n            ProofHash._setProofHash(multihash);\n        }\n\n        // set operator\n        if (operator != address(0)) {\n            Operated._setOperator(operator);\n            Operated._activateOperator();\n        }\n\n        // set metadata\n        if (metadata.length != 0) {\n            EventMetadata._setMetadata(metadata);\n        }\n\n        // log initialization params\n        emit Initialized(operator, multihash, metadata);\n    }\n\n    // state functions\n\n    function setMetadata(bytes memory metadata) public {\n        // only active operator or creator\n        require(Template.isCreator(msg.sender) || Operated.isActiveOperator(msg.sender), \"only active operator or creator\");\n\n        // set metadata\n        EventMetadata._setMetadata(metadata);\n    }\n\n    function transferOperator(address operator) public {\n        // restrict access\n        require(Operated.isActiveOperator(msg.sender), \"only active operator\");\n\n        // transfer operator\n        Operated._transferOperator(operator);\n    }\n\n    function renounceOperator() public {\n        // restrict access\n        require(Operated.isActiveOperator(msg.sender), \"only active operator\");\n\n        // transfer operator\n        Operated._renounceOperator();\n    }\n\n}\n"
}