{
  "contractName": "SimpleGriefing",
  "abi": [
    {
      "constant": true,
      "inputs": [],
      "name": "getCreator",
      "outputs": [
        {
          "internalType": "address",
          "name": "creator",
          "type": "address"
        }
      ],
      "payable": false,
      "stateMutability": "view",
      "type": "function"
    },
    {
      "constant": true,
      "inputs": [],
      "name": "getToken",
      "outputs": [
        {
          "internalType": "address",
          "name": "token",
          "type": "address"
        }
      ],
      "payable": false,
      "stateMutability": "pure",
      "type": "function"
    },
    {
      "constant": true,
      "inputs": [
        {
          "internalType": "address",
          "name": "caller",
          "type": "address"
        }
      ],
      "name": "isActiveOperator",
      "outputs": [
        {
          "internalType": "bool",
          "name": "ok",
          "type": "bool"
        }
      ],
      "payable": false,
      "stateMutability": "view",
      "type": "function"
    },
    {
      "constant": true,
      "inputs": [
        {
          "internalType": "uint256",
          "name": "ratio",
          "type": "uint256"
        },
        {
          "internalType": "uint256",
          "name": "punishment",
          "type": "uint256"
        },
        {
          "internalType": "enum Griefing.RatioType",
          "name": "ratioType",
          "type": "uint8"
        }
      ],
      "name": "getCost",
      "outputs": [
        {
          "internalType": "uint256",
          "name": "cost",
          "type": "uint256"
        }
      ],
      "payable": false,
      "stateMutability": "pure",
      "type": "function"
    },
    {
      "constant": true,
      "inputs": [
        {
          "internalType": "uint256",
          "name": "ratio",
          "type": "uint256"
        },
        {
          "internalType": "uint256",
          "name": "cost",
          "type": "uint256"
        },
        {
          "internalType": "enum Griefing.RatioType",
          "name": "ratioType",
          "type": "uint8"
        }
      ],
      "name": "getPunishment",
      "outputs": [
        {
          "internalType": "uint256",
          "name": "punishment",
          "type": "uint256"
        }
      ],
      "payable": false,
      "stateMutability": "pure",
      "type": "function"
    },
    {
      "constant": true,
      "inputs": [
        {
          "internalType": "address",
          "name": "caller",
          "type": "address"
        }
      ],
      "name": "isOperator",
      "outputs": [
        {
          "internalType": "bool",
          "name": "ok",
          "type": "bool"
        }
      ],
      "payable": false,
      "stateMutability": "view",
      "type": "function"
    },
    {
      "constant": true,
      "inputs": [
        {
          "internalType": "address",
          "name": "staker",
          "type": "address"
        }
      ],
      "name": "getRatio",
      "outputs": [
        {
          "internalType": "uint256",
          "name": "ratio",
          "type": "uint256"
        },
        {
          "internalType": "enum Griefing.RatioType",
          "name": "ratioType",
          "type": "uint8"
        }
      ],
      "payable": false,
      "stateMutability": "view",
      "type": "function"
    },
    {
      "constant": true,
      "inputs": [
        {
          "internalType": "address",
          "name": "staker",
          "type": "address"
        }
      ],
      "name": "getStake",
      "outputs": [
        {
          "internalType": "uint256",
          "name": "stake",
          "type": "uint256"
        }
      ],
      "payable": false,
      "stateMutability": "view",
      "type": "function"
    },
    {
      "constant": true,
      "inputs": [],
      "name": "getFactory",
      "outputs": [
        {
          "internalType": "address",
          "name": "factory",
          "type": "address"
        }
      ],
      "payable": false,
      "stateMutability": "view",
      "type": "function"
    },
    {
      "constant": true,
      "inputs": [],
      "name": "hasActiveOperator",
      "outputs": [
        {
          "internalType": "bool",
          "name": "ok",
          "type": "bool"
        }
      ],
      "payable": false,
      "stateMutability": "view",
      "type": "function"
    },
    {
      "constant": true,
      "inputs": [],
      "name": "getOperator",
      "outputs": [
        {
          "internalType": "address",
          "name": "operator",
          "type": "address"
        }
      ],
      "payable": false,
      "stateMutability": "view",
      "type": "function"
    },
    {
      "constant": true,
      "inputs": [
        {
          "internalType": "address",
          "name": "caller",
          "type": "address"
        }
      ],
      "name": "isCreator",
      "outputs": [
        {
          "internalType": "bool",
          "name": "ok",
          "type": "bool"
        }
      ],
      "payable": false,
      "stateMutability": "view",
      "type": "function"
    },
    {
      "anonymous": false,
      "inputs": [
        {
          "indexed": false,
          "internalType": "address",
          "name": "operator",
          "type": "address"
        },
        {
          "indexed": false,
          "internalType": "address",
          "name": "staker",
          "type": "address"
        },
        {
          "indexed": false,
          "internalType": "address",
          "name": "counterparty",
          "type": "address"
        },
        {
          "indexed": false,
          "internalType": "uint256",
          "name": "ratio",
          "type": "uint256"
        },
        {
          "indexed": false,
          "internalType": "enum Griefing.RatioType",
          "name": "ratioType",
          "type": "uint8"
        },
        {
          "indexed": false,
          "internalType": "bytes",
          "name": "metadata",
          "type": "bytes"
        }
      ],
      "name": "Initialized",
      "type": "event"
    },
    {
      "anonymous": false,
      "inputs": [
        {
          "indexed": false,
          "internalType": "address",
          "name": "operator",
          "type": "address"
        },
        {
          "indexed": false,
          "internalType": "bool",
          "name": "status",
          "type": "bool"
        }
      ],
      "name": "OperatorUpdated",
      "type": "event"
    },
    {
      "anonymous": false,
      "inputs": [
        {
          "indexed": false,
          "internalType": "bytes",
          "name": "metadata",
          "type": "bytes"
        }
      ],
      "name": "MetadataSet",
      "type": "event"
    },
    {
      "anonymous": false,
      "inputs": [
        {
          "indexed": false,
          "internalType": "address",
          "name": "staker",
          "type": "address"
        },
        {
          "indexed": false,
          "internalType": "uint256",
          "name": "ratio",
          "type": "uint256"
        },
        {
          "indexed": false,
          "internalType": "enum Griefing.RatioType",
          "name": "ratioType",
          "type": "uint8"
        }
      ],
      "name": "RatioSet",
      "type": "event"
    },
    {
      "anonymous": false,
      "inputs": [
        {
          "indexed": false,
          "internalType": "address",
          "name": "punisher",
          "type": "address"
        },
        {
          "indexed": false,
          "internalType": "address",
          "name": "staker",
          "type": "address"
        },
        {
          "indexed": false,
          "internalType": "uint256",
          "name": "punishment",
          "type": "uint256"
        },
        {
          "indexed": false,
          "internalType": "uint256",
          "name": "cost",
          "type": "uint256"
        },
        {
          "indexed": false,
          "internalType": "bytes",
          "name": "message",
          "type": "bytes"
        }
      ],
      "name": "Griefed",
      "type": "event"
    },
    {
      "anonymous": false,
      "inputs": [
        {
          "indexed": false,
          "internalType": "address",
          "name": "staker",
          "type": "address"
        },
        {
          "indexed": false,
          "internalType": "address",
          "name": "funder",
          "type": "address"
        },
        {
          "indexed": false,
          "internalType": "uint256",
          "name": "amount",
          "type": "uint256"
        },
        {
          "indexed": false,
          "internalType": "uint256",
          "name": "newStake",
          "type": "uint256"
        }
      ],
      "name": "StakeAdded",
      "type": "event"
    },
    {
      "anonymous": false,
      "inputs": [
        {
          "indexed": false,
          "internalType": "address",
          "name": "staker",
          "type": "address"
        },
        {
          "indexed": false,
          "internalType": "address",
          "name": "recipient",
          "type": "address"
        },
        {
          "indexed": false,
          "internalType": "uint256",
          "name": "amount",
          "type": "uint256"
        },
        {
          "indexed": false,
          "internalType": "uint256",
          "name": "newStake",
          "type": "uint256"
        }
      ],
      "name": "StakeTaken",
      "type": "event"
    },
    {
      "anonymous": false,
      "inputs": [
        {
          "indexed": false,
          "internalType": "address",
          "name": "staker",
          "type": "address"
        },
        {
          "indexed": false,
          "internalType": "uint256",
          "name": "amount",
          "type": "uint256"
        },
        {
          "indexed": false,
          "internalType": "uint256",
          "name": "newStake",
          "type": "uint256"
        }
      ],
      "name": "StakeBurned",
      "type": "event"
    },
    {
      "constant": false,
      "inputs": [
        {
          "internalType": "address",
          "name": "operator",
          "type": "address"
        },
        {
          "internalType": "address",
          "name": "staker",
          "type": "address"
        },
        {
          "internalType": "address",
          "name": "counterparty",
          "type": "address"
        },
        {
          "internalType": "uint256",
          "name": "ratio",
          "type": "uint256"
        },
        {
          "internalType": "enum Griefing.RatioType",
          "name": "ratioType",
          "type": "uint8"
        },
        {
          "internalType": "bytes",
          "name": "metadata",
          "type": "bytes"
        }
      ],
      "name": "initialize",
      "outputs": [],
      "payable": false,
      "stateMutability": "nonpayable",
      "type": "function"
    },
    {
      "constant": false,
      "inputs": [
        {
          "internalType": "bytes",
          "name": "metadata",
          "type": "bytes"
        }
      ],
      "name": "setMetadata",
      "outputs": [],
      "payable": false,
      "stateMutability": "nonpayable",
      "type": "function"
    },
    {
      "constant": false,
      "inputs": [
        {
          "internalType": "uint256",
          "name": "currentStake",
          "type": "uint256"
        },
        {
          "internalType": "uint256",
          "name": "amountToAdd",
          "type": "uint256"
        }
      ],
      "name": "increaseStake",
      "outputs": [],
      "payable": false,
      "stateMutability": "nonpayable",
      "type": "function"
    },
    {
      "constant": false,
      "inputs": [
        {
          "internalType": "uint256",
          "name": "currentStake",
          "type": "uint256"
        },
        {
          "internalType": "uint256",
          "name": "amountToAdd",
          "type": "uint256"
        }
      ],
      "name": "reward",
      "outputs": [],
      "payable": false,
      "stateMutability": "nonpayable",
      "type": "function"
    },
    {
      "constant": false,
      "inputs": [
        {
          "internalType": "uint256",
          "name": "currentStake",
          "type": "uint256"
        },
        {
          "internalType": "uint256",
          "name": "punishment",
          "type": "uint256"
        },
        {
          "internalType": "bytes",
          "name": "message",
          "type": "bytes"
        }
      ],
      "name": "punish",
      "outputs": [
        {
          "internalType": "uint256",
          "name": "cost",
          "type": "uint256"
        }
      ],
      "payable": false,
      "stateMutability": "nonpayable",
      "type": "function"
    },
    {
      "constant": false,
      "inputs": [
        {
          "internalType": "uint256",
          "name": "currentStake",
          "type": "uint256"
        },
        {
          "internalType": "uint256",
          "name": "amountToRelease",
          "type": "uint256"
        }
      ],
      "name": "releaseStake",
      "outputs": [],
      "payable": false,
      "stateMutability": "nonpayable",
      "type": "function"
    },
    {
      "constant": false,
      "inputs": [
        {
          "internalType": "address",
          "name": "operator",
          "type": "address"
        }
      ],
      "name": "transferOperator",
      "outputs": [],
      "payable": false,
      "stateMutability": "nonpayable",
      "type": "function"
    },
    {
      "constant": false,
      "inputs": [],
      "name": "renounceOperator",
      "outputs": [],
      "payable": false,
      "stateMutability": "nonpayable",
      "type": "function"
    },
    {
      "constant": true,
      "inputs": [
        {
          "internalType": "address",
          "name": "caller",
          "type": "address"
        }
      ],
      "name": "isStaker",
      "outputs": [
        {
          "internalType": "bool",
          "name": "validity",
          "type": "bool"
        }
      ],
      "payable": false,
      "stateMutability": "view",
      "type": "function"
    },
    {
      "constant": true,
      "inputs": [
        {
          "internalType": "address",
          "name": "caller",
          "type": "address"
        }
      ],
      "name": "isCounterparty",
      "outputs": [
        {
          "internalType": "bool",
          "name": "validity",
          "type": "bool"
        }
      ],
      "payable": false,
      "stateMutability": "view",
      "type": "function"
    }
  ],
  "bytecode": "0x608060405234801561001057600080fd5b50611d92806100206000396000f3fe608060405234801561001057600080fd5b50600436106101425760003560e01c80636f1e8533116100b8578063923b17621161007c578063923b1762146104e3578063a4fa8d57146104eb578063bec10cde1461050e578063e7f43c6814610531578063ee57e36f14610539578063efd46065146105df57610142565b80636f1e85331461041857806373f500af1461043e578063754b2707146104645780637a766460146104b557806388cc58e4146104db57610142565b80633367cca51161010a5780633367cca5146102675780633d806d67146102a1578063465b414e146103775780634a66db95146103a35780635baeb806146103c65780636d70f7ae146103f257610142565b80630ee2cb10146101475780630fc15f201461016b57806321df0da71461022f57806329605e77146102375780632ab6f8db1461025f575b600080fd5b61014f610605565b604080516001600160a01b039092168252519081900360200190f35b61021d6004803603606081101561018157600080fd5b8135916020810135918101906060810160408201356401000000008111156101a857600080fd5b8201836020820111156101ba57600080fd5b803590602001918460018302840111640100000000831117156101dc57600080fd5b91908080601f016020809104026020016040519081016040528093929190818152602001838380828437600092019190915250929550610681945050505050565b60408051918252519081900360200190f35b61014f6106f8565b61025d6004803603602081101561024d57600080fd5b50356001600160a01b0316610710565b005b61025d61076d565b61028d6004803603602081101561027d57600080fd5b50356001600160a01b03166107c8565b604080519115158252519081900360200190f35b61025d600480360360c08110156102b757600080fd5b6001600160a01b038235811692602081013582169260408201359092169160608201359160ff6080820135169181019060c0810160a082013564010000000081111561030257600080fd5b82018360208201111561031457600080fd5b8035906020019184600183028401116401000000008311171561033657600080fd5b91908080601f0160208091040260200160405190810160405280939291908181526020018383808284376000920191909152509295506107e8945050505050565b61021d6004803603606081101561038d57600080fd5b508035906020810135906040013560ff166109ae565b61025d600480360360408110156103b957600080fd5b5080359060200135610a5d565b61021d600480360360608110156103dc57600080fd5b508035906020810135906040013560ff16610acc565b61028d6004803603602081101561040857600080fd5b50356001600160a01b0316610b49565b61028d6004803603602081101561042e57600080fd5b50356001600160a01b0316610b6e565b61028d6004803603602081101561045457600080fd5b50356001600160a01b0316610b82565b61048a6004803603602081101561047a57600080fd5b50356001600160a01b0316610b96565b604051808381526020018260028111156104a057fe5b60ff1681526020019250505060405180910390f35b61021d600480360360208110156104cb57600080fd5b50356001600160a01b0316610bbf565b61014f610bda565b61028d610be9565b61025d6004803603604081101561050157600080fd5b5080359060200135610bf9565b61025d6004803603604081101561052457600080fd5b5080359060200135610c64565b61014f610ccd565b61025d6004803603602081101561054f57600080fd5b81019060208101813564010000000081111561056a57600080fd5b82018360208201111561057c57600080fd5b8035906020019184600183028401116401000000008311171561059e57600080fd5b91908080601f016020809104026020016040519081016040528093929190818152602001838380828437600092019190915250929550610cdc945050505050565b61028d600480360360208110156105f557600080fd5b50356001600160a01b0316610d4e565b600354604080516335fb8cc160e11b815230600482015290516000926001600160a01b031691636bf71982916024808301926020929190829003018186803b15801561065057600080fd5b505afa158015610664573d6000803e3d6000fd5b505050506040513d602081101561067a57600080fd5b5051919050565b600061068c33610b82565b8061069b575061069b336107c8565b6106d65760405162461bcd60e51b8152600401808060200182810382526024815260200180611c806024913960400191505060405180910390fd5b6004546106f09033906001600160a01b0316868686610d58565b949350505050565b731776e1f26f98b1a5df9cd347953a26dd3cb4667190565b610719336107c8565b610761576040805162461bcd60e51b815260206004820152601460248201527337b7363c9030b1ba34bb329037b832b930ba37b960611b604482015290519081900360640190fd5b61076a81610f39565b50565b610776336107c8565b6107be576040805162461bcd60e51b815260206004820152601460248201527337b7363c9030b1ba34bb329037b832b930ba37b960611b604482015290519081900360640190fd5b6107c6610f92565b565b60006107d382610b49565b80156107e257506107e2610be9565b92915050565b600380546001600160a01b03191633179055303b63ffffffff81161561083f5760405162461bcd60e51b815260040180806020018281038252602a815260200180611ce7602a913960400191505060405180910390fd5b600480546001600160a01b038089166001600160a01b0319928316179092556005805488841692169190911790558716156108855761087d87611038565b610885611105565b6108908685856111ba565b8151156108a0576108a0826112c9565b7f4452a6b21d8447ae04b441ac37676250e2bfdc827a149309429a5c640bf7120987878787878760405180876001600160a01b03166001600160a01b03168152602001866001600160a01b03166001600160a01b03168152602001856001600160a01b03166001600160a01b0316815260200184815260200183600281111561092557fe5b60ff16815260200180602001828103825283818151815260200191508051906020019080838360005b8381101561096657818101518382015260200161094e565b50505050905090810190601f1680156109935780820380516001836020036101000a031916815260200191505b5097505050505050505060405180910390a150505050505050565b600060028260028111156109be57fe5b14156109ef57670de0b6b3a76400006109e06109da8583611365565b866113be565b816109e757fe5b049050610a56565b60018260028111156109fd57fe5b1415610a0b57506000610a56565b6000826002811115610a1957fe5b1415610a565760405162461bcd60e51b8152600401808060200182810382526021815260200180611d116021913960400191505060405180910390fd5b9392505050565b610a6633610b82565b80610a755750610a75336107c8565b610ab05760405162461bcd60e51b8152600401808060200182810382526024815260200180611c806024913960400191505060405180910390fd5b600454610ac8906001600160a01b03168084846113f7565b5050565b60006002826002811115610adc57fe5b1415610afe57670de0b6b3a76400006109e0610af88583611365565b86611647565b6001826002811115610b0c57fe5b1415610a0b5760405162461bcd60e51b8152600401808060200182810382526021815260200180611c3d6021913960400191505060405180910390fd5b6000610b53610ccd565b6001600160a01b0316826001600160a01b0316149050919050565b6004546001600160a01b0391821691161490565b6005546001600160a01b0391821691161490565b6001600160a01b031660009081526001602081905260409091208054910154909160ff90911690565b6001600160a01b031660009081526020819052604090205490565b6003546001600160a01b031690565b600254600160a01b900460ff1690565b610c0233610b82565b80610c115750610c11336107c8565b610c4c5760405162461bcd60e51b8152600401808060200182810382526024815260200180611c806024913960400191505060405180910390fd5b600454610ac8906001600160a01b0316338484611667565b610c6d33610b6e565b80610c7c5750610c7c336107c8565b610c4c576040805162461bcd60e51b815260206004820152601e60248201527f6f6e6c79207374616b6572206f7220616374697665206f70657261746f720000604482015290519081900360640190fd5b6002546001600160a01b031690565b610ce533610b6e565b80610cf45750610cf4336107c8565b610d45576040805162461bcd60e51b815260206004820152601e60248201527f6f6e6c79207374616b6572206f7220616374697665206f70657261746f720000604482015290519081900360640190fd5b61076a816112c9565b6000610b53610605565b6000610d6385610bbf565b841115610db1576040805162461bcd60e51b815260206004820152601760248201527618dd5c9c995b9d081cdd185ad9481a5b98dbdc9c9958dd604a1b604482015290519081900360640190fd5b6001600160a01b038516600090815260016020819052604082208054910154909160ff90911690816002811115610de457fe5b1415610e2f576040805162461bcd60e51b81526020600482015260156024820152741b9bc81c1d5b9a5cda1b595b9d08185b1b1bddd959605a1b604482015290519081900360640190fd5b610e3a8286836109ae565b9250610e468884611872565b610e51878787611948565b7fca93c648a4546f2ae486b9140f0082ced75a2664a663c8882b8b3545cddfeeb1888887868860405180866001600160a01b03166001600160a01b03168152602001856001600160a01b03166001600160a01b0316815260200184815260200183815260200180602001828103825283818151815260200191508051906020019080838360005b83811015610ef0578181015183820152602001610ed8565b50505050905090810190601f168015610f1d5780820380516001836020036101000a031916815260200191505b50965050505050505060405180910390a1505095945050505050565b6002546001600160a01b0316610f89576040805162461bcd60e51b815260206004820152601060248201526f1bdc195c985d1bdc881b9bdd081cd95d60821b604482015290519081900360640190fd5b61076a81611038565b610f9a610be9565b610feb576040805162461bcd60e51b815260206004820152601960248201527f6f6e6c79207768656e206f70657261746f722061637469766500000000000000604482015290519081900360640190fd5b600280546001600160a81b0319169055604080516000808252602082015281517f966c160e1c4dbc7df8d69af4ace01e9297c3cf016397b7914971f2fbfa32672d929181900390910190a1565b6002546001600160a01b038281169116141561109b576040805162461bcd60e51b815260206004820152601860248201527f63616e6e6f74207365742073616d65206f70657261746f720000000000000000604482015290519081900360640190fd5b600280546001600160a01b0319166001600160a01b0383161790557f966c160e1c4dbc7df8d69af4ace01e9297c3cf016397b7914971f2fbfa32672d816110e0610be9565b604080516001600160a01b03909316835290151560208301528051918290030190a150565b61110d610be9565b1561115f576040805162461bcd60e51b815260206004820152601d60248201527f6f6e6c79207768656e206f70657261746f72206e6f7420616374697665000000604482015290519081900360640190fd5b6002805460ff60a01b1916600160a01b1790819055604080516001600160a01b0390921682526001602083015280517f966c160e1c4dbc7df8d69af4ace01e9297c3cf016397b7914971f2fbfa32672d9281900390910190a1565b60008160028111156111c857fe5b14806111df575060018160028111156111dd57fe5b145b156112215781156112215760405162461bcd60e51b815260040180806020018281038252602c815260200180611d32602c913960400191505060405180910390fd5b6001600160a01b038316600090815260016020819052604090912083815581018054839260ff199091169083600281111561125857fe5b02179055507fc964ed8af672f908dc7ba57f61d45a87a7e179cecf5198e7b7d53c920d898f0683838360405180846001600160a01b03166001600160a01b031681526020018381526020018260028111156112af57fe5b60ff168152602001935050505060405180910390a1505050565b7fbb39ebb37e60fb5d606ffdb749d2336e56b88e6c88c4bd6513b308f643186eed816040518080602001828103825283818151815260200191508051906020019080838360005b83811015611328578181015183820152602001611310565b50505050905090810190601f1680156113555780820380516001836020036101000a031916815260200191505b509250505060405180910390a150565b600082611374575060006107e2565b8282028284828161138157fe5b0414610a565760405162461bcd60e51b8152600401808060200182810382526021815260200180611ca46021913960400191505060405180910390fd5b6000670de0b6b3a76400006113e86113d68585611365565b6002670de0b6b3a76400005b04611abc565b816113ef57fe5b049392505050565b6001600160a01b038416600090815260208190526040902054821461145d576040805162461bcd60e51b815260206004820152601760248201527618dd5c9c995b9d081cdd185ad9481a5b98dbdc9c9958dd604a1b604482015290519081900360640190fd5b600081116114a5576040805162461bcd60e51b815260206004820152601060248201526f6e6f207374616b6520746f2074616b6560801b604482015290519081900360640190fd5b818111156114e45760405162461bcd60e51b8152600401808060200182810382526022815260200180611c5e6022913960400191505060405180910390fd5b60006114f6838363ffffffff611b1616565b6001600160a01b0386166000908152602081905260409020819055905061151b6106f8565b6001600160a01b031663a9059cbb85846040518363ffffffff1660e01b815260040180836001600160a01b03166001600160a01b0316815260200182815260200192505050602060405180830381600087803b15801561157a57600080fd5b505af115801561158e573d6000803e3d6000fd5b505050506040513d60208110156115a457600080fd5b50516115ef576040805162461bcd60e51b81526020600482015260156024820152741d1bdad95b881d1c985b9cd9995c8819985a5b1959605a1b604482015290519081900360640190fd5b604080516001600160a01b038088168252861660208201528082018490526060810183905290517f79cb01d8e263c1d344176f9a596b5a6aa14a7df350a227e2e7df836a087b56619181900360800190a15050505050565b6000816113e861165f85670de0b6b3a7640000611365565b6002856113e2565b6001600160a01b03841660009081526020819052604090205482146116cd576040805162461bcd60e51b815260206004820152601760248201527618dd5c9c995b9d081cdd185ad9481a5b98dbdc9c9958dd604a1b604482015290519081900360640190fd5b60008111611714576040805162461bcd60e51b815260206004820152600f60248201526e1b9bc81cdd185ad9481d1bc8185919608a1b604482015290519081900360640190fd5b6000611726838363ffffffff611abc16565b6001600160a01b0386166000908152602081905260409020819055905061174b6106f8565b604080516323b872dd60e01b81526001600160a01b03878116600483015230602483015260448201869052915192909116916323b872dd916064808201926020929091908290030181600087803b1580156117a557600080fd5b505af11580156117b9573d6000803e3d6000fd5b505050506040513d60208110156117cf57600080fd5b505161181a576040805162461bcd60e51b81526020600482015260156024820152741d1bdad95b881d1c985b9cd9995c8819985a5b1959605a1b604482015290519081900360640190fd5b604080516001600160a01b038088168252861660208201528082018490526060810183905290517fef7c8dfef14cbefdf829b8f066b068b677992411137321d64b3ed4538c2b36379181900360800190a15050505050565b60408051630f91aad760e31b81526001600160a01b0384166004820152602481018390529051731776e1f26f98b1a5df9cd347953a26dd3cb4667191637c8d56b89160448083019260209291908290030181600087803b1580156118d557600080fd5b505af11580156118e9573d6000803e3d6000fd5b505050506040513d60208110156118ff57600080fd5b5051610ac8576040805162461bcd60e51b81526020600482015260136024820152721b9b5c88189d5c9b919c9bdb4819985a5b1959606a1b604482015290519081900360640190fd5b6001600160a01b03831660009081526020819052604090205482146119ae576040805162461bcd60e51b815260206004820152601760248201527618dd5c9c995b9d081cdd185ad9481a5b98dbdc9c9958dd604a1b604482015290519081900360640190fd5b600081116119f6576040805162461bcd60e51b815260206004820152601060248201526f37379039ba30b5b2903a3790313ab93760811b604482015290519081900360640190fd5b81811115611a355760405162461bcd60e51b8152600401808060200182810382526022815260200180611cc56022913960400191505060405180910390fd5b6000611a47838363ffffffff611b1616565b6001600160a01b03851660009081526020819052604090208190559050611a6d82611b73565b604080516001600160a01b03861681526020810184905280820183905290517ff470d7f6c239014b63db190652ebe51433a828b65e06d9972143c34c2e2ca3bc9181900360600190a150505050565b600082820183811015610a56576040805162461bcd60e51b815260206004820152601b60248201527f536166654d6174683a206164646974696f6e206f766572666c6f770000000000604482015290519081900360640190fd5b600082821115611b6d576040805162461bcd60e51b815260206004820152601e60248201527f536166654d6174683a207375627472616374696f6e206f766572666c6f770000604482015290519081900360640190fd5b50900390565b731776e1f26f98b1a5df9cd347953a26dd3cb466716001600160a01b031663a0712d68826040518263ffffffff1660e01b815260040180828152602001915050602060405180830381600087803b158015611bcd57600080fd5b505af1158015611be1573d6000803e3d6000fd5b505050506040513d6020811015611bf757600080fd5b505161076a576040805162461bcd60e51b815260206004820152600f60248201526e1b9b5c88189d5c9b8819985a5b1959608a1b604482015290519081900360640190fdfe726174696f547970652063616e6e6f7420626520526174696f547970652e496e6663616e6e6f742074616b65206d6f7265207468616e2063757272656e745374616b656f6e6c7920636f756e7465727061727479206f7220616374697665206f70657261746f72536166654d6174683a206d756c7469706c69636174696f6e206f766572666c6f7763616e6e6f74206275726e206d6f7265207468616e2063757272656e745374616b656d7573742062652063616c6c65642077697468696e20636f6e747261637420636f6e7374727563746f72726174696f547970652063616e6e6f7420626520526174696f547970652e4e614e726174696f206d7573742062652030207768656e20726174696f54797065206973204e614e206f7220496e66a265627a7a723158200740543a5dbeec98781661bc14e4ae27059fbbd9f4c8f53fde84365856a1ed7864736f6c634300050b0032",
  "source": "pragma solidity ^0.5.0;\n\nimport \"../helpers/openzeppelin-solidity/math/SafeMath.sol\";\nimport \"../helpers/openzeppelin-solidity/token/ERC20/IERC20.sol\";\nimport \"../modules/Countdown.sol\";\nimport \"../modules/Griefing.sol\";\nimport \"../modules/EventMetadata.sol\";\nimport \"../modules/Operated.sol\";\nimport \"../modules/Template.sol\";\n\n/* Immediately engage with specific buyer\n * - Stake can be increased at any time.\n * - Counterparty can greif the staker at predefined ratio.\n *\n * NOTE:\n * - This top level contract should only perform access control and state transitions\n *\n */\ncontract SimpleGriefing is Griefing, EventMetadata, Operated, Template {\n\n    using SafeMath for uint256;\n\n    Data private _data;\n    struct Data {\n        address staker;\n        address counterparty;\n    }\n\n    event Initialized(address operator, address staker, address counterparty, uint256 ratio, Griefing.RatioType ratioType, bytes metadata);\n\n    function initialize(\n        address operator,\n        address staker,\n        address counterparty,\n        uint256 ratio,\n        Griefing.RatioType ratioType,\n        bytes memory metadata\n    ) public initializeTemplate() {\n        // set storage values\n        _data.staker = staker;\n        _data.counterparty = counterparty;\n\n        // set operator\n        if (operator != address(0)) {\n            Operated._setOperator(operator);\n            Operated._activateOperator();\n        }\n\n        // set griefing ratio\n        Griefing._setRatio(staker, ratio, ratioType);\n\n        // set metadata\n        if (metadata.length != 0) {\n            EventMetadata._setMetadata(metadata);\n        }\n\n        // log initialization params\n        emit Initialized(operator, staker, counterparty, ratio, ratioType, metadata);\n    }\n\n    // state functions\n\n    function setMetadata(bytes memory metadata) public {\n        // restrict access\n        require(isStaker(msg.sender) || Operated.isActiveOperator(msg.sender), \"only staker or active operator\");\n\n        // update metadata\n        EventMetadata._setMetadata(metadata);\n    }\n\n    function increaseStake(uint256 currentStake, uint256 amountToAdd) public {\n        // restrict access\n        require(isStaker(msg.sender) || Operated.isActiveOperator(msg.sender), \"only staker or active operator\");\n\n        // add stake\n        Staking._addStake(_data.staker, msg.sender, currentStake, amountToAdd);\n    }\n\n    function reward(uint256 currentStake, uint256 amountToAdd) public {\n        // restrict access\n        require(isCounterparty(msg.sender) || Operated.isActiveOperator(msg.sender), \"only counterparty or active operator\");\n\n        // add stake\n        Staking._addStake(_data.staker, msg.sender, currentStake, amountToAdd);\n    }\n\n    function punish(uint256 currentStake, uint256 punishment, bytes memory message) public returns (uint256 cost) {\n        // restrict access\n        require(isCounterparty(msg.sender) || Operated.isActiveOperator(msg.sender), \"only counterparty or active operator\");\n\n        // execute griefing\n        cost = Griefing._grief(msg.sender, _data.staker, currentStake, punishment, message);\n    }\n\n    function releaseStake(uint256 currentStake, uint256 amountToRelease) public {\n        // restrict access\n        require(isCounterparty(msg.sender) || Operated.isActiveOperator(msg.sender), \"only counterparty or active operator\");\n\n        // release stake back to the staker\n        Staking._takeStake(_data.staker, _data.staker, currentStake, amountToRelease);\n    }\n\n    function transferOperator(address operator) public {\n        // restrict access\n        require(Operated.isActiveOperator(msg.sender), \"only active operator\");\n\n        // transfer operator\n        Operated._transferOperator(operator);\n    }\n\n    function renounceOperator() public {\n        // restrict access\n        require(Operated.isActiveOperator(msg.sender), \"only active operator\");\n\n        // transfer operator\n        Operated._renounceOperator();\n    }\n\n    // view functions\n\n    function isStaker(address caller) public view returns (bool validity) {\n        validity = (caller == _data.staker);\n    }\n\n    function isCounterparty(address caller) public view returns (bool validity) {\n        validity = (caller == _data.counterparty);\n    }\n}\n"
}