{
  "contractName": "Feed",
  "abi": [
    {
      "constant": true,
      "inputs": [],
      "name": "getCreator",
      "outputs": [
        {
          "internalType": "address",
          "name": "creator",
          "type": "address"
        }
      ],
      "payable": false,
      "stateMutability": "view",
      "type": "function"
    },
    {
      "constant": true,
      "inputs": [
        {
          "internalType": "address",
          "name": "caller",
          "type": "address"
        }
      ],
      "name": "isActiveOperator",
      "outputs": [
        {
          "internalType": "bool",
          "name": "ok",
          "type": "bool"
        }
      ],
      "payable": false,
      "stateMutability": "view",
      "type": "function"
    },
    {
      "constant": true,
      "inputs": [
        {
          "internalType": "address",
          "name": "caller",
          "type": "address"
        }
      ],
      "name": "isOperator",
      "outputs": [
        {
          "internalType": "bool",
          "name": "ok",
          "type": "bool"
        }
      ],
      "payable": false,
      "stateMutability": "view",
      "type": "function"
    },
    {
      "constant": true,
      "inputs": [],
      "name": "getFactory",
      "outputs": [
        {
          "internalType": "address",
          "name": "factory",
          "type": "address"
        }
      ],
      "payable": false,
      "stateMutability": "view",
      "type": "function"
    },
    {
      "constant": true,
      "inputs": [],
      "name": "hasActiveOperator",
      "outputs": [
        {
          "internalType": "bool",
          "name": "ok",
          "type": "bool"
        }
      ],
      "payable": false,
      "stateMutability": "view",
      "type": "function"
    },
    {
      "constant": true,
      "inputs": [],
      "name": "getOperator",
      "outputs": [
        {
          "internalType": "address",
          "name": "operator",
          "type": "address"
        }
      ],
      "payable": false,
      "stateMutability": "view",
      "type": "function"
    },
    {
      "constant": true,
      "inputs": [
        {
          "internalType": "address",
          "name": "caller",
          "type": "address"
        }
      ],
      "name": "isCreator",
      "outputs": [
        {
          "internalType": "bool",
          "name": "ok",
          "type": "bool"
        }
      ],
      "payable": false,
      "stateMutability": "view",
      "type": "function"
    },
    {
      "anonymous": false,
      "inputs": [
        {
          "indexed": false,
          "internalType": "address",
          "name": "operator",
          "type": "address"
        },
        {
          "indexed": false,
          "internalType": "bytes",
          "name": "multihash",
          "type": "bytes"
        },
        {
          "indexed": false,
          "internalType": "bytes",
          "name": "metadata",
          "type": "bytes"
        }
      ],
      "name": "Initialized",
      "type": "event"
    },
    {
      "anonymous": false,
      "inputs": [
        {
          "indexed": false,
          "internalType": "bytes",
          "name": "metadata",
          "type": "bytes"
        }
      ],
      "name": "MetadataSet",
      "type": "event"
    },
    {
      "anonymous": false,
      "inputs": [
        {
          "indexed": false,
          "internalType": "address",
          "name": "operator",
          "type": "address"
        },
        {
          "indexed": false,
          "internalType": "bool",
          "name": "status",
          "type": "bool"
        }
      ],
      "name": "OperatorUpdated",
      "type": "event"
    },
    {
      "anonymous": false,
      "inputs": [
        {
          "indexed": false,
          "internalType": "uint8",
          "name": "hashFunction",
          "type": "uint8"
        },
        {
          "indexed": false,
          "internalType": "uint8",
          "name": "digestSize",
          "type": "uint8"
        }
      ],
      "name": "HashFormatSet",
      "type": "event"
    },
    {
      "anonymous": false,
      "inputs": [
        {
          "indexed": false,
          "internalType": "bytes32",
          "name": "hash",
          "type": "bytes32"
        }
      ],
      "name": "HashSubmitted",
      "type": "event"
    },
    {
      "constant": false,
      "inputs": [
        {
          "internalType": "address",
          "name": "operator",
          "type": "address"
        },
        {
          "internalType": "bytes",
          "name": "multihash",
          "type": "bytes"
        },
        {
          "internalType": "bytes",
          "name": "metadata",
          "type": "bytes"
        }
      ],
      "name": "initialize",
      "outputs": [],
      "payable": false,
      "stateMutability": "nonpayable",
      "type": "function"
    },
    {
      "constant": false,
      "inputs": [
        {
          "internalType": "bytes32",
          "name": "multihash",
          "type": "bytes32"
        }
      ],
      "name": "submitHash",
      "outputs": [],
      "payable": false,
      "stateMutability": "nonpayable",
      "type": "function"
    },
    {
      "constant": false,
      "inputs": [
        {
          "internalType": "bytes",
          "name": "metadata",
          "type": "bytes"
        }
      ],
      "name": "setMetadata",
      "outputs": [],
      "payable": false,
      "stateMutability": "nonpayable",
      "type": "function"
    },
    {
      "constant": false,
      "inputs": [
        {
          "internalType": "address",
          "name": "operator",
          "type": "address"
        }
      ],
      "name": "transferOperator",
      "outputs": [],
      "payable": false,
      "stateMutability": "nonpayable",
      "type": "function"
    },
    {
      "constant": false,
      "inputs": [],
      "name": "renounceOperator",
      "outputs": [],
      "payable": false,
      "stateMutability": "nonpayable",
      "type": "function"
    }
  ],
  "bytecode": "0x608060405234801561001057600080fd5b50610cf9806100206000396000f3fe608060405234801561001057600080fd5b50600436106100b45760003560e01c806388cc58e41161007157806388cc58e41461018a578063923b176214610192578063e7f43c681461019a578063ee57e36f146101a2578063ef6ce76e14610248578063efd4606514610385576100b4565b806308891a32146100b95780630ee2cb10146100d857806329605e77146100fc5780632ab6f8db146101225780633367cca51461012a5780636d70f7ae14610164575b600080fd5b6100d6600480360360208110156100cf57600080fd5b50356103ab565b005b6100e0610420565b604080516001600160a01b039092168252519081900360200190f35b6100d66004803603602081101561011257600080fd5b50356001600160a01b031661049c565b6100d66104f6565b6101506004803603602081101561014057600080fd5b50356001600160a01b0316610551565b604080519115158252519081900360200190f35b6101506004803603602081101561017a57600080fd5b50356001600160a01b0316610571565b6100e0610596565b6101506105a5565b6100e06105b5565b6100d6600480360360208110156101b857600080fd5b8101906020810181356401000000008111156101d357600080fd5b8201836020820111156101e557600080fd5b8035906020019184600183028401116401000000008311171561020757600080fd5b91908080601f0160208091040260200160405190810160405280939291908181526020018383808284376000920191909152509295506105c4945050505050565b6100d66004803603606081101561025e57600080fd5b6001600160a01b03823516919081019060408101602082013564010000000081111561028957600080fd5b82018360208201111561029b57600080fd5b803590602001918460018302840111640100000000831117156102bd57600080fd5b91908080601f016020809104026020016040519081016040528093929190818152602001838380828437600092019190915250929594936020810193503591505064010000000081111561031057600080fd5b82018360208201111561032257600080fd5b8035906020019184600183028401116401000000008311171561034457600080fd5b91908080601f016020809104026020016040519081016040528093929190818152602001838380828437600092019190915250929550610636945050505050565b6101506004803603602081101561039b57600080fd5b50356001600160a01b0316610816565b6103b433610816565b806103c357506103c333610551565b610414576040805162461bcd60e51b815260206004820152601f60248201527f6f6e6c7920616374697665206f70657261746f72206f722063726561746f7200604482015290519081900360640190fd5b61041d81610820565b50565b600154604080516335fb8cc160e11b815230600482015290516000926001600160a01b031691636bf71982916024808301926020929190829003018186803b15801561046b57600080fd5b505afa15801561047f573d6000803e3d6000fd5b505050506040513d602081101561049557600080fd5b5051919050565b6104a533610551565b6104ed576040805162461bcd60e51b815260206004820152601460248201527337b7363c9030b1ba34bb329037b832b930ba37b960611b604482015290519081900360640190fd5b61041d81610856565b6104ff33610551565b610547576040805162461bcd60e51b815260206004820152601460248201527337b7363c9030b1ba34bb329037b832b930ba37b960611b604482015290519081900360640190fd5b61054f6108af565b565b600061055c82610571565b801561056b575061056b6105a5565b92915050565b600061057b6105b5565b6001600160a01b0316826001600160a01b0316149050919050565b6001546001600160a01b031690565b600054600160a01b900460ff1690565b6000546001600160a01b031690565b6105cd33610816565b806105dc57506105dc33610551565b61062d576040805162461bcd60e51b815260206004820152601f60248201527f6f6e6c7920616374697665206f70657261746f72206f722063726561746f7200604482015290519081900360640190fd5b61041d81610955565b600180546001600160a01b03191633179055303b63ffffffff81161561068d5760405162461bcd60e51b815260040180806020018281038252602a815260200180610c9b602a913960400191505060405180910390fd5b6001600160a01b038416156106ad576106a5846109f1565b6106ad610abe565b8251156106e6576106bc610c7a565b6106c584610b73565b90506106d981602001518260400151610c37565b80516106e490610820565b505b8151156106f6576106f682610955565b7fd957b3c1cee5d1d2b948e4b71cf903f66d59a281bf26b412e09c834624d3b96184848460405180846001600160a01b03166001600160a01b031681526020018060200180602001838103835285818151815260200191508051906020019080838360005b8381101561077357818101518382015260200161075b565b50505050905090810190601f1680156107a05780820380516001836020036101000a031916815260200191505b50838103825284518152845160209182019186019080838360005b838110156107d35781810151838201526020016107bb565b50505050905090810190601f1680156108005780820380516001836020036101000a031916815260200191505b509550505050505060405180910390a150505050565b600061057b610420565b6040805182815290517f2f4d8d4a9e5c5541ce76256105ce4674c5f34e1cef22baf7e97eefb6489438539181900360200190a150565b6000546001600160a01b03166108a6576040805162461bcd60e51b815260206004820152601060248201526f1bdc195c985d1bdc881b9bdd081cd95d60821b604482015290519081900360640190fd5b61041d816109f1565b6108b76105a5565b610908576040805162461bcd60e51b815260206004820152601960248201527f6f6e6c79207768656e206f70657261746f722061637469766500000000000000604482015290519081900360640190fd5b600080546001600160a81b031916815560408051828152602081019290925280517f966c160e1c4dbc7df8d69af4ace01e9297c3cf016397b7914971f2fbfa32672d9281900390910190a1565b7fbb39ebb37e60fb5d606ffdb749d2336e56b88e6c88c4bd6513b308f643186eed816040518080602001828103825283818151815260200191508051906020019080838360005b838110156109b457818101518382015260200161099c565b50505050905090810190601f1680156109e15780820380516001836020036101000a031916815260200191505b509250505060405180910390a150565b6000546001600160a01b0382811691161415610a54576040805162461bcd60e51b815260206004820152601860248201527f63616e6e6f74207365742073616d65206f70657261746f720000000000000000604482015290519081900360640190fd5b600080546001600160a01b0319166001600160a01b0383161790557f966c160e1c4dbc7df8d69af4ace01e9297c3cf016397b7914971f2fbfa32672d81610a996105a5565b604080516001600160a01b03909316835290151560208301528051918290030190a150565b610ac66105a5565b15610b18576040805162461bcd60e51b815260206004820152601d60248201527f6f6e6c79207768656e206f70657261746f72206e6f7420616374697665000000604482015290519081900360640190fd5b6000805460ff60a01b1916600160a01b1790819055604080516001600160a01b0390921682526001602083015280517f966c160e1c4dbc7df8d69af4ace01e9297c3cf016397b7914971f2fbfa32672d9281900390910190a1565b610b7b610c7a565b8151602214610bd1576040805162461bcd60e51b815260206004820152601b60248201527f6c656e677468206f6620736f75726365206d7573742062652033340000000000604482015290519081900360640190fd5b600082600081518110610be057fe5b602001015160f81c60f81b60f81c9050600083600181518110610bff57fe5b0160209081015160228601516040805160608101825291825260ff959095169281019290925260f81c92810192909252509050919050565b6040805160ff80851682528316602082015281517f7ca4009acc490e3b59e2e25feddd07935bab85d92c4d4d6c1281ab836bba9f62929181900390910190a15050565b60408051606081018252600080825260208201819052918101919091529056fe6d7573742062652063616c6c65642077697468696e20636f6e747261637420636f6e7374727563746f72a265627a7a723158203d9f67a542493fad39d2671b3732f146f485bf8436069af3d0a0f2d5175027b464736f6c634300050b0032",
  "source": "pragma solidity ^0.5.0;\n\nimport \"../modules/EventMetadata.sol\";\nimport \"../modules/Operated.sol\";\nimport \"../modules/Template.sol\";\nimport \"../modules/ProofHashes.sol\";\nimport \"../modules/MultiHashWrapper.sol\";\n\n\ncontract Feed is ProofHashes, MultiHashWrapper, Operated, EventMetadata, Template {\n\n    event Initialized(address operator, bytes multihash, bytes metadata);\n\n    function initialize(\n        address operator,\n        bytes memory multihash,\n        bytes memory metadata\n    ) public initializeTemplate() {\n        // set operator\n        if (operator != address(0)) {\n            Operated._setOperator(operator);\n            Operated._activateOperator();\n        }\n\n        // add multihash to storage\n        if (multihash.length != 0) {\n            // unpack multihash\n            MultiHashWrapper.MultiHash memory multihashObj = MultiHashWrapper._splitMultiHash(multihash);\n\n            // set multihash format\n            ProofHashes._setMultiHashFormat(multihashObj.hashFunction, multihashObj.digestSize);\n\n            // submit hash\n            ProofHashes._submitHash(multihashObj.hash);\n        }\n\n        // set metadata\n        if (metadata.length != 0) {\n            EventMetadata._setMetadata(metadata);\n        }\n\n        // log initialization params\n        emit Initialized(operator, multihash, metadata);\n    }\n\n    // state functions\n\n    function submitHash(bytes32 multihash) public {\n        // only active operator or creator\n        require(Template.isCreator(msg.sender) || Operated.isActiveOperator(msg.sender), \"only active operator or creator\");\n\n        // add multihash to storage\n        ProofHashes._submitHash(multihash);\n    }\n\n    function setMetadata(bytes memory metadata) public {\n        // only active operator or creator\n        require(Template.isCreator(msg.sender) || Operated.isActiveOperator(msg.sender), \"only active operator or creator\");\n\n        // set metadata\n        EventMetadata._setMetadata(metadata);\n    }\n\n    function transferOperator(address operator) public {\n        // restrict access\n        require(Operated.isActiveOperator(msg.sender), \"only active operator\");\n\n        // transfer operator\n        Operated._transferOperator(operator);\n    }\n\n    function renounceOperator() public {\n        // restrict access\n        require(Operated.isActiveOperator(msg.sender), \"only active operator\");\n\n        // transfer operator\n        Operated._renounceOperator();\n    }\n\n}\n",
  "sourcePath": "/Users/jparyani/workspace/erasure-next-contracts/contracts/posts/Feed.sol",
  "compiler": {
    "name": "solc",
    "version": "0.5.11+commit.c082d0b4.Emscripten.clang",
    "optimizer": true,
    "runs": 200
  },
  "schemaVersion": "2.2.0",
  "updatedAt": "2019-11-15T00:58:32.123Z"
}