{
  "contractName": "Feed_Factory",
  "abi": [
    {
      "constant": true,
      "inputs": [],
      "name": "getInstanceType",
      "outputs": [
        {
          "internalType": "bytes4",
          "name": "instanceType",
          "type": "bytes4"
        }
      ],
      "payable": false,
      "stateMutability": "view",
      "type": "function"
    },
    {
      "constant": true,
      "inputs": [],
      "name": "getTemplate",
      "outputs": [
        {
          "internalType": "address",
          "name": "template",
          "type": "address"
        }
      ],
      "payable": false,
      "stateMutability": "view",
      "type": "function"
    },
    {
      "constant": true,
      "inputs": [],
      "name": "getInitSelector",
      "outputs": [
        {
          "internalType": "bytes4",
          "name": "initSelector",
          "type": "bytes4"
        }
      ],
      "payable": false,
      "stateMutability": "view",
      "type": "function"
    },
    {
      "constant": false,
      "inputs": [
        {
          "internalType": "bytes",
          "name": "callData",
          "type": "bytes"
        },
        {
          "internalType": "bytes32",
          "name": "salt",
          "type": "bytes32"
        }
      ],
      "name": "createSalty",
      "outputs": [
        {
          "internalType": "address",
          "name": "instance",
          "type": "address"
        }
      ],
      "payable": false,
      "stateMutability": "nonpayable",
      "type": "function"
    },
    {
      "constant": true,
      "inputs": [
        {
          "internalType": "address",
          "name": "instance",
          "type": "address"
        }
      ],
      "name": "getInstanceCreator",
      "outputs": [
        {
          "internalType": "address",
          "name": "creator",
          "type": "address"
        }
      ],
      "payable": false,
      "stateMutability": "view",
      "type": "function"
    },
    {
      "constant": true,
      "inputs": [
        {
          "internalType": "bytes",
          "name": "callData",
          "type": "bytes"
        }
      ],
      "name": "getNextInstance",
      "outputs": [
        {
          "internalType": "address",
          "name": "target",
          "type": "address"
        }
      ],
      "payable": false,
      "stateMutability": "view",
      "type": "function"
    },
    {
      "constant": true,
      "inputs": [],
      "name": "getInstanceRegistry",
      "outputs": [
        {
          "internalType": "address",
          "name": "instanceRegistry",
          "type": "address"
        }
      ],
      "payable": false,
      "stateMutability": "view",
      "type": "function"
    },
    {
      "constant": true,
      "inputs": [],
      "name": "getInstanceCount",
      "outputs": [
        {
          "internalType": "uint256",
          "name": "count",
          "type": "uint256"
        }
      ],
      "payable": false,
      "stateMutability": "view",
      "type": "function"
    },
    {
      "constant": true,
      "inputs": [
        {
          "internalType": "uint256",
          "name": "startIndex",
          "type": "uint256"
        },
        {
          "internalType": "uint256",
          "name": "endIndex",
          "type": "uint256"
        }
      ],
      "name": "getPaginatedInstances",
      "outputs": [
        {
          "internalType": "address[]",
          "name": "instances",
          "type": "address[]"
        }
      ],
      "payable": false,
      "stateMutability": "view",
      "type": "function"
    },
    {
      "constant": false,
      "inputs": [
        {
          "internalType": "bytes",
          "name": "callData",
          "type": "bytes"
        }
      ],
      "name": "create",
      "outputs": [
        {
          "internalType": "address",
          "name": "instance",
          "type": "address"
        }
      ],
      "payable": false,
      "stateMutability": "nonpayable",
      "type": "function"
    },
    {
      "constant": true,
      "inputs": [],
      "name": "getInstances",
      "outputs": [
        {
          "internalType": "address[]",
          "name": "instances",
          "type": "address[]"
        }
      ],
      "payable": false,
      "stateMutability": "view",
      "type": "function"
    },
    {
      "constant": true,
      "inputs": [
        {
          "internalType": "uint256",
          "name": "index",
          "type": "uint256"
        }
      ],
      "name": "getInstance",
      "outputs": [
        {
          "internalType": "address",
          "name": "instance",
          "type": "address"
        }
      ],
      "payable": false,
      "stateMutability": "view",
      "type": "function"
    },
    {
      "constant": true,
      "inputs": [
        {
          "internalType": "bytes",
          "name": "callData",
          "type": "bytes"
        },
        {
          "internalType": "bytes32",
          "name": "salt",
          "type": "bytes32"
        }
      ],
      "name": "getSaltyInstance",
      "outputs": [
        {
          "internalType": "address",
          "name": "target",
          "type": "address"
        }
      ],
      "payable": false,
      "stateMutability": "view",
      "type": "function"
    },
    {
      "inputs": [
        {
          "internalType": "address",
          "name": "instanceRegistry",
          "type": "address"
        },
        {
          "internalType": "address",
          "name": "templateContract",
          "type": "address"
        }
      ],
      "payable": false,
      "stateMutability": "nonpayable",
      "type": "constructor"
    },
    {
      "anonymous": false,
      "inputs": [
        {
          "indexed": true,
          "internalType": "address",
          "name": "instance",
          "type": "address"
        },
        {
          "indexed": true,
          "internalType": "address",
          "name": "creator",
          "type": "address"
        },
        {
          "indexed": false,
          "internalType": "bytes",
          "name": "callData",
          "type": "bytes"
        }
      ],
      "name": "InstanceCreated",
      "type": "event"
    }
  ],
  "bytecode": "0x608060405234801561001057600080fd5b506040516117ac3803806117ac8339818101604052604081101561003357600080fd5b50805160209182015160408051808201909152600481527f506f7374000000000000000000000000000000000000000000000000000000009084015290916000907f8933c4cd95e6eadfd99c1fa86bab35013d8e8b2b391ac74fe0d801ae102e1a5a907fef6ce76e00000000000000000000000000000000000000000000000000000000906100d19086908690859085906111306100db821b17901c565b5050505050610278565b600380546001600160a01b03199081166001600160a01b03878116918217909355600280549092169286169290921763ffffffff60a01b19167401000000000000000000000000000000000000000060e085901c02179055604080517f18c2f4cf00000000000000000000000000000000000000000000000000000000815290516318c2f4cf91600480820192602092909190829003018186803b15801561018257600080fd5b505afa158015610196573d6000803e3d6000fd5b505050506040513d60208110156101ac57600080fd5b50517fffffffff0000000000000000000000000000000000000000000000000000000083811691161461024057604080517f08c379a000000000000000000000000000000000000000000000000000000000815260206004820152601760248201527f696e636f727265637420696e7374616e63652074797065000000000000000000604482015290519081900360640190fd5b506003805460e09290921c740100000000000000000000000000000000000000000263ffffffff60a01b199092169190911790555050565b611525806102876000396000f3fe60806040523480156200001157600080fd5b5060043610620000e25760003560e01c8063a5e139041162000099578063cf5ba53f116200006f578063cf5ba53f146200035b578063d35fdd791462000405578063ebd348de146200040f578063fbc6d07f146200042f57620000e2565b8063a5e1390414620002bd578063ae34325c14620002c7578063b71f2e7214620002e357620000e2565b806318c2f4cf14620000e7578063321c48f2146200010e57806354ed633b14620001345780635ed75de2146200013e5780636bf7198214620001ea5780638359e1361462000213575b600080fd5b620000f1620004db565b604080516001600160e01b03199092168252519081900360200190f35b62000118620004eb565b604080516001600160a01b039092168252519081900360200190f35b620000f1620004fa565b62000118600480360360408110156200015657600080fd5b810190602081018135600160201b8111156200017157600080fd5b8201836020820111156200018457600080fd5b803590602001918460018302840111600160201b83111715620001a657600080fd5b91908080601f01602080910402602001604051908101604052809392919081815260200183838082843760009201919091525092955050913592506200050a915050565b62000118600480360360208110156200020257600080fd5b50356001600160a01b031662000536565b62000118600480360360208110156200022b57600080fd5b810190602081018135600160201b8111156200024657600080fd5b8201836020820111156200025957600080fd5b803590602001918460018302840111600160201b831117156200027b57600080fd5b91908080601f01602080910402602001604051908101604052809392919081815260200183838082843760009201919091525092955062000554945050505050565b6200011862000573565b620002d162000582565b60408051918252519081900360200190f35b6200030960048036036040811015620002fb57600080fd5b508035906020013562000588565b60408051602080825283518183015283519192839290830191858101910280838360005b83811015620003475781810151838201526020016200032d565b505050509050019250505060405180910390f35b62000118600480360360208110156200037357600080fd5b810190602081018135600160201b8111156200038e57600080fd5b820183602082011115620003a157600080fd5b803590602001918460018302840111600160201b83111715620003c357600080fd5b91908080601f016020809104026020016040519081016040528093929190818152602001838380828437600092019190915250929550620006bc945050505050565b62000309620006e1565b62000118600480360360208110156200042757600080fd5b503562000745565b62000118600480360360408110156200044757600080fd5b810190602081018135600160201b8111156200046257600080fd5b8201836020820111156200047557600080fd5b803590602001918460018302840111600160201b831117156200049757600080fd5b91908080601f0160208091040260200160405190810160405280939291908181526020018383808284376000920191909152509295505091359250620007bb915050565b600354600160a01b900460e01b90565b6002546001600160a01b031690565b600254600160a01b900460e01b90565b6000620005226200051a620004eb565b8484620007da565b9050620005308184620009b7565b92915050565b6001600160a01b039081166000908152600160205260409020541690565b60006200056b62000564620004eb565b8362000b48565b90505b919050565b6003546001600160a01b031690565b60005490565b6060818310620005ca5760405162461bcd60e51b8152600401808060200182810382526025815260200180620014766025913960400191505060405180910390fd5b6000548211156200061b576040805162461bcd60e51b8152602060048201526016602482015275656e6420696e646578206f7574206f662072616e676560501b604482015290519081900360640190fd5b60608383036040519080825280602002602001820160405280156200064a578160200160208202803883390190505b509050835b83811015620006b457600081815481106200066657fe5b9060005260206000200160009054906101000a90046001600160a01b031682868303815181106200069357fe5b6001600160a01b03909216602092830291909101909101526001016200064f565b509392505050565b6000620006d3620006cc620004eb565b8362000ccf565b90506200056e8183620009b7565b606060008054806020026020016040519081016040528092919081815260200182805480156200073b57602002820191906000526020600020905b81546001600160a01b031681526001909101906020018083116200071c575b5050505050905090565b60008054821062000792576040805162461bcd60e51b8152602060048201526012602482015271696e646578206f7574206f662072616e676560701b604482015290519081900360640190fd5b60008281548110620007a057fe5b6000918252602090912001546001600160a01b031692915050565b6000620007d3620007cb620004eb565b848462000e6b565b9392505050565b6000606060405180602001620007f09062001122565b601f1982820381018352601f9091011660408181526001600160a01b03881660208381019182528284019283528851606085015288518a948a94926080909101919085019080838360005b83811015620008555781810151838201526020016200083b565b50505050905090810190601f168015620008835780820380516001836020036101000a031916815260200191505b5093505050506040516020818303038152906040526040516020018083805190602001908083835b60208310620008cc5780518252601f199092019160209182019101620008ab565b51815160209384036101000a600019018019909216911617905285519190930192850191508083835b60208310620009165780518252601f199092019160209182019101620008f5565b6001836020036101000a03801982511681845116808217855250505050505090500192505050604051602081830303815290604052905060006200095c86868662000e6b565b9050803b80156200099f5760405162461bcd60e51b815260040180806020018281038252602c815260200180620014c5602c913960400191505060405180910390fd5b620009ac83868462000ff6565b979650505050505050565b60008054600181810183557f290decd9548b62a8d60345a988386fc84ba6bc95484008f6362f93160ef3e56390910180546001600160a01b0386166001600160a01b03199182168117909255908352602091909152604090912080549091163317905562000a2462000573565b60408051632eea0fd960e21b81526001600160a01b038581166004830152336024830152600060448301819052925193169263bba83f649260648084019391929182900301818387803b15801562000a7b57600080fd5b505af115801562000a90573d6000803e3d6000fd5b50505050336001600160a01b0316826001600160a01b03167fab60131c1462939275d0fd3738e07ab853e22af6296cf75e71bbdf3a497791a2836040518080602001828103825283818151815260200191508051906020019080838360005b8381101562000b0957818101518382015260200162000aef565b50505050905090810190601f16801562000b375780820380516001836020036101000a031916815260200191505b509250505060405180910390a35050565b600060606040518060200162000b5e9062001122565b601f1982820381018352601f9091011660408181526001600160a01b038716602083810191825282840192835287516060850152875189948994926080909101919085019080838360005b8381101562000bc357818101518382015260200162000ba9565b50505050905090810190601f16801562000bf15780820380516001836020036101000a031916815260200191505b5093505050506040516020818303038152906040526040516020018083805190602001908083835b6020831062000c3a5780518252601f19909201916020918201910162000c19565b51815160209384036101000a600019018019909216911617905285519190930192850191508083835b6020831062000c845780518252601f19909201916020918201910162000c63565b6001836020036101000a03801982511681845116808217855250505050505090500192505050604051602081830303815290604052905062000cc68162001069565b95945050505050565b600060606040518060200162000ce59062001122565b601f1982820381018352601f9091011660408181526001600160a01b038716602083810191825282840192835287516060850152875189948994926080909101919085019080838360005b8381101562000d4a57818101518382015260200162000d30565b50505050905090810190601f16801562000d785780820380516001836020036101000a031916815260200191505b5093505050506040516020818303038152906040526040516020018083805190602001908083835b6020831062000dc15780518252601f19909201916020918201910162000da0565b51815160209384036101000a600019018019909216911617905285519190930192850191508083835b6020831062000e0b5780518252601f19909201916020918201910162000dea565b6001836020036101000a03801982511681845116808217855250505050505090500192505050604051602081830303815290604052905060008062000e508362001069565b9150915062000e6183838362000ff6565b9695505050505050565b600060606040518060200162000e819062001122565b601f1982820381018352601f9091011660408181526001600160a01b03881660208381019182528284019283528851606085015288518a948a94926080909101919085019080838360005b8381101562000ee657818101518382015260200162000ecc565b50505050905090810190601f16801562000f145780820380516001836020036101000a031916815260200191505b5093505050506040516020818303038152906040526040516020018083805190602001908083835b6020831062000f5d5780518252601f19909201916020918201910162000f3c565b51815160209384036101000a600019018019909216911617905285519190930192850191508083835b6020831062000fa75780518252601f19909201916020918201910162000f86565b6001836020036101000a03801982511681845116808217855250505050505090500192505050604051602081830303815290604052905060008180519060200120905062000e618185620010db565b600083602001845184818334f592508262001015573d6000803e3d6000fd5b5050816001600160a01b0316816001600160a01b031614620007d35760405162461bcd60e51b815260040180806020018281038252602a8152602001806200149b602a913960400191505060405180910390fd5b80516020820120600090819081805b604080513360601b602080830191909152603480830186905283518084039091018152605490920190925280519101209450620010b68386620010db565b935050823b80620010c757620010d3565b60019091019062001078565b505050915091565b604080516001600160f81b03196020808301919091523060601b60218301526035820193909352605580820194909452815180820390940184526075019052815191012090565b610211806200126583390190565b600380546001600160a01b03199081166001600160a01b03878116918217909355600280549092169286169290921763ffffffff60a01b1916600160a01b60e085901c02179055604080516318c2f4cf60e01b815290516318c2f4cf91600480820192602092909190829003018186803b158015620011ae57600080fd5b505afa158015620011c3573d6000803e3d6000fd5b505050506040513d6020811015620011da57600080fd5b50516001600160e01b03198381169116146200123d576040805162461bcd60e51b815260206004820152601760248201527f696e636f727265637420696e7374616e63652074797065000000000000000000604482015290519081900360640190fd5b506003805460e09290921c600160a01b0263ffffffff60a01b19909216919091179055505056fe60806040526040516102113803806102118339818101604052604081101561002657600080fd5b81516020830180516040519294929383019291908464010000000082111561004d57600080fd5b90830190602082018581111561006257600080fd5b825164010000000081118282018810171561007c57600080fd5b82525081516020918201929091019080838360005b838110156100a9578181015183820152602001610091565b50505050905090810190601f1680156100d65780820380516001836020036101000a031916815260200191505b506040525050506000826001600160a01b0316826040518082805190602001908083835b602083106101195780518252601f1990920191602091820191016100fa565b6001836020036101000a038019825116818451168082178552505050505050905001915050600060405180830381855af49150503d8060008114610179576040519150601f19603f3d011682016040523d82523d6000602084013e61017e565b606091505b5050905080610191573d6000803e3d6000fd5b604080517f363d3d373d3d3d363d73000000000000000000000000000000000000000000006020808301919091526001600160601b0319606087901b16602a8301527f5af43d82803e903d91602b57fd5bf30000000000000000000000000000000000603e8301528251602d81840381018252604d9093019093528201f3fe7374617274496e646578206d757374206265206c657373207468616e20656e64496e646578617474656d70746564206465706c6f796d656e7420746f20756e65787065637465642061646472657373636f6e747261637420616c7265616479206465706c6f796564207769746820737570706c6965642073616c74a265627a7a72315820fe2bb4b4d1d6aa4d5e52b501f1f45f31de3d8a38a46d5dd05c509734bc97222564736f6c634300050b0032",
  "source": "pragma solidity ^0.5.0;\n\nimport \"../modules/Factory.sol\";\nimport \"./Feed.sol\";\n\n\ncontract Feed_Factory is Factory {\n\n    constructor(address instanceRegistry, address templateContract) public {\n        Feed template;\n\n        // set instance type\n        bytes4 instanceType = bytes4(keccak256(bytes('Post')));\n        // set initSelector\n        bytes4 initSelector = template.initialize.selector;\n        // initialize factory params\n        Factory._initialize(instanceRegistry, templateContract, instanceType, initSelector);\n    }\n\n}\n",
  "sourcePath": "/Users/jparyani/workspace/erasure-next-contracts/contracts/posts/Feed_Factory.sol",
  "compiler": {
    "name": "solc",
    "version": "0.5.11+commit.c082d0b4.Emscripten.clang",
    "optimizer": true,
    "runs": 200
  },
  "schemaVersion": "2.2.0",
  "updatedAt": "2019-11-15T00:58:32.123Z"
}