{
  "contractName": "CountdownGriefing",
  "abi": [
    {
      "constant": true,
      "inputs": [],
      "name": "getCreator",
      "outputs": [
        {
          "internalType": "address",
          "name": "creator",
          "type": "address"
        }
      ],
      "payable": false,
      "stateMutability": "view",
      "type": "function"
    },
    {
      "constant": true,
      "inputs": [],
      "name": "getToken",
      "outputs": [
        {
          "internalType": "address",
          "name": "token",
          "type": "address"
        }
      ],
      "payable": false,
      "stateMutability": "pure",
      "type": "function"
    },
    {
      "constant": true,
      "inputs": [
        {
          "internalType": "address",
          "name": "caller",
          "type": "address"
        }
      ],
      "name": "isActiveOperator",
      "outputs": [
        {
          "internalType": "bool",
          "name": "ok",
          "type": "bool"
        }
      ],
      "payable": false,
      "stateMutability": "view",
      "type": "function"
    },
    {
      "constant": true,
      "inputs": [
        {
          "internalType": "uint256",
          "name": "ratio",
          "type": "uint256"
        },
        {
          "internalType": "uint256",
          "name": "punishment",
          "type": "uint256"
        },
        {
          "internalType": "enum Griefing.RatioType",
          "name": "ratioType",
          "type": "uint8"
        }
      ],
      "name": "getCost",
      "outputs": [
        {
          "internalType": "uint256",
          "name": "cost",
          "type": "uint256"
        }
      ],
      "payable": false,
      "stateMutability": "pure",
      "type": "function"
    },
    {
      "constant": true,
      "inputs": [
        {
          "internalType": "uint256",
          "name": "ratio",
          "type": "uint256"
        },
        {
          "internalType": "uint256",
          "name": "cost",
          "type": "uint256"
        },
        {
          "internalType": "enum Griefing.RatioType",
          "name": "ratioType",
          "type": "uint8"
        }
      ],
      "name": "getPunishment",
      "outputs": [
        {
          "internalType": "uint256",
          "name": "punishment",
          "type": "uint256"
        }
      ],
      "payable": false,
      "stateMutability": "pure",
      "type": "function"
    },
    {
      "constant": true,
      "inputs": [],
      "name": "getDeadline",
      "outputs": [
        {
          "internalType": "uint256",
          "name": "deadline",
          "type": "uint256"
        }
      ],
      "payable": false,
      "stateMutability": "view",
      "type": "function"
    },
    {
      "constant": true,
      "inputs": [
        {
          "internalType": "address",
          "name": "caller",
          "type": "address"
        }
      ],
      "name": "isOperator",
      "outputs": [
        {
          "internalType": "bool",
          "name": "ok",
          "type": "bool"
        }
      ],
      "payable": false,
      "stateMutability": "view",
      "type": "function"
    },
    {
      "constant": true,
      "inputs": [
        {
          "internalType": "address",
          "name": "staker",
          "type": "address"
        }
      ],
      "name": "getRatio",
      "outputs": [
        {
          "internalType": "uint256",
          "name": "ratio",
          "type": "uint256"
        },
        {
          "internalType": "enum Griefing.RatioType",
          "name": "ratioType",
          "type": "uint8"
        }
      ],
      "payable": false,
      "stateMutability": "view",
      "type": "function"
    },
    {
      "constant": true,
      "inputs": [],
      "name": "isAfterDeadline",
      "outputs": [
        {
          "internalType": "bool",
          "name": "status",
          "type": "bool"
        }
      ],
      "payable": false,
      "stateMutability": "view",
      "type": "function"
    },
    {
      "constant": true,
      "inputs": [
        {
          "internalType": "address",
          "name": "staker",
          "type": "address"
        }
      ],
      "name": "getStake",
      "outputs": [
        {
          "internalType": "uint256",
          "name": "stake",
          "type": "uint256"
        }
      ],
      "payable": false,
      "stateMutability": "view",
      "type": "function"
    },
    {
      "constant": true,
      "inputs": [],
      "name": "getFactory",
      "outputs": [
        {
          "internalType": "address",
          "name": "factory",
          "type": "address"
        }
      ],
      "payable": false,
      "stateMutability": "view",
      "type": "function"
    },
    {
      "constant": true,
      "inputs": [],
      "name": "hasActiveOperator",
      "outputs": [
        {
          "internalType": "bool",
          "name": "ok",
          "type": "bool"
        }
      ],
      "payable": false,
      "stateMutability": "view",
      "type": "function"
    },
    {
      "constant": true,
      "inputs": [],
      "name": "isOver",
      "outputs": [
        {
          "internalType": "bool",
          "name": "status",
          "type": "bool"
        }
      ],
      "payable": false,
      "stateMutability": "view",
      "type": "function"
    },
    {
      "constant": true,
      "inputs": [],
      "name": "getLength",
      "outputs": [
        {
          "internalType": "uint256",
          "name": "length",
          "type": "uint256"
        }
      ],
      "payable": false,
      "stateMutability": "view",
      "type": "function"
    },
    {
      "constant": true,
      "inputs": [],
      "name": "timeRemaining",
      "outputs": [
        {
          "internalType": "uint256",
          "name": "time",
          "type": "uint256"
        }
      ],
      "payable": false,
      "stateMutability": "view",
      "type": "function"
    },
    {
      "constant": true,
      "inputs": [],
      "name": "getOperator",
      "outputs": [
        {
          "internalType": "address",
          "name": "operator",
          "type": "address"
        }
      ],
      "payable": false,
      "stateMutability": "view",
      "type": "function"
    },
    {
      "constant": true,
      "inputs": [
        {
          "internalType": "address",
          "name": "caller",
          "type": "address"
        }
      ],
      "name": "isCreator",
      "outputs": [
        {
          "internalType": "bool",
          "name": "ok",
          "type": "bool"
        }
      ],
      "payable": false,
      "stateMutability": "view",
      "type": "function"
    },
    {
      "anonymous": false,
      "inputs": [
        {
          "indexed": false,
          "internalType": "address",
          "name": "operator",
          "type": "address"
        },
        {
          "indexed": false,
          "internalType": "address",
          "name": "staker",
          "type": "address"
        },
        {
          "indexed": false,
          "internalType": "address",
          "name": "counterparty",
          "type": "address"
        },
        {
          "indexed": false,
          "internalType": "uint256",
          "name": "ratio",
          "type": "uint256"
        },
        {
          "indexed": false,
          "internalType": "enum Griefing.RatioType",
          "name": "ratioType",
          "type": "uint8"
        },
        {
          "indexed": false,
          "internalType": "uint256",
          "name": "countdownLength",
          "type": "uint256"
        },
        {
          "indexed": false,
          "internalType": "bytes",
          "name": "metadata",
          "type": "bytes"
        }
      ],
      "name": "Initialized",
      "type": "event"
    },
    {
      "anonymous": false,
      "inputs": [
        {
          "indexed": false,
          "internalType": "address",
          "name": "operator",
          "type": "address"
        },
        {
          "indexed": false,
          "internalType": "bool",
          "name": "status",
          "type": "bool"
        }
      ],
      "name": "OperatorUpdated",
      "type": "event"
    },
    {
      "anonymous": false,
      "inputs": [
        {
          "indexed": false,
          "internalType": "bytes",
          "name": "metadata",
          "type": "bytes"
        }
      ],
      "name": "MetadataSet",
      "type": "event"
    },
    {
      "anonymous": false,
      "inputs": [
        {
          "indexed": false,
          "internalType": "address",
          "name": "staker",
          "type": "address"
        },
        {
          "indexed": false,
          "internalType": "uint256",
          "name": "ratio",
          "type": "uint256"
        },
        {
          "indexed": false,
          "internalType": "enum Griefing.RatioType",
          "name": "ratioType",
          "type": "uint8"
        }
      ],
      "name": "RatioSet",
      "type": "event"
    },
    {
      "anonymous": false,
      "inputs": [
        {
          "indexed": false,
          "internalType": "address",
          "name": "punisher",
          "type": "address"
        },
        {
          "indexed": false,
          "internalType": "address",
          "name": "staker",
          "type": "address"
        },
        {
          "indexed": false,
          "internalType": "uint256",
          "name": "punishment",
          "type": "uint256"
        },
        {
          "indexed": false,
          "internalType": "uint256",
          "name": "cost",
          "type": "uint256"
        },
        {
          "indexed": false,
          "internalType": "bytes",
          "name": "message",
          "type": "bytes"
        }
      ],
      "name": "Griefed",
      "type": "event"
    },
    {
      "anonymous": false,
      "inputs": [
        {
          "indexed": false,
          "internalType": "address",
          "name": "staker",
          "type": "address"
        },
        {
          "indexed": false,
          "internalType": "address",
          "name": "funder",
          "type": "address"
        },
        {
          "indexed": false,
          "internalType": "uint256",
          "name": "amount",
          "type": "uint256"
        },
        {
          "indexed": false,
          "internalType": "uint256",
          "name": "newStake",
          "type": "uint256"
        }
      ],
      "name": "StakeAdded",
      "type": "event"
    },
    {
      "anonymous": false,
      "inputs": [
        {
          "indexed": false,
          "internalType": "address",
          "name": "staker",
          "type": "address"
        },
        {
          "indexed": false,
          "internalType": "address",
          "name": "recipient",
          "type": "address"
        },
        {
          "indexed": false,
          "internalType": "uint256",
          "name": "amount",
          "type": "uint256"
        },
        {
          "indexed": false,
          "internalType": "uint256",
          "name": "newStake",
          "type": "uint256"
        }
      ],
      "name": "StakeTaken",
      "type": "event"
    },
    {
      "anonymous": false,
      "inputs": [
        {
          "indexed": false,
          "internalType": "address",
          "name": "staker",
          "type": "address"
        },
        {
          "indexed": false,
          "internalType": "uint256",
          "name": "amount",
          "type": "uint256"
        },
        {
          "indexed": false,
          "internalType": "uint256",
          "name": "newStake",
          "type": "uint256"
        }
      ],
      "name": "StakeBurned",
      "type": "event"
    },
    {
      "anonymous": false,
      "inputs": [
        {
          "indexed": false,
          "internalType": "uint256",
          "name": "length",
          "type": "uint256"
        }
      ],
      "name": "LengthSet",
      "type": "event"
    },
    {
      "anonymous": false,
      "inputs": [
        {
          "indexed": false,
          "internalType": "uint256",
          "name": "deadline",
          "type": "uint256"
        }
      ],
      "name": "DeadlineSet",
      "type": "event"
    },
    {
      "constant": false,
      "inputs": [
        {
          "internalType": "address",
          "name": "operator",
          "type": "address"
        },
        {
          "internalType": "address",
          "name": "staker",
          "type": "address"
        },
        {
          "internalType": "address",
          "name": "counterparty",
          "type": "address"
        },
        {
          "internalType": "uint256",
          "name": "ratio",
          "type": "uint256"
        },
        {
          "internalType": "enum Griefing.RatioType",
          "name": "ratioType",
          "type": "uint8"
        },
        {
          "internalType": "uint256",
          "name": "countdownLength",
          "type": "uint256"
        },
        {
          "internalType": "bytes",
          "name": "metadata",
          "type": "bytes"
        }
      ],
      "name": "initialize",
      "outputs": [],
      "payable": false,
      "stateMutability": "nonpayable",
      "type": "function"
    },
    {
      "constant": false,
      "inputs": [
        {
          "internalType": "bytes",
          "name": "metadata",
          "type": "bytes"
        }
      ],
      "name": "setMetadata",
      "outputs": [],
      "payable": false,
      "stateMutability": "nonpayable",
      "type": "function"
    },
    {
      "constant": false,
      "inputs": [
        {
          "internalType": "uint256",
          "name": "currentStake",
          "type": "uint256"
        },
        {
          "internalType": "uint256",
          "name": "amountToAdd",
          "type": "uint256"
        }
      ],
      "name": "increaseStake",
      "outputs": [],
      "payable": false,
      "stateMutability": "nonpayable",
      "type": "function"
    },
    {
      "constant": false,
      "inputs": [
        {
          "internalType": "uint256",
          "name": "currentStake",
          "type": "uint256"
        },
        {
          "internalType": "uint256",
          "name": "amountToAdd",
          "type": "uint256"
        }
      ],
      "name": "reward",
      "outputs": [],
      "payable": false,
      "stateMutability": "nonpayable",
      "type": "function"
    },
    {
      "constant": false,
      "inputs": [
        {
          "internalType": "uint256",
          "name": "currentStake",
          "type": "uint256"
        },
        {
          "internalType": "uint256",
          "name": "punishment",
          "type": "uint256"
        },
        {
          "internalType": "bytes",
          "name": "message",
          "type": "bytes"
        }
      ],
      "name": "punish",
      "outputs": [
        {
          "internalType": "uint256",
          "name": "cost",
          "type": "uint256"
        }
      ],
      "payable": false,
      "stateMutability": "nonpayable",
      "type": "function"
    },
    {
      "constant": false,
      "inputs": [
        {
          "internalType": "uint256",
          "name": "currentStake",
          "type": "uint256"
        },
        {
          "internalType": "uint256",
          "name": "amountToRelease",
          "type": "uint256"
        }
      ],
      "name": "releaseStake",
      "outputs": [],
      "payable": false,
      "stateMutability": "nonpayable",
      "type": "function"
    },
    {
      "constant": false,
      "inputs": [],
      "name": "startCountdown",
      "outputs": [
        {
          "internalType": "uint256",
          "name": "deadline",
          "type": "uint256"
        }
      ],
      "payable": false,
      "stateMutability": "nonpayable",
      "type": "function"
    },
    {
      "constant": false,
      "inputs": [
        {
          "internalType": "address",
          "name": "recipient",
          "type": "address"
        }
      ],
      "name": "retrieveStake",
      "outputs": [
        {
          "internalType": "uint256",
          "name": "amount",
          "type": "uint256"
        }
      ],
      "payable": false,
      "stateMutability": "nonpayable",
      "type": "function"
    },
    {
      "constant": false,
      "inputs": [
        {
          "internalType": "address",
          "name": "operator",
          "type": "address"
        }
      ],
      "name": "transferOperator",
      "outputs": [],
      "payable": false,
      "stateMutability": "nonpayable",
      "type": "function"
    },
    {
      "constant": false,
      "inputs": [],
      "name": "renounceOperator",
      "outputs": [],
      "payable": false,
      "stateMutability": "nonpayable",
      "type": "function"
    },
    {
      "constant": true,
      "inputs": [
        {
          "internalType": "address",
          "name": "caller",
          "type": "address"
        }
      ],
      "name": "isStaker",
      "outputs": [
        {
          "internalType": "bool",
          "name": "validity",
          "type": "bool"
        }
      ],
      "payable": false,
      "stateMutability": "view",
      "type": "function"
    },
    {
      "constant": true,
      "inputs": [
        {
          "internalType": "address",
          "name": "caller",
          "type": "address"
        }
      ],
      "name": "isCounterparty",
      "outputs": [
        {
          "internalType": "bool",
          "name": "validity",
          "type": "bool"
        }
      ],
      "payable": false,
      "stateMutability": "view",
      "type": "function"
    }
  ],
  "bytecode": "0x608060405234801561001057600080fd5b506121c9806100206000396000f3fe608060405234801561001057600080fd5b50600436106101cf5760003560e01c806373f500af11610104578063b4bd9e27116100a2578063e3cfef6011610071578063e3cfef6014610613578063e7f43c681461061b578063ee57e36f14610623578063efd46065146106c9576101cf565b8063b4bd9e2714610503578063b6ef42841461050b578063be1c766b146105e8578063bec10cde146105f0576101cf565b80637a766460116100de5780637a766460146104aa57806388cc58e4146104d0578063923b1762146104d8578063a4fa8d57146104e0576101cf565b806373f500af1461042b578063754b2707146104515780637878f257146104a2576101cf565b8063465b414e116101715780635e5365c11161014b5780635e5365c1146103cf5780635f8d96de146103d75780636d70f7ae146103df5780636f1e853314610405576101cf565b8063465b414e146103545780634a66db95146103805780635baeb806146103a3576101cf565b806329605e77116101ad57806329605e77146102c45780632ab6f8db146102ec5780633367cca5146102f457806341ce28781461032e576101cf565b80630ee2cb10146101d45780630fc15f20146101f857806321df0da7146102bc575b600080fd5b6101dc6106ef565b604080516001600160a01b039092168252519081900360200190f35b6102aa6004803603606081101561020e57600080fd5b81359160208101359181019060608101604082013564010000000081111561023557600080fd5b82018360208201111561024757600080fd5b8035906020019184600183028401116401000000008311171561026957600080fd5b91908080601f01602080910402602001604051908101604052809392919081815260200183838082843760009201919091525092955061076b945050505050565b60408051918252519081900360200190f35b6101dc61082e565b6102ea600480360360208110156102da57600080fd5b50356001600160a01b0316610846565b005b6102ea6108a3565b61031a6004803603602081101561030a57600080fd5b50356001600160a01b03166108fe565b604080519115158252519081900360200190f35b6102aa6004803603602081101561034457600080fd5b50356001600160a01b031661091e565b6102aa6004803603606081101561036a57600080fd5b508035906020810135906040013560ff166109dc565b6102ea6004803603604081101561039657600080fd5b5080359060200135610a8b565b6102aa600480360360608110156103b957600080fd5b508035906020810135906040013560ff16610afa565b6102aa610b77565b6102aa610c2e565b61031a600480360360208110156103f557600080fd5b50356001600160a01b0316610c34565b61031a6004803603602081101561041b57600080fd5b50356001600160a01b0316610c59565b61031a6004803603602081101561044157600080fd5b50356001600160a01b0316610c6d565b6104776004803603602081101561046757600080fd5b50356001600160a01b0316610c81565b6040518083815260200182600281111561048d57fe5b60ff1681526020019250505060405180910390f35b61031a610caa565b6102aa600480360360208110156104c057600080fd5b50356001600160a01b0316610cc5565b6101dc610ce0565b61031a610cef565b6102ea600480360360408110156104f657600080fd5b5080359060200135610cff565b61031a610db6565b6102ea600480360360e081101561052157600080fd5b6001600160a01b038235811692602081013582169260408201359092169160608201359160ff6080820135169160a0820135919081019060e0810160c082013564010000000081111561057357600080fd5b82018360208201111561058557600080fd5b803590602001918460018302840111640100000000831117156105a757600080fd5b91908080601f016020809104026020016040519081016040528093929190818152602001838380828437600092019190915250929550610dd4945050505050565b6102aa610fac565b6102ea6004803603604081101561060657600080fd5b5080359060200135610fb2565b6102aa611009565b6101dc611039565b6102ea6004803603602081101561063957600080fd5b81019060208101813564010000000081111561065457600080fd5b82018360208201111561066657600080fd5b8035906020019184600183028401116401000000008311171561068857600080fd5b91908080601f016020809104026020016040519081016040528093929190818152602001838380828437600092019190915250929550611048945050505050565b61031a600480360360208110156106df57600080fd5b50356001600160a01b03166110a8565b600554604080516335fb8cc160e11b815230600482015290516000926001600160a01b031691636bf71982916024808301926020929190829003018186803b15801561073a57600080fd5b505afa15801561074e573d6000803e3d6000fd5b505050506040513d602081101561076457600080fd5b5051919050565b600061077633610c6d565b806107855750610785336108fe565b6107c05760405162461bcd60e51b81526004018080602001828103825260248152602001806120976024913960400191505060405180910390fd5b6107c8610db6565b1561080c576040805162461bcd60e51b815260206004820152600f60248201526e1859dc99595b595b9d08195b991959608a1b604482015290519081900360640190fd5b6006546108269033906001600160a01b03168686866110b2565b949350505050565b731776e1f26f98b1a5df9cd347953a26dd3cb4667190565b61084f336108fe565b610897576040805162461bcd60e51b815260206004820152601460248201527337b7363c9030b1ba34bb329037b832b930ba37b960611b604482015290519081900360640190fd5b6108a081611294565b50565b6108ac336108fe565b6108f4576040805162461bcd60e51b815260206004820152601460248201527337b7363c9030b1ba34bb329037b832b930ba37b960611b604482015290519081900360640190fd5b6108fc6112ed565b565b600061090982610c34565b80156109185750610918610cef565b92915050565b600061092933610c59565b806109385750610938336108fe565b610977576040805162461bcd60e51b815260206004820152601e6024820152600080516020612175833981519152604482015290519081900360640190fd5b61097f610caa565b6109c6576040805162461bcd60e51b8152602060048201526013602482015272191958591b1a5b99481b9bdd081c185cdcd959606a1b604482015290519081900360640190fd5b600654610918906001600160a01b031683611393565b600060028260028111156109ec57fe5b1415610a1d57670de0b6b3a7640000610a0e610a0885836113b8565b86611411565b81610a1557fe5b049050610a84565b6001826002811115610a2b57fe5b1415610a3957506000610a84565b6000826002811115610a4757fe5b1415610a845760405162461bcd60e51b81526004018080602001828103825260218152602001806121286021913960400191505060405180910390fd5b9392505050565b610a9433610c6d565b80610aa35750610aa3336108fe565b610ade5760405162461bcd60e51b81526004018080602001828103825260248152602001806120976024913960400191505060405180910390fd5b600654610af6906001600160a01b031680848461144a565b5050565b60006002826002811115610b0a57fe5b1415610b2c57670de0b6b3a7640000610a0e610b2685836113b8565b8661169a565b6001826002811115610b3a57fe5b1415610a395760405162461bcd60e51b81526004018080602001828103825260218152602001806120546021913960400191505060405180910390fd5b6000610b8233610c59565b80610b915750610b91336108fe565b610bd0576040805162461bcd60e51b815260206004820152601e6024820152600080516020612175833981519152604482015290519081900360640190fd5b610bd8610c2e565b15610c21576040805162461bcd60e51b8152602060048201526014602482015273191958591b1a5b9948185b1c9958591e481cd95d60621b604482015290519081900360640190fd5b610c296116ba565b905090565b60005490565b6000610c3e611039565b6001600160a01b0316826001600160a01b0316149050919050565b6006546001600160a01b0391821691161490565b6007546001600160a01b0391821691161490565b6001600160a01b031660009081526003602052604090208054600190910154909160ff90911690565b60008054610cba57506000610cc2565b506000544210155b90565b6001600160a01b031660009081526002602052604090205490565b6005546001600160a01b031690565b600454600160a01b900460ff1690565b610d0833610c6d565b80610d175750610d17336108fe565b610d525760405162461bcd60e51b81526004018080602001828103825260248152602001806120976024913960400191505060405180910390fd5b610d5a610db6565b15610d9e576040805162461bcd60e51b815260206004820152600f60248201526e1859dc99595b595b9d08195b991959608a1b604482015290519081900360640190fd5b600654610af6906001600160a01b03163384846116db565b6000610dc0610c2e565b610dcc57506000610cc2565b610c29610caa565b600580546001600160a01b03191633179055303b63ffffffff811615610e2b5760405162461bcd60e51b815260040180806020018281038252602a8152602001806120fe602a913960400191505060405180910390fd5b600680546001600160a01b03808a166001600160a01b031992831617909255600780548984169216919091179055881615610e7157610e69886118e6565b610e716119b3565b610e7c878686611a68565b610e8583611b77565b815115610e9557610e9582611bb2565b7f664ded22802a39a33ce123e5d663871dacea1984cc7ec83e5b8b850118649f648888888888888860405180886001600160a01b03166001600160a01b03168152602001876001600160a01b03166001600160a01b03168152602001866001600160a01b03166001600160a01b03168152602001858152602001846002811115610f1b57fe5b60ff16815260200183815260200180602001828103825283818151815260200191508051906020019080838360005b83811015610f62578181015183820152602001610f4a565b50505050905090810190601f168015610f8f5780820380516001836020036101000a031916815260200191505b509850505050505050505060405180910390a15050505050505050565b60015490565b610fbb33610c59565b80610fca5750610fca336108fe565b610d52576040805162461bcd60e51b815260206004820152601e6024820152600080516020612175833981519152604482015290519081900360640190fd5b6000611013610c2e565b421061102157506000610cc2565b610c294261102d610c2e565b9063ffffffff611c4e16565b6004546001600160a01b031690565b61105133610c59565b806110605750611060336108fe565b61109f576040805162461bcd60e51b815260206004820152601e6024820152600080516020612175833981519152604482015290519081900360640190fd5b6108a081611bb2565b6000610c3e6106ef565b60006110bd85610cc5565b84111561110b576040805162461bcd60e51b815260206004820152601760248201527618dd5c9c995b9d081cdd185ad9481a5b98dbdc9c9958dd604a1b604482015290519081900360640190fd5b6001600160a01b03851660009081526003602052604081208054600190910154909160ff9091169081600281111561113f57fe5b141561118a576040805162461bcd60e51b81526020600482015260156024820152741b9bc81c1d5b9a5cda1b595b9d08185b1b1bddd959605a1b604482015290519081900360640190fd5b6111958286836109dc565b92506111a18884611cab565b6111ac878787611d81565b7fca93c648a4546f2ae486b9140f0082ced75a2664a663c8882b8b3545cddfeeb1888887868860405180866001600160a01b03166001600160a01b03168152602001856001600160a01b03166001600160a01b0316815260200184815260200183815260200180602001828103825283818151815260200191508051906020019080838360005b8381101561124b578181015183820152602001611233565b50505050905090810190601f1680156112785780820380516001836020036101000a031916815260200191505b50965050505050505060405180910390a1505095945050505050565b6004546001600160a01b03166112e4576040805162461bcd60e51b815260206004820152601060248201526f1bdc195c985d1bdc881b9bdd081cd95d60821b604482015290519081900360640190fd5b6108a0816118e6565b6112f5610cef565b611346576040805162461bcd60e51b815260206004820152601960248201527f6f6e6c79207768656e206f70657261746f722061637469766500000000000000604482015290519081900360640190fd5b600480546001600160a81b0319169055604080516000808252602082015281517f966c160e1c4dbc7df8d69af4ace01e9297c3cf016397b7914971f2fbfa32672d929181900390910190a1565b6001600160a01b0382166000908152600260205260409020546109188383838061144a565b6000826113c757506000610918565b828202828482816113d457fe5b0414610a845760405162461bcd60e51b81526004018080602001828103825260218152602001806120bb6021913960400191505060405180910390fd5b6000670de0b6b3a764000061143b61142985856113b8565b6002670de0b6b3a76400005b04611ef5565b8161144257fe5b049392505050565b6001600160a01b03841660009081526002602052604090205482146114b0576040805162461bcd60e51b815260206004820152601760248201527618dd5c9c995b9d081cdd185ad9481a5b98dbdc9c9958dd604a1b604482015290519081900360640190fd5b600081116114f8576040805162461bcd60e51b815260206004820152601060248201526f6e6f207374616b6520746f2074616b6560801b604482015290519081900360640190fd5b818111156115375760405162461bcd60e51b81526004018080602001828103825260228152602001806120756022913960400191505060405180910390fd5b6000611549838363ffffffff611c4e16565b6001600160a01b0386166000908152600260205260409020819055905061156e61082e565b6001600160a01b031663a9059cbb85846040518363ffffffff1660e01b815260040180836001600160a01b03166001600160a01b0316815260200182815260200192505050602060405180830381600087803b1580156115cd57600080fd5b505af11580156115e1573d6000803e3d6000fd5b505050506040513d60208110156115f757600080fd5b5051611642576040805162461bcd60e51b81526020600482015260156024820152741d1bdad95b881d1c985b9cd9995c8819985a5b1959605a1b604482015290519081900360640190fd5b604080516001600160a01b038088168252861660208201528082018490526060810183905290517f79cb01d8e263c1d344176f9a596b5a6aa14a7df350a227e2e7df836a087b56619181900360800190a15050505050565b60008161143b6116b285670de0b6b3a76400006113b8565b600285611435565b6001546000906116d0904263ffffffff611ef516565b9050610cc281611f4f565b6001600160a01b0384166000908152600260205260409020548214611741576040805162461bcd60e51b815260206004820152601760248201527618dd5c9c995b9d081cdd185ad9481a5b98dbdc9c9958dd604a1b604482015290519081900360640190fd5b60008111611788576040805162461bcd60e51b815260206004820152600f60248201526e1b9bc81cdd185ad9481d1bc8185919608a1b604482015290519081900360640190fd5b600061179a838363ffffffff611ef516565b6001600160a01b038616600090815260026020526040902081905590506117bf61082e565b604080516323b872dd60e01b81526001600160a01b03878116600483015230602483015260448201869052915192909116916323b872dd916064808201926020929091908290030181600087803b15801561181957600080fd5b505af115801561182d573d6000803e3d6000fd5b505050506040513d602081101561184357600080fd5b505161188e576040805162461bcd60e51b81526020600482015260156024820152741d1bdad95b881d1c985b9cd9995c8819985a5b1959605a1b604482015290519081900360640190fd5b604080516001600160a01b038088168252861660208201528082018490526060810183905290517fef7c8dfef14cbefdf829b8f066b068b677992411137321d64b3ed4538c2b36379181900360800190a15050505050565b6004546001600160a01b0382811691161415611949576040805162461bcd60e51b815260206004820152601860248201527f63616e6e6f74207365742073616d65206f70657261746f720000000000000000604482015290519081900360640190fd5b600480546001600160a01b0319166001600160a01b0383161790557f966c160e1c4dbc7df8d69af4ace01e9297c3cf016397b7914971f2fbfa32672d8161198e610cef565b604080516001600160a01b03909316835290151560208301528051918290030190a150565b6119bb610cef565b15611a0d576040805162461bcd60e51b815260206004820152601d60248201527f6f6e6c79207768656e206f70657261746f72206e6f7420616374697665000000604482015290519081900360640190fd5b6004805460ff60a01b1916600160a01b1790819055604080516001600160a01b0390921682526001602083015280517f966c160e1c4dbc7df8d69af4ace01e9297c3cf016397b7914971f2fbfa32672d9281900390910190a1565b6000816002811115611a7657fe5b1480611a8d57506001816002811115611a8b57fe5b145b15611acf578115611acf5760405162461bcd60e51b815260040180806020018281038252602c815260200180612149602c913960400191505060405180910390fd5b6001600160a01b038316600090815260036020526040902082815560019081018054839260ff1990911690836002811115611b0657fe5b02179055507fc964ed8af672f908dc7ba57f61d45a87a7e179cecf5198e7b7d53c920d898f0683838360405180846001600160a01b03166001600160a01b03168152602001838152602001826002811115611b5d57fe5b60ff168152602001935050505060405180910390a1505050565b60018190556040805182815290517f7caceb1091bbaa84d09ab116a1fd72387eaab8a33d70fc39168b9b75686ee32c9181900360200190a150565b7fbb39ebb37e60fb5d606ffdb749d2336e56b88e6c88c4bd6513b308f643186eed816040518080602001828103825283818151815260200191508051906020019080838360005b83811015611c11578181015183820152602001611bf9565b50505050905090810190601f168015611c3e5780820380516001836020036101000a031916815260200191505b509250505060405180910390a150565b600082821115611ca5576040805162461bcd60e51b815260206004820152601e60248201527f536166654d6174683a207375627472616374696f6e206f766572666c6f770000604482015290519081900360640190fd5b50900390565b60408051630f91aad760e31b81526001600160a01b0384166004820152602481018390529051731776e1f26f98b1a5df9cd347953a26dd3cb4667191637c8d56b89160448083019260209291908290030181600087803b158015611d0e57600080fd5b505af1158015611d22573d6000803e3d6000fd5b505050506040513d6020811015611d3857600080fd5b5051610af6576040805162461bcd60e51b81526020600482015260136024820152721b9b5c88189d5c9b919c9bdb4819985a5b1959606a1b604482015290519081900360640190fd5b6001600160a01b0383166000908152600260205260409020548214611de7576040805162461bcd60e51b815260206004820152601760248201527618dd5c9c995b9d081cdd185ad9481a5b98dbdc9c9958dd604a1b604482015290519081900360640190fd5b60008111611e2f576040805162461bcd60e51b815260206004820152601060248201526f37379039ba30b5b2903a3790313ab93760811b604482015290519081900360640190fd5b81811115611e6e5760405162461bcd60e51b81526004018080602001828103825260228152602001806120dc6022913960400191505060405180910390fd5b6000611e80838363ffffffff611c4e16565b6001600160a01b03851660009081526002602052604090208190559050611ea682611f8a565b604080516001600160a01b03861681526020810184905280820183905290517ff470d7f6c239014b63db190652ebe51433a828b65e06d9972143c34c2e2ca3bc9181900360600190a150505050565b600082820183811015610a84576040805162461bcd60e51b815260206004820152601b60248201527f536166654d6174683a206164646974696f6e206f766572666c6f770000000000604482015290519081900360640190fd5b60008190556040805182815290517f337b880688eb06df8adb77036a6c8def1da2b520bc901c04b3a5a23f9ae130399181900360200190a150565b731776e1f26f98b1a5df9cd347953a26dd3cb466716001600160a01b031663a0712d68826040518263ffffffff1660e01b815260040180828152602001915050602060405180830381600087803b158015611fe457600080fd5b505af1158015611ff8573d6000803e3d6000fd5b505050506040513d602081101561200e57600080fd5b50516108a0576040805162461bcd60e51b815260206004820152600f60248201526e1b9b5c88189d5c9b8819985a5b1959608a1b604482015290519081900360640190fdfe726174696f547970652063616e6e6f7420626520526174696f547970652e496e6663616e6e6f742074616b65206d6f7265207468616e2063757272656e745374616b656f6e6c7920636f756e7465727061727479206f7220616374697665206f70657261746f72536166654d6174683a206d756c7469706c69636174696f6e206f766572666c6f7763616e6e6f74206275726e206d6f7265207468616e2063757272656e745374616b656d7573742062652063616c6c65642077697468696e20636f6e747261637420636f6e7374727563746f72726174696f547970652063616e6e6f7420626520526174696f547970652e4e614e726174696f206d7573742062652030207768656e20726174696f54797065206973204e614e206f7220496e666f6e6c79207374616b6572206f7220616374697665206f70657261746f720000a265627a7a72315820719cb229780c3f413566b92a6bcadc8976f18de0df07e9b4738e2f52e22c5b4164736f6c634300050b0032",
  "source": "pragma solidity ^0.5.0;\n\nimport \"../helpers/openzeppelin-solidity/math/SafeMath.sol\";\nimport \"../helpers/openzeppelin-solidity/token/ERC20/IERC20.sol\";\nimport \"../modules/Countdown.sol\";\nimport \"../modules/Griefing.sol\";\nimport \"../modules/EventMetadata.sol\";\nimport \"../modules/Operated.sol\";\nimport \"../modules/Template.sol\";\n\n/* Immediately engage with specific buyer\n * - Stake can be increased at any time.\n * - Request to end agreement and recover stake requires cooldown period to complete.\n * - Counterparty can greif the staker at predefined ratio.\n *\n * NOTE:\n * - This top level contract should only perform access control and state transitions\n *\n */\ncontract CountdownGriefing is Countdown, Griefing, EventMetadata, Operated, Template {\n\n    using SafeMath for uint256;\n\n    Data private _data;\n    struct Data {\n        address staker;\n        address counterparty;\n    }\n\n    event Initialized(address operator, address staker, address counterparty, uint256 ratio, Griefing.RatioType ratioType, uint256 countdownLength, bytes metadata);\n\n    function initialize(\n        address operator,\n        address staker,\n        address counterparty,\n        uint256 ratio,\n        Griefing.RatioType ratioType,\n        uint256 countdownLength,\n        bytes memory metadata\n    ) public initializeTemplate() {\n        // set storage values\n        _data.staker = staker;\n        _data.counterparty = counterparty;\n\n        // set operator\n        if (operator != address(0)) {\n            Operated._setOperator(operator);\n            Operated._activateOperator();\n        }\n\n        // set griefing ratio\n        Griefing._setRatio(staker, ratio, ratioType);\n\n        // set countdown length\n        Countdown._setLength(countdownLength);\n\n        // set metadata\n        if (metadata.length != 0) {\n            EventMetadata._setMetadata(metadata);\n        }\n\n        // log initialization params\n        emit Initialized(operator, staker, counterparty, ratio, ratioType, countdownLength, metadata);\n    }\n\n    // state functions\n\n    function setMetadata(bytes memory metadata) public {\n        // restrict access\n        require(isStaker(msg.sender) || Operated.isActiveOperator(msg.sender), \"only staker or active operator\");\n\n        // update metadata\n        EventMetadata._setMetadata(metadata);\n    }\n\n    function increaseStake(uint256 currentStake, uint256 amountToAdd) public {\n        // restrict access\n        require(isStaker(msg.sender) || Operated.isActiveOperator(msg.sender), \"only staker or active operator\");\n\n        // require agreement is not ended\n        require(!Countdown.isOver(), \"agreement ended\");\n\n        // add stake\n        Staking._addStake(_data.staker, msg.sender, currentStake, amountToAdd);\n    }\n\n    function reward(uint256 currentStake, uint256 amountToAdd) public {\n        // restrict access\n        require(isCounterparty(msg.sender) || Operated.isActiveOperator(msg.sender), \"only counterparty or active operator\");\n\n        // require agreement is not ended\n        require(!Countdown.isOver(), \"agreement ended\");\n\n        // add stake\n        Staking._addStake(_data.staker, msg.sender, currentStake, amountToAdd);\n    }\n\n    function punish(uint256 currentStake, uint256 punishment, bytes memory message) public returns (uint256 cost) {\n        // restrict access\n        require(isCounterparty(msg.sender) || Operated.isActiveOperator(msg.sender), \"only counterparty or active operator\");\n\n        // require agreement is not ended\n        require(!Countdown.isOver(), \"agreement ended\");\n\n        // execute griefing\n        cost = Griefing._grief(msg.sender, _data.staker, currentStake, punishment, message);\n    }\n\n    function releaseStake(uint256 currentStake, uint256 amountToRelease) public {\n        // restrict access\n        require(isCounterparty(msg.sender) || Operated.isActiveOperator(msg.sender), \"only counterparty or active operator\");\n\n        // release stake back to the staker\n        Staking._takeStake(_data.staker, _data.staker, currentStake, amountToRelease);\n    }\n\n    function startCountdown() public returns (uint256 deadline) {\n        // restrict access\n        require(isStaker(msg.sender) || Operated.isActiveOperator(msg.sender), \"only staker or active operator\");\n\n        // require countdown is not started\n        require(Deadline.getDeadline() == 0, \"deadline already set\");\n\n        // start countdown\n        deadline = Countdown._start();\n    }\n\n    function retrieveStake(address recipient) public returns (uint256 amount) {\n        // restrict access\n        require(isStaker(msg.sender) || Operated.isActiveOperator(msg.sender), \"only staker or active operator\");\n\n        // require deadline is passed\n        require(Deadline.isAfterDeadline(),\"deadline not passed\");\n\n        // retrieve stake\n        amount = Staking._takeFullStake(_data.staker, recipient);\n    }\n\n    function transferOperator(address operator) public {\n        // restrict access\n        require(Operated.isActiveOperator(msg.sender), \"only active operator\");\n\n        // transfer operator\n        Operated._transferOperator(operator);\n    }\n\n    function renounceOperator() public {\n        // restrict access\n        require(Operated.isActiveOperator(msg.sender), \"only active operator\");\n\n        // transfer operator\n        Operated._renounceOperator();\n    }\n\n    // view functions\n\n    function isStaker(address caller) public view returns (bool validity) {\n        validity = (caller == _data.staker);\n    }\n\n    function isCounterparty(address caller) public view returns (bool validity) {\n        validity = (caller == _data.counterparty);\n    }\n}\n"
}