{
  "contractName": "Erasure_Posts",
  "abi": [
    {
      "constant": false,
      "inputs": [
        {
          "name": "factory",
          "type": "address"
        },
        {
          "name": "extraData",
          "type": "bytes"
        }
      ],
      "name": "addFactory",
      "outputs": [],
      "payable": false,
      "stateMutability": "nonpayable",
      "type": "function"
    },
    {
      "constant": true,
      "inputs": [],
      "name": "getInstanceType",
      "outputs": [
        {
          "name": "instanceType",
          "type": "bytes4"
        }
      ],
      "payable": false,
      "stateMutability": "view",
      "type": "function"
    },
    {
      "constant": true,
      "inputs": [
        {
          "name": "factoryID",
          "type": "uint16"
        }
      ],
      "name": "getFactoryAddress",
      "outputs": [
        {
          "name": "factory",
          "type": "address"
        }
      ],
      "payable": false,
      "stateMutability": "view",
      "type": "function"
    },
    {
      "constant": true,
      "inputs": [
        {
          "name": "factory",
          "type": "address"
        }
      ],
      "name": "getFactoryData",
      "outputs": [
        {
          "name": "extraData",
          "type": "bytes"
        }
      ],
      "payable": false,
      "stateMutability": "view",
      "type": "function"
    },
    {
      "constant": true,
      "inputs": [
        {
          "name": "factory",
          "type": "address"
        }
      ],
      "name": "getFactory",
      "outputs": [
        {
          "name": "status",
          "type": "uint8"
        },
        {
          "name": "factoryID",
          "type": "uint16"
        },
        {
          "name": "extraData",
          "type": "bytes"
        }
      ],
      "payable": false,
      "stateMutability": "view",
      "type": "function"
    },
    {
      "constant": false,
      "inputs": [
        {
          "name": "factory",
          "type": "address"
        }
      ],
      "name": "retireFactory",
      "outputs": [],
      "payable": false,
      "stateMutability": "nonpayable",
      "type": "function"
    },
    {
      "constant": false,
      "inputs": [],
      "name": "renounceOwnership",
      "outputs": [],
      "payable": false,
      "stateMutability": "nonpayable",
      "type": "function"
    },
    {
      "constant": true,
      "inputs": [],
      "name": "getFactories",
      "outputs": [
        {
          "name": "factories",
          "type": "address[]"
        }
      ],
      "payable": false,
      "stateMutability": "view",
      "type": "function"
    },
    {
      "constant": true,
      "inputs": [
        {
          "name": "startIndex",
          "type": "uint256"
        },
        {
          "name": "endIndex",
          "type": "uint256"
        }
      ],
      "name": "getPaginatedFactories",
      "outputs": [
        {
          "name": "factories",
          "type": "address[]"
        }
      ],
      "payable": false,
      "stateMutability": "view",
      "type": "function"
    },
    {
      "constant": true,
      "inputs": [],
      "name": "owner",
      "outputs": [
        {
          "name": "",
          "type": "address"
        }
      ],
      "payable": false,
      "stateMutability": "view",
      "type": "function"
    },
    {
      "constant": true,
      "inputs": [],
      "name": "isOwner",
      "outputs": [
        {
          "name": "",
          "type": "bool"
        }
      ],
      "payable": false,
      "stateMutability": "view",
      "type": "function"
    },
    {
      "constant": true,
      "inputs": [
        {
          "name": "factory",
          "type": "address"
        }
      ],
      "name": "getFactoryID",
      "outputs": [
        {
          "name": "factoryID",
          "type": "uint16"
        }
      ],
      "payable": false,
      "stateMutability": "view",
      "type": "function"
    },
    {
      "constant": true,
      "inputs": [],
      "name": "getInstanceCount",
      "outputs": [
        {
          "name": "count",
          "type": "uint256"
        }
      ],
      "payable": false,
      "stateMutability": "view",
      "type": "function"
    },
    {
      "constant": true,
      "inputs": [
        {
          "name": "startIndex",
          "type": "uint256"
        },
        {
          "name": "endIndex",
          "type": "uint256"
        }
      ],
      "name": "getPaginatedInstances",
      "outputs": [
        {
          "name": "instances",
          "type": "address[]"
        }
      ],
      "payable": false,
      "stateMutability": "view",
      "type": "function"
    },
    {
      "constant": false,
      "inputs": [
        {
          "name": "instance",
          "type": "address"
        },
        {
          "name": "creator",
          "type": "address"
        },
        {
          "name": "extraData",
          "type": "uint80"
        }
      ],
      "name": "register",
      "outputs": [],
      "payable": false,
      "stateMutability": "nonpayable",
      "type": "function"
    },
    {
      "constant": true,
      "inputs": [],
      "name": "getFactoryCount",
      "outputs": [
        {
          "name": "count",
          "type": "uint256"
        }
      ],
      "payable": false,
      "stateMutability": "view",
      "type": "function"
    },
    {
      "constant": true,
      "inputs": [],
      "name": "getInstances",
      "outputs": [
        {
          "name": "instances",
          "type": "address[]"
        }
      ],
      "payable": false,
      "stateMutability": "view",
      "type": "function"
    },
    {
      "constant": true,
      "inputs": [
        {
          "name": "index",
          "type": "uint256"
        }
      ],
      "name": "getInstance",
      "outputs": [
        {
          "name": "instance",
          "type": "address"
        }
      ],
      "payable": false,
      "stateMutability": "view",
      "type": "function"
    },
    {
      "constant": true,
      "inputs": [
        {
          "name": "index",
          "type": "uint256"
        }
      ],
      "name": "getInstanceData",
      "outputs": [
        {
          "name": "instanceAddress",
          "type": "address"
        },
        {
          "name": "factoryID",
          "type": "uint16"
        },
        {
          "name": "extraData",
          "type": "uint80"
        }
      ],
      "payable": false,
      "stateMutability": "view",
      "type": "function"
    },
    {
      "constant": false,
      "inputs": [
        {
          "name": "newOwner",
          "type": "address"
        }
      ],
      "name": "transferOwnership",
      "outputs": [],
      "payable": false,
      "stateMutability": "nonpayable",
      "type": "function"
    },
    {
      "constant": true,
      "inputs": [
        {
          "name": "factory",
          "type": "address"
        }
      ],
      "name": "getFactoryStatus",
      "outputs": [
        {
          "name": "status",
          "type": "uint8"
        }
      ],
      "payable": false,
      "stateMutability": "view",
      "type": "function"
    },
    {
      "inputs": [],
      "payable": false,
      "stateMutability": "nonpayable",
      "type": "constructor"
    },
    {
      "anonymous": false,
      "inputs": [
        {
          "indexed": false,
          "name": "owner",
          "type": "address"
        },
        {
          "indexed": false,
          "name": "factory",
          "type": "address"
        },
        {
          "indexed": false,
          "name": "factoryID",
          "type": "uint256"
        },
        {
          "indexed": false,
          "name": "extraData",
          "type": "bytes"
        }
      ],
      "name": "FactoryAdded",
      "type": "event"
    },
    {
      "anonymous": false,
      "inputs": [
        {
          "indexed": false,
          "name": "owner",
          "type": "address"
        },
        {
          "indexed": false,
          "name": "factory",
          "type": "address"
        },
        {
          "indexed": false,
          "name": "factoryID",
          "type": "uint256"
        }
      ],
      "name": "FactoryRetired",
      "type": "event"
    },
    {
      "anonymous": false,
      "inputs": [
        {
          "indexed": true,
          "name": "instance",
          "type": "address"
        },
        {
          "indexed": true,
          "name": "factory",
          "type": "address"
        },
        {
          "indexed": true,
          "name": "creator",
          "type": "address"
        },
        {
          "indexed": false,
          "name": "instanceIndex",
          "type": "uint256"
        },
        {
          "indexed": false,
          "name": "factoryID",
          "type": "uint256"
        }
      ],
      "name": "InstanceRegistered",
      "type": "event"
    },
    {
      "anonymous": false,
      "inputs": [
        {
          "indexed": true,
          "name": "previousOwner",
          "type": "address"
        },
        {
          "indexed": true,
          "name": "newOwner",
          "type": "address"
        }
      ],
      "name": "OwnershipTransferred",
      "type": "event"
    }
  ],
  "bytecode": "0x608060405234801561001057600080fd5b506040518060400160405280600481526020017f506f737400000000000000000000000000000000000000000000000000000000815250336000806101000a81548173ffffffffffffffffffffffffffffffffffffffff021916908373ffffffffffffffffffffffffffffffffffffffff1602179055506000809054906101000a900473ffffffffffffffffffffffffffffffffffffffff1673ffffffffffffffffffffffffffffffffffffffff16600073ffffffffffffffffffffffffffffffffffffffff167f8be0079c531659141344cd1fd0a4f28419497f9722a3daafe3b4186f6b6457e060405160405180910390a38080519060200120600360006101000a81548163ffffffff021916908360e01c0217905550506120cb806101386000396000f3fe608060405234801561001057600080fd5b50600436106101375760003560e01c80638f32d59b116100b8578063d10474341161007c578063d10474341461076c578063d35fdd791461078a578063ebd348de146107e9578063f12d27bf14610857578063f2fde38b146108f3578063f795ab751461093757610137565b80638f32d59b146105c5578063a826eb1e146105e7578063ae34325c14610647578063b71f2e7214610665578063bba83f64146106f257610137565b806363e5a670116100ff57806363e5a67014610441578063715018a6146104855780637e6cbb6a1461048f57806386609652146104ee5780638da5cb5b1461057b57610137565b806314ad01441461013c57806318c2f4cf146101d557806332e04be31461023157806345bdfb1e146102a35780635e994dca14610360575b600080fd5b6101d36004803603604081101561015257600080fd5b81019080803573ffffffffffffffffffffffffffffffffffffffff1690602001909291908035906020019064010000000081111561018f57600080fd5b8201836020820111156101a157600080fd5b803590602001918460018302840111640100000000831117156101c357600080fd5b909192939192939050505061099d565b005b6101dd610c81565b60405180827bffffffffffffffffffffffffffffffffffffffffffffffffffffffff19167bffffffffffffffffffffffffffffffffffffffffffffffffffffffff1916815260200191505060405180910390f35b6102616004803603602081101561024757600080fd5b81019080803561ffff169060200190929190505050610c98565b604051808273ffffffffffffffffffffffffffffffffffffffff1673ffffffffffffffffffffffffffffffffffffffff16815260200191505060405180910390f35b6102e5600480360360208110156102b957600080fd5b81019080803573ffffffffffffffffffffffffffffffffffffffff169060200190929190505050610cdd565b6040518080602001828103825283818151815260200191508051906020019080838360005b8381101561032557808201518184015260208101905061030a565b50505050905090810190601f1680156103525780820380516001836020036101000a031916815260200191505b509250505060405180910390f35b6103a26004803603602081101561037657600080fd5b81019080803573ffffffffffffffffffffffffffffffffffffffff169060200190929190505050610dc1565b604051808460028111156103b257fe5b60ff1681526020018361ffff1661ffff16815260200180602001828103825283818151815260200191508051906020019080838360005b838110156104045780820151818401526020810190506103e9565b50505050905090810190601f1680156104315780820380516001836020036101000a031916815260200191505b5094505050505060405180910390f35b6104836004803603602081101561045757600080fd5b81019080803573ffffffffffffffffffffffffffffffffffffffff169060200190929190505050610f26565b005b61048d611142565b005b61049761127b565b6040518080602001828103825283818151815260200191508051906020019060200280838360005b838110156104da5780820151818401526020810190506104bf565b505050509050019250505060405180910390f35b6105246004803603604081101561050457600080fd5b810190808035906020019092919080359060200190929190505050611309565b6040518080602001828103825283818151815260200191508051906020019060200280838360005b8381101561056757808201518184015260208101905061054c565b505050509050019250505060405180910390f35b6105836114ba565b604051808273ffffffffffffffffffffffffffffffffffffffff1673ffffffffffffffffffffffffffffffffffffffff16815260200191505060405180910390f35b6105cd6114e3565b604051808215151515815260200191505060405180910390f35b610629600480360360208110156105fd57600080fd5b81019080803573ffffffffffffffffffffffffffffffffffffffff16906020019092919050505061153a565b604051808261ffff1661ffff16815260200191505060405180910390f35b61064f611594565b6040518082815260200191505060405180910390f35b61069b6004803603604081101561067b57600080fd5b8101908080359060200190929190803590602001909291905050506115a1565b6040518080602001828103825283818151815260200191508051906020019060200280838360005b838110156106de5780820151818401526020810190506106c3565b505050509050019250505060405180910390f35b61076a6004803603606081101561070857600080fd5b81019080803573ffffffffffffffffffffffffffffffffffffffff169060200190929190803573ffffffffffffffffffffffffffffffffffffffff169060200190929190803569ffffffffffffffffffff169060200190929190505050611755565b005b610774611996565b6040518082815260200191505060405180910390f35b6107926119a3565b6040518080602001828103825283818151815260200191508051906020019060200280838360005b838110156107d55780820151818401526020810190506107ba565b505050509050019250505060405180910390f35b610815600480360360208110156107ff57600080fd5b8101908080359060200190929190505050611a88565b604051808273ffffffffffffffffffffffffffffffffffffffff1673ffffffffffffffffffffffffffffffffffffffff16815260200191505060405180910390f35b6108836004803603602081101561086d57600080fd5b8101908080359060200190929190505050611b46565b604051808473ffffffffffffffffffffffffffffffffffffffff1673ffffffffffffffffffffffffffffffffffffffff1681526020018361ffff1661ffff1681526020018269ffffffffffffffffffff1669ffffffffffffffffffff168152602001935050505060405180910390f35b6109356004803603602081101561090957600080fd5b81019080803573ffffffffffffffffffffffffffffffffffffffff169060200190929190505050611cbc565b005b6109796004803603602081101561094d57600080fd5b81019080803573ffffffffffffffffffffffffffffffffffffffff169060200190929190505050611d42565b6040518082600281111561098957fe5b60ff16815260200191505060405180910390f35b6109a56114e3565b610a17576040517f08c379a00000000000000000000000000000000000000000000000000000000081526004018080602001828103825260208152602001807f4f776e61626c653a2063616c6c6572206973206e6f7420746865206f776e657281525060200191505060405180910390fd5b6000600260008573ffffffffffffffffffffffffffffffffffffffff1673ffffffffffffffffffffffffffffffffffffffff168152602001908152602001600020905060006002811115610a6757fe5b8160000160009054906101000a900460ff166002811115610a8457fe5b14610ada576040517f08c379a00000000000000000000000000000000000000000000000000000000081526004018080602001828103825260368152602001806120226036913960400191505060405180910390fd5b6000600180549050905060018260000160006101000a81548160ff02191690836002811115610b0557fe5b0217905550808260000160016101000a81548161ffff021916908361ffff1602179055508383836001019190610b3c929190611edf565b5060018590806001815401808255809150509060018203906000526020600020016000909192909190916101000a81548173ffffffffffffffffffffffffffffffffffffffff021916908373ffffffffffffffffffffffffffffffffffffffff160217905550507f2b60b760542791ba21c4029237f2aa264a5731131d53872f4689f7113e8a77043386838787604051808673ffffffffffffffffffffffffffffffffffffffff1673ffffffffffffffffffffffffffffffffffffffff1681526020018573ffffffffffffffffffffffffffffffffffffffff1673ffffffffffffffffffffffffffffffffffffffff1681526020018461ffff168152602001806020018281038252848482818152602001925080828437600081840152601f19601f820116905080830192505050965050505050505060405180910390a15050505050565b6000600360009054906101000a900460e01b905090565b600060018261ffff1681548110610cab57fe5b9060005260206000200160009054906101000a900473ffffffffffffffffffffffffffffffffffffffff169050919050565b6060600260008373ffffffffffffffffffffffffffffffffffffffff1673ffffffffffffffffffffffffffffffffffffffff1681526020019081526020016000206001018054600181600116156101000203166002900480601f016020809104026020016040519081016040528092919081815260200182805460018160011615610100020316600290048015610db55780601f10610d8a57610100808354040283529160200191610db5565b820191906000526020600020905b815481529060010190602001808311610d9857829003601f168201915b50505050509050919050565b6000806060610dce611f5f565b600260008673ffffffffffffffffffffffffffffffffffffffff1673ffffffffffffffffffffffffffffffffffffffff1681526020019081526020016000206040518060600160405290816000820160009054906101000a900460ff166002811115610e3657fe5b6002811115610e4157fe5b81526020016000820160019054906101000a900461ffff1661ffff1661ffff168152602001600182018054600181600116156101000203166002900480601f016020809104026020016040519081016040528092919081815260200182805460018160011615610100020316600290048015610efe5780601f10610ed357610100808354040283529160200191610efe565b820191906000526020600020905b815481529060010190602001808311610ee157829003601f168201915b5050505050815250509050806000015193508060200151925080604001519150509193909250565b610f2e6114e3565b610fa0576040517f08c379a00000000000000000000000000000000000000000000000000000000081526004018080602001828103825260208152602001807f4f776e61626c653a2063616c6c6572206973206e6f7420746865206f776e657281525060200191505060405180910390fd5b6000600260008373ffffffffffffffffffffffffffffffffffffffff1673ffffffffffffffffffffffffffffffffffffffff168152602001908152602001600020905060016002811115610ff057fe5b8160000160009054906101000a900460ff16600281111561100d57fe5b14611063576040517f08c379a000000000000000000000000000000000000000000000000000000000815260040180806020018281038252602381526020018061207d6023913960400191505060405180910390fd5b60028160000160006101000a81548160ff0219169083600281111561108457fe5b02179055507fb2efe2b3bb8a6c15454da20cd3d82d0380c15bc3df9ebbb767ddeca18b75e3a833838360000160019054906101000a900461ffff16604051808473ffffffffffffffffffffffffffffffffffffffff1673ffffffffffffffffffffffffffffffffffffffff1681526020018373ffffffffffffffffffffffffffffffffffffffff1673ffffffffffffffffffffffffffffffffffffffff1681526020018261ffff168152602001935050505060405180910390a15050565b61114a6114e3565b6111bc576040517f08c379a00000000000000000000000000000000000000000000000000000000081526004018080602001828103825260208152602001807f4f776e61626c653a2063616c6c6572206973206e6f7420746865206f776e657281525060200191505060405180910390fd5b600073ffffffffffffffffffffffffffffffffffffffff166000809054906101000a900473ffffffffffffffffffffffffffffffffffffffff1673ffffffffffffffffffffffffffffffffffffffff167f8be0079c531659141344cd1fd0a4f28419497f9722a3daafe3b4186f6b6457e060405160405180910390a360008060006101000a81548173ffffffffffffffffffffffffffffffffffffffff021916908373ffffffffffffffffffffffffffffffffffffffff160217905550565b606060018054806020026020016040519081016040528092919081815260200182805480156112ff57602002820191906000526020600020905b8160009054906101000a900473ffffffffffffffffffffffffffffffffffffffff1673ffffffffffffffffffffffffffffffffffffffff16815260200190600101908083116112b5575b5050505050905090565b6060818310611363576040517f08c379a00000000000000000000000000000000000000000000000000000000081526004018080602001828103825260258152602001806120586025913960400191505060405180910390fd5b6001805490508211156113de576040517f08c379a00000000000000000000000000000000000000000000000000000000081526004018080602001828103825260168152602001807f656e6420696e646578206f7574206f662072616e67650000000000000000000081525060200191505060405180910390fd5b60608383036040519080825280602002602001820160405280156114115781602001602082028038833980820191505090505b50905060008490505b838110156114af576001818154811061142f57fe5b9060005260206000200160009054906101000a900473ffffffffffffffffffffffffffffffffffffffff16828683038151811061146857fe5b602002602001019073ffffffffffffffffffffffffffffffffffffffff16908173ffffffffffffffffffffffffffffffffffffffff1681525050808060010191505061141a565b508091505092915050565b60008060009054906101000a900473ffffffffffffffffffffffffffffffffffffffff16905090565b60008060009054906101000a900473ffffffffffffffffffffffffffffffffffffffff1673ffffffffffffffffffffffffffffffffffffffff163373ffffffffffffffffffffffffffffffffffffffff1614905090565b6000600260008373ffffffffffffffffffffffffffffffffffffffff1673ffffffffffffffffffffffffffffffffffffffff16815260200190815260200160002060000160019054906101000a900461ffff169050919050565b6000600480549050905090565b60608183106115fb576040517f08c379a00000000000000000000000000000000000000000000000000000000081526004018080602001828103825260258152602001806120586025913960400191505060405180910390fd5b600480549050821115611676576040517f08c379a00000000000000000000000000000000000000000000000000000000081526004018080602001828103825260168152602001807f656e6420696e646578206f7574206f662072616e67650000000000000000000081525060200191505060405180910390fd5b60608383036040519080825280602002602001820160405280156116a95781602001602082028038833980820191505090505b50905060008490505b8381101561174a57600481815481106116c757fe5b9060005260206000200160000160009054906101000a900473ffffffffffffffffffffffffffffffffffffffff16828683038151811061170357fe5b602002602001019073ffffffffffffffffffffffffffffffffffffffff16908173ffffffffffffffffffffffffffffffffffffffff168152505080806001019150506116b2565b508091505092915050565b60008061176133610dc1565b50915091506001600281111561177357fe5b82600281111561177f57fe5b146117f2576040517f08c379a00000000000000000000000000000000000000000000000000000000081526004018080602001828103825260178152602001807f666163746f727920696e2077726f6e672073746174757300000000000000000081525060200191505060405180910390fd5b60006004805490509050600460405180606001604052808873ffffffffffffffffffffffffffffffffffffffff1681526020018461ffff1681526020018669ffffffffffffffffffff1681525090806001815401808255809150509060018203906000526020600020016000909192909190915060008201518160000160006101000a81548173ffffffffffffffffffffffffffffffffffffffff021916908373ffffffffffffffffffffffffffffffffffffffff16021790555060208201518160000160146101000a81548161ffff021916908361ffff16021790555060408201518160000160166101000a81548169ffffffffffffffffffff021916908369ffffffffffffffffffff1602179055505050508473ffffffffffffffffffffffffffffffffffffffff163373ffffffffffffffffffffffffffffffffffffffff168773ffffffffffffffffffffffffffffffffffffffff167fb35ceb7181267b8ad385c9c8b08bb23bf2580e751105dd463d17602effb427168486604051808381526020018261ffff1681526020019250505060405180910390a4505050505050565b6000600180549050905090565b6060600060048054905090506060816040519080825280602002602001820160405280156119e05781602001602082028038833980820191505090505b50905060008090505b82811015611a7f57600481815481106119fe57fe5b9060005260206000200160000160009054906101000a900473ffffffffffffffffffffffffffffffffffffffff16828281518110611a3857fe5b602002602001019073ffffffffffffffffffffffffffffffffffffffff16908173ffffffffffffffffffffffffffffffffffffffff168152505080806001019150506119e9565b50809250505090565b60006004805490508210611b04576040517f08c379a00000000000000000000000000000000000000000000000000000000081526004018080602001828103825260128152602001807f696e646578206f7574206f662072616e6765000000000000000000000000000081525060200191505060405180910390fd5b60048281548110611b1157fe5b9060005260206000200160000160009054906101000a900473ffffffffffffffffffffffffffffffffffffffff169050919050565b60008060006004805490508410611bc5576040517f08c379a00000000000000000000000000000000000000000000000000000000081526004018080602001828103825260128152602001807f696e646578206f7574206f662072616e6765000000000000000000000000000081525060200191505060405180910390fd5b611bcd611f8f565b60048581548110611bda57fe5b906000526020600020016040518060600160405290816000820160009054906101000a900473ffffffffffffffffffffffffffffffffffffffff1673ffffffffffffffffffffffffffffffffffffffff1673ffffffffffffffffffffffffffffffffffffffff1681526020016000820160149054906101000a900461ffff1661ffff1661ffff1681526020016000820160169054906101000a900469ffffffffffffffffffff1669ffffffffffffffffffff1669ffffffffffffffffffff16815250509050806000015193508060200151925080604001519150509193909250565b611cc46114e3565b611d36576040517f08c379a00000000000000000000000000000000000000000000000000000000081526004018080602001828103825260208152602001807f4f776e61626c653a2063616c6c6572206973206e6f7420746865206f776e657281525060200191505060405180910390fd5b611d3f81611d9b565b50565b6000600260008373ffffffffffffffffffffffffffffffffffffffff1673ffffffffffffffffffffffffffffffffffffffff16815260200190815260200160002060000160009054906101000a900460ff169050919050565b600073ffffffffffffffffffffffffffffffffffffffff168173ffffffffffffffffffffffffffffffffffffffff161415611e21576040517f08c379a0000000000000000000000000000000000000000000000000000000008152600401808060200182810382526026815260200180611ffc6026913960400191505060405180910390fd5b8073ffffffffffffffffffffffffffffffffffffffff166000809054906101000a900473ffffffffffffffffffffffffffffffffffffffff1673ffffffffffffffffffffffffffffffffffffffff167f8be0079c531659141344cd1fd0a4f28419497f9722a3daafe3b4186f6b6457e060405160405180910390a3806000806101000a81548173ffffffffffffffffffffffffffffffffffffffff021916908373ffffffffffffffffffffffffffffffffffffffff16021790555050565b828054600181600116156101000203166002900490600052602060002090601f016020900481019282601f10611f2057803560ff1916838001178555611f4e565b82800160010185558215611f4e579182015b82811115611f4d578235825591602001919060010190611f32565b5b509050611f5b9190611fd6565b5090565b604051806060016040528060006002811115611f7757fe5b8152602001600061ffff168152602001606081525090565b6040518060600160405280600073ffffffffffffffffffffffffffffffffffffffff168152602001600061ffff168152602001600069ffffffffffffffffffff1681525090565b611ff891905b80821115611ff4576000816000905550600101611fdc565b5090565b9056fe4f776e61626c653a206e6577206f776e657220697320746865207a65726f2061646472657373666163746f727920616c726561647920657869737473206174207468652070726f766964656420666163746f727920616464726573737374617274496e646578206d757374206265206c657373207468616e20656e64496e646578666163746f7279206973206e6f742063757272656e746c792072656769737465726564a165627a7a723058209e1cbc1bc03327b0d40e54d93b1bd6c4bc1e4885220c8098e1f7b4521bdc1f420029",
  "source": "pragma solidity ^0.5.0;\n\nimport \"../modules/Registry.sol\";\n\n\ncontract Erasure_Posts is Registry {\n\n    constructor() public Registry(\"Post\") {\n\n    }\n}\n",
  "sourcePath": "/Users/thegostep/github/erasure-next-contracts/contracts/registries/Erasure_Posts.sol",
  "compiler": {
    "name": "solc",
    "version": "0.5.7+commit.6da8b019.Emscripten.clang",
    "optimizer": false,
    "runs": 200
  },
  "schemaVersion": "2.2.0",
  "updatedAt": "2019-08-14T21:19:56.899Z"
}