{
  "contractName": "OneWayGriefing_Factory",
  "abi": [
    {
      "constant": true,
      "inputs": [],
      "name": "getInstanceType",
      "outputs": [
        {
          "name": "instanceType",
          "type": "bytes4"
        }
      ],
      "payable": false,
      "stateMutability": "view",
      "type": "function"
    },
    {
      "constant": true,
      "inputs": [],
      "name": "getTemplate",
      "outputs": [
        {
          "name": "template",
          "type": "address"
        }
      ],
      "payable": false,
      "stateMutability": "view",
      "type": "function"
    },
    {
      "constant": true,
      "inputs": [
        {
          "name": "instance",
          "type": "address"
        }
      ],
      "name": "getInstanceCreator",
      "outputs": [
        {
          "name": "creator",
          "type": "address"
        }
      ],
      "payable": false,
      "stateMutability": "view",
      "type": "function"
    },
    {
      "constant": true,
      "inputs": [],
      "name": "getInstanceRegistry",
      "outputs": [
        {
          "name": "instanceRegistry",
          "type": "address"
        }
      ],
      "payable": false,
      "stateMutability": "view",
      "type": "function"
    },
    {
      "constant": true,
      "inputs": [],
      "name": "getInitdataABI",
      "outputs": [
        {
          "name": "initdataABI",
          "type": "string"
        }
      ],
      "payable": false,
      "stateMutability": "view",
      "type": "function"
    },
    {
      "constant": true,
      "inputs": [],
      "name": "getInstanceCount",
      "outputs": [
        {
          "name": "count",
          "type": "uint256"
        }
      ],
      "payable": false,
      "stateMutability": "view",
      "type": "function"
    },
    {
      "constant": true,
      "inputs": [
        {
          "name": "startIndex",
          "type": "uint256"
        },
        {
          "name": "endIndex",
          "type": "uint256"
        }
      ],
      "name": "getPaginatedInstances",
      "outputs": [
        {
          "name": "instances",
          "type": "address[]"
        }
      ],
      "payable": false,
      "stateMutability": "view",
      "type": "function"
    },
    {
      "constant": true,
      "inputs": [],
      "name": "getInstances",
      "outputs": [
        {
          "name": "instances",
          "type": "address[]"
        }
      ],
      "payable": false,
      "stateMutability": "view",
      "type": "function"
    },
    {
      "constant": true,
      "inputs": [
        {
          "name": "index",
          "type": "uint256"
        }
      ],
      "name": "getInstance",
      "outputs": [
        {
          "name": "instance",
          "type": "address"
        }
      ],
      "payable": false,
      "stateMutability": "view",
      "type": "function"
    },
    {
      "inputs": [
        {
          "name": "instanceRegistry",
          "type": "address"
        }
      ],
      "payable": false,
      "stateMutability": "nonpayable",
      "type": "constructor"
    },
    {
      "anonymous": false,
      "inputs": [
        {
          "indexed": true,
          "name": "staker",
          "type": "address"
        },
        {
          "indexed": true,
          "name": "counterparty",
          "type": "address"
        },
        {
          "indexed": true,
          "name": "operator",
          "type": "address"
        },
        {
          "indexed": false,
          "name": "ratio",
          "type": "uint256"
        },
        {
          "indexed": false,
          "name": "ratioType",
          "type": "uint8"
        },
        {
          "indexed": false,
          "name": "countdownLength",
          "type": "uint256"
        },
        {
          "indexed": false,
          "name": "staticMetadata",
          "type": "bytes"
        }
      ],
      "name": "ExplicitInitData",
      "type": "event"
    },
    {
      "anonymous": false,
      "inputs": [
        {
          "indexed": true,
          "name": "instance",
          "type": "address"
        },
        {
          "indexed": true,
          "name": "creator",
          "type": "address"
        },
        {
          "indexed": false,
          "name": "callData",
          "type": "bytes"
        }
      ],
      "name": "InstanceCreated",
      "type": "event"
    },
    {
      "constant": false,
      "inputs": [
        {
          "name": "callData",
          "type": "bytes"
        }
      ],
      "name": "create",
      "outputs": [
        {
          "name": "instance",
          "type": "address"
        }
      ],
      "payable": false,
      "stateMutability": "nonpayable",
      "type": "function"
    },
    {
      "constant": false,
      "inputs": [
        {
          "name": "initdata",
          "type": "bytes"
        }
      ],
      "name": "createEncoded",
      "outputs": [
        {
          "name": "instance",
          "type": "address"
        }
      ],
      "payable": false,
      "stateMutability": "nonpayable",
      "type": "function"
    },
    {
      "constant": false,
      "inputs": [
        {
          "name": "token",
          "type": "address"
        },
        {
          "name": "operator",
          "type": "address"
        },
        {
          "name": "staker",
          "type": "address"
        },
        {
          "name": "counterparty",
          "type": "address"
        },
        {
          "name": "ratio",
          "type": "uint256"
        },
        {
          "name": "ratioType",
          "type": "uint8"
        },
        {
          "name": "countdownLength",
          "type": "uint256"
        },
        {
          "name": "staticMetadata",
          "type": "bytes"
        }
      ],
      "name": "createExplicit",
      "outputs": [
        {
          "name": "instance",
          "type": "address"
        }
      ],
      "payable": false,
      "stateMutability": "nonpayable",
      "type": "function"
    }
  ],
  "bytecode": "0x60806040523480156200001157600080fd5b5060405160208062005cea833981018060405260208110156200003357600080fd5b810190808051906020019092919050505060006040516200005490620002ec565b604051809103906000f08015801562000071573d6000803e3d6000fd5b50905060006040518060400160405280600981526020017f41677265656d656e74000000000000000000000000000000000000000000000081525080519060200120905060606040518060600160405280603d815260200162005cad603d91399050620000ec84848484620000f660201b6200164f1760201c565b50505050620003a9565b83600460006101000a81548173ffffffffffffffffffffffffffffffffffffffff021916908373ffffffffffffffffffffffffffffffffffffffff16021790555082600260006101000a81548173ffffffffffffffffffffffffffffffffffffffff021916908373ffffffffffffffffffffffffffffffffffffffff160217905550806003908051906020019062000190929190620002fa565b508373ffffffffffffffffffffffffffffffffffffffff166318c2f4cf6040518163ffffffff1660e01b815260040160206040518083038186803b158015620001d857600080fd5b505afa158015620001ed573d6000803e3d6000fd5b505050506040513d60208110156200020457600080fd5b81019080805190602001909291905050507bffffffffffffffffffffffffffffffffffffffffffffffffffffffff1916827bffffffffffffffffffffffffffffffffffffffffffffffffffffffff191614620002c8576040517f08c379a00000000000000000000000000000000000000000000000000000000081526004018080602001828103825260178152602001807f696e636f727265637420696e7374616e6365207479706500000000000000000081525060200191505060405180910390fd5b81600460146101000a81548163ffffffff021916908360e01c021790555050505050565b613d928062001f1b83390190565b828054600181600116156101000203166002900490600052602060002090601f016020900481019282601f106200033d57805160ff19168380011785556200036e565b828001600101855582156200036e579182015b828111156200036d57825182559160200191906001019062000350565b5b5090506200037d919062000381565b5090565b620003a691905b80821115620003a257600081600090555060010162000388565b5090565b90565b611b6280620003b96000396000f3fe608060405234801561001057600080fd5b50600436106100b45760003560e01c8063a61352e111610071578063a61352e1146104c5578063ae34325c14610548578063b71f2e7214610566578063cf5ba53f146105f3578063d35fdd79146106ee578063ebd348de1461074d576100b4565b806318c2f4cf146100b9578063321c48f214610115578063461ffcbe1461015f5780636bf71982146102fc5780636f8d11e614610380578063a5e139041461047b575b600080fd5b6100c16107bb565b60405180827bffffffffffffffffffffffffffffffffffffffffffffffffffffffff19167bffffffffffffffffffffffffffffffffffffffffffffffffffffffff1916815260200191505060405180910390f35b61011d6107d2565b604051808273ffffffffffffffffffffffffffffffffffffffff1673ffffffffffffffffffffffffffffffffffffffff16815260200191505060405180910390f35b6102ba600480360361010081101561017657600080fd5b81019080803573ffffffffffffffffffffffffffffffffffffffff169060200190929190803573ffffffffffffffffffffffffffffffffffffffff169060200190929190803573ffffffffffffffffffffffffffffffffffffffff169060200190929190803573ffffffffffffffffffffffffffffffffffffffff16906020019092919080359060200190929190803560ff169060200190929190803590602001909291908035906020019064010000000081111561023457600080fd5b82018360208201111561024657600080fd5b8035906020019184600183028401116401000000008311171561026857600080fd5b91908080601f016020809104026020016040519081016040528093929190818152602001838380828437600081840152601f19601f8201169050808301925050505050505091929192905050506107fc565b604051808273ffffffffffffffffffffffffffffffffffffffff1673ffffffffffffffffffffffffffffffffffffffff16815260200191505060405180910390f35b61033e6004803603602081101561031257600080fd5b81019080803573ffffffffffffffffffffffffffffffffffffffff169060200190929190505050610b0d565b604051808273ffffffffffffffffffffffffffffffffffffffff1673ffffffffffffffffffffffffffffffffffffffff16815260200191505060405180910390f35b6104396004803603602081101561039657600080fd5b81019080803590602001906401000000008111156103b357600080fd5b8201836020820111156103c557600080fd5b803590602001918460018302840111640100000000831117156103e757600080fd5b91908080601f016020809104026020016040519081016040528093929190818152602001838380828437600081840152601f19601f820116905080830192505050505050509192919290505050610b76565b604051808273ffffffffffffffffffffffffffffffffffffffff1673ffffffffffffffffffffffffffffffffffffffff16815260200191505060405180910390f35b610483610c62565b604051808273ffffffffffffffffffffffffffffffffffffffff1673ffffffffffffffffffffffffffffffffffffffff16815260200191505060405180910390f35b6104cd610c8c565b6040518080602001828103825283818151815260200191508051906020019080838360005b8381101561050d5780820151818401526020810190506104f2565b50505050905090810190601f16801561053a5780820380516001836020036101000a031916815260200191505b509250505060405180910390f35b610550610d2e565b6040518082815260200191505060405180910390f35b61059c6004803603604081101561057c57600080fd5b810190808035906020019092919080359060200190929190505050610d3a565b6040518080602001828103825283818151815260200191508051906020019060200280838360005b838110156105df5780820151818401526020810190506105c4565b505050509050019250505060405180910390f35b6106ac6004803603602081101561060957600080fd5b810190808035906020019064010000000081111561062657600080fd5b82018360208201111561063857600080fd5b8035906020019184600183028401116401000000008311171561065a57600080fd5b91908080601f016020809104026020016040519081016040528093929190818152602001838380828437600081840152601f19601f820116905080830192505050505050509192919290505050610eeb565b604051808273ffffffffffffffffffffffffffffffffffffffff1673ffffffffffffffffffffffffffffffffffffffff16815260200191505060405180910390f35b6106f6610efd565b6040518080602001828103825283818151815260200191508051906020019060200280838360005b8381101561073957808201518184015260208101905061071e565b505050509050019250505060405180910390f35b6107796004803603602081101561076357600080fd5b8101908080359060200190929190505050610f8b565b604051808273ffffffffffffffffffffffffffffffffffffffff1673ffffffffffffffffffffffffffffffffffffffff16815260200191505060405180910390f35b6000600460149054906101000a900460e01b905090565b6000600260009054906101000a900473ffffffffffffffffffffffffffffffffffffffff16905090565b60008060608173ffffffffffffffffffffffffffffffffffffffff16633121d2e7905060e01b8b8b8b8b8b8b8b8b604051602401808973ffffffffffffffffffffffffffffffffffffffff1673ffffffffffffffffffffffffffffffffffffffff1681526020018873ffffffffffffffffffffffffffffffffffffffff1673ffffffffffffffffffffffffffffffffffffffff1681526020018773ffffffffffffffffffffffffffffffffffffffff1673ffffffffffffffffffffffffffffffffffffffff1681526020018673ffffffffffffffffffffffffffffffffffffffff1673ffffffffffffffffffffffffffffffffffffffff16815260200185815260200184600581111561090b57fe5b60ff16815260200183815260200180602001828103825283818151815260200191508051906020019080838360005b8381101561095557808201518184015260208101905061093a565b50505050905090810190601f1680156109825780820380516001836020036101000a031916815260200191505b509950505050505050505050604051602081830303815290604052907bffffffffffffffffffffffffffffffffffffffffffffffffffffffff19166020820180517bffffffffffffffffffffffffffffffffffffffffffffffffffffffff838183161783525050505090506109f681611045565b92508973ffffffffffffffffffffffffffffffffffffffff168873ffffffffffffffffffffffffffffffffffffffff168a73ffffffffffffffffffffffffffffffffffffffff167fa75a9e87c1a935b115363faab238af03d2784cfa15088fd8b63ca8d8422d824d8a8a8a8a60405180858152602001846005811115610a7857fe5b60ff16815260200183815260200180602001828103825283818151815260200191508051906020019080838360005b83811015610ac2578082015181840152602081019050610aa7565b50505050905090810190601f168015610aef5780820380516001836020036101000a031916815260200191505b509550505050505060405180910390a4505098975050505050505050565b6000600160008373ffffffffffffffffffffffffffffffffffffffff1673ffffffffffffffffffffffffffffffffffffffff16815260200190815260200160002060009054906101000a900473ffffffffffffffffffffffffffffffffffffffff169050919050565b600080600080600080600080606089806020019051610100811015610b9a57600080fd5b81019080805190602001909291908051906020019092919080519060200190929190805190602001909291908051906020019092919080519060200190929190805190602001909291908051640100000000811115610bf857600080fd5b82810190506020810184811115610c0e57600080fd5b8151856001820283011164010000000082111715610c2b57600080fd5b505092919050505097509750975097509750975097509750610c5388888888888888886107fc565b98505050505050505050919050565b6000600460009054906101000a900473ffffffffffffffffffffffffffffffffffffffff16905090565b606060038054600181600116156101000203166002900480601f016020809104026020016040519081016040528092919081815260200182805460018160011615610100020316600290048015610d245780601f10610cf957610100808354040283529160200191610d24565b820191906000526020600020905b815481529060010190602001808311610d0757829003601f168201915b5050505050905090565b60008080549050905090565b6060818310610d94576040517f08c379a0000000000000000000000000000000000000000000000000000000008152600401808060200182810382526025815260200180611b126025913960400191505060405180910390fd5b600080549050821115610e0f576040517f08c379a00000000000000000000000000000000000000000000000000000000081526004018080602001828103825260168152602001807f656e6420696e646578206f7574206f662072616e67650000000000000000000081525060200191505060405180910390fd5b6060838303604051908082528060200260200182016040528015610e425781602001602082028038833980820191505090505b50905060008490505b83811015610ee05760008181548110610e6057fe5b9060005260206000200160009054906101000a900473ffffffffffffffffffffffffffffffffffffffff168286830381518110610e9957fe5b602002602001019073ffffffffffffffffffffffffffffffffffffffff16908173ffffffffffffffffffffffffffffffffffffffff16815250508080600101915050610e4b565b508091505092915050565b6000610ef682611045565b9050919050565b60606000805480602002602001604051908101604052809291908181526020018280548015610f8157602002820191906000526020600020905b8160009054906101000a900473ffffffffffffffffffffffffffffffffffffffff1673ffffffffffffffffffffffffffffffffffffffff1681526020019060010190808311610f37575b5050505050905090565b600080805490508210611006576040517f08c379a00000000000000000000000000000000000000000000000000000000081526004018080602001828103825260128152602001807f696e646578206f7574206f662072616e6765000000000000000000000000000081525060200191505060405180910390fd5b6000828154811061101357fe5b9060005260206000200160009054906101000a900473ffffffffffffffffffffffffffffffffffffffff169050919050565b60006110586110526107d2565b836112fe565b905060008190806001815401808255809150509060018203906000526020600020016000909192909190916101000a81548173ffffffffffffffffffffffffffffffffffffffff021916908373ffffffffffffffffffffffffffffffffffffffff1602179055505033600160008373ffffffffffffffffffffffffffffffffffffffff1673ffffffffffffffffffffffffffffffffffffffff16815260200190815260200160002060006101000a81548173ffffffffffffffffffffffffffffffffffffffff021916908373ffffffffffffffffffffffffffffffffffffffff160217905550611146610c62565b73ffffffffffffffffffffffffffffffffffffffff1663bba83f64823360006040518463ffffffff1660e01b8152600401808473ffffffffffffffffffffffffffffffffffffffff1673ffffffffffffffffffffffffffffffffffffffff1681526020018373ffffffffffffffffffffffffffffffffffffffff1673ffffffffffffffffffffffffffffffffffffffff1681526020018267ffffffffffffffff1669ffffffffffffffffffff1681526020019350505050600060405180830381600087803b15801561121757600080fd5b505af115801561122b573d6000803e3d6000fd5b505050503373ffffffffffffffffffffffffffffffffffffffff168173ffffffffffffffffffffffffffffffffffffffff167fab60131c1462939275d0fd3738e07ab853e22af6296cf75e71bbdf3a497791a2846040518080602001828103825283818151815260200191508051906020019080838360005b838110156112bf5780820151818401526020810190506112a4565b50505050905090810190601f1680156112ec5780820380516001836020036101000a031916815260200191505b509250505060405180910390a3919050565b600060606040518060200161131290611642565b6020820181038252601f19601f820116604052508484604051602001808373ffffffffffffffffffffffffffffffffffffffff1673ffffffffffffffffffffffffffffffffffffffff16815260200180602001828103825283818151815260200191508051906020019080838360005b8381101561139d578082015181840152602081019050611382565b50505050905090810190601f1680156113ca5780820380516001836020036101000a031916815260200191505b5093505050506040516020818303038152906040526040516020018083805190602001908083835b6020831061141557805182526020820191506020810190506020830392506113f2565b6001836020036101000a03801982511681845116808217855250505050505090500182805190602001908083835b602083106114665780518252602082019150602081019050602083039250611443565b6001836020036101000a0380198251168184511680821785525050505050509050019250505060405160208183030381529060405290506114a6816114af565b91505092915050565b6000806114bb836114e2565b50905082602001835182818334f59350836114da573d6000803e3d6000fd5b505050919050565b600080600083805190602001209050600080905060005b60011561163a573382604051602001808373ffffffffffffffffffffffffffffffffffffffff1673ffffffffffffffffffffffffffffffffffffffff1660601b81526014018281526020019250505060405160208183030381529060405280519060200120945060ff60f81b30868560405160200180857effffffffffffffffffffffffffffffffffffffffffffffffffffffffffffff19167effffffffffffffffffffffffffffffffffffffffffffffffffffffffffffff191681526001018473ffffffffffffffffffffffffffffffffffffffff1673ffffffffffffffffffffffffffffffffffffffff1660601b81526014018381526020018281526020019450505050506040516020818303038152906040528051906020012060001c9350833b9050600081141561162d5761163a565b81806001019250506114f9565b505050915091565b61022d806118e583390190565b83600460006101000a81548173ffffffffffffffffffffffffffffffffffffffff021916908373ffffffffffffffffffffffffffffffffffffffff16021790555082600260006101000a81548173ffffffffffffffffffffffffffffffffffffffff021916908373ffffffffffffffffffffffffffffffffffffffff16021790555080600390805190602001906116e792919061183f565b508373ffffffffffffffffffffffffffffffffffffffff166318c2f4cf6040518163ffffffff1660e01b815260040160206040518083038186803b15801561172e57600080fd5b505afa158015611742573d6000803e3d6000fd5b505050506040513d602081101561175857600080fd5b81019080805190602001909291905050507bffffffffffffffffffffffffffffffffffffffffffffffffffffffff1916827bffffffffffffffffffffffffffffffffffffffffffffffffffffffff19161461181b576040517f08c379a00000000000000000000000000000000000000000000000000000000081526004018080602001828103825260178152602001807f696e636f727265637420696e7374616e6365207479706500000000000000000081525060200191505060405180910390fd5b81600460146101000a81548163ffffffff021916908360e01c021790555050505050565b828054600181600116156101000203166002900490600052602060002090601f016020900481019282601f1061188057805160ff19168380011785556118ae565b828001600101855582156118ae579182015b828111156118ad578251825591602001919060010190611892565b5b5090506118bb91906118bf565b5090565b6118e191905b808211156118dd5760008160009055506001016118c5565b5090565b9056fe608060405260405161022d38038061022d8339810180604052604081101561002657600080fd5b8101908080519060200190929190805164010000000081111561004857600080fd5b8281019050602081018481111561005e57600080fd5b815185600182028301116401000000008211171561007b57600080fd5b505092919050505060008273ffffffffffffffffffffffffffffffffffffffff16826040518082805190602001908083835b602083106100d057805182526020820191506020810190506020830392506100ad565b6001836020036101000a038019825116818451168082178552505050505050905001915050600060405180830381855af49150503d8060008114610130576040519150601f19603f3d011682016040523d82523d6000602084013e610135565b606091505b5050905080610148573d6000803e3d6000fd5b606069363d3d373d3d3d363d7360b01b846e5af43d82803e903d91602b57fd5bf360881b604051602001808475ffffffffffffffffffffffffffffffffffffffffffff191675ffffffffffffffffffffffffffffffffffffffffffff19168152600a018373ffffffffffffffffffffffffffffffffffffffff1673ffffffffffffffffffffffffffffffffffffffff1660601b81526014018270ffffffffffffffffffffffffffffffffff191670ffffffffffffffffffffffffffffffffff19168152600f0193505050506040516020818303038152906040529050602d81602001f3fe7374617274496e646578206d757374206265206c657373207468616e20656e64496e646578a165627a7a72305820179582087dea484f9c4c4b7d37d0fb6a698d9d21dcb8ab418206258554db2df60029608060405234801561001057600080fd5b50613d72806100206000396000f3fe608060405234801561001057600080fd5b50600436106101c45760003560e01c806373f500af116100f9578063a4fa8d5711610097578063bec10cde11610071578063bec10cde14610ae2578063e3cfef6014610b1a578063e7f43c6814610b38578063efd4606514610b82576101c4565b8063a4fa8d5714610a6a578063b4bd9e2714610aa2578063be1c766b14610ac4576101c4565b80637a5b4f59116100d35780637a5b4f59146108f75780637a766460146109e6578063913b945014610a3e578063923b176214610a48576101c4565b806373f500af1461080c578063754b2707146108685780637878f257146108d5576101c4565b806341ce2878116101665780635e5365c1116101405780635e5365c1146107185780635f8d96de146107365780636d70f7ae146107545780636f1e8533146107b0576101c4565b806341ce28781461060e578063465b414e146106665780635baeb806146106bf576101c4565b806327305e83116101a257806327305e831461035657806329605e77146104115780633121d2e7146104555780633367cca5146105b2576101c4565b8063060e468f146101c95780630ee2cb10146102c257806321df0da71461030c575b600080fd5b6102ac600480360360608110156101df57600080fd5b81019080803573ffffffffffffffffffffffffffffffffffffffff169060200190929190803590602001909291908035906020019064010000000081111561022657600080fd5b82018360208201111561023857600080fd5b8035906020019184600183028401116401000000008311171561025a57600080fd5b91908080601f016020809104026020016040519081016040528093929190818152602001838380828437600081840152601f19601f820116905080830192505050505050509192919290505050610bde565b6040518082815260200191505060405180910390f35b6102ca610d03565b604051808273ffffffffffffffffffffffffffffffffffffffff1673ffffffffffffffffffffffffffffffffffffffff16815260200191505060405180910390f35b610314610de4565b604051808273ffffffffffffffffffffffffffffffffffffffff1673ffffffffffffffffffffffffffffffffffffffff16815260200191505060405180910390f35b61040f6004803603602081101561036c57600080fd5b810190808035906020019064010000000081111561038957600080fd5b82018360208201111561039b57600080fd5b803590602001918460018302840111640100000000831117156103bd57600080fd5b91908080601f016020809104026020016040519081016040528093929190818152602001838380828437600081840152601f19601f820116905080830192505050505050509192919290505050610e0e565b005b6104536004803603602081101561042757600080fd5b81019080803573ffffffffffffffffffffffffffffffffffffffff169060200190929190505050610ea5565b005b6105b0600480360361010081101561046c57600080fd5b81019080803573ffffffffffffffffffffffffffffffffffffffff169060200190929190803573ffffffffffffffffffffffffffffffffffffffff169060200190929190803573ffffffffffffffffffffffffffffffffffffffff169060200190929190803573ffffffffffffffffffffffffffffffffffffffff16906020019092919080359060200190929190803560ff169060200190929190803590602001909291908035906020019064010000000081111561052a57600080fd5b82018360208201111561053c57600080fd5b8035906020019184600183028401116401000000008311171561055e57600080fd5b91908080601f016020809104026020016040519081016040528093929190818152602001838380828437600081840152601f19601f820116905080830192505050505050509192919290505050610f2c565b005b6105f4600480360360208110156105c857600080fd5b81019080803573ffffffffffffffffffffffffffffffffffffffff1690602001909291905050506110d1565b604051808215151515815260200191505060405180910390f35b6106506004803603602081101561062457600080fd5b81019080803573ffffffffffffffffffffffffffffffffffffffff1690602001909291905050506110f3565b6040518082815260200191505060405180910390f35b6106a96004803603606081101561067c57600080fd5b810190808035906020019092919080359060200190929190803560ff169060200190929190505050611230565b6040518082815260200191505060405180910390f35b610702600480360360608110156106d557600080fd5b810190808035906020019092919080359060200190929190803560ff1690602001909291905050506113b4565b6040518082815260200191505060405180910390f35b610720611580565b6040518082815260200191505060405180910390f35b61073e611697565b6040518082815260200191505060405180910390f35b6107966004803603602081101561076a57600080fd5b81019080803573ffffffffffffffffffffffffffffffffffffffff1690602001909291905050506116a0565b604051808215151515815260200191505060405180910390f35b6107f2600480360360208110156107c657600080fd5b81019080803573ffffffffffffffffffffffffffffffffffffffff1690602001909291905050506116df565b604051808215151515815260200191505060405180910390f35b61084e6004803603602081101561082257600080fd5b81019080803573ffffffffffffffffffffffffffffffffffffffff16906020019092919050505061173c565b604051808215151515815260200191505060405180910390f35b6108aa6004803603602081101561087e57600080fd5b81019080803573ffffffffffffffffffffffffffffffffffffffff169060200190929190505050611799565b604051808381526020018260058111156108c057fe5b60ff1681526020019250505060405180910390f35b6108dd611838565b604051808215151515815260200191505060405180910390f35b6108ff611859565b604051808060200180602001838103835285818151815260200191508051906020019080838360005b83811015610943578082015181840152602081019050610928565b50505050905090810190601f1680156109705780820380516001836020036101000a031916815260200191505b50838103825284818151815260200191508051906020019080838360005b838110156109a957808201518184015260208101905061098e565b50505050905090810190601f1680156109d65780820380516001836020036101000a031916815260200191505b5094505050505060405180910390f35b610a28600480360360208110156109fc57600080fd5b81019080803573ffffffffffffffffffffffffffffffffffffffff16906020019092919050505061199a565b6040518082815260200191505060405180910390f35b610a466119e3565b005b610a50611a68565b604051808215151515815260200191505060405180910390f35b610aa060048036036040811015610a8057600080fd5b810190808035906020019092919080359060200190929190505050611a7f565b005b610aaa611b9d565b604051808215151515815260200191505060405180910390f35b610acc611bd2565b6040518082815260200191505060405180910390f35b610b1860048036036040811015610af857600080fd5b810190808035906020019092919080359060200190929190505050611bdc565b005b610b22611d17565b6040518082815260200191505060405180910390f35b610b40611d50565b604051808273ffffffffffffffffffffffffffffffffffffffff1673ffffffffffffffffffffffffffffffffffffffff16815260200191505060405180910390f35b610bc460048036036020811015610b9857600080fd5b81019080803573ffffffffffffffffffffffffffffffffffffffff169060200190929190505050611d7a565b604051808215151515815260200191505060405180910390f35b6000610be93361173c565b80610bf95750610bf8336110d1565b5b610c4e576040517f08c379a0000000000000000000000000000000000000000000000000000000008152600401808060200182810382526024815260200180613c956024913960400191505060405180910390fd5b610c56611b9d565b15610cc9576040517f08c379a000000000000000000000000000000000000000000000000000000000815260040180806020018281038252600f8152602001807f61677265656d656e7420656e646564000000000000000000000000000000000081525060200191505060405180910390fd5b610cfa84600960000160009054906101000a900473ffffffffffffffffffffffffffffffffffffffff168585611db9565b90509392505050565b6000600860009054906101000a900473ffffffffffffffffffffffffffffffffffffffff1673ffffffffffffffffffffffffffffffffffffffff16636bf71982306040518263ffffffff1660e01b8152600401808273ffffffffffffffffffffffffffffffffffffffff1673ffffffffffffffffffffffffffffffffffffffff16815260200191505060206040518083038186803b158015610da457600080fd5b505afa158015610db8573d6000803e3d6000fd5b505050506040513d6020811015610dce57600080fd5b8101908080519060200190929190505050905090565b6000600260009054906101000a900473ffffffffffffffffffffffffffffffffffffffff16905090565b610e17336116df565b80610e275750610e26336110d1565b5b610e99576040517f08c379a000000000000000000000000000000000000000000000000000000000815260040180806020018281038252601e8152602001807f6f6e6c79207374616b6572206f7220616374697665206f70657261746f72000081525060200191505060405180910390fd5b610ea2816120da565b50565b610eae336110d1565b610f20576040517f08c379a00000000000000000000000000000000000000000000000000000000081526004018080602001828103825260148152602001807f6f6e6c7920616374697665206f70657261746f7200000000000000000000000081525060200191505060405180910390fd5b610f2981612190565b50565b33600860006101000a81548173ffffffffffffffffffffffffffffffffffffffff021916908373ffffffffffffffffffffffffffffffffffffffff1602179055506000303b905060008163ffffffff1614610fd2576040517f08c379a000000000000000000000000000000000000000000000000000000000815260040180806020018281038252602a815260200180613cfc602a913960400191505060405180910390fd5b86600960000160006101000a81548173ffffffffffffffffffffffffffffffffffffffff021916908373ffffffffffffffffffffffffffffffffffffffff16021790555085600960010160006101000a81548173ffffffffffffffffffffffffffffffffffffffff021916908373ffffffffffffffffffffffffffffffffffffffff160217905550600073ffffffffffffffffffffffffffffffffffffffff168873ffffffffffffffffffffffffffffffffffffffff16146110a0576110978861219c565b61109f61231a565b5b6110a989612444565b6110b48786866124b3565b6110bd836125e3565b6110c682612624565b505050505050505050565b60006110dc826116a0565b80156110ec57506110eb611a68565b5b9050919050565b60006110fe336116df565b8061110e575061110d336110d1565b5b611180576040517f08c379a000000000000000000000000000000000000000000000000000000000815260040180806020018281038252601e8152602001807f6f6e6c79207374616b6572206f7220616374697665206f70657261746f72000081525060200191505060405180910390fd5b611188611838565b6111fa576040517f08c379a00000000000000000000000000000000000000000000000000000000081526004018080602001828103825260138152602001807f646561646c696e65206e6f74207061737365640000000000000000000000000081525060200191505060405180910390fd5b611229600960000160009054906101000a900473ffffffffffffffffffffffffffffffffffffffff1683612749565b9050919050565b60006001600581111561123f57fe5b82600581111561124b57fe5b141561126b57611264848461284890919063ffffffff16565b90506113ad565b6002600581111561127857fe5b82600581111561128457fe5b14156112a45761129d84846128ce90919063ffffffff16565b90506113ad565b600360058111156112b157fe5b8260058111156112bd57fe5b14156112cb578290506113ad565b600460058111156112d857fe5b8260058111156112e457fe5b1415611315576012600a0a611306611300856012600a0a612848565b8661295d565b8161130d57fe5b0490506113ad565b60058081111561132157fe5b82600581111561132d57fe5b141561133c57600090506113ad565b6000600581111561134957fe5b82600581111561135557fe5b14156113ac576040517f08c379a0000000000000000000000000000000000000000000000000000000008152600401808060200182810382526021815260200180613d266021913960400191505060405180910390fd5b5b9392505050565b6000600160058111156113c357fe5b8260058111156113cf57fe5b14156113ef576113e884846128ce90919063ffffffff16565b9050611579565b600260058111156113fc57fe5b82600581111561140857fe5b141561142857611421848461284890919063ffffffff16565b9050611579565b6003600581111561143557fe5b82600581111561144157fe5b141561144f57829050611579565b6004600581111561145c57fe5b82600581111561146857fe5b1415611499576012600a0a61148a611484856012600a0a612848565b86612995565b8161149157fe5b049050611579565b6005808111156114a557fe5b8260058111156114b157fe5b1415611508576040517f08c379a0000000000000000000000000000000000000000000000000000000008152600401808060200182810382526021815260200180613c316021913960400191505060405180910390fd5b6000600581111561151557fe5b82600581111561152157fe5b1415611578576040517f08c379a0000000000000000000000000000000000000000000000000000000008152600401808060200182810382526021815260200180613d266021913960400191505060405180910390fd5b5b9392505050565b600061158b336116df565b8061159b575061159a336110d1565b5b61160d576040517f08c379a000000000000000000000000000000000000000000000000000000000815260040180806020018281038252601e8152602001807f6f6e6c79207374616b6572206f7220616374697665206f70657261746f72000081525060200191505060405180910390fd5b6000611617611697565b1461168a576040517f08c379a00000000000000000000000000000000000000000000000000000000081526004018080602001828103825260148152602001807f646561646c696e6520616c72656164792073657400000000000000000000000081525060200191505060405180910390fd5b6116926129c9565b905090565b60008054905090565b60006116aa611d50565b73ffffffffffffffffffffffffffffffffffffffff168273ffffffffffffffffffffffffffffffffffffffff16149050919050565b6000600960000160009054906101000a900473ffffffffffffffffffffffffffffffffffffffff1673ffffffffffffffffffffffffffffffffffffffff168273ffffffffffffffffffffffffffffffffffffffff16149050919050565b6000600960010160009054906101000a900473ffffffffffffffffffffffffffffffffffffffff1673ffffffffffffffffffffffffffffffffffffffff168273ffffffffffffffffffffffffffffffffffffffff16149050919050565b600080600460008473ffffffffffffffffffffffffffffffffffffffff1673ffffffffffffffffffffffffffffffffffffffff168152602001908152602001600020600001549150600460008473ffffffffffffffffffffffffffffffffffffffff1673ffffffffffffffffffffffffffffffffffffffff16815260200190815260200160002060010160009054906101000a900460ff169050915091565b600080600054141561184d5760009050611856565b60005442101590505b90565b60608060058054600181600116156101000203166002900480601f0160208091040260200160405190810160405280929190818152602001828054600181600116156101000203166002900480156118f25780601f106118c7576101008083540402835291602001916118f2565b820191906000526020600020905b8154815290600101906020018083116118d557829003601f168201915b5050505050915060068054600181600116156101000203166002900480601f01602080910402602001604051908101604052809291908181526020018280546001816001161561010002031660029004801561198f5780601f106119645761010080835404028352916020019161198f565b820191906000526020600020905b81548152906001019060200180831161197257829003601f168201915b505050505090509091565b6000600360008373ffffffffffffffffffffffffffffffffffffffff1673ffffffffffffffffffffffffffffffffffffffff168152602001908152602001600020549050919050565b6119ec336110d1565b611a5e576040517f08c379a00000000000000000000000000000000000000000000000000000000081526004018080602001828103825260148152602001807f6f6e6c7920616374697665206f70657261746f7200000000000000000000000081525060200191505060405180910390fd5b611a66612a66565b565b6000600760149054906101000a900460ff16905090565b611a883361173c565b80611a985750611a97336110d1565b5b611aed576040517f08c379a0000000000000000000000000000000000000000000000000000000008152600401808060200182810382526024815260200180613c956024913960400191505060405180910390fd5b611af5611b9d565b15611b68576040517f08c379a000000000000000000000000000000000000000000000000000000000815260040180806020018281038252600f8152602001807f61677265656d656e7420656e646564000000000000000000000000000000000081525060200191505060405180910390fd5b611b99600960000160009054906101000a900473ffffffffffffffffffffffffffffffffffffffff16338484612baf565b5050565b6000806001541480611bb657506000611bb4611697565b145b15611bc45760009050611bcf565b611bcc611838565b90505b90565b6000600154905090565b611be5336116df565b80611bf55750611bf4336110d1565b5b611c67576040517f08c379a000000000000000000000000000000000000000000000000000000000815260040180806020018281038252601e8152602001807f6f6e6c79207374616b6572206f7220616374697665206f70657261746f72000081525060200191505060405180910390fd5b611c6f611b9d565b15611ce2576040517f08c379a000000000000000000000000000000000000000000000000000000000815260040180806020018281038252600f8152602001807f61677265656d656e7420656e646564000000000000000000000000000000000081525060200191505060405180910390fd5b611d13600960000160009054906101000a900473ffffffffffffffffffffffffffffffffffffffff16338484612baf565b5050565b6000611d21611697565b4210611d305760009050611d4d565b611d4a42611d3c611697565b612ffb90919063ffffffff16565b90505b90565b6000600760009054906101000a900473ffffffffffffffffffffffffffffffffffffffff16905090565b6000611d84610d03565b73ffffffffffffffffffffffffffffffffffffffff168273ffffffffffffffffffffffffffffffffffffffff16149050919050565b60008073ffffffffffffffffffffffffffffffffffffffff16611dda610de4565b73ffffffffffffffffffffffffffffffffffffffff161415611e64576040517f08c379a000000000000000000000000000000000000000000000000000000000815260040180806020018281038252600d8152602001807f746f6b656e206e6f74207365740000000000000000000000000000000000000081525060200191505060405180910390fd5b6000600460008673ffffffffffffffffffffffffffffffffffffffff1673ffffffffffffffffffffffffffffffffffffffff1681526020019081526020016000206000015490506000600460008773ffffffffffffffffffffffffffffffffffffffff1673ffffffffffffffffffffffffffffffffffffffff16815260200190815260200160002060010160009054906101000a900460ff16905060006005811115611f0c57fe5b816005811115611f1857fe5b1415611f8c576040517f08c379a00000000000000000000000000000000000000000000000000000000081526004018080602001828103825260158152602001807f6e6f2070756e6973686d656e7420616c6c6f776564000000000000000000000081525060200191505060405180910390fd5b611f97828683611230565b9250611fa38784613084565b6000611fae8761199a565b9050611fbb8782886131de565b7fca93c648a4546f2ae486b9140f0082ced75a2664a663c8882b8b3545cddfeeb18888888789604051808673ffffffffffffffffffffffffffffffffffffffff1673ffffffffffffffffffffffffffffffffffffffff1681526020018573ffffffffffffffffffffffffffffffffffffffff1673ffffffffffffffffffffffffffffffffffffffff16815260200184815260200183815260200180602001828103825283818151815260200191508051906020019080838360005b83811015612091578082015181840152602081019050612076565b50505050905090810190601f1680156120be5780820380516001836020036101000a031916815260200191505b50965050505050505060405180910390a1505050949350505050565b80600690805190602001906120f0929190613b8b565b507fec391f097a91107044327f7588bc67ac8b9daf871413fc181f768c437c66cda9816040518080602001828103825283818151815260200191508051906020019080838360005b83811015612153578082015181840152602081019050612138565b50505050905090810190601f1680156121805780820380516001836020036101000a031916815260200191505b509250505060405180910390a150565b6121998161219c565b50565b8073ffffffffffffffffffffffffffffffffffffffff16600760009054906101000a900473ffffffffffffffffffffffffffffffffffffffff1673ffffffffffffffffffffffffffffffffffffffff161415612260576040517f08c379a00000000000000000000000000000000000000000000000000000000081526004018080602001828103825260188152602001807f63616e6e6f74207365742073616d65206f70657261746f72000000000000000081525060200191505060405180910390fd5b80600760006101000a81548173ffffffffffffffffffffffffffffffffffffffff021916908373ffffffffffffffffffffffffffffffffffffffff1602179055507f966c160e1c4dbc7df8d69af4ace01e9297c3cf016397b7914971f2fbfa32672d816122cb611a68565b604051808373ffffffffffffffffffffffffffffffffffffffff1673ffffffffffffffffffffffffffffffffffffffff168152602001821515151581526020019250505060405180910390a150565b612322611a68565b15612395576040517f08c379a000000000000000000000000000000000000000000000000000000000815260040180806020018281038252601d8152602001807f6f6e6c79207768656e206f70657261746f72206e6f742061637469766500000081525060200191505060405180910390fd5b6001600760146101000a81548160ff0219169083151502179055507f966c160e1c4dbc7df8d69af4ace01e9297c3cf016397b7914971f2fbfa32672d600760009054906101000a900473ffffffffffffffffffffffffffffffffffffffff166001604051808373ffffffffffffffffffffffffffffffffffffffff1673ffffffffffffffffffffffffffffffffffffffff168152602001821515151581526020019250505060405180910390a1565b61244d816134e8565b7fa07c91c183e42229e705a9795a1c06d76528b673788b849597364528c96eefb781604051808273ffffffffffffffffffffffffffffffffffffffff1673ffffffffffffffffffffffffffffffffffffffff16815260200191505060405180910390a150565b81600460008573ffffffffffffffffffffffffffffffffffffffff1673ffffffffffffffffffffffffffffffffffffffff1681526020019081526020016000206000018190555080600460008573ffffffffffffffffffffffffffffffffffffffff1673ffffffffffffffffffffffffffffffffffffffff16815260200190815260200160002060010160006101000a81548160ff0219169083600581111561255857fe5b02179055507fc964ed8af672f908dc7ba57f61d45a87a7e179cecf5198e7b7d53c920d898f06838383604051808473ffffffffffffffffffffffffffffffffffffffff1673ffffffffffffffffffffffffffffffffffffffff1681526020018381526020018260058111156125c957fe5b60ff168152602001935050505060405180910390a1505050565b806001819055507f7caceb1091bbaa84d09ab116a1fd72387eaab8a33d70fc39168b9b75686ee32c816040518082815260200191505060405180910390a150565b6000600580546001816001161561010002031660029004905014612693576040517f08c379a0000000000000000000000000000000000000000000000000000000008152600401808060200182810382526021815260200180613c526021913960400191505060405180910390fd5b80600590805190602001906126a9929190613b8b565b507fd2bb68a4c0cbd7fabc3f8e787a6e54384db17d54dedeede61c35819f5f49edca816040518080602001828103825283818151815260200191508051906020019080838360005b8381101561270c5780820151818401526020810190506126f1565b50505050905090810190601f1680156127395780820380516001836020036101000a031916815260200191505b509250505060405180910390a150565b60008073ffffffffffffffffffffffffffffffffffffffff1661276a610de4565b73ffffffffffffffffffffffffffffffffffffffff1614156127f4576040517f08c379a00000000000000000000000000000000000000000000000000000000081526004018080602001828103825260118152602001807f746f6b656e206e6f74207365742079657400000000000000000000000000000081525060200191505060405180910390fd5b600360008473ffffffffffffffffffffffffffffffffffffffff1673ffffffffffffffffffffffffffffffffffffffff1681526020019081526020016000205490506128428383838461352c565b92915050565b60008083141561285b57600090506128c8565b600082840290508284828161286c57fe5b04146128c3576040517f08c379a0000000000000000000000000000000000000000000000000000000008152600401808060200182810382526021815260200180613cb96021913960400191505060405180910390fd5b809150505b92915050565b6000808211612945576040517f08c379a000000000000000000000000000000000000000000000000000000000815260040180806020018281038252601a8152602001807f536166654d6174683a206469766973696f6e206279207a65726f00000000000081525060200191505060405180910390fd5b600082848161295057fe5b0490508091505092915050565b60006012600a0a6129856129718585612848565b60026012600a0a8161297f57fe5b0461399d565b8161298c57fe5b04905092915050565b6000816129b96129a9856012600a0a612848565b600285816129b357fe5b0461399d565b816129c057fe5b04905092915050565b6000806001541415612a43576040517f08c379a000000000000000000000000000000000000000000000000000000000815260040180806020018281038252600e8152602001807f6c656e677468206e6f742073657400000000000000000000000000000000000081525060200191505060405180910390fd5b612a584260015461399d90919063ffffffff16565b9050612a6381613a25565b90565b612a6e611a68565b612ae0576040517f08c379a00000000000000000000000000000000000000000000000000000000081526004018080602001828103825260198152602001807f6f6e6c79207768656e206f70657261746f72206163746976650000000000000081525060200191505060405180910390fd5b6000600760006101000a81548173ffffffffffffffffffffffffffffffffffffffff021916908373ffffffffffffffffffffffffffffffffffffffff1602179055506000600760146101000a81548160ff0219169083151502179055507f966c160e1c4dbc7df8d69af4ace01e9297c3cf016397b7914971f2fbfa32672d600080604051808373ffffffffffffffffffffffffffffffffffffffff1673ffffffffffffffffffffffffffffffffffffffff168152602001821515151581526020019250505060405180910390a1565b600073ffffffffffffffffffffffffffffffffffffffff16612bcf610de4565b73ffffffffffffffffffffffffffffffffffffffff161415612c59576040517f08c379a00000000000000000000000000000000000000000000000000000000081526004018080602001828103825260118152602001807f746f6b656e206e6f74207365742079657400000000000000000000000000000081525060200191505060405180910390fd5b600360008573ffffffffffffffffffffffffffffffffffffffff1673ffffffffffffffffffffffffffffffffffffffff168152602001908152602001600020548214612d0d576040517f08c379a00000000000000000000000000000000000000000000000000000000081526004018080602001828103825260178152602001807f63757272656e74207374616b6520696e636f727265637400000000000000000081525060200191505060405180910390fd5b60008111612d83576040517f08c379a000000000000000000000000000000000000000000000000000000000815260040180806020018281038252600f8152602001807f6e6f207374616b6520746f20616464000000000000000000000000000000000081525060200191505060405180910390fd5b6000612d98828461399d90919063ffffffff16565b905080600360008773ffffffffffffffffffffffffffffffffffffffff1673ffffffffffffffffffffffffffffffffffffffff16815260200190815260200160002081905550612de6610de4565b73ffffffffffffffffffffffffffffffffffffffff166323b872dd8530856040518463ffffffff1660e01b8152600401808473ffffffffffffffffffffffffffffffffffffffff1673ffffffffffffffffffffffffffffffffffffffff1681526020018373ffffffffffffffffffffffffffffffffffffffff1673ffffffffffffffffffffffffffffffffffffffff1681526020018281526020019350505050602060405180830381600087803b158015612ea057600080fd5b505af1158015612eb4573d6000803e3d6000fd5b505050506040513d6020811015612eca57600080fd5b8101908080519060200190929190505050612f4d576040517f08c379a00000000000000000000000000000000000000000000000000000000081526004018080602001828103825260158152602001807f746f6b656e207472616e73666572206661696c6564000000000000000000000081525060200191505060405180910390fd5b7fef7c8dfef14cbefdf829b8f066b068b677992411137321d64b3ed4538c2b363785858484604051808573ffffffffffffffffffffffffffffffffffffffff1673ffffffffffffffffffffffffffffffffffffffff1681526020018473ffffffffffffffffffffffffffffffffffffffff1673ffffffffffffffffffffffffffffffffffffffff16815260200183815260200182815260200194505050505060405180910390a15050505050565b600082821115613073576040517f08c379a000000000000000000000000000000000000000000000000000000000815260040180806020018281038252601e8152602001807f536166654d6174683a207375627472616374696f6e206f766572666c6f77000081525060200191505060405180910390fd5b600082840390508091505092915050565b600260009054906101000a900473ffffffffffffffffffffffffffffffffffffffff1673ffffffffffffffffffffffffffffffffffffffff16637c8d56b883836040518363ffffffff1660e01b8152600401808373ffffffffffffffffffffffffffffffffffffffff1673ffffffffffffffffffffffffffffffffffffffff16815260200182815260200192505050602060405180830381600087803b15801561312d57600080fd5b505af1158015613141573d6000803e3d6000fd5b505050506040513d602081101561315757600080fd5b81019080805190602001909291905050506131da576040517f08c379a00000000000000000000000000000000000000000000000000000000081526004018080602001828103825260138152602001807f6e6d72206275726e46726f6d206661696c65640000000000000000000000000081525060200191505060405180910390fd5b5050565b600073ffffffffffffffffffffffffffffffffffffffff166131fe610de4565b73ffffffffffffffffffffffffffffffffffffffff161415613288576040517f08c379a00000000000000000000000000000000000000000000000000000000081526004018080602001828103825260118152602001807f746f6b656e206e6f74207365742079657400000000000000000000000000000081525060200191505060405180910390fd5b600360008473ffffffffffffffffffffffffffffffffffffffff1673ffffffffffffffffffffffffffffffffffffffff16815260200190815260200160002054821461333c576040517f08c379a00000000000000000000000000000000000000000000000000000000081526004018080602001828103825260178152602001807f63757272656e74207374616b6520696e636f727265637400000000000000000081525060200191505060405180910390fd5b600081116133b2576040517f08c379a00000000000000000000000000000000000000000000000000000000081526004018080602001828103825260108152602001807f6e6f207374616b6520746f206275726e0000000000000000000000000000000081525060200191505060405180910390fd5b8181111561340b576040517f08c379a0000000000000000000000000000000000000000000000000000000008152600401808060200182810382526022815260200180613cda6022913960400191505060405180910390fd5b60006134208284612ffb90919063ffffffff16565b905080600360008673ffffffffffffffffffffffffffffffffffffffff1673ffffffffffffffffffffffffffffffffffffffff1681526020019081526020016000208190555061346f82613a66565b7ff470d7f6c239014b63db190652ebe51433a828b65e06d9972143c34c2e2ca3bc848383604051808473ffffffffffffffffffffffffffffffffffffffff1673ffffffffffffffffffffffffffffffffffffffff168152602001838152602001828152602001935050505060405180910390a150505050565b80600260006101000a81548173ffffffffffffffffffffffffffffffffffffffff021916908373ffffffffffffffffffffffffffffffffffffffff16021790555050565b600073ffffffffffffffffffffffffffffffffffffffff1661354c610de4565b73ffffffffffffffffffffffffffffffffffffffff1614156135d6576040517f08c379a00000000000000000000000000000000000000000000000000000000081526004018080602001828103825260118152602001807f746f6b656e206e6f74207365742079657400000000000000000000000000000081525060200191505060405180910390fd5b600360008573ffffffffffffffffffffffffffffffffffffffff1673ffffffffffffffffffffffffffffffffffffffff16815260200190815260200160002054821461368a576040517f08c379a00000000000000000000000000000000000000000000000000000000081526004018080602001828103825260178152602001807f63757272656e74207374616b6520696e636f727265637400000000000000000081525060200191505060405180910390fd5b60008111613700576040517f08c379a00000000000000000000000000000000000000000000000000000000081526004018080602001828103825260108152602001807f6e6f207374616b6520746f2074616b650000000000000000000000000000000081525060200191505060405180910390fd5b81811115613759576040517f08c379a0000000000000000000000000000000000000000000000000000000008152600401808060200182810382526022815260200180613c736022913960400191505060405180910390fd5b600061376e8284612ffb90919063ffffffff16565b905080600360008773ffffffffffffffffffffffffffffffffffffffff1673ffffffffffffffffffffffffffffffffffffffff168152602001908152602001600020819055506137bc610de4565b73ffffffffffffffffffffffffffffffffffffffff1663a9059cbb85846040518363ffffffff1660e01b8152600401808373ffffffffffffffffffffffffffffffffffffffff1673ffffffffffffffffffffffffffffffffffffffff16815260200182815260200192505050602060405180830381600087803b15801561384257600080fd5b505af1158015613856573d6000803e3d6000fd5b505050506040513d602081101561386c57600080fd5b81019080805190602001909291905050506138ef576040517f08c379a00000000000000000000000000000000000000000000000000000000081526004018080602001828103825260158152602001807f746f6b656e207472616e73666572206661696c6564000000000000000000000081525060200191505060405180910390fd5b7f79cb01d8e263c1d344176f9a596b5a6aa14a7df350a227e2e7df836a087b566185858484604051808573ffffffffffffffffffffffffffffffffffffffff1673ffffffffffffffffffffffffffffffffffffffff1681526020018473ffffffffffffffffffffffffffffffffffffffff1673ffffffffffffffffffffffffffffffffffffffff16815260200183815260200182815260200194505050505060405180910390a15050505050565b600080828401905083811015613a1b576040517f08c379a000000000000000000000000000000000000000000000000000000000815260040180806020018281038252601b8152602001807f536166654d6174683a206164646974696f6e206f766572666c6f77000000000081525060200191505060405180910390fd5b8091505092915050565b806000819055507f337b880688eb06df8adb77036a6c8def1da2b520bc901c04b3a5a23f9ae13039816040518082815260200191505060405180910390a150565b600260009054906101000a900473ffffffffffffffffffffffffffffffffffffffff1673ffffffffffffffffffffffffffffffffffffffff1663a0712d68826040518263ffffffff1660e01b815260040180828152602001915050602060405180830381600087803b158015613adb57600080fd5b505af1158015613aef573d6000803e3d6000fd5b505050506040513d6020811015613b0557600080fd5b8101908080519060200190929190505050613b88576040517f08c379a000000000000000000000000000000000000000000000000000000000815260040180806020018281038252600f8152602001807f6e6d72206275726e206661696c6564000000000000000000000000000000000081525060200191505060405180910390fd5b50565b828054600181600116156101000203166002900490600052602060002090601f016020900481019282601f10613bcc57805160ff1916838001178555613bfa565b82800160010185558215613bfa579182015b82811115613bf9578251825591602001919060010190613bde565b5b509050613c079190613c0b565b5090565b613c2d91905b80821115613c29576000816000905550600101613c11565b5090565b9056fe726174696f547970652063616e6e6f7420626520526174696f547970652e496e66737461746963206d657461646174612063616e6e6f74206265206368616e67656463616e6e6f742074616b65206d6f7265207468616e2063757272656e745374616b656f6e6c7920636f756e7465727061727479206f7220616374697665206f70657261746f72536166654d6174683a206d756c7469706c69636174696f6e206f766572666c6f7763616e6e6f74206275726e206d6f7265207468616e2063757272656e745374616b656d7573742062652063616c6c65642077697468696e20636f6e747261637420636f6e7374727563746f72726174696f547970652063616e6e6f7420626520526174696f547970652e4e614ea165627a7a723058204c2fbd11a0998e47ebb8017a18101e71310f11d9e6adc0f7101565b0f941828a002928616464726573732c616464726573732c616464726573732c616464726573732c75696e743235362c75696e74382c75696e743235362c627974657329",
  "source": "pragma solidity ^0.5.0;\n\nimport \"../modules/Factory.sol\";\nimport \"./OneWayGriefing.sol\";\n\n\ncontract OneWayGriefing_Factory is Factory {\n\n    constructor(address instanceRegistry) public {\n        // deploy template contract\n        address templateContract = address(new OneWayGriefing());\n        // set instance type\n        bytes4 instanceType = bytes4(keccak256(bytes('Agreement')));\n        // set initdataABI\n        string memory initdataABI = '(address,address,address,address,uint256,uint8,uint256,bytes)';\n        // initialize factory params\n        Factory._initialize(instanceRegistry, templateContract, instanceType, initdataABI);\n    }\n\n    event ExplicitInitData(address indexed staker, address indexed counterparty, address indexed operator, uint256 ratio, Griefing.RatioType ratioType, uint256 countdownLength, bytes staticMetadata);\n\n    function create(bytes memory callData) public returns (address instance) {\n        // deploy instance\n        instance = Factory._create(callData);\n    }\n\n    function createEncoded(bytes memory initdata) public returns (address instance) {\n        // decode initdata\n        (\n            address token,\n            address operator,\n            address staker,\n            address counterparty,\n            uint256 ratio,\n            Griefing.RatioType ratioType, // uint8\n            uint256 countdownLength,\n            bytes memory staticMetadata\n        ) = abi.decode(initdata, (address,address,address,address,uint256,Griefing.RatioType,uint256,bytes));\n\n        // call explicit create\n        instance = createExplicit(token, operator, staker, counterparty, ratio, ratioType, countdownLength, staticMetadata);\n    }\n\n    function createExplicit(\n        address token,\n        address operator,\n        address staker,\n        address counterparty,\n        uint256 ratio,\n        Griefing.RatioType ratioType, // uint8\n        uint256 countdownLength,\n        bytes memory staticMetadata\n    ) public returns (address instance) {\n        // declare template in memory\n        OneWayGriefing template;\n\n        // construct the data payload used when initializing the new contract.\n        bytes memory callData = abi.encodeWithSelector(\n            template.initialize.selector, // selector\n            token,           // token\n            operator,        // operator\n            staker,          // staker\n            counterparty,    // counterparty\n            ratio,           // ratio\n            ratioType,       // ratioType\n            countdownLength, // countdownLength\n            staticMetadata   // staticMetadata\n        );\n\n        // deploy instance\n        instance = Factory._create(callData);\n\n        // emit event\n        emit ExplicitInitData(staker, counterparty, operator, ratio, ratioType, countdownLength, staticMetadata);\n    }\n\n}\n",
  "sourcePath": "/Users/thegostep/github/erasure-next-contracts/contracts/agreements/OneWayGriefing_Factory.sol",
  "compiler": {
    "name": "solc",
    "version": "0.5.7+commit.6da8b019.Emscripten.clang",
    "optimizer": false,
    "runs": 200
  },
  "schemaVersion": "2.2.0",
  "updatedAt": "2019-08-16T22:05:01.508Z"
}