{
  "contractName": "Post",
  "abi": [
    {
      "constant": true,
      "inputs": [],
      "name": "getCreator",
      "outputs": [
        {
          "name": "creator",
          "type": "address"
        }
      ],
      "payable": false,
      "stateMutability": "view",
      "type": "function"
    },
    {
      "constant": true,
      "inputs": [
        {
          "name": "caller",
          "type": "address"
        }
      ],
      "name": "isActiveOperator",
      "outputs": [
        {
          "name": "ok",
          "type": "bool"
        }
      ],
      "payable": false,
      "stateMutability": "view",
      "type": "function"
    },
    {
      "constant": true,
      "inputs": [],
      "name": "getProofHash",
      "outputs": [
        {
          "name": "proofHash",
          "type": "bytes"
        }
      ],
      "payable": false,
      "stateMutability": "view",
      "type": "function"
    },
    {
      "constant": true,
      "inputs": [
        {
          "name": "caller",
          "type": "address"
        }
      ],
      "name": "isOperator",
      "outputs": [
        {
          "name": "ok",
          "type": "bool"
        }
      ],
      "payable": false,
      "stateMutability": "view",
      "type": "function"
    },
    {
      "constant": true,
      "inputs": [],
      "name": "getMetadata",
      "outputs": [
        {
          "name": "staticMetadata",
          "type": "bytes"
        },
        {
          "name": "variableMetadata",
          "type": "bytes"
        }
      ],
      "payable": false,
      "stateMutability": "view",
      "type": "function"
    },
    {
      "constant": true,
      "inputs": [],
      "name": "hasActiveOperator",
      "outputs": [
        {
          "name": "ok",
          "type": "bool"
        }
      ],
      "payable": false,
      "stateMutability": "view",
      "type": "function"
    },
    {
      "constant": true,
      "inputs": [],
      "name": "getOperator",
      "outputs": [
        {
          "name": "operator",
          "type": "address"
        }
      ],
      "payable": false,
      "stateMutability": "view",
      "type": "function"
    },
    {
      "constant": true,
      "inputs": [
        {
          "name": "caller",
          "type": "address"
        }
      ],
      "name": "isCreator",
      "outputs": [
        {
          "name": "ok",
          "type": "bool"
        }
      ],
      "payable": false,
      "stateMutability": "view",
      "type": "function"
    },
    {
      "anonymous": false,
      "inputs": [
        {
          "indexed": false,
          "name": "operator",
          "type": "address"
        },
        {
          "indexed": false,
          "name": "proofHash",
          "type": "bytes"
        },
        {
          "indexed": false,
          "name": "staticMetadata",
          "type": "bytes"
        },
        {
          "indexed": false,
          "name": "variableMetadata",
          "type": "bytes"
        }
      ],
      "name": "Created",
      "type": "event"
    },
    {
      "anonymous": false,
      "inputs": [
        {
          "indexed": false,
          "name": "staticMetadata",
          "type": "bytes"
        }
      ],
      "name": "StaticMetadataSet",
      "type": "event"
    },
    {
      "anonymous": false,
      "inputs": [
        {
          "indexed": false,
          "name": "variableMetadata",
          "type": "bytes"
        }
      ],
      "name": "VariableMetadataSet",
      "type": "event"
    },
    {
      "anonymous": false,
      "inputs": [
        {
          "indexed": false,
          "name": "operator",
          "type": "address"
        },
        {
          "indexed": false,
          "name": "status",
          "type": "bool"
        }
      ],
      "name": "OperatorUpdated",
      "type": "event"
    },
    {
      "anonymous": false,
      "inputs": [
        {
          "indexed": false,
          "name": "caller",
          "type": "address"
        },
        {
          "indexed": false,
          "name": "proofHash",
          "type": "bytes"
        }
      ],
      "name": "ProofHashSet",
      "type": "event"
    },
    {
      "constant": false,
      "inputs": [
        {
          "name": "operator",
          "type": "address"
        },
        {
          "name": "proofHash",
          "type": "bytes"
        },
        {
          "name": "staticMetadata",
          "type": "bytes"
        },
        {
          "name": "variableMetadata",
          "type": "bytes"
        }
      ],
      "name": "initialize",
      "outputs": [],
      "payable": false,
      "stateMutability": "nonpayable",
      "type": "function"
    },
    {
      "constant": false,
      "inputs": [
        {
          "name": "variableMetadata",
          "type": "bytes"
        }
      ],
      "name": "setVariableMetadata",
      "outputs": [],
      "payable": false,
      "stateMutability": "nonpayable",
      "type": "function"
    }
  ],
  "bytecode": "0x608060405234801561001057600080fd5b50611607806100206000396000f3fe608060405234801561001057600080fd5b506004361061009e5760003560e01c80637a5b4f59116100665780637a5b4f59146102e3578063923b1762146103d2578063ca6a18c9146103f4578063e7f43c68146105fd578063efd46065146106475761009e565b80630ee2cb10146100a357806327305e83146100ed5780633367cca5146101a857806355e03373146102045780636d70f7ae14610287575b600080fd5b6100ab6106a3565b604051808273ffffffffffffffffffffffffffffffffffffffff1673ffffffffffffffffffffffffffffffffffffffff16815260200191505060405180910390f35b6101a66004803603602081101561010357600080fd5b810190808035906020019064010000000081111561012057600080fd5b82018360208201111561013257600080fd5b8035906020019184600183028401116401000000008311171561015457600080fd5b91908080601f016020809104026020016040519081016040528093929190818152602001838380828437600081840152601f19601f820116905080830192505050505050509192919290505050610784565b005b6101ea600480360360208110156101be57600080fd5b81019080803573ffffffffffffffffffffffffffffffffffffffff16906020019092919050505061081b565b604051808215151515815260200191505060405180910390f35b61020c61083d565b6040518080602001828103825283818151815260200191508051906020019080838360005b8381101561024c578082015181840152602081019050610231565b50505050905090810190601f1680156102795780820380516001836020036101000a031916815260200191505b509250505060405180910390f35b6102c96004803603602081101561029d57600080fd5b81019080803573ffffffffffffffffffffffffffffffffffffffff16906020019092919050505061089d565b604051808215151515815260200191505060405180910390f35b6102eb6108dc565b604051808060200180602001838103835285818151815260200191508051906020019080838360005b8381101561032f578082015181840152602081019050610314565b50505050905090810190601f16801561035c5780820380516001836020036101000a031916815260200191505b50838103825284818151815260200191508051906020019080838360005b8381101561039557808201518184015260208101905061037a565b50505050905090810190601f1680156103c25780820380516001836020036101000a031916815260200191505b5094505050505060405180910390f35b6103da610a1d565b604051808215151515815260200191505060405180910390f35b6105fb6004803603608081101561040a57600080fd5b81019080803573ffffffffffffffffffffffffffffffffffffffff1690602001909291908035906020019064010000000081111561044757600080fd5b82018360208201111561045957600080fd5b8035906020019184600183028401116401000000008311171561047b57600080fd5b91908080601f016020809104026020016040519081016040528093929190818152602001838380828437600081840152601f19601f820116905080830192505050505050509192919290803590602001906401000000008111156104de57600080fd5b8201836020820111156104f057600080fd5b8035906020019184600183028401116401000000008311171561051257600080fd5b91908080601f016020809104026020016040519081016040528093929190818152602001838380828437600081840152601f19601f8201169050808301925050505050505091929192908035906020019064010000000081111561057557600080fd5b82018360208201111561058757600080fd5b803590602001918460018302840111640100000000831117156105a957600080fd5b91908080601f016020809104026020016040519081016040528093929190818152602001838380828437600081840152601f19601f820116905080830192505050505050509192919290505050610a34565b005b610605610cec565b604051808273ffffffffffffffffffffffffffffffffffffffff1673ffffffffffffffffffffffffffffffffffffffff16815260200191505060405180910390f35b6106896004803603602081101561065d57600080fd5b81019080803573ffffffffffffffffffffffffffffffffffffffff169060200190929190505050610d16565b604051808215151515815260200191505060405180910390f35b6000600560009054906101000a900473ffffffffffffffffffffffffffffffffffffffff1673ffffffffffffffffffffffffffffffffffffffff16636bf71982306040518263ffffffff1660e01b8152600401808273ffffffffffffffffffffffffffffffffffffffff1673ffffffffffffffffffffffffffffffffffffffff16815260200191505060206040518083038186803b15801561074457600080fd5b505afa158015610758573d6000803e3d6000fd5b505050506040513d602081101561076e57600080fd5b8101908080519060200190929190505050905090565b61078d33610d16565b8061079d575061079c3361081b565b5b61080f576040517f08c379a000000000000000000000000000000000000000000000000000000000815260040180806020018281038252601f8152602001807f6f6e6c7920616374697665206f70657261746f72206f722063726561746f720081525060200191505060405180910390fd5b61081881610d55565b50565b60006108268261089d565b80156108365750610835610a1d565b5b9050919050565b60606108986000604051806060016040529081600082015481526020016001820160009054906101000a900460ff1660ff1660ff1681526020016001820160019054906101000a900460ff1660ff1660ff1681525050610e0b565b905090565b60006108a7610cec565b73ffffffffffffffffffffffffffffffffffffffff168273ffffffffffffffffffffffffffffffffffffffff16149050919050565b60608060038054600181600116156101000203166002900480601f0160208091040260200160405190810160405280929190818152602001828054600181600116156101000203166002900480156109755780601f1061094a57610100808354040283529160200191610975565b820191906000526020600020905b81548152906001019060200180831161095857829003601f168201915b5050505050915060048054600181600116156101000203166002900480601f016020809104026020016040519081016040528092919081815260200182805460018160011615610100020316600290048015610a125780601f106109e757610100808354040283529160200191610a12565b820191906000526020600020905b8154815290600101906020018083116109f557829003601f168201915b505050505090509091565b6000600260149054906101000a900460ff16905090565b33600560006101000a81548173ffffffffffffffffffffffffffffffffffffffff021916908373ffffffffffffffffffffffffffffffffffffffff1602179055506000303b905060008163ffffffff1614610ada576040517f08c379a000000000000000000000000000000000000000000000000000000000815260040180806020018281038252602a8152602001806115b2602a913960400191505060405180910390fd5b610ae384610f4e565b600073ffffffffffffffffffffffffffffffffffffffff168573ffffffffffffffffffffffffffffffffffffffff1614610b2957610b208561107a565b610b286111f8565b5b610b3283611322565b610b3b82610d55565b7fbddaaf7b282a81102d0a8d60ff92a6183f68ada98c4f4362a5a1c31798c8464185858585604051808573ffffffffffffffffffffffffffffffffffffffff1673ffffffffffffffffffffffffffffffffffffffff168152602001806020018060200180602001848103845287818151815260200191508051906020019080838360005b83811015610bda578082015181840152602081019050610bbf565b50505050905090810190601f168015610c075780820380516001836020036101000a031916815260200191505b50848103835286818151815260200191508051906020019080838360005b83811015610c40578082015181840152602081019050610c25565b50505050905090810190601f168015610c6d5780820380516001836020036101000a031916815260200191505b50848103825285818151815260200191508051906020019080838360005b83811015610ca6578082015181840152602081019050610c8b565b50505050905090810190601f168015610cd35780820380516001836020036101000a031916815260200191505b5097505050505050505060405180910390a15050505050565b6000600260009054906101000a900473ffffffffffffffffffffffffffffffffffffffff16905090565b6000610d206106a3565b73ffffffffffffffffffffffffffffffffffffffff168273ffffffffffffffffffffffffffffffffffffffff16149050919050565b8060049080519060200190610d6b9291906114c1565b507fec391f097a91107044327f7588bc67ac8b9daf871413fc181f768c437c66cda9816040518080602001828103825283818151815260200191508051906020019080838360005b83811015610dce578082015181840152602081019050610db3565b50505050905090810190601f168015610dfb5780820380516001836020036101000a031916815260200191505b509250505060405180910390a150565b60608060226040519080825280601f01601f191660200182016040528015610e425781602001600182028038833980820191505090505b509050826020015160f81b81600081518110610e5a57fe5b60200101907effffffffffffffffffffffffffffffffffffffffffffffffffffffffffffff1916908160001a905350826040015160f81b81600181518110610e9e57fe5b60200101907effffffffffffffffffffffffffffffffffffffffffffffffffffffffffffff1916908160001a90535060008090505b60208160ff161015610f445783600001518160ff1660208110610ef257fe5b1a60f81b826002830160ff1681518110610f0857fe5b60200101907effffffffffffffffffffffffffffffffffffffffffffffffffffffffffffff1916908160001a9053508080600101915050610ed3565b8192505050919050565b610f5781611447565b600080820151816000015560208201518160010160006101000a81548160ff021916908360ff16021790555060408201518160010160016101000a81548160ff021916908360ff1602179055509050507f7407ed1a5db68d1f1b75b603b6a31410f20a906472eac47876a4573a5fb43f923382604051808373ffffffffffffffffffffffffffffffffffffffff1673ffffffffffffffffffffffffffffffffffffffff16815260200180602001828103825283818151815260200191508051906020019080838360005b8381101561103c578082015181840152602081019050611021565b50505050905090810190601f1680156110695780820380516001836020036101000a031916815260200191505b50935050505060405180910390a150565b8073ffffffffffffffffffffffffffffffffffffffff16600260009054906101000a900473ffffffffffffffffffffffffffffffffffffffff1673ffffffffffffffffffffffffffffffffffffffff16141561113e576040517f08c379a00000000000000000000000000000000000000000000000000000000081526004018080602001828103825260188152602001807f63616e6e6f74207365742073616d65206f70657261746f72000000000000000081525060200191505060405180910390fd5b80600260006101000a81548173ffffffffffffffffffffffffffffffffffffffff021916908373ffffffffffffffffffffffffffffffffffffffff1602179055507f966c160e1c4dbc7df8d69af4ace01e9297c3cf016397b7914971f2fbfa32672d816111a9610a1d565b604051808373ffffffffffffffffffffffffffffffffffffffff1673ffffffffffffffffffffffffffffffffffffffff168152602001821515151581526020019250505060405180910390a150565b611200610a1d565b15611273576040517f08c379a000000000000000000000000000000000000000000000000000000000815260040180806020018281038252601d8152602001807f6f6e6c79207768656e206f70657261746f72206e6f742061637469766500000081525060200191505060405180910390fd5b6001600260146101000a81548160ff0219169083151502179055507f966c160e1c4dbc7df8d69af4ace01e9297c3cf016397b7914971f2fbfa32672d600260009054906101000a900473ffffffffffffffffffffffffffffffffffffffff166001604051808373ffffffffffffffffffffffffffffffffffffffff1673ffffffffffffffffffffffffffffffffffffffff168152602001821515151581526020019250505060405180910390a1565b6000600380546001816001161561010002031660029004905014611391576040517f08c379a00000000000000000000000000000000000000000000000000000000081526004018080602001828103825260218152602001806115916021913960400191505060405180910390fd5b80600390805190602001906113a79291906114c1565b507fd2bb68a4c0cbd7fabc3f8e787a6e54384db17d54dedeede61c35819f5f49edca816040518080602001828103825283818151815260200191508051906020019080838360005b8381101561140a5780820151818401526020810190506113ef565b50505050905090810190601f1680156114375780820380516001836020036101000a031916815260200191505b509250505060405180910390a150565b61144f611541565b60008260008151811061145e57fe5b602001015160f81c60f81b60f81c905060008360018151811061147d57fe5b602001015160f81c60f81b60f81c905060006022850151905060405180606001604052808281526020018460ff1681526020018360ff168152509350505050919050565b828054600181600116156101000203166002900490600052602060002090601f016020900481019282601f1061150257805160ff1916838001178555611530565b82800160010185558215611530579182015b8281111561152f578251825591602001919060010190611514565b5b50905061153d919061156b565b5090565b604051806060016040528060008019168152602001600060ff168152602001600060ff1681525090565b61158d91905b80821115611589576000816000905550600101611571565b5090565b9056fe737461746963206d657461646174612063616e6e6f74206265206368616e6765646d7573742062652063616c6c65642077697468696e20636f6e747261637420636f6e7374727563746f72a165627a7a72305820e9f53571a638ec59cffd865b485cf10634f56fac111604417fb1b82f7764554f0029",
  "source": "pragma solidity ^0.5.0;\n\nimport \"../modules/ProofHash.sol\";\nimport \"../modules/Metadata.sol\";\nimport \"../modules/Operated.sol\";\nimport \"../modules/Template.sol\";\n\n\ncontract Post is ProofHash, Operated, Metadata, Template {\n\n    event Created(address operator, bytes proofHash, bytes staticMetadata, bytes variableMetadata);\n\n    function initialize(\n        address operator,\n        bytes memory proofHash,\n        bytes memory staticMetadata,\n        bytes memory variableMetadata\n    ) public initializeTemplate() {\n        // set storage variables\n        ProofHash._setProofHash(proofHash);\n\n        // set operator\n        if (operator != address(0)) {\n            Operated._setOperator(operator);\n            Operated._activateOperator();\n        }\n\n        // set static metadata\n        Metadata._setStaticMetadata(staticMetadata);\n\n        // set variable metadata\n        Metadata._setVariableMetadata(variableMetadata);\n\n        // emit event\n        emit Created(operator, proofHash, staticMetadata, variableMetadata);\n    }\n\n    // state functions\n\n    function setVariableMetadata(bytes memory variableMetadata) public {\n        // only active operator or creator\n        require(Template.isCreator(msg.sender) || Operated.isActiveOperator(msg.sender), \"only active operator or creator\");\n\n        // set metadata in storage\n        Metadata._setVariableMetadata(variableMetadata);\n    }\n\n}\n",
  "sourcePath": "/Users/thegostep/github/erasure-next-contracts/contracts/posts/Post.sol",
  "compiler": {
    "name": "solc",
    "version": "0.5.7+commit.6da8b019.Emscripten.clang",
    "optimizer": false,
    "runs": 200
  },
  "schemaVersion": "2.2.0",
  "updatedAt": "2019-08-16T22:05:01.655Z"
}