{
  "contractName": "TestPost",
  "abi": [
    {
      "constant": true,
      "inputs": [],
      "name": "getCreator",
      "outputs": [
        {
          "name": "creator",
          "type": "address"
        }
      ],
      "payable": false,
      "stateMutability": "view",
      "type": "function"
    },
    {
      "constant": true,
      "inputs": [
        {
          "name": "caller",
          "type": "address"
        }
      ],
      "name": "isActiveOperator",
      "outputs": [
        {
          "name": "ok",
          "type": "bool"
        }
      ],
      "payable": false,
      "stateMutability": "view",
      "type": "function"
    },
    {
      "constant": true,
      "inputs": [],
      "name": "getProofHash",
      "outputs": [
        {
          "name": "proofHash",
          "type": "bytes"
        }
      ],
      "payable": false,
      "stateMutability": "view",
      "type": "function"
    },
    {
      "constant": true,
      "inputs": [
        {
          "name": "caller",
          "type": "address"
        }
      ],
      "name": "isOperator",
      "outputs": [
        {
          "name": "ok",
          "type": "bool"
        }
      ],
      "payable": false,
      "stateMutability": "view",
      "type": "function"
    },
    {
      "constant": true,
      "inputs": [],
      "name": "getMetadata",
      "outputs": [
        {
          "name": "staticMetadata",
          "type": "bytes"
        },
        {
          "name": "variableMetadata",
          "type": "bytes"
        }
      ],
      "payable": false,
      "stateMutability": "view",
      "type": "function"
    },
    {
      "constant": true,
      "inputs": [],
      "name": "hasActiveOperator",
      "outputs": [
        {
          "name": "ok",
          "type": "bool"
        }
      ],
      "payable": false,
      "stateMutability": "view",
      "type": "function"
    },
    {
      "constant": false,
      "inputs": [
        {
          "name": "operator",
          "type": "address"
        },
        {
          "name": "proofHash",
          "type": "bytes"
        },
        {
          "name": "staticMetadata",
          "type": "bytes"
        },
        {
          "name": "variableMetadata",
          "type": "bytes"
        }
      ],
      "name": "initialize",
      "outputs": [],
      "payable": false,
      "stateMutability": "nonpayable",
      "type": "function"
    },
    {
      "constant": true,
      "inputs": [],
      "name": "getOperator",
      "outputs": [
        {
          "name": "operator",
          "type": "address"
        }
      ],
      "payable": false,
      "stateMutability": "view",
      "type": "function"
    },
    {
      "constant": true,
      "inputs": [
        {
          "name": "caller",
          "type": "address"
        }
      ],
      "name": "isCreator",
      "outputs": [
        {
          "name": "ok",
          "type": "bool"
        }
      ],
      "payable": false,
      "stateMutability": "view",
      "type": "function"
    },
    {
      "inputs": [
        {
          "name": "postContract",
          "type": "address"
        },
        {
          "name": "validInit",
          "type": "bool"
        },
        {
          "name": "operator",
          "type": "address"
        },
        {
          "name": "proofHash",
          "type": "bytes"
        },
        {
          "name": "staticMetadata",
          "type": "bytes"
        },
        {
          "name": "variableMetadata",
          "type": "bytes"
        }
      ],
      "payable": false,
      "stateMutability": "nonpayable",
      "type": "constructor"
    },
    {
      "anonymous": false,
      "inputs": [
        {
          "indexed": false,
          "name": "operator",
          "type": "address"
        },
        {
          "indexed": false,
          "name": "proofHash",
          "type": "bytes"
        },
        {
          "indexed": false,
          "name": "staticMetadata",
          "type": "bytes"
        },
        {
          "indexed": false,
          "name": "variableMetadata",
          "type": "bytes"
        }
      ],
      "name": "Created",
      "type": "event"
    },
    {
      "anonymous": false,
      "inputs": [
        {
          "indexed": false,
          "name": "staticMetadata",
          "type": "bytes"
        }
      ],
      "name": "StaticMetadataSet",
      "type": "event"
    },
    {
      "anonymous": false,
      "inputs": [
        {
          "indexed": false,
          "name": "variableMetadata",
          "type": "bytes"
        }
      ],
      "name": "VariableMetadataSet",
      "type": "event"
    },
    {
      "anonymous": false,
      "inputs": [
        {
          "indexed": false,
          "name": "operator",
          "type": "address"
        },
        {
          "indexed": false,
          "name": "status",
          "type": "bool"
        }
      ],
      "name": "OperatorUpdated",
      "type": "event"
    },
    {
      "anonymous": false,
      "inputs": [
        {
          "indexed": false,
          "name": "caller",
          "type": "address"
        },
        {
          "indexed": false,
          "name": "proofHash",
          "type": "bytes"
        }
      ],
      "name": "ProofHashSet",
      "type": "event"
    },
    {
      "constant": false,
      "inputs": [
        {
          "name": "operator",
          "type": "address"
        },
        {
          "name": "proofHash",
          "type": "bytes"
        },
        {
          "name": "staticMetadata",
          "type": "bytes"
        },
        {
          "name": "variableMetadata",
          "type": "bytes"
        }
      ],
      "name": "initializePost",
      "outputs": [],
      "payable": false,
      "stateMutability": "nonpayable",
      "type": "function"
    },
    {
      "constant": false,
      "inputs": [
        {
          "name": "proofHash",
          "type": "bytes"
        }
      ],
      "name": "setProofHash",
      "outputs": [],
      "payable": false,
      "stateMutability": "nonpayable",
      "type": "function"
    },
    {
      "constant": false,
      "inputs": [
        {
          "name": "variableMetadata",
          "type": "bytes"
        }
      ],
      "name": "setVariableMetadata",
      "outputs": [],
      "payable": false,
      "stateMutability": "nonpayable",
      "type": "function"
    },
    {
      "constant": false,
      "inputs": [],
      "name": "deactivateOperator",
      "outputs": [],
      "payable": false,
      "stateMutability": "nonpayable",
      "type": "function"
    }
  ],
  "bytecode": "0x60806040523480156200001157600080fd5b50604051620027b0380380620027b0833981018060405260c08110156200003757600080fd5b8101908080519060200190929190805190602001909291908051906020019092919080516401000000008111156200006e57600080fd5b828101905060208101848111156200008557600080fd5b8151856001820283011164010000000082111715620000a357600080fd5b50509291906020018051640100000000811115620000c057600080fd5b82810190506020810184811115620000d757600080fd5b8151856001820283011164010000000082111715620000f557600080fd5b505092919060200180516401000000008111156200011257600080fd5b828101905060208101848111156200012957600080fd5b81518560018202830111640100000000821117156200014757600080fd5b505092919050505085600660006101000a81548173ffffffffffffffffffffffffffffffffffffffff021916908373ffffffffffffffffffffffffffffffffffffffff1602179055508415620001b157620001ab84848484620001cf60201b60201c565b620001c3565b620001c2846200059560201b60201c565b5b50505050505062000808565b6060600760009054906101000a900473ffffffffffffffffffffffffffffffffffffffff1673ffffffffffffffffffffffffffffffffffffffff1663ca6a18c9905060e01b85858585604051602401808573ffffffffffffffffffffffffffffffffffffffff1673ffffffffffffffffffffffffffffffffffffffff168152602001806020018060200180602001848103845287818151815260200191508051906020019080838360005b83811015620002975780820151818401526020810190506200027a565b50505050905090810190601f168015620002c55780820380516001836020036101000a031916815260200191505b50848103835286818151815260200191508051906020019080838360005b8381101562000300578082015181840152602081019050620002e3565b50505050905090810190601f1680156200032e5780820380516001836020036101000a031916815260200191505b50848103825285818151815260200191508051906020019080838360005b83811015620003695780820151818401526020810190506200034c565b50505050905090810190601f168015620003975780820380516001836020036101000a031916815260200191505b50975050505050505050604051602081830303815290604052907bffffffffffffffffffffffffffffffffffffffffffffffffffffffff19166020820180517bffffffffffffffffffffffffffffffffffffffffffffffffffffffff8381831617835250505050905060006060600660009054906101000a900473ffffffffffffffffffffffffffffffffffffffff1673ffffffffffffffffffffffffffffffffffffffff16836040518082805190602001908083835b602083106200047357805182526020820191506020810190506020830392506200044e565b6001836020036101000a038019825116818451168082178552505050505050905001915050600060405180830381855af49150503d8060008114620004d5576040519150601f19603f3d011682016040523d82523d6000602084013e620004da565b606091505b50915091508181906200058b576040517f08c379a00000000000000000000000000000000000000000000000000000000081526004018080602001828103825283818151815260200191508051906020019080838360005b838110156200054f57808201518184015260208101905062000532565b50505050905090810190601f1680156200057d5780820380516001836020036101000a031916815260200191505b509250505060405180910390fd5b5050505050505050565b6060600760009054906101000a900473ffffffffffffffffffffffffffffffffffffffff1673ffffffffffffffffffffffffffffffffffffffff1663ca6a18c9905060e01b82604051602401808273ffffffffffffffffffffffffffffffffffffffff1673ffffffffffffffffffffffffffffffffffffffff168152602001915050604051602081830303815290604052907bffffffffffffffffffffffffffffffffffffffffffffffffffffffff19166020820180517bffffffffffffffffffffffffffffffffffffffffffffffffffffffff8381831617835250505050905060006060600660009054906101000a900473ffffffffffffffffffffffffffffffffffffffff1673ffffffffffffffffffffffffffffffffffffffff16836040518082805190602001908083835b60208310620006e95780518252602082019150602081019050602083039250620006c4565b6001836020036101000a038019825116818451168082178552505050505050905001915050600060405180830381855af49150503d80600081146200074b576040519150601f19603f3d011682016040523d82523d6000602084013e62000750565b606091505b509150915081819062000801576040517f08c379a00000000000000000000000000000000000000000000000000000000081526004018080602001828103825283818151815260200191508051906020019080838360005b83811015620007c5578082015181840152602081019050620007a8565b50505050905090810190601f168015620007f35780820380516001836020036101000a031916815260200191505b509250505060405180910390fd5b5050505050565b611f9880620008186000396000f3fe608060405234801561001057600080fd5b50600436106100cf5760003560e01c8063706be4ca1161008c578063923b176211610066578063923b1762146106d1578063ca6a18c9146106f3578063e7f43c68146108fc578063efd4606514610946576100cf565b8063706be4ca146103cf5780637a5b4f59146103d95780637b8efb88146104c8576100cf565b80630ee2cb10146100d457806327305e831461011e5780633367cca5146101d95780634ad3f2621461023557806355e03373146102f05780636d70f7ae14610373575b600080fd5b6100dc6109a2565b604051808273ffffffffffffffffffffffffffffffffffffffff1673ffffffffffffffffffffffffffffffffffffffff16815260200191505060405180910390f35b6101d76004803603602081101561013457600080fd5b810190808035906020019064010000000081111561015157600080fd5b82018360208201111561016357600080fd5b8035906020019184600183028401116401000000008311171561018557600080fd5b91908080601f016020809104026020016040519081016040528093929190818152602001838380828437600081840152601f19601f820116905080830192505050505050509192919290505050610a83565b005b61021b600480360360208110156101ef57600080fd5b81019080803573ffffffffffffffffffffffffffffffffffffffff169060200190929190505050610d27565b604051808215151515815260200191505060405180910390f35b6102ee6004803603602081101561024b57600080fd5b810190808035906020019064010000000081111561026857600080fd5b82018360208201111561027a57600080fd5b8035906020019184600183028401116401000000008311171561029c57600080fd5b91908080601f016020809104026020016040519081016040528093929190818152602001838380828437600081840152601f19601f820116905080830192505050505050509192919290505050610d49565b005b6102f8610dda565b6040518080602001828103825283818151815260200191508051906020019080838360005b8381101561033857808201518184015260208101905061031d565b50505050905090810190601f1680156103655780820380516001836020036101000a031916815260200191505b509250505060405180910390f35b6103b56004803603602081101561038957600080fd5b81019080803573ffffffffffffffffffffffffffffffffffffffff169060200190929190505050610e3a565b604051808215151515815260200191505060405180910390f35b6103d7610e79565b005b6103e1610e83565b604051808060200180602001838103835285818151815260200191508051906020019080838360005b8381101561042557808201518184015260208101905061040a565b50505050905090810190601f1680156104525780820380516001836020036101000a031916815260200191505b50838103825284818151815260200191508051906020019080838360005b8381101561048b578082015181840152602081019050610470565b50505050905090810190601f1680156104b85780820380516001836020036101000a031916815260200191505b5094505050505060405180910390f35b6106cf600480360360808110156104de57600080fd5b81019080803573ffffffffffffffffffffffffffffffffffffffff1690602001909291908035906020019064010000000081111561051b57600080fd5b82018360208201111561052d57600080fd5b8035906020019184600183028401116401000000008311171561054f57600080fd5b91908080601f016020809104026020016040519081016040528093929190818152602001838380828437600081840152601f19601f820116905080830192505050505050509192919290803590602001906401000000008111156105b257600080fd5b8201836020820111156105c457600080fd5b803590602001918460018302840111640100000000831117156105e657600080fd5b91908080601f016020809104026020016040519081016040528093929190818152602001838380828437600081840152601f19601f8201169050808301925050505050505091929192908035906020019064010000000081111561064957600080fd5b82018360208201111561065b57600080fd5b8035906020019184600183028401116401000000008311171561067d57600080fd5b91908080601f016020809104026020016040519081016040528093929190818152602001838380828437600081840152601f19601f820116905080830192505050505050509192919290505050610fc4565b005b6106d9611379565b604051808215151515815260200191505060405180910390f35b6108fa6004803603608081101561070957600080fd5b81019080803573ffffffffffffffffffffffffffffffffffffffff1690602001909291908035906020019064010000000081111561074657600080fd5b82018360208201111561075857600080fd5b8035906020019184600183028401116401000000008311171561077a57600080fd5b91908080601f016020809104026020016040519081016040528093929190818152602001838380828437600081840152601f19601f820116905080830192505050505050509192919290803590602001906401000000008111156107dd57600080fd5b8201836020820111156107ef57600080fd5b8035906020019184600183028401116401000000008311171561081157600080fd5b91908080601f016020809104026020016040519081016040528093929190818152602001838380828437600081840152601f19601f8201169050808301925050505050505091929192908035906020019064010000000081111561087457600080fd5b82018360208201111561088657600080fd5b803590602001918460018302840111640100000000831117156108a857600080fd5b91908080601f016020809104026020016040519081016040528093929190818152602001838380828437600081840152601f19601f820116905080830192505050505050509192919290505050611390565b005b610904611648565b604051808273ffffffffffffffffffffffffffffffffffffffff1673ffffffffffffffffffffffffffffffffffffffff16815260200191505060405180910390f35b6109886004803603602081101561095c57600080fd5b81019080803573ffffffffffffffffffffffffffffffffffffffff169060200190929190505050611672565b604051808215151515815260200191505060405180910390f35b6000600560009054906101000a900473ffffffffffffffffffffffffffffffffffffffff1673ffffffffffffffffffffffffffffffffffffffff16636bf71982306040518263ffffffff1660e01b8152600401808273ffffffffffffffffffffffffffffffffffffffff1673ffffffffffffffffffffffffffffffffffffffff16815260200191505060206040518083038186803b158015610a4357600080fd5b505afa158015610a57573d6000803e3d6000fd5b505050506040513d6020811015610a6d57600080fd5b8101908080519060200190929190505050905090565b6060600760009054906101000a900473ffffffffffffffffffffffffffffffffffffffff1673ffffffffffffffffffffffffffffffffffffffff166327305e83905060e01b826040516024018080602001828103825283818151815260200191508051906020019080838360005b83811015610b0c578082015181840152602081019050610af1565b50505050905090810190601f168015610b395780820380516001836020036101000a031916815260200191505b5092505050604051602081830303815290604052907bffffffffffffffffffffffffffffffffffffffffffffffffffffffff19166020820180517bffffffffffffffffffffffffffffffffffffffffffffffffffffffff8381831617835250505050905060006060600660009054906101000a900473ffffffffffffffffffffffffffffffffffffffff1673ffffffffffffffffffffffffffffffffffffffff16836040518082805190602001908083835b60208310610c0e5780518252602082019150602081019050602083039250610beb565b6001836020036101000a038019825116818451168082178552505050505050905001915050600060405180830381855af49150503d8060008114610c6e576040519150601f19603f3d011682016040523d82523d6000602084013e610c73565b606091505b5091509150818190610d20576040517f08c379a00000000000000000000000000000000000000000000000000000000081526004018080602001828103825283818151815260200191508051906020019080838360005b83811015610ce5578082015181840152602081019050610cca565b50505050905090810190601f168015610d125780820380516001836020036101000a031916815260200191505b509250505060405180910390fd5b5050505050565b6000610d3282610e3a565b8015610d425750610d41611379565b5b9050919050565b6060610d53610dda565b9050600081511415610dcd576040517f08c379a00000000000000000000000000000000000000000000000000000000081526004018080602001828103825260048152602001807f73616d650000000000000000000000000000000000000000000000000000000081525060200191505060405180910390fd5b610dd6826116b1565b5050565b6060610e356000604051806060016040529081600082015481526020016001820160009054906101000a900460ff1660ff1660ff1681526020016001820160019054906101000a900460ff1660ff1660ff16815250506117dd565b905090565b6000610e44611648565b73ffffffffffffffffffffffffffffffffffffffff168273ffffffffffffffffffffffffffffffffffffffff16149050919050565b610e8161182e565b565b60608060038054600181600116156101000203166002900480601f016020809104026020016040519081016040528092919081815260200182805460018160011615610100020316600290048015610f1c5780601f10610ef157610100808354040283529160200191610f1c565b820191906000526020600020905b815481529060010190602001808311610eff57829003601f168201915b5050505050915060048054600181600116156101000203166002900480601f016020809104026020016040519081016040528092919081815260200182805460018160011615610100020316600290048015610fb95780601f10610f8e57610100808354040283529160200191610fb9565b820191906000526020600020905b815481529060010190602001808311610f9c57829003601f168201915b505050505090509091565b6060600760009054906101000a900473ffffffffffffffffffffffffffffffffffffffff1673ffffffffffffffffffffffffffffffffffffffff1663ca6a18c9905060e01b85858585604051602401808573ffffffffffffffffffffffffffffffffffffffff1673ffffffffffffffffffffffffffffffffffffffff168152602001806020018060200180602001848103845287818151815260200191508051906020019080838360005b8381101561108a57808201518184015260208101905061106f565b50505050905090810190601f1680156110b75780820380516001836020036101000a031916815260200191505b50848103835286818151815260200191508051906020019080838360005b838110156110f05780820151818401526020810190506110d5565b50505050905090810190601f16801561111d5780820380516001836020036101000a031916815260200191505b50848103825285818151815260200191508051906020019080838360005b8381101561115657808201518184015260208101905061113b565b50505050905090810190601f1680156111835780820380516001836020036101000a031916815260200191505b50975050505050505050604051602081830303815290604052907bffffffffffffffffffffffffffffffffffffffffffffffffffffffff19166020820180517bffffffffffffffffffffffffffffffffffffffffffffffffffffffff8381831617835250505050905060006060600660009054906101000a900473ffffffffffffffffffffffffffffffffffffffff1673ffffffffffffffffffffffffffffffffffffffff16836040518082805190602001908083835b6020831061125d578051825260208201915060208101905060208303925061123a565b6001836020036101000a038019825116818451168082178552505050505050905001915050600060405180830381855af49150503d80600081146112bd576040519150601f19603f3d011682016040523d82523d6000602084013e6112c2565b606091505b509150915081819061136f576040517f08c379a00000000000000000000000000000000000000000000000000000000081526004018080602001828103825283818151815260200191508051906020019080838360005b83811015611334578082015181840152602081019050611319565b50505050905090810190601f1680156113615780820380516001836020036101000a031916815260200191505b509250505060405180910390fd5b5050505050505050565b6000600260149054906101000a900460ff16905090565b33600560006101000a81548173ffffffffffffffffffffffffffffffffffffffff021916908373ffffffffffffffffffffffffffffffffffffffff1602179055506000303b905060008163ffffffff1614611436576040517f08c379a000000000000000000000000000000000000000000000000000000000815260040180806020018281038252602a815260200180611f43602a913960400191505060405180910390fd5b61143f846116b1565b600073ffffffffffffffffffffffffffffffffffffffff168573ffffffffffffffffffffffffffffffffffffffff16146114855761147c85611957565b611484611ad5565b5b61148e83611bff565b61149782611d24565b7fbddaaf7b282a81102d0a8d60ff92a6183f68ada98c4f4362a5a1c31798c8464185858585604051808573ffffffffffffffffffffffffffffffffffffffff1673ffffffffffffffffffffffffffffffffffffffff168152602001806020018060200180602001848103845287818151815260200191508051906020019080838360005b8381101561153657808201518184015260208101905061151b565b50505050905090810190601f1680156115635780820380516001836020036101000a031916815260200191505b50848103835286818151815260200191508051906020019080838360005b8381101561159c578082015181840152602081019050611581565b50505050905090810190601f1680156115c95780820380516001836020036101000a031916815260200191505b50848103825285818151815260200191508051906020019080838360005b838110156116025780820151818401526020810190506115e7565b50505050905090810190601f16801561162f5780820380516001836020036101000a031916815260200191505b5097505050505050505060405180910390a15050505050565b6000600260009054906101000a900473ffffffffffffffffffffffffffffffffffffffff16905090565b600061167c6109a2565b73ffffffffffffffffffffffffffffffffffffffff168273ffffffffffffffffffffffffffffffffffffffff16149050919050565b6116ba81611dda565b600080820151816000015560208201518160010160006101000a81548160ff021916908360ff16021790555060408201518160010160016101000a81548160ff021916908360ff1602179055509050507f7407ed1a5db68d1f1b75b603b6a31410f20a906472eac47876a4573a5fb43f923382604051808373ffffffffffffffffffffffffffffffffffffffff1673ffffffffffffffffffffffffffffffffffffffff16815260200180602001828103825283818151815260200191508051906020019080838360005b8381101561179f578082015181840152602081019050611784565b50505050905090810190601f1680156117cc5780820380516001836020036101000a031916815260200191505b50935050505060405180910390a150565b6060816020015182604001518360000151604051602001808460ff1660ff1681526020018360ff1660ff16815260200182815260200193505050506040516020818303038152906040529050919050565b611836611379565b6118a8576040517f08c379a00000000000000000000000000000000000000000000000000000000081526004018080602001828103825260198152602001807f6f6e6c79207768656e206f70657261746f72206163746976650000000000000081525060200191505060405180910390fd5b6000600260146101000a81548160ff0219169083151502179055507f966c160e1c4dbc7df8d69af4ace01e9297c3cf016397b7914971f2fbfa32672d600260009054906101000a900473ffffffffffffffffffffffffffffffffffffffff166000604051808373ffffffffffffffffffffffffffffffffffffffff1673ffffffffffffffffffffffffffffffffffffffff168152602001821515151581526020019250505060405180910390a1565b8073ffffffffffffffffffffffffffffffffffffffff16600260009054906101000a900473ffffffffffffffffffffffffffffffffffffffff1673ffffffffffffffffffffffffffffffffffffffff161415611a1b576040517f08c379a00000000000000000000000000000000000000000000000000000000081526004018080602001828103825260188152602001807f63616e6e6f74207365742073616d65206f70657261746f72000000000000000081525060200191505060405180910390fd5b80600260006101000a81548173ffffffffffffffffffffffffffffffffffffffff021916908373ffffffffffffffffffffffffffffffffffffffff1602179055507f966c160e1c4dbc7df8d69af4ace01e9297c3cf016397b7914971f2fbfa32672d81611a86611379565b604051808373ffffffffffffffffffffffffffffffffffffffff1673ffffffffffffffffffffffffffffffffffffffff168152602001821515151581526020019250505060405180910390a150565b611add611379565b15611b50576040517f08c379a000000000000000000000000000000000000000000000000000000000815260040180806020018281038252601d8152602001807f6f6e6c79207768656e206f70657261746f72206e6f742061637469766500000081525060200191505060405180910390fd5b6001600260146101000a81548160ff0219169083151502179055507f966c160e1c4dbc7df8d69af4ace01e9297c3cf016397b7914971f2fbfa32672d600260009054906101000a900473ffffffffffffffffffffffffffffffffffffffff166001604051808373ffffffffffffffffffffffffffffffffffffffff1673ffffffffffffffffffffffffffffffffffffffff168152602001821515151581526020019250505060405180910390a1565b6000600380546001816001161561010002031660029004905014611c6e576040517f08c379a0000000000000000000000000000000000000000000000000000000008152600401808060200182810382526021815260200180611f226021913960400191505060405180910390fd5b8060039080519060200190611c84929190611e52565b507fd2bb68a4c0cbd7fabc3f8e787a6e54384db17d54dedeede61c35819f5f49edca816040518080602001828103825283818151815260200191508051906020019080838360005b83811015611ce7578082015181840152602081019050611ccc565b50505050905090810190601f168015611d145780820380516001836020036101000a031916815260200191505b509250505060405180910390a150565b8060049080519060200190611d3a929190611e52565b507fec391f097a91107044327f7588bc67ac8b9daf871413fc181f768c437c66cda9816040518080602001828103825283818151815260200191508051906020019080838360005b83811015611d9d578082015181840152602081019050611d82565b50505050905090810190601f168015611dca5780820380516001836020036101000a031916815260200191505b509250505060405180910390a150565b611de2611ed2565b6000806000848060200190516060811015611dfc57600080fd5b8101908080519060200190929190805190602001909291908051906020019092919050505092509250925060405180606001604052808281526020018460ff1681526020018360ff168152509350505050919050565b828054600181600116156101000203166002900490600052602060002090601f016020900481019282601f10611e9357805160ff1916838001178555611ec1565b82800160010185558215611ec1579182015b82811115611ec0578251825591602001919060010190611ea5565b5b509050611ece9190611efc565b5090565b604051806060016040528060008019168152602001600060ff168152602001600060ff1681525090565b611f1e91905b80821115611f1a576000816000905550600101611f02565b5090565b9056fe737461746963206d657461646174612063616e6e6f74206265206368616e6765646d7573742062652063616c6c65642077697468696e20636f6e747261637420636f6e7374727563746f72a165627a7a7230582013107be9efa5c31584a0b0130aaa1743c6aea1d5e9e4929693e76788d2e694a30029",
  "source": "pragma solidity ^0.5.0;\n\nimport \"../posts/Post.sol\";\n\ncontract TestPost is Post {\n\n    address private _postContract;\n    Post private _template;\n\n    constructor(\n        address postContract,\n        bool validInit,\n        address operator,\n        bytes memory proofHash,\n        bytes memory staticMetadata,\n        bytes memory variableMetadata\n    ) public {\n        _postContract = postContract;\n\n        if (validInit) {\n            initializePost(\n                operator,\n                proofHash,\n                staticMetadata,\n                variableMetadata\n            );\n        } else {\n            invalidInitializePost(\n                operator\n            );\n        }\n    }\n\n    function initializePost(\n        address operator,\n        bytes memory proofHash,\n        bytes memory staticMetadata,\n        bytes memory variableMetadata\n    ) public {\n        bytes memory initData = abi.encodeWithSelector(\n            _template.initialize.selector,\n            operator,\n            proofHash,\n            staticMetadata,\n            variableMetadata\n        );\n        (bool ok, bytes memory data) = _postContract.delegatecall(initData);\n        require(ok, string(data));\n    }\n\n    function setProofHash(bytes memory proofHash) public {\n        bytes memory oldProofHash = ProofHash.getProofHash();\n        require(oldProofHash.length != 0, \"same\");\n        ProofHash._setProofHash(proofHash);\n    }\n\n    // invalid initialize() call without variableMetadata in ABI encoding\n    function invalidInitializePost(\n        address operator\n    ) private {\n        bytes memory initData = abi.encodeWithSelector(\n            _template.initialize.selector,\n            operator\n            // no proofHash\n            // no staticMetadata\n            // no variableMetadata\n        );\n        (bool ok, bytes memory data) = _postContract.delegatecall(initData);\n        require(ok, string(data));\n    }\n\n    function setVariableMetadata(bytes memory variableMetadata) public {\n        bytes memory callData = abi.encodeWithSelector(\n            _template.setVariableMetadata.selector,\n            variableMetadata\n        );\n\n        (bool ok, bytes memory data) = _postContract.delegatecall(callData);\n        require(ok, string(data));\n    }\n\n    // backdoor function to deactivate Operator for testing\n    function deactivateOperator() public {\n        Operated._deactivateOperator();\n    }\n}\n",
  "sourcePath": "/Users/thegostep/github/erasure-next-contracts/contracts/test-contracts/TestPost.sol",
  "compiler": {
    "name": "solc",
    "version": "0.5.7+commit.6da8b019.Emscripten.clang",
    "optimizer": false,
    "runs": 200
  },
  "schemaVersion": "2.2.0",
  "updatedAt": "2019-08-14T21:19:56.910Z"
}