{
  "contractName": "Feed",
  "abi": [
    {
      "anonymous": false,
      "inputs": [
        {
          "indexed": false,
          "internalType": "enum TokenManager.Tokens",
          "name": "tokenID",
          "type": "uint8"
        },
        {
          "indexed": false,
          "internalType": "address",
          "name": "user",
          "type": "address"
        },
        {
          "indexed": false,
          "internalType": "uint256",
          "name": "amount",
          "type": "uint256"
        },
        {
          "indexed": false,
          "internalType": "uint256",
          "name": "newDeposit",
          "type": "uint256"
        }
      ],
      "name": "DepositDecreased",
      "type": "event"
    },
    {
      "anonymous": false,
      "inputs": [
        {
          "indexed": false,
          "internalType": "enum TokenManager.Tokens",
          "name": "tokenID",
          "type": "uint8"
        },
        {
          "indexed": false,
          "internalType": "address",
          "name": "user",
          "type": "address"
        },
        {
          "indexed": false,
          "internalType": "uint256",
          "name": "amount",
          "type": "uint256"
        },
        {
          "indexed": false,
          "internalType": "uint256",
          "name": "newDeposit",
          "type": "uint256"
        }
      ],
      "name": "DepositIncreased",
      "type": "event"
    },
    {
      "anonymous": false,
      "inputs": [
        {
          "indexed": false,
          "internalType": "bytes32",
          "name": "hash",
          "type": "bytes32"
        }
      ],
      "name": "HashSubmitted",
      "type": "event"
    },
    {
      "anonymous": false,
      "inputs": [
        {
          "indexed": false,
          "internalType": "address",
          "name": "operator",
          "type": "address"
        },
        {
          "indexed": false,
          "internalType": "bytes",
          "name": "metadata",
          "type": "bytes"
        }
      ],
      "name": "Initialized",
      "type": "event"
    },
    {
      "anonymous": false,
      "inputs": [
        {
          "indexed": false,
          "internalType": "bytes",
          "name": "metadata",
          "type": "bytes"
        }
      ],
      "name": "MetadataSet",
      "type": "event"
    },
    {
      "anonymous": false,
      "inputs": [
        {
          "indexed": false,
          "internalType": "address",
          "name": "operator",
          "type": "address"
        }
      ],
      "name": "OperatorUpdated",
      "type": "event"
    },
    {
      "anonymous": false,
      "inputs": [
        {
          "indexed": false,
          "internalType": "enum TokenManager.Tokens",
          "name": "tokenID",
          "type": "uint8"
        },
        {
          "indexed": false,
          "internalType": "address",
          "name": "staker",
          "type": "address"
        },
        {
          "indexed": false,
          "internalType": "uint256",
          "name": "amount",
          "type": "uint256"
        }
      ],
      "name": "StakeBurned",
      "type": "event"
    },
    {
      "constant": true,
      "inputs": [],
      "name": "getCreator",
      "outputs": [
        {
          "internalType": "address",
          "name": "creator",
          "type": "address"
        }
      ],
      "payable": false,
      "stateMutability": "view",
      "type": "function"
    },
    {
      "constant": true,
      "inputs": [],
      "name": "getFactory",
      "outputs": [
        {
          "internalType": "address",
          "name": "factory",
          "type": "address"
        }
      ],
      "payable": false,
      "stateMutability": "view",
      "type": "function"
    },
    {
      "constant": true,
      "inputs": [],
      "name": "getOperator",
      "outputs": [
        {
          "internalType": "address",
          "name": "operator",
          "type": "address"
        }
      ],
      "payable": false,
      "stateMutability": "view",
      "type": "function"
    },
    {
      "constant": true,
      "inputs": [
        {
          "internalType": "enum TokenManager.Tokens",
          "name": "tokenID",
          "type": "uint8"
        }
      ],
      "name": "getTokenAddress",
      "outputs": [
        {
          "internalType": "address",
          "name": "tokenAddress",
          "type": "address"
        }
      ],
      "payable": false,
      "stateMutability": "pure",
      "type": "function"
    },
    {
      "constant": false,
      "inputs": [
        {
          "internalType": "address",
          "name": "operator",
          "type": "address"
        },
        {
          "internalType": "bytes",
          "name": "metadata",
          "type": "bytes"
        }
      ],
      "name": "initialize",
      "outputs": [],
      "payable": false,
      "stateMutability": "nonpayable",
      "type": "function"
    },
    {
      "constant": false,
      "inputs": [
        {
          "internalType": "bytes32",
          "name": "proofHash",
          "type": "bytes32"
        }
      ],
      "name": "submitHash",
      "outputs": [],
      "payable": false,
      "stateMutability": "nonpayable",
      "type": "function"
    },
    {
      "constant": false,
      "inputs": [
        {
          "internalType": "enum TokenManager.Tokens",
          "name": "tokenID",
          "type": "uint8"
        },
        {
          "internalType": "uint256",
          "name": "amountToAdd",
          "type": "uint256"
        }
      ],
      "name": "depositStake",
      "outputs": [
        {
          "internalType": "uint256",
          "name": "newStake",
          "type": "uint256"
        }
      ],
      "payable": false,
      "stateMutability": "nonpayable",
      "type": "function"
    },
    {
      "constant": false,
      "inputs": [
        {
          "internalType": "enum TokenManager.Tokens",
          "name": "tokenID",
          "type": "uint8"
        },
        {
          "internalType": "uint256",
          "name": "amountToRemove",
          "type": "uint256"
        }
      ],
      "name": "withdrawStake",
      "outputs": [
        {
          "internalType": "uint256",
          "name": "newStake",
          "type": "uint256"
        }
      ],
      "payable": false,
      "stateMutability": "nonpayable",
      "type": "function"
    },
    {
      "constant": false,
      "inputs": [
        {
          "internalType": "bytes",
          "name": "metadata",
          "type": "bytes"
        }
      ],
      "name": "setMetadata",
      "outputs": [],
      "payable": false,
      "stateMutability": "nonpayable",
      "type": "function"
    },
    {
      "constant": false,
      "inputs": [
        {
          "internalType": "address",
          "name": "operator",
          "type": "address"
        }
      ],
      "name": "transferOperator",
      "outputs": [],
      "payable": false,
      "stateMutability": "nonpayable",
      "type": "function"
    },
    {
      "constant": false,
      "inputs": [],
      "name": "renounceOperator",
      "outputs": [],
      "payable": false,
      "stateMutability": "nonpayable",
      "type": "function"
    },
    {
      "constant": true,
      "inputs": [
        {
          "internalType": "enum TokenManager.Tokens",
          "name": "tokenID",
          "type": "uint8"
        }
      ],
      "name": "getStake",
      "outputs": [
        {
          "internalType": "uint256",
          "name": "stake",
          "type": "uint256"
        }
      ],
      "payable": false,
      "stateMutability": "view",
      "type": "function"
    }
  ],
  "bytecode": "0x608060405234801561001057600080fd5b50611d1a806100206000396000f3fe608060405234801561001057600080fd5b50600436106100b45760003560e01c80637bbe0db7116100715780637bbe0db71461023f57806388cc58e414610284578063c1159d5c146102ce578063d1f578941461031d578063e7f43c68146103f8578063ee57e36f14610442576100b4565b806308891a32146100b95780630b78c7b4146100e75780630ee2cb101461013657806329605e77146101805780632ab6f8db146101c45780635ad3f918146101ce575b600080fd5b6100e5600480360360208110156100cf57600080fd5b81019080803590602001909291905050506104fd565b005b610120600480360360408110156100fd57600080fd5b81019080803560ff16906020019092919080359060200190929190505050610594565b6040518082815260200191505060405180910390f35b61013e610643565b604051808273ffffffffffffffffffffffffffffffffffffffff1673ffffffffffffffffffffffffffffffffffffffff16815260200191505060405180910390f35b6101c26004803603602081101561019657600080fd5b81019080803573ffffffffffffffffffffffffffffffffffffffff169060200190929190505050610724565b005b6101cc6107ab565b005b6101fd600480360360208110156101e457600080fd5b81019080803560ff169060200190929190505050610830565b604051808273ffffffffffffffffffffffffffffffffffffffff1673ffffffffffffffffffffffffffffffffffffffff16815260200191505060405180910390f35b61026e6004803603602081101561025557600080fd5b81019080803560ff169060200190929190505050610897565b6040518082815260200191505060405180910390f35b61028c6108b1565b604051808273ffffffffffffffffffffffffffffffffffffffff1673ffffffffffffffffffffffffffffffffffffffff16815260200191505060405180910390f35b610307600480360360408110156102e457600080fd5b81019080803560ff169060200190929190803590602001909291905050506108db565b6040518082815260200191505060405180910390f35b6103f66004803603604081101561033357600080fd5b81019080803573ffffffffffffffffffffffffffffffffffffffff1690602001909291908035906020019064010000000081111561037057600080fd5b82018360208201111561038257600080fd5b803590602001918460018302840111640100000000831117156103a457600080fd5b91908080601f016020809104026020016040519081016040528093929190818152602001838380828437600081840152601f19601f820116905080830192505050505050509192919290505050610983565b005b610400610b4f565b604051808273ffffffffffffffffffffffffffffffffffffffff1673ffffffffffffffffffffffffffffffffffffffff16815260200191505060405180910390f35b6104fb6004803603602081101561045857600080fd5b810190808035906020019064010000000081111561047557600080fd5b82018360208201111561048757600080fd5b803590602001918460018302840111640100000000831117156104a957600080fd5b91908080601f016020809104026020016040519081016040528093929190818152602001838380828437600081840152601f19601f820116905080830192505050505050509192919290505050610b79565b005b61050633610c10565b80610516575061051533610c4f565b5b610588576040517f08c379a00000000000000000000000000000000000000000000000000000000081526004018080602001828103825260188152602001807f6f6e6c79206f70657261746f72206f722063726561746f72000000000000000081525060200191505060405180910390fd5b61059181610ca9565b50565b600061059f33610c10565b806105af57506105ae33610c4f565b5b610621576040517f08c379a00000000000000000000000000000000000000000000000000000000081526004018080602001828103825260188152602001807f6f6e6c79206f70657261746f72206f722063726561746f72000000000000000081525060200191505060405180910390fd5b61063b8361062d610643565b610635610643565b85610ce3565b905092915050565b6000600260009054906101000a900473ffffffffffffffffffffffffffffffffffffffff1673ffffffffffffffffffffffffffffffffffffffff16636bf71982306040518263ffffffff1660e01b8152600401808273ffffffffffffffffffffffffffffffffffffffff1673ffffffffffffffffffffffffffffffffffffffff16815260200191505060206040518083038186803b1580156106e457600080fd5b505afa1580156106f8573d6000803e3d6000fd5b505050506040513d602081101561070e57600080fd5b8101908080519060200190929190505050905090565b61072d33610c4f565b61079f576040517f08c379a000000000000000000000000000000000000000000000000000000000815260040180806020018281038252600d8152602001807f6f6e6c79206f70657261746f720000000000000000000000000000000000000081525060200191505060405180910390fd5b6107a881610d08565b50565b6107b433610c4f565b610826576040517f08c379a000000000000000000000000000000000000000000000000000000000815260040180806020018281038252600d8152602001807f6f6e6c79206f70657261746f720000000000000000000000000000000000000081525060200191505060405180910390fd5b61082e610f17565b565b600060028081111561083e57fe5b82600281111561084a57fe5b141561085f57610858611084565b9050610892565b6001600281111561086c57fe5b82600281111561087857fe5b141561088d576108866110a0565b9050610892565b600090505b919050565b60006108aa826108a5610643565b6110bc565b9050919050565b6000600260009054906101000a900473ffffffffffffffffffffffffffffffffffffffff16905090565b60006108e633610c10565b806108f657506108f533610c4f565b5b610968576040517f08c379a00000000000000000000000000000000000000000000000000000000081526004018080602001828103825260188152602001807f6f6e6c79206f70657261746f72206f722063726561746f72000000000000000081525060200191505060405180910390fd5b61097b83610974610643565b3385611121565b905092915050565b33600260006101000a81548173ffffffffffffffffffffffffffffffffffffffff021916908373ffffffffffffffffffffffffffffffffffffffff1602179055506000303b905060008163ffffffff1614610a29576040517f08c379a000000000000000000000000000000000000000000000000000000000815260040180806020018281038252602a815260200180611cbc602a913960400191505060405180910390fd5b600073ffffffffffffffffffffffffffffffffffffffff168373ffffffffffffffffffffffffffffffffffffffff1614610a6757610a6683611147565b5b6000825114610a7a57610a7982611355565b5b7f3cb5fe4064ec54325ad5ab0ee054344095de51ed278a56b0e593a75679013b8a8383604051808373ffffffffffffffffffffffffffffffffffffffff1673ffffffffffffffffffffffffffffffffffffffff16815260200180602001828103825283818151815260200191508051906020019080838360005b83811015610b0f578082015181840152602081019050610af4565b50505050905090810190601f168015610b3c5780820380516001836020036101000a031916815260200191505b50935050505060405180910390a1505050565b6000600160009054906101000a900473ffffffffffffffffffffffffffffffffffffffff16905090565b610b8233610c10565b80610b925750610b9133610c4f565b5b610c04576040517f08c379a00000000000000000000000000000000000000000000000000000000081526004018080602001828103825260188152602001807f6f6e6c79206f70657261746f72206f722063726561746f72000000000000000081525060200191505060405180910390fd5b610c0d81611355565b50565b6000610c1a610643565b73ffffffffffffffffffffffffffffffffffffffff168273ffffffffffffffffffffffffffffffffffffffff16149050919050565b6000600160009054906101000a900473ffffffffffffffffffffffffffffffffffffffff1673ffffffffffffffffffffffffffffffffffffffff168273ffffffffffffffffffffffffffffffffffffffff16149050919050565b7f2f4d8d4a9e5c5541ce76256105ce4674c5f34e1cef22baf7e97eefb648943853816040518082815260200191505060405180910390a150565b6000610cf08585846113f4565b9050610cfd8584846115d2565b809050949350505050565b600073ffffffffffffffffffffffffffffffffffffffff16600160009054906101000a900473ffffffffffffffffffffffffffffffffffffffff1673ffffffffffffffffffffffffffffffffffffffff161415610dcd576040517f08c379a00000000000000000000000000000000000000000000000000000000081526004018080602001828103825260168152602001807f6f6e6c79207768656e206f70657261746f72207365740000000000000000000081525060200191505060405180910390fd5b600073ffffffffffffffffffffffffffffffffffffffff168173ffffffffffffffffffffffffffffffffffffffff161415610e70576040517f08c379a00000000000000000000000000000000000000000000000000000000081526004018080602001828103825260208152602001807f63616e6e6f7420736574206f70657261746f7220746f2061646472657373203081525060200191505060405180910390fd5b80600160006101000a81548173ffffffffffffffffffffffffffffffffffffffff021916908373ffffffffffffffffffffffffffffffffffffffff1602179055507fb3b3f5f64ab192e4b5fefde1f51ce9733bbdcf831951543b325aebd49cc27ec481604051808273ffffffffffffffffffffffffffffffffffffffff1673ffffffffffffffffffffffffffffffffffffffff16815260200191505060405180910390a150565b600073ffffffffffffffffffffffffffffffffffffffff16600160009054906101000a900473ffffffffffffffffffffffffffffffffffffffff1673ffffffffffffffffffffffffffffffffffffffff161415610fdc576040517f08c379a00000000000000000000000000000000000000000000000000000000081526004018080602001828103825260168152602001807f6f6e6c79207768656e206f70657261746f72207365740000000000000000000081525060200191505060405180910390fd5b6000600160006101000a81548173ffffffffffffffffffffffffffffffffffffffff021916908373ffffffffffffffffffffffffffffffffffffffff1602179055507fb3b3f5f64ab192e4b5fefde1f51ce9733bbdcf831951543b325aebd49cc27ec46000604051808273ffffffffffffffffffffffffffffffffffffffff1673ffffffffffffffffffffffffffffffffffffffff16815260200191505060405180910390a1565b6000736b175474e89094c44da98b954eedeac495271d0f905090565b6000731776e1f26f98b1a5df9cd347953a26dd3cb46671905090565b60008060008460028111156110cd57fe5b815260200190815260200160002060008373ffffffffffffffffffffffffffffffffffffffff1673ffffffffffffffffffffffffffffffffffffffff16815260200190815260200160002054905092915050565b600061112e858584611790565b905061113c858430856118f3565b809050949350505050565b600073ffffffffffffffffffffffffffffffffffffffff16600160009054906101000a900473ffffffffffffffffffffffffffffffffffffffff1673ffffffffffffffffffffffffffffffffffffffff161461120b576040517f08c379a00000000000000000000000000000000000000000000000000000000081526004018080602001828103825260148152602001807f6f70657261746f7220616c72656164792073657400000000000000000000000081525060200191505060405180910390fd5b600073ffffffffffffffffffffffffffffffffffffffff168173ffffffffffffffffffffffffffffffffffffffff1614156112ae576040517f08c379a00000000000000000000000000000000000000000000000000000000081526004018080602001828103825260208152602001807f63616e6e6f7420736574206f70657261746f7220746f2061646472657373203081525060200191505060405180910390fd5b80600160006101000a81548173ffffffffffffffffffffffffffffffffffffffff021916908373ffffffffffffffffffffffffffffffffffffffff1602179055507fb3b3f5f64ab192e4b5fefde1f51ce9733bbdcf831951543b325aebd49cc27ec481604051808273ffffffffffffffffffffffffffffffffffffffff1673ffffffffffffffffffffffffffffffffffffffff16815260200191505060405180910390a150565b7fbb39ebb37e60fb5d606ffdb749d2336e56b88e6c88c4bd6513b308f643186eed816040518080602001828103825283818151815260200191508051906020019080838360005b838110156113b757808201518184015260208101905061139c565b50505050905090810190601f1680156113e45780820380516001836020036101000a031916815260200191505b509250505060405180910390a150565b60008060008086600281111561140657fe5b815260200190815260200160002060008573ffffffffffffffffffffffffffffffffffffffff1673ffffffffffffffffffffffffffffffffffffffff168152602001908152602001600020549050828110156114ca576040517f08c379a000000000000000000000000000000000000000000000000000000000815260040180806020018281038252601e8152602001807f696e73756666696369656e74206465706f73697420746f2072656d6f7665000081525060200191505060405180910390fd5b6114dd8382611ae690919063ffffffff16565b9150816000808760028111156114ef57fe5b815260200190815260200160002060008673ffffffffffffffffffffffffffffffffffffffff1673ffffffffffffffffffffffffffffffffffffffff168152602001908152602001600020819055507f9060f8ffc7acd8270abf2337023e6377669ca44d5b2a23f3513a29380940f357858585856040518085600281111561157357fe5b60ff1681526020018473ffffffffffffffffffffffffffffffffffffffff1673ffffffffffffffffffffffffffffffffffffffff16815260200183815260200182815260200194505050505060405180910390a1819150509392505050565b826115dc81611b30565b61164e576040517f08c379a000000000000000000000000000000000000000000000000000000000815260040180806020018281038252600f8152602001807f696e76616c696420746f6b656e4944000000000000000000000000000000000081525060200191505060405180910390fd5b61165784610830565b73ffffffffffffffffffffffffffffffffffffffff1663a9059cbb84846040518363ffffffff1660e01b8152600401808373ffffffffffffffffffffffffffffffffffffffff1673ffffffffffffffffffffffffffffffffffffffff16815260200182815260200192505050602060405180830381600087803b1580156116dd57600080fd5b505af11580156116f1573d6000803e3d6000fd5b505050506040513d602081101561170757600080fd5b810190808051906020019092919050505061178a576040517f08c379a00000000000000000000000000000000000000000000000000000000081526004018080602001828103825260158152602001807f746f6b656e207472616e73666572206661696c6564000000000000000000000081525060200191505060405180910390fd5b50505050565b60006117ff826000808760028111156117a557fe5b815260200190815260200160002060008673ffffffffffffffffffffffffffffffffffffffff1673ffffffffffffffffffffffffffffffffffffffff16815260200190815260200160002054611b7390919063ffffffff16565b90508060008086600281111561181157fe5b815260200190815260200160002060008573ffffffffffffffffffffffffffffffffffffffff1673ffffffffffffffffffffffffffffffffffffffff168152602001908152602001600020819055507ffe2caf3897ec3e02a1d458d232d7c62c17809d25dbfe65864ce842162d6c217c848484846040518085600281111561189557fe5b60ff1681526020018473ffffffffffffffffffffffffffffffffffffffff1673ffffffffffffffffffffffffffffffffffffffff16815260200183815260200182815260200194505050505060405180910390a18090509392505050565b836118fd81611b30565b61196f576040517f08c379a000000000000000000000000000000000000000000000000000000000815260040180806020018281038252600f8152602001807f696e76616c696420746f6b656e4944000000000000000000000000000000000081525060200191505060405180910390fd5b61197885610830565b73ffffffffffffffffffffffffffffffffffffffff166323b872dd8585856040518463ffffffff1660e01b8152600401808473ffffffffffffffffffffffffffffffffffffffff1673ffffffffffffffffffffffffffffffffffffffff1681526020018373ffffffffffffffffffffffffffffffffffffffff1673ffffffffffffffffffffffffffffffffffffffff1681526020018281526020019350505050602060405180830381600087803b158015611a3257600080fd5b505af1158015611a46573d6000803e3d6000fd5b505050506040513d6020811015611a5c57600080fd5b8101908080519060200190929190505050611adf576040517f08c379a00000000000000000000000000000000000000000000000000000000081526004018080602001828103825260158152602001807f746f6b656e207472616e73666572206661696c6564000000000000000000000081525060200191505060405180910390fd5b5050505050565b6000611b2883836040518060400160405280601e81526020017f536166654d6174683a207375627472616374696f6e206f766572666c6f770000815250611bfb565b905092915050565b600060016002811115611b3f57fe5b826002811115611b4b57fe5b1480611b6c5750600280811115611b5e57fe5b826002811115611b6a57fe5b145b9050919050565b600080828401905083811015611bf1576040517f08c379a000000000000000000000000000000000000000000000000000000000815260040180806020018281038252601b8152602001807f536166654d6174683a206164646974696f6e206f766572666c6f77000000000081525060200191505060405180910390fd5b8091505092915050565b6000838311158290611ca8576040517f08c379a00000000000000000000000000000000000000000000000000000000081526004018080602001828103825283818151815260200191508051906020019080838360005b83811015611c6d578082015181840152602081019050611c52565b50505050905090810190601f168015611c9a5780820380516001836020036101000a031916815260200191505b509250505060405180910390fd5b506000838503905080915050939250505056fe6d7573742062652063616c6c65642077697468696e20636f6e747261637420636f6e7374727563746f72a265627a7a723158200e637c575b8814b4694ca0f232ed1c4d87c1a3f829cb0e2abdbb800642af123364736f6c634300050d0032",
  "source": "pragma solidity ^0.5.13;\n\nimport \"../modules/EventMetadata.sol\";\nimport \"../modules/Operated.sol\";\nimport \"../modules/Template.sol\";\nimport \"../modules/Staking.sol\";\nimport \"../modules/ProofHashes.sol\";\n\n\n/// @title Feed\n/// @author Stephane Gosselin (@thegostep) for Numerai Inc\n/// @dev Security contact: security@numer.ai\n/// @dev Version: 1.3.0\n/// @notice A Feed allows for the creator to build a track record of timestamped submissions and deposit a stake to signal legitimacy.\ncontract Feed is Staking, ProofHashes, Operated, EventMetadata, Template {\n\n    event Initialized(address operator, bytes metadata);\n\n    /// @notice Constructor\n    /// @dev Access Control: only factory\n    ///      State Machine: before all\n    /// @param operator Address of the operator that overrides access control\n    /// @param metadata Data (any format) to emit as event on initialization\n    function initialize(\n        address operator,\n        bytes memory metadata\n    ) public initializeTemplate() {\n        // set operator\n        if (operator != address(0)) {\n            Operated._setOperator(operator);\n        }\n\n        // set metadata\n        if (metadata.length != 0) {\n            EventMetadata._setMetadata(metadata);\n        }\n\n        // log initialization params\n        emit Initialized(operator, metadata);\n    }\n\n    // state functions\n\n    /// @notice Submit proofhash to add to feed\n    /// @dev Access Control: creator OR operator\n    ///      State Machine: anytime\n    /// @param proofHash Proofhash (bytes32) sha256 hash of timestampled data\n    function submitHash(bytes32 proofHash) public {\n        // only operator or creator\n        require(Template.isCreator(msg.sender) || Operated.isOperator(msg.sender), \"only operator or creator\");\n\n        // submit proofHash\n        ProofHashes._submitHash(proofHash);\n    }\n\n    /// @notice Deposit one of the supported ERC20 token.\n    ///         - This deposit can be withdrawn at any time by the owner of the feed.\n    ///         - This requires the caller to do ERC20 approval for this contract for `amountToAdd`.\n    /// @dev Access Control: creator OR operator\n    ///      State Machine: anytime\n    /// @param tokenID TokenManager.Tokens id of the ERC20 token.\n    /// @param amountToAdd uint256 amount of ERC20 tokens (18 decimals) to add.\n    function depositStake(TokenManager.Tokens tokenID, uint256 amountToAdd) public returns (uint256 newStake) {\n        // only operator or creator\n        require(Template.isCreator(msg.sender) || Operated.isOperator(msg.sender), \"only operator or creator\");\n\n        // transfer and add tokens to stake\n        return Staking._addStake(tokenID, Template.getCreator(), msg.sender, amountToAdd);\n    }\n\n    /// @notice Withdraw one of the supported ERC20 token.\n    /// @dev Access Control: creator OR operator\n    ///      State Machine: anytime\n    /// @param tokenID TokenManager.Tokens id of the ERC20 token.\n    /// @param amountToRemove uint256 amount of ERC20 tokens (18 decimals) to add.\n    function withdrawStake(TokenManager.Tokens tokenID, uint256 amountToRemove) public returns (uint256 newStake) {\n        // only operator or creator\n        require(Template.isCreator(msg.sender) || Operated.isOperator(msg.sender), \"only operator or creator\");\n\n        // transfer and remove tokens from stake\n        return Staking._takeStake(tokenID, Template.getCreator(), Template.getCreator(), amountToRemove);\n    }\n\n    /// @notice Emit metadata event\n    /// @dev Access Control: creator OR operator\n    ///      State Machine: anytime\n    /// @param metadata Data (any format) to emit as event\n    function setMetadata(bytes memory metadata) public {\n        // only operator or creator\n        require(Template.isCreator(msg.sender) || Operated.isOperator(msg.sender), \"only operator or creator\");\n\n        // set metadata\n        EventMetadata._setMetadata(metadata);\n    }\n\n    /// @notice Called by the operator to transfer control to new operator\n    /// @dev Access Control: operator\n    ///      State Machine: anytime\n    /// @param operator Address of the new operator\n    function transferOperator(address operator) public {\n        // restrict access\n        require(Operated.isOperator(msg.sender), \"only operator\");\n\n        // transfer operator\n        Operated._transferOperator(operator);\n    }\n\n    /// @notice Called by the operator to renounce control\n    /// @dev Access Control: operator\n    ///      State Machine: anytime\n    function renounceOperator() public {\n        // restrict access\n        require(Operated.isOperator(msg.sender), \"only operator\");\n\n        // renounce operator\n        Operated._renounceOperator();\n    }\n\n    /// @notice Get the current stake for a given ERC20 token.\n    /// @dev Access Control: creator OR operator\n    ///      State Machine: anytime\n    /// @param tokenID TokenManager.Tokens id of the ERC20 token.\n    function getStake(TokenManager.Tokens tokenID) public view returns (uint256 stake) {\n        return Deposit.getDeposit(tokenID, Template.getCreator());\n    }\n\n}\n"
}