{
	"schemaVersion": "2.0.0",
	"contractName": "Countdown",
	"compilerOutput": {
		"abi": [
			{
				"constant": true,
				"inputs": [],
				"name": "getDeadline",
				"outputs": [
					{
						"internalType": "uint256",
						"name": "deadline",
						"type": "uint256"
					}
				],
				"payable": false,
				"stateMutability": "view",
				"type": "function"
			},
			{
				"constant": true,
				"inputs": [],
				"name": "isAfterDeadline",
				"outputs": [
					{
						"internalType": "bool",
						"name": "status",
						"type": "bool"
					}
				],
				"payable": false,
				"stateMutability": "view",
				"type": "function"
			},
			{
				"constant": true,
				"inputs": [],
				"name": "isOver",
				"outputs": [
					{
						"internalType": "bool",
						"name": "status",
						"type": "bool"
					}
				],
				"payable": false,
				"stateMutability": "view",
				"type": "function"
			},
			{
				"constant": true,
				"inputs": [],
				"name": "getLength",
				"outputs": [
					{
						"internalType": "uint256",
						"name": "length",
						"type": "uint256"
					}
				],
				"payable": false,
				"stateMutability": "view",
				"type": "function"
			},
			{
				"constant": true,
				"inputs": [],
				"name": "timeRemaining",
				"outputs": [
					{
						"internalType": "uint256",
						"name": "time",
						"type": "uint256"
					}
				],
				"payable": false,
				"stateMutability": "view",
				"type": "function"
			},
			{
				"anonymous": false,
				"inputs": [
					{
						"indexed": false,
						"internalType": "uint256",
						"name": "length",
						"type": "uint256"
					}
				],
				"name": "LengthSet",
				"type": "event"
			},
			{
				"anonymous": false,
				"inputs": [
					{
						"indexed": false,
						"internalType": "uint256",
						"name": "deadline",
						"type": "uint256"
					}
				],
				"name": "DeadlineSet",
				"type": "event"
			}
		],
		"evm": {
			"bytecode": {
				"linkReferences": {},
				"object": "0x608060405234801561001057600080fd5b506101e0806100206000396000f3fe608060405234801561001057600080fd5b50600436106100675760003560e01c8063b4bd9e2711610050578063b4bd9e27146100a2578063be1c766b146100aa578063e3cfef60146100b257610067565b80635f8d96de1461006c5780637878f25714610086575b600080fd5b6100746100ba565b60408051918252519081900360200190f35b61008e6100c0565b604080519115158252519081900360200190f35b61008e6100db565b6100746100fe565b610074610104565b60005490565b600080546100d0575060006100d8565b506000544210155b90565b60006100e56100ba565b6100f1575060006100d8565b6100f96100c0565b905090565b60015490565b600061010e6100ba565b421061011c575060006100d8565b6100f9426101286100ba565b9063ffffffff61013416565b6000828211156101a557604080517f08c379a000000000000000000000000000000000000000000000000000000000815260206004820152601e60248201527f536166654d6174683a207375627472616374696f6e206f766572666c6f770000604482015290519081900360640190fd5b5090039056fea265627a7a723158201fae5ef83af3380bde373220761efec5294e4d9a08457d7d0b2836384c4c22a864736f6c634300050b0032",
				"opcodes": "PUSH1 0x80 PUSH1 0x40 MSTORE CALLVALUE DUP1 ISZERO PUSH2 0x10 JUMPI PUSH1 0x0 DUP1 REVERT JUMPDEST POP PUSH2 0x1E0 DUP1 PUSH2 0x20 PUSH1 0x0 CODECOPY PUSH1 0x0 RETURN INVALID PUSH1 0x80 PUSH1 0x40 MSTORE CALLVALUE DUP1 ISZERO PUSH2 0x10 JUMPI PUSH1 0x0 DUP1 REVERT JUMPDEST POP PUSH1 0x4 CALLDATASIZE LT PUSH2 0x67 JUMPI PUSH1 0x0 CALLDATALOAD PUSH1 0xE0 SHR DUP1 PUSH4 0xB4BD9E27 GT PUSH2 0x50 JUMPI DUP1 PUSH4 0xB4BD9E27 EQ PUSH2 0xA2 JUMPI DUP1 PUSH4 0xBE1C766B EQ PUSH2 0xAA JUMPI DUP1 PUSH4 0xE3CFEF60 EQ PUSH2 0xB2 JUMPI PUSH2 0x67 JUMP JUMPDEST DUP1 PUSH4 0x5F8D96DE EQ PUSH2 0x6C JUMPI DUP1 PUSH4 0x7878F257 EQ PUSH2 0x86 JUMPI JUMPDEST PUSH1 0x0 DUP1 REVERT JUMPDEST PUSH2 0x74 PUSH2 0xBA JUMP JUMPDEST PUSH1 0x40 DUP1 MLOAD SWAP2 DUP3 MSTORE MLOAD SWAP1 DUP2 SWAP1 SUB PUSH1 0x20 ADD SWAP1 RETURN JUMPDEST PUSH2 0x8E PUSH2 0xC0 JUMP JUMPDEST PUSH1 0x40 DUP1 MLOAD SWAP2 ISZERO ISZERO DUP3 MSTORE MLOAD SWAP1 DUP2 SWAP1 SUB PUSH1 0x20 ADD SWAP1 RETURN JUMPDEST PUSH2 0x8E PUSH2 0xDB JUMP JUMPDEST PUSH2 0x74 PUSH2 0xFE JUMP JUMPDEST PUSH2 0x74 PUSH2 0x104 JUMP JUMPDEST PUSH1 0x0 SLOAD SWAP1 JUMP JUMPDEST PUSH1 0x0 DUP1 SLOAD PUSH2 0xD0 JUMPI POP PUSH1 0x0 PUSH2 0xD8 JUMP JUMPDEST POP PUSH1 0x0 SLOAD TIMESTAMP LT ISZERO JUMPDEST SWAP1 JUMP JUMPDEST PUSH1 0x0 PUSH2 0xE5 PUSH2 0xBA JUMP JUMPDEST PUSH2 0xF1 JUMPI POP PUSH1 0x0 PUSH2 0xD8 JUMP JUMPDEST PUSH2 0xF9 PUSH2 0xC0 JUMP JUMPDEST SWAP1 POP SWAP1 JUMP JUMPDEST PUSH1 0x1 SLOAD SWAP1 JUMP JUMPDEST PUSH1 0x0 PUSH2 0x10E PUSH2 0xBA JUMP JUMPDEST TIMESTAMP LT PUSH2 0x11C JUMPI POP PUSH1 0x0 PUSH2 0xD8 JUMP JUMPDEST PUSH2 0xF9 TIMESTAMP PUSH2 0x128 PUSH2 0xBA JUMP JUMPDEST SWAP1 PUSH4 0xFFFFFFFF PUSH2 0x134 AND JUMP JUMPDEST PUSH1 0x0 DUP3 DUP3 GT ISZERO PUSH2 0x1A5 JUMPI PUSH1 0x40 DUP1 MLOAD PUSH32 0x8C379A000000000000000000000000000000000000000000000000000000000 DUP2 MSTORE PUSH1 0x20 PUSH1 0x4 DUP3 ADD MSTORE PUSH1 0x1E PUSH1 0x24 DUP3 ADD MSTORE PUSH32 0x536166654D6174683A207375627472616374696F6E206F766572666C6F770000 PUSH1 0x44 DUP3 ADD MSTORE SWAP1 MLOAD SWAP1 DUP2 SWAP1 SUB PUSH1 0x64 ADD SWAP1 REVERT JUMPDEST POP SWAP1 SUB SWAP1 JUMP INVALID LOG2 PUSH6 0x627A7A723158 KECCAK256 0x1f 0xae 0x5e 0xf8 GASPRICE RETURN CODESIZE SIGNEXTEND 0xde CALLDATACOPY ORIGIN KECCAK256 PUSH23 0x1EFEC5294E4D9A08457D7D0B2836384C4C22A864736F6C PUSH4 0x4300050B STOP ORIGIN "
			}
		}
	},
	"sourceTreeHashHex": "0x255c33aa7d6b75eb4674eef8e8483fdb5fd4f1fa280d93a9d5136050e3f760c2",
	"compiler": {
		"name": "solc",
		"version": "soljson-v0.5.11+commit.c082d0b4.js",
		"settings": {
			"optimizer": {
				"enabled": true,
				"runs": 999999999
			},
			"outputSelection": {
				"*": {
					"*": [
						"abi",
						"evm.bytecode.object"
					]
				}
			},
			"evmVersion": "constantinople",
			"remappings": []
		}
	}
}