{
	"schemaVersion": "2.0.0",
	"contractName": "SimpleGriefing",
	"compilerOutput": {
		"abi": [
			{
				"constant": true,
				"inputs": [],
				"name": "getCreator",
				"outputs": [
					{
						"internalType": "address",
						"name": "creator",
						"type": "address"
					}
				],
				"payable": false,
				"stateMutability": "view",
				"type": "function"
			},
			{
				"constant": false,
				"inputs": [
					{
						"internalType": "uint256",
						"name": "currentStake",
						"type": "uint256"
					},
					{
						"internalType": "uint256",
						"name": "punishment",
						"type": "uint256"
					},
					{
						"internalType": "bytes",
						"name": "message",
						"type": "bytes"
					}
				],
				"name": "punish",
				"outputs": [
					{
						"internalType": "uint256",
						"name": "cost",
						"type": "uint256"
					}
				],
				"payable": false,
				"stateMutability": "nonpayable",
				"type": "function"
			},
			{
				"constant": true,
				"inputs": [],
				"name": "getToken",
				"outputs": [
					{
						"internalType": "address",
						"name": "token",
						"type": "address"
					}
				],
				"payable": false,
				"stateMutability": "pure",
				"type": "function"
			},
			{
				"constant": false,
				"inputs": [
					{
						"internalType": "address",
						"name": "operator",
						"type": "address"
					}
				],
				"name": "transferOperator",
				"outputs": [],
				"payable": false,
				"stateMutability": "nonpayable",
				"type": "function"
			},
			{
				"constant": false,
				"inputs": [],
				"name": "renounceOperator",
				"outputs": [],
				"payable": false,
				"stateMutability": "nonpayable",
				"type": "function"
			},
			{
				"constant": true,
				"inputs": [
					{
						"internalType": "address",
						"name": "caller",
						"type": "address"
					}
				],
				"name": "isActiveOperator",
				"outputs": [
					{
						"internalType": "bool",
						"name": "ok",
						"type": "bool"
					}
				],
				"payable": false,
				"stateMutability": "view",
				"type": "function"
			},
			{
				"constant": false,
				"inputs": [
					{
						"internalType": "address",
						"name": "operator",
						"type": "address"
					},
					{
						"internalType": "address",
						"name": "staker",
						"type": "address"
					},
					{
						"internalType": "address",
						"name": "counterparty",
						"type": "address"
					},
					{
						"internalType": "uint256",
						"name": "ratio",
						"type": "uint256"
					},
					{
						"internalType": "enum Griefing.RatioType",
						"name": "ratioType",
						"type": "uint8"
					},
					{
						"internalType": "bytes",
						"name": "metadata",
						"type": "bytes"
					}
				],
				"name": "initialize",
				"outputs": [],
				"payable": false,
				"stateMutability": "nonpayable",
				"type": "function"
			},
			{
				"constant": true,
				"inputs": [
					{
						"internalType": "uint256",
						"name": "ratio",
						"type": "uint256"
					},
					{
						"internalType": "uint256",
						"name": "punishment",
						"type": "uint256"
					},
					{
						"internalType": "enum Griefing.RatioType",
						"name": "ratioType",
						"type": "uint8"
					}
				],
				"name": "getCost",
				"outputs": [
					{
						"internalType": "uint256",
						"name": "cost",
						"type": "uint256"
					}
				],
				"payable": false,
				"stateMutability": "pure",
				"type": "function"
			},
			{
				"constant": false,
				"inputs": [
					{
						"internalType": "uint256",
						"name": "currentStake",
						"type": "uint256"
					},
					{
						"internalType": "uint256",
						"name": "amountToRelease",
						"type": "uint256"
					}
				],
				"name": "releaseStake",
				"outputs": [],
				"payable": false,
				"stateMutability": "nonpayable",
				"type": "function"
			},
			{
				"constant": true,
				"inputs": [
					{
						"internalType": "uint256",
						"name": "ratio",
						"type": "uint256"
					},
					{
						"internalType": "uint256",
						"name": "cost",
						"type": "uint256"
					},
					{
						"internalType": "enum Griefing.RatioType",
						"name": "ratioType",
						"type": "uint8"
					}
				],
				"name": "getPunishment",
				"outputs": [
					{
						"internalType": "uint256",
						"name": "punishment",
						"type": "uint256"
					}
				],
				"payable": false,
				"stateMutability": "pure",
				"type": "function"
			},
			{
				"constant": true,
				"inputs": [
					{
						"internalType": "address",
						"name": "caller",
						"type": "address"
					}
				],
				"name": "isOperator",
				"outputs": [
					{
						"internalType": "bool",
						"name": "ok",
						"type": "bool"
					}
				],
				"payable": false,
				"stateMutability": "view",
				"type": "function"
			},
			{
				"constant": true,
				"inputs": [
					{
						"internalType": "address",
						"name": "caller",
						"type": "address"
					}
				],
				"name": "isStaker",
				"outputs": [
					{
						"internalType": "bool",
						"name": "validity",
						"type": "bool"
					}
				],
				"payable": false,
				"stateMutability": "view",
				"type": "function"
			},
			{
				"constant": true,
				"inputs": [
					{
						"internalType": "address",
						"name": "caller",
						"type": "address"
					}
				],
				"name": "isCounterparty",
				"outputs": [
					{
						"internalType": "bool",
						"name": "validity",
						"type": "bool"
					}
				],
				"payable": false,
				"stateMutability": "view",
				"type": "function"
			},
			{
				"constant": true,
				"inputs": [
					{
						"internalType": "address",
						"name": "staker",
						"type": "address"
					}
				],
				"name": "getRatio",
				"outputs": [
					{
						"internalType": "uint256",
						"name": "ratio",
						"type": "uint256"
					},
					{
						"internalType": "enum Griefing.RatioType",
						"name": "ratioType",
						"type": "uint8"
					}
				],
				"payable": false,
				"stateMutability": "view",
				"type": "function"
			},
			{
				"constant": true,
				"inputs": [
					{
						"internalType": "address",
						"name": "staker",
						"type": "address"
					}
				],
				"name": "getStake",
				"outputs": [
					{
						"internalType": "uint256",
						"name": "stake",
						"type": "uint256"
					}
				],
				"payable": false,
				"stateMutability": "view",
				"type": "function"
			},
			{
				"constant": true,
				"inputs": [],
				"name": "getFactory",
				"outputs": [
					{
						"internalType": "address",
						"name": "factory",
						"type": "address"
					}
				],
				"payable": false,
				"stateMutability": "view",
				"type": "function"
			},
			{
				"constant": true,
				"inputs": [],
				"name": "hasActiveOperator",
				"outputs": [
					{
						"internalType": "bool",
						"name": "ok",
						"type": "bool"
					}
				],
				"payable": false,
				"stateMutability": "view",
				"type": "function"
			},
			{
				"constant": false,
				"inputs": [
					{
						"internalType": "uint256",
						"name": "currentStake",
						"type": "uint256"
					},
					{
						"internalType": "uint256",
						"name": "amountToAdd",
						"type": "uint256"
					}
				],
				"name": "reward",
				"outputs": [],
				"payable": false,
				"stateMutability": "nonpayable",
				"type": "function"
			},
			{
				"constant": false,
				"inputs": [
					{
						"internalType": "uint256",
						"name": "currentStake",
						"type": "uint256"
					},
					{
						"internalType": "uint256",
						"name": "amountToAdd",
						"type": "uint256"
					}
				],
				"name": "increaseStake",
				"outputs": [],
				"payable": false,
				"stateMutability": "nonpayable",
				"type": "function"
			},
			{
				"constant": true,
				"inputs": [],
				"name": "getOperator",
				"outputs": [
					{
						"internalType": "address",
						"name": "operator",
						"type": "address"
					}
				],
				"payable": false,
				"stateMutability": "view",
				"type": "function"
			},
			{
				"constant": false,
				"inputs": [
					{
						"internalType": "bytes",
						"name": "metadata",
						"type": "bytes"
					}
				],
				"name": "setMetadata",
				"outputs": [],
				"payable": false,
				"stateMutability": "nonpayable",
				"type": "function"
			},
			{
				"constant": true,
				"inputs": [
					{
						"internalType": "address",
						"name": "caller",
						"type": "address"
					}
				],
				"name": "isCreator",
				"outputs": [
					{
						"internalType": "bool",
						"name": "ok",
						"type": "bool"
					}
				],
				"payable": false,
				"stateMutability": "view",
				"type": "function"
			},
			{
				"anonymous": false,
				"inputs": [
					{
						"indexed": false,
						"internalType": "address",
						"name": "operator",
						"type": "address"
					},
					{
						"indexed": false,
						"internalType": "address",
						"name": "staker",
						"type": "address"
					},
					{
						"indexed": false,
						"internalType": "address",
						"name": "counterparty",
						"type": "address"
					},
					{
						"indexed": false,
						"internalType": "uint256",
						"name": "ratio",
						"type": "uint256"
					},
					{
						"indexed": false,
						"internalType": "enum Griefing.RatioType",
						"name": "ratioType",
						"type": "uint8"
					},
					{
						"indexed": false,
						"internalType": "bytes",
						"name": "metadata",
						"type": "bytes"
					}
				],
				"name": "Initialized",
				"type": "event"
			},
			{
				"anonymous": false,
				"inputs": [
					{
						"indexed": false,
						"internalType": "address",
						"name": "operator",
						"type": "address"
					},
					{
						"indexed": false,
						"internalType": "bool",
						"name": "status",
						"type": "bool"
					}
				],
				"name": "OperatorUpdated",
				"type": "event"
			},
			{
				"anonymous": false,
				"inputs": [
					{
						"indexed": false,
						"internalType": "bytes",
						"name": "metadata",
						"type": "bytes"
					}
				],
				"name": "MetadataSet",
				"type": "event"
			},
			{
				"anonymous": false,
				"inputs": [
					{
						"indexed": false,
						"internalType": "address",
						"name": "staker",
						"type": "address"
					},
					{
						"indexed": false,
						"internalType": "uint256",
						"name": "ratio",
						"type": "uint256"
					},
					{
						"indexed": false,
						"internalType": "enum Griefing.RatioType",
						"name": "ratioType",
						"type": "uint8"
					}
				],
				"name": "RatioSet",
				"type": "event"
			},
			{
				"anonymous": false,
				"inputs": [
					{
						"indexed": false,
						"internalType": "address",
						"name": "punisher",
						"type": "address"
					},
					{
						"indexed": false,
						"internalType": "address",
						"name": "staker",
						"type": "address"
					},
					{
						"indexed": false,
						"internalType": "uint256",
						"name": "punishment",
						"type": "uint256"
					},
					{
						"indexed": false,
						"internalType": "uint256",
						"name": "cost",
						"type": "uint256"
					},
					{
						"indexed": false,
						"internalType": "bytes",
						"name": "message",
						"type": "bytes"
					}
				],
				"name": "Griefed",
				"type": "event"
			},
			{
				"anonymous": false,
				"inputs": [
					{
						"indexed": false,
						"internalType": "address",
						"name": "staker",
						"type": "address"
					},
					{
						"indexed": false,
						"internalType": "address",
						"name": "funder",
						"type": "address"
					},
					{
						"indexed": false,
						"internalType": "uint256",
						"name": "amount",
						"type": "uint256"
					},
					{
						"indexed": false,
						"internalType": "uint256",
						"name": "newStake",
						"type": "uint256"
					}
				],
				"name": "StakeAdded",
				"type": "event"
			},
			{
				"anonymous": false,
				"inputs": [
					{
						"indexed": false,
						"internalType": "address",
						"name": "staker",
						"type": "address"
					},
					{
						"indexed": false,
						"internalType": "address",
						"name": "recipient",
						"type": "address"
					},
					{
						"indexed": false,
						"internalType": "uint256",
						"name": "amount",
						"type": "uint256"
					},
					{
						"indexed": false,
						"internalType": "uint256",
						"name": "newStake",
						"type": "uint256"
					}
				],
				"name": "StakeTaken",
				"type": "event"
			},
			{
				"anonymous": false,
				"inputs": [
					{
						"indexed": false,
						"internalType": "address",
						"name": "staker",
						"type": "address"
					},
					{
						"indexed": false,
						"internalType": "uint256",
						"name": "amount",
						"type": "uint256"
					},
					{
						"indexed": false,
						"internalType": "uint256",
						"name": "newStake",
						"type": "uint256"
					}
				],
				"name": "StakeBurned",
				"type": "event"
			}
		],
		"evm": {
			"bytecode": {
				"linkReferences": {},
				"object": "0x608060405234801561001057600080fd5b5061258c806100206000396000f3fe608060405234801561001057600080fd5b50600436106101825760003560e01c80636f1e8533116100d8578063923b17621161008c578063e7f43c6811610066578063e7f43c68146105e6578063ee57e36f146105ee578063efd460651461069457610182565b8063923b176214610598578063a4fa8d57146105a0578063bec10cde146105c357610182565b8063754b2707116100bd578063754b2707146104ff5780637a7664601461055d57806388cc58e41461059057610182565b80636f1e85331461049957806373f500af146104cc57610182565b80633367cca51161013a5780634a66db95116101145780634a66db95146104175780635baeb8061461043a5780636d70f7ae1461046657610182565b80633367cca5146102c15780633d806d6714610308578063465b414e146103eb57610182565b806321df0da71161016b57806321df0da71461027c57806329605e77146102845780632ab6f8db146102b957610182565b80630ee2cb10146101875780630fc15f20146101b8575b600080fd5b61018f6106c7565b6040805173ffffffffffffffffffffffffffffffffffffffff9092168252519081900360200190f35b61026a600480360360608110156101ce57600080fd5b8135916020810135918101906060810160408201356401000000008111156101f557600080fd5b82018360208201111561020757600080fd5b8035906020019184600183028401116401000000008311171561022957600080fd5b91908080601f016020809104026020016040519081016040528093929190818152602001838380828437600092019190915250929550610769945050505050565b60408051918252519081900360200190f35b61018f610807565b6102b76004803603602081101561029a57600080fd5b503573ffffffffffffffffffffffffffffffffffffffff1661081f565b005b6102b761089f565b6102f4600480360360208110156102d757600080fd5b503573ffffffffffffffffffffffffffffffffffffffff1661091d565b604080519115158252519081900360200190f35b6102b7600480360360c081101561031e57600080fd5b73ffffffffffffffffffffffffffffffffffffffff8235811692602081013582169260408201359092169160608201359160ff6080820135169181019060c0810160a082013564010000000081111561037657600080fd5b82018360208201111561038857600080fd5b803590602001918460018302840111640100000000831117156103aa57600080fd5b91908080601f01602080910402602001604051908101604052809392919081815260200183838082843760009201919091525092955061093d945050505050565b61026a6004803603606081101561040157600080fd5b508035906020810135906040013560ff16610ba8565b6102b76004803603604081101561042d57600080fd5b5080359060200135610c71565b61026a6004803603606081101561045057600080fd5b508035906020810135906040013560ff16610d07565b6102f46004803603602081101561047c57600080fd5b503573ffffffffffffffffffffffffffffffffffffffff16610d9e565b6102f4600480360360208110156104af57600080fd5b503573ffffffffffffffffffffffffffffffffffffffff16610ddd565b6102f4600480360360208110156104e257600080fd5b503573ffffffffffffffffffffffffffffffffffffffff16610dfe565b6105326004803603602081101561051557600080fd5b503573ffffffffffffffffffffffffffffffffffffffff16610e1f565b6040518083815260200182600281111561054857fe5b60ff1681526020019250505060405180910390f35b61026a6004803603602081101561057357600080fd5b503573ffffffffffffffffffffffffffffffffffffffff16610e55565b61018f610e7d565b6102f4610e99565b6102b7600480360360408110156105b657600080fd5b5080359060200135610eba565b6102b7600480360360408110156105d957600080fd5b5080359060200135610f4c565b61018f610fcf565b6102b76004803603602081101561060457600080fd5b81019060208101813564010000000081111561061f57600080fd5b82018360208201111561063157600080fd5b8035906020019184600183028401116401000000008311171561065357600080fd5b91908080601f016020809104026020016040519081016040528093929190818152602001838380828437600092019190915250929550610feb945050505050565b6102f4600480360360208110156106aa57600080fd5b503573ffffffffffffffffffffffffffffffffffffffff16611077565b600354604080517f6bf71982000000000000000000000000000000000000000000000000000000008152306004820152905160009273ffffffffffffffffffffffffffffffffffffffff1691636bf71982916024808301926020929190829003018186803b15801561073857600080fd5b505afa15801561074c573d6000803e3d6000fd5b505050506040513d602081101561076257600080fd5b5051919050565b600061077433610dfe565b8061078357506107833361091d565b6107d8576040517f08c379a000000000000000000000000000000000000000000000000000000000815260040180806020018281038252602481526020018061247a6024913960400191505060405180910390fd5b6004546107ff90339073ffffffffffffffffffffffffffffffffffffffff16868686611081565b949350505050565b731776e1f26f98b1a5df9cd347953a26dd3cb4667190565b6108283361091d565b61089357604080517f08c379a000000000000000000000000000000000000000000000000000000000815260206004820152601460248201527f6f6e6c7920616374697665206f70657261746f72000000000000000000000000604482015290519081900360640190fd5b61089c816112e5565b50565b6108a83361091d565b61091357604080517f08c379a000000000000000000000000000000000000000000000000000000000815260206004820152601460248201527f6f6e6c7920616374697665206f70657261746f72000000000000000000000000604482015290519081900360640190fd5b61091b611372565b565b600061092882610d9e565b80156109375750610937610e99565b92915050565b600380547fffffffffffffffffffffffff00000000000000000000000000000000000000001633179055303b63ffffffff8116156109c6576040517f08c379a000000000000000000000000000000000000000000000000000000000815260040180806020018281038252602a8152602001806124e1602a913960400191505060405180910390fd5b6004805473ffffffffffffffffffffffffffffffffffffffff8089167fffffffffffffffffffffffff000000000000000000000000000000000000000092831617909255600580548884169216919091179055871615610a3157610a298761144a565b610a31611570565b610a3c868585611678565b815115610a4c57610a4c826117e6565b7f4452a6b21d8447ae04b441ac37676250e2bfdc827a149309429a5c640bf71209878787878787604051808773ffffffffffffffffffffffffffffffffffffffff1673ffffffffffffffffffffffffffffffffffffffff1681526020018673ffffffffffffffffffffffffffffffffffffffff1673ffffffffffffffffffffffffffffffffffffffff1681526020018573ffffffffffffffffffffffffffffffffffffffff1673ffffffffffffffffffffffffffffffffffffffff168152602001848152602001836002811115610b1f57fe5b60ff16815260200180602001828103825283818151815260200191508051906020019080838360005b83811015610b60578181015183820152602001610b48565b50505050905090810190601f168015610b8d5780820380516001836020036101000a031916815260200191505b5097505050505050505060405180910390a150505050505050565b60006002826002811115610bb857fe5b1415610be957670de0b6b3a7640000610bda610bd48583611882565b866118f5565b81610be157fe5b049050610c6a565b6001826002811115610bf757fe5b1415610c0557506000610c6a565b6000826002811115610c1357fe5b1415610c6a576040517f08c379a000000000000000000000000000000000000000000000000000000000815260040180806020018281038252602181526020018061250b6021913960400191505060405180910390fd5b9392505050565b610c7a33610dfe565b80610c895750610c893361091d565b610cde576040517f08c379a000000000000000000000000000000000000000000000000000000000815260040180806020018281038252602481526020018061247a6024913960400191505060405180910390fd5b600454610d039073ffffffffffffffffffffffffffffffffffffffff1680848461192e565b5050565b60006002826002811115610d1757fe5b1415610d3957670de0b6b3a7640000610bda610d338583611882565b86611c4f565b6001826002811115610d4757fe5b1415610c05576040517f08c379a00000000000000000000000000000000000000000000000000000000081526004018080602001828103825260218152602001806124376021913960400191505060405180910390fd5b6000610da8610fcf565b73ffffffffffffffffffffffffffffffffffffffff168273ffffffffffffffffffffffffffffffffffffffff16149050919050565b60045473ffffffffffffffffffffffffffffffffffffffff91821691161490565b60055473ffffffffffffffffffffffffffffffffffffffff91821691161490565b73ffffffffffffffffffffffffffffffffffffffff1660009081526001602081905260409091208054910154909160ff90911690565b73ffffffffffffffffffffffffffffffffffffffff1660009081526020819052604090205490565b60035473ffffffffffffffffffffffffffffffffffffffff1690565b60025474010000000000000000000000000000000000000000900460ff1690565b610ec333610dfe565b80610ed25750610ed23361091d565b610f27576040517f08c379a000000000000000000000000000000000000000000000000000000000815260040180806020018281038252602481526020018061247a6024913960400191505060405180910390fd5b600454610d039073ffffffffffffffffffffffffffffffffffffffff16338484611c6f565b610f5533610ddd565b80610f645750610f643361091d565b610f2757604080517f08c379a000000000000000000000000000000000000000000000000000000000815260206004820152601e60248201527f6f6e6c79207374616b6572206f7220616374697665206f70657261746f720000604482015290519081900360640190fd5b60025473ffffffffffffffffffffffffffffffffffffffff1690565b610ff433610ddd565b8061100357506110033361091d565b61106e57604080517f08c379a000000000000000000000000000000000000000000000000000000000815260206004820152601e60248201527f6f6e6c79207374616b6572206f7220616374697665206f70657261746f720000604482015290519081900360640190fd5b61089c816117e6565b6000610da86106c7565b600061108c85610e55565b8411156110fa57604080517f08c379a000000000000000000000000000000000000000000000000000000000815260206004820152601760248201527f63757272656e74207374616b6520696e636f7272656374000000000000000000604482015290519081900360640190fd5b73ffffffffffffffffffffffffffffffffffffffff8516600090815260016020819052604082208054910154909160ff9091169081600281111561113a57fe5b14156111a757604080517f08c379a000000000000000000000000000000000000000000000000000000000815260206004820152601560248201527f6e6f2070756e6973686d656e7420616c6c6f7765640000000000000000000000604482015290519081900360640190fd5b6111b2828683610ba8565b92506111be8884611f31565b6111c9878787612051565b7fca93c648a4546f2ae486b9140f0082ced75a2664a663c8882b8b3545cddfeeb18888878688604051808673ffffffffffffffffffffffffffffffffffffffff1673ffffffffffffffffffffffffffffffffffffffff1681526020018573ffffffffffffffffffffffffffffffffffffffff1673ffffffffffffffffffffffffffffffffffffffff16815260200184815260200183815260200180602001828103825283818151815260200191508051906020019080838360005b8381101561129c578181015183820152602001611284565b50505050905090810190601f1680156112c95780820380516001836020036101000a031916815260200191505b50965050505050505060405180910390a1505095945050505050565b60025473ffffffffffffffffffffffffffffffffffffffff1661136957604080517f08c379a000000000000000000000000000000000000000000000000000000000815260206004820152601060248201527f6f70657261746f72206e6f742073657400000000000000000000000000000000604482015290519081900360640190fd5b61089c8161144a565b61137a610e99565b6113e557604080517f08c379a000000000000000000000000000000000000000000000000000000000815260206004820152601960248201527f6f6e6c79207768656e206f70657261746f722061637469766500000000000000604482015290519081900360640190fd5b600280547fffffffffffffffffffffff000000000000000000000000000000000000000000169055604080516000808252602082015281517f966c160e1c4dbc7df8d69af4ace01e9297c3cf016397b7914971f2fbfa32672d929181900390910190a1565b60025473ffffffffffffffffffffffffffffffffffffffff828116911614156114d457604080517f08c379a000000000000000000000000000000000000000000000000000000000815260206004820152601860248201527f63616e6e6f74207365742073616d65206f70657261746f720000000000000000604482015290519081900360640190fd5b600280547fffffffffffffffffffffffff00000000000000000000000000000000000000001673ffffffffffffffffffffffffffffffffffffffff83161790557f966c160e1c4dbc7df8d69af4ace01e9297c3cf016397b7914971f2fbfa32672d8161153e610e99565b6040805173ffffffffffffffffffffffffffffffffffffffff909316835290151560208301528051918290030190a150565b611578610e99565b156115e457604080517f08c379a000000000000000000000000000000000000000000000000000000000815260206004820152601d60248201527f6f6e6c79207768656e206f70657261746f72206e6f7420616374697665000000604482015290519081900360640190fd5b600280547fffffffffffffffffffffff00ffffffffffffffffffffffffffffffffffffffff167401000000000000000000000000000000000000000017908190556040805173ffffffffffffffffffffffffffffffffffffffff90921682526001602083015280517f966c160e1c4dbc7df8d69af4ace01e9297c3cf016397b7914971f2fbfa32672d9281900390910190a1565b600081600281111561168657fe5b148061169d5750600181600281111561169b57fe5b145b156116f95781156116f9576040517f08c379a000000000000000000000000000000000000000000000000000000000815260040180806020018281038252602c81526020018061252c602c913960400191505060405180910390fd5b73ffffffffffffffffffffffffffffffffffffffff831660009081526001602081905260409091208381558101805483927fffffffffffffffffffffffffffffffffffffffffffffffffffffffffffffff009091169083600281111561175b57fe5b02179055507fc964ed8af672f908dc7ba57f61d45a87a7e179cecf5198e7b7d53c920d898f06838383604051808473ffffffffffffffffffffffffffffffffffffffff1673ffffffffffffffffffffffffffffffffffffffff1681526020018381526020018260028111156117cc57fe5b60ff168152602001935050505060405180910390a1505050565b7fbb39ebb37e60fb5d606ffdb749d2336e56b88e6c88c4bd6513b308f643186eed816040518080602001828103825283818151815260200191508051906020019080838360005b8381101561184557818101518382015260200161182d565b50505050905090810190601f1680156118725780820380516001836020036101000a031916815260200191505b509250505060405180910390a150565b60008261189157506000610937565b8282028284828161189e57fe5b0414610c6a576040517f08c379a000000000000000000000000000000000000000000000000000000000815260040180806020018281038252602181526020018061249e6021913960400191505060405180910390fd5b6000670de0b6b3a764000061191f61190d8585611882565b6002670de0b6b3a76400005b0461224d565b8161192657fe5b049392505050565b73ffffffffffffffffffffffffffffffffffffffff841660009081526020819052604090205482146119c157604080517f08c379a000000000000000000000000000000000000000000000000000000000815260206004820152601760248201527f63757272656e74207374616b6520696e636f7272656374000000000000000000604482015290519081900360640190fd5b60008111611a3057604080517f08c379a000000000000000000000000000000000000000000000000000000000815260206004820152601060248201527f6e6f207374616b6520746f2074616b6500000000000000000000000000000000604482015290519081900360640190fd5b81811115611a89576040517f08c379a00000000000000000000000000000000000000000000000000000000081526004018080602001828103825260228152602001806124586022913960400191505060405180910390fd5b6000611a9b838363ffffffff6122c116565b73ffffffffffffffffffffffffffffffffffffffff861660009081526020819052604090208190559050611acd610807565b73ffffffffffffffffffffffffffffffffffffffff1663a9059cbb85846040518363ffffffff1660e01b8152600401808373ffffffffffffffffffffffffffffffffffffffff1673ffffffffffffffffffffffffffffffffffffffff16815260200182815260200192505050602060405180830381600087803b158015611b5357600080fd5b505af1158015611b67573d6000803e3d6000fd5b505050506040513d6020811015611b7d57600080fd5b5051611bea57604080517f08c379a000000000000000000000000000000000000000000000000000000000815260206004820152601560248201527f746f6b656e207472616e73666572206661696c65640000000000000000000000604482015290519081900360640190fd5b6040805173ffffffffffffffffffffffffffffffffffffffff8088168252861660208201528082018490526060810183905290517f79cb01d8e263c1d344176f9a596b5a6aa14a7df350a227e2e7df836a087b56619181900360800190a15050505050565b60008161191f611c6785670de0b6b3a7640000611882565b600285611919565b73ffffffffffffffffffffffffffffffffffffffff84166000908152602081905260409020548214611d0257604080517f08c379a000000000000000000000000000000000000000000000000000000000815260206004820152601760248201527f63757272656e74207374616b6520696e636f7272656374000000000000000000604482015290519081900360640190fd5b60008111611d7157604080517f08c379a000000000000000000000000000000000000000000000000000000000815260206004820152600f60248201527f6e6f207374616b6520746f206164640000000000000000000000000000000000604482015290519081900360640190fd5b6000611d83838363ffffffff61224d16565b73ffffffffffffffffffffffffffffffffffffffff861660009081526020819052604090208190559050611db5610807565b604080517f23b872dd00000000000000000000000000000000000000000000000000000000815273ffffffffffffffffffffffffffffffffffffffff878116600483015230602483015260448201869052915192909116916323b872dd916064808201926020929091908290030181600087803b158015611e3557600080fd5b505af1158015611e49573d6000803e3d6000fd5b505050506040513d6020811015611e5f57600080fd5b5051611ecc57604080517f08c379a000000000000000000000000000000000000000000000000000000000815260206004820152601560248201527f746f6b656e207472616e73666572206661696c65640000000000000000000000604482015290519081900360640190fd5b6040805173ffffffffffffffffffffffffffffffffffffffff8088168252861660208201528082018490526060810183905290517fef7c8dfef14cbefdf829b8f066b068b677992411137321d64b3ed4538c2b36379181900360800190a15050505050565b604080517f7c8d56b800000000000000000000000000000000000000000000000000000000815273ffffffffffffffffffffffffffffffffffffffff84166004820152602481018390529051731776e1f26f98b1a5df9cd347953a26dd3cb4667191637c8d56b89160448083019260209291908290030181600087803b158015611fba57600080fd5b505af1158015611fce573d6000803e3d6000fd5b505050506040513d6020811015611fe457600080fd5b5051610d0357604080517f08c379a000000000000000000000000000000000000000000000000000000000815260206004820152601360248201527f6e6d72206275726e46726f6d206661696c656400000000000000000000000000604482015290519081900360640190fd5b73ffffffffffffffffffffffffffffffffffffffff831660009081526020819052604090205482146120e457604080517f08c379a000000000000000000000000000000000000000000000000000000000815260206004820152601760248201527f63757272656e74207374616b6520696e636f7272656374000000000000000000604482015290519081900360640190fd5b6000811161215357604080517f08c379a000000000000000000000000000000000000000000000000000000000815260206004820152601060248201527f6e6f207374616b6520746f206275726e00000000000000000000000000000000604482015290519081900360640190fd5b818111156121ac576040517f08c379a00000000000000000000000000000000000000000000000000000000081526004018080602001828103825260228152602001806124bf6022913960400191505060405180910390fd5b60006121be838363ffffffff6122c116565b73ffffffffffffffffffffffffffffffffffffffff8516600090815260208190526040902081905590506121f182612338565b6040805173ffffffffffffffffffffffffffffffffffffffff861681526020810184905280820183905290517ff470d7f6c239014b63db190652ebe51433a828b65e06d9972143c34c2e2ca3bc9181900360600190a150505050565b600082820183811015610c6a57604080517f08c379a000000000000000000000000000000000000000000000000000000000815260206004820152601b60248201527f536166654d6174683a206164646974696f6e206f766572666c6f770000000000604482015290519081900360640190fd5b60008282111561233257604080517f08c379a000000000000000000000000000000000000000000000000000000000815260206004820152601e60248201527f536166654d6174683a207375627472616374696f6e206f766572666c6f770000604482015290519081900360640190fd5b50900390565b731776e1f26f98b1a5df9cd347953a26dd3cb4667173ffffffffffffffffffffffffffffffffffffffff1663a0712d68826040518263ffffffff1660e01b815260040180828152602001915050602060405180830381600087803b15801561239f57600080fd5b505af11580156123b3573d6000803e3d6000fd5b505050506040513d60208110156123c957600080fd5b505161089c57604080517f08c379a000000000000000000000000000000000000000000000000000000000815260206004820152600f60248201527f6e6d72206275726e206661696c65640000000000000000000000000000000000604482015290519081900360640190fdfe726174696f547970652063616e6e6f7420626520526174696f547970652e496e6663616e6e6f742074616b65206d6f7265207468616e2063757272656e745374616b656f6e6c7920636f756e7465727061727479206f7220616374697665206f70657261746f72536166654d6174683a206d756c7469706c69636174696f6e206f766572666c6f7763616e6e6f74206275726e206d6f7265207468616e2063757272656e745374616b656d7573742062652063616c6c65642077697468696e20636f6e747261637420636f6e7374727563746f72726174696f547970652063616e6e6f7420626520526174696f547970652e4e614e726174696f206d7573742062652030207768656e20726174696f54797065206973204e614e206f7220496e66a265627a7a723158201330984f014826e666c480b141fd3b351f2f97b3b4fd88e1253c4ad29749db9f64736f6c634300050b0032",
				"opcodes": "PUSH1 0x80 PUSH1 0x40 MSTORE CALLVALUE DUP1 ISZERO PUSH2 0x10 JUMPI PUSH1 0x0 DUP1 REVERT JUMPDEST POP PUSH2 0x258C DUP1 PUSH2 0x20 PUSH1 0x0 CODECOPY PUSH1 0x0 RETURN INVALID PUSH1 0x80 PUSH1 0x40 MSTORE CALLVALUE DUP1 ISZERO PUSH2 0x10 JUMPI PUSH1 0x0 DUP1 REVERT JUMPDEST POP PUSH1 0x4 CALLDATASIZE LT PUSH2 0x182 JUMPI PUSH1 0x0 CALLDATALOAD PUSH1 0xE0 SHR DUP1 PUSH4 0x6F1E8533 GT PUSH2 0xD8 JUMPI DUP1 PUSH4 0x923B1762 GT PUSH2 0x8C JUMPI DUP1 PUSH4 0xE7F43C68 GT PUSH2 0x66 JUMPI DUP1 PUSH4 0xE7F43C68 EQ PUSH2 0x5E6 JUMPI DUP1 PUSH4 0xEE57E36F EQ PUSH2 0x5EE JUMPI DUP1 PUSH4 0xEFD46065 EQ PUSH2 0x694 JUMPI PUSH2 0x182 JUMP JUMPDEST DUP1 PUSH4 0x923B1762 EQ PUSH2 0x598 JUMPI DUP1 PUSH4 0xA4FA8D57 EQ PUSH2 0x5A0 JUMPI DUP1 PUSH4 0xBEC10CDE EQ PUSH2 0x5C3 JUMPI PUSH2 0x182 JUMP JUMPDEST DUP1 PUSH4 0x754B2707 GT PUSH2 0xBD JUMPI DUP1 PUSH4 0x754B2707 EQ PUSH2 0x4FF JUMPI DUP1 PUSH4 0x7A766460 EQ PUSH2 0x55D JUMPI DUP1 PUSH4 0x88CC58E4 EQ PUSH2 0x590 JUMPI PUSH2 0x182 JUMP JUMPDEST DUP1 PUSH4 0x6F1E8533 EQ PUSH2 0x499 JUMPI DUP1 PUSH4 0x73F500AF EQ PUSH2 0x4CC JUMPI PUSH2 0x182 JUMP JUMPDEST DUP1 PUSH4 0x3367CCA5 GT PUSH2 0x13A JUMPI DUP1 PUSH4 0x4A66DB95 GT PUSH2 0x114 JUMPI DUP1 PUSH4 0x4A66DB95 EQ PUSH2 0x417 JUMPI DUP1 PUSH4 0x5BAEB806 EQ PUSH2 0x43A JUMPI DUP1 PUSH4 0x6D70F7AE EQ PUSH2 0x466 JUMPI PUSH2 0x182 JUMP JUMPDEST DUP1 PUSH4 0x3367CCA5 EQ PUSH2 0x2C1 JUMPI DUP1 PUSH4 0x3D806D67 EQ PUSH2 0x308 JUMPI DUP1 PUSH4 0x465B414E EQ PUSH2 0x3EB JUMPI PUSH2 0x182 JUMP JUMPDEST DUP1 PUSH4 0x21DF0DA7 GT PUSH2 0x16B JUMPI DUP1 PUSH4 0x21DF0DA7 EQ PUSH2 0x27C JUMPI DUP1 PUSH4 0x29605E77 EQ PUSH2 0x284 JUMPI DUP1 PUSH4 0x2AB6F8DB EQ PUSH2 0x2B9 JUMPI PUSH2 0x182 JUMP JUMPDEST DUP1 PUSH4 0xEE2CB10 EQ PUSH2 0x187 JUMPI DUP1 PUSH4 0xFC15F20 EQ PUSH2 0x1B8 JUMPI JUMPDEST PUSH1 0x0 DUP1 REVERT JUMPDEST PUSH2 0x18F PUSH2 0x6C7 JUMP JUMPDEST PUSH1 0x40 DUP1 MLOAD PUSH20 0xFFFFFFFFFFFFFFFFFFFFFFFFFFFFFFFFFFFFFFFF SWAP1 SWAP3 AND DUP3 MSTORE MLOAD SWAP1 DUP2 SWAP1 SUB PUSH1 0x20 ADD SWAP1 RETURN JUMPDEST PUSH2 0x26A PUSH1 0x4 DUP1 CALLDATASIZE SUB PUSH1 0x60 DUP2 LT ISZERO PUSH2 0x1CE JUMPI PUSH1 0x0 DUP1 REVERT JUMPDEST DUP2 CALLDATALOAD SWAP2 PUSH1 0x20 DUP2 ADD CALLDATALOAD SWAP2 DUP2 ADD SWAP1 PUSH1 0x60 DUP2 ADD PUSH1 0x40 DUP3 ADD CALLDATALOAD PUSH5 0x100000000 DUP2 GT ISZERO PUSH2 0x1F5 JUMPI PUSH1 0x0 DUP1 REVERT JUMPDEST DUP3 ADD DUP4 PUSH1 0x20 DUP3 ADD GT ISZERO PUSH2 0x207 JUMPI PUSH1 0x0 DUP1 REVERT JUMPDEST DUP1 CALLDATALOAD SWAP1 PUSH1 0x20 ADD SWAP2 DUP5 PUSH1 0x1 DUP4 MUL DUP5 ADD GT PUSH5 0x100000000 DUP4 GT OR ISZERO PUSH2 0x229 JUMPI PUSH1 0x0 DUP1 REVERT JUMPDEST SWAP2 SWAP1 DUP1 DUP1 PUSH1 0x1F ADD PUSH1 0x20 DUP1 SWAP2 DIV MUL PUSH1 0x20 ADD PUSH1 0x40 MLOAD SWAP1 DUP2 ADD PUSH1 0x40 MSTORE DUP1 SWAP4 SWAP3 SWAP2 SWAP1 DUP2 DUP2 MSTORE PUSH1 0x20 ADD DUP4 DUP4 DUP1 DUP3 DUP5 CALLDATACOPY PUSH1 0x0 SWAP3 ADD SWAP2 SWAP1 SWAP2 MSTORE POP SWAP3 SWAP6 POP PUSH2 0x769 SWAP5 POP POP POP POP POP JUMP JUMPDEST PUSH1 0x40 DUP1 MLOAD SWAP2 DUP3 MSTORE MLOAD SWAP1 DUP2 SWAP1 SUB PUSH1 0x20 ADD SWAP1 RETURN JUMPDEST PUSH2 0x18F PUSH2 0x807 JUMP JUMPDEST PUSH2 0x2B7 PUSH1 0x4 DUP1 CALLDATASIZE SUB PUSH1 0x20 DUP2 LT ISZERO PUSH2 0x29A JUMPI PUSH1 0x0 DUP1 REVERT JUMPDEST POP CALLDATALOAD PUSH20 0xFFFFFFFFFFFFFFFFFFFFFFFFFFFFFFFFFFFFFFFF AND PUSH2 0x81F JUMP JUMPDEST STOP JUMPDEST PUSH2 0x2B7 PUSH2 0x89F JUMP JUMPDEST PUSH2 0x2F4 PUSH1 0x4 DUP1 CALLDATASIZE SUB PUSH1 0x20 DUP2 LT ISZERO PUSH2 0x2D7 JUMPI PUSH1 0x0 DUP1 REVERT JUMPDEST POP CALLDATALOAD PUSH20 0xFFFFFFFFFFFFFFFFFFFFFFFFFFFFFFFFFFFFFFFF AND PUSH2 0x91D JUMP JUMPDEST PUSH1 0x40 DUP1 MLOAD SWAP2 ISZERO ISZERO DUP3 MSTORE MLOAD SWAP1 DUP2 SWAP1 SUB PUSH1 0x20 ADD SWAP1 RETURN JUMPDEST PUSH2 0x2B7 PUSH1 0x4 DUP1 CALLDATASIZE SUB PUSH1 0xC0 DUP2 LT ISZERO PUSH2 0x31E JUMPI PUSH1 0x0 DUP1 REVERT JUMPDEST PUSH20 0xFFFFFFFFFFFFFFFFFFFFFFFFFFFFFFFFFFFFFFFF DUP3 CALLDATALOAD DUP2 AND SWAP3 PUSH1 0x20 DUP2 ADD CALLDATALOAD DUP3 AND SWAP3 PUSH1 0x40 DUP3 ADD CALLDATALOAD SWAP1 SWAP3 AND SWAP2 PUSH1 0x60 DUP3 ADD CALLDATALOAD SWAP2 PUSH1 0xFF PUSH1 0x80 DUP3 ADD CALLDATALOAD AND SWAP2 DUP2 ADD SWAP1 PUSH1 0xC0 DUP2 ADD PUSH1 0xA0 DUP3 ADD CALLDATALOAD PUSH5 0x100000000 DUP2 GT ISZERO PUSH2 0x376 JUMPI PUSH1 0x0 DUP1 REVERT JUMPDEST DUP3 ADD DUP4 PUSH1 0x20 DUP3 ADD GT ISZERO PUSH2 0x388 JUMPI PUSH1 0x0 DUP1 REVERT JUMPDEST DUP1 CALLDATALOAD SWAP1 PUSH1 0x20 ADD SWAP2 DUP5 PUSH1 0x1 DUP4 MUL DUP5 ADD GT PUSH5 0x100000000 DUP4 GT OR ISZERO PUSH2 0x3AA JUMPI PUSH1 0x0 DUP1 REVERT JUMPDEST SWAP2 SWAP1 DUP1 DUP1 PUSH1 0x1F ADD PUSH1 0x20 DUP1 SWAP2 DIV MUL PUSH1 0x20 ADD PUSH1 0x40 MLOAD SWAP1 DUP2 ADD PUSH1 0x40 MSTORE DUP1 SWAP4 SWAP3 SWAP2 SWAP1 DUP2 DUP2 MSTORE PUSH1 0x20 ADD DUP4 DUP4 DUP1 DUP3 DUP5 CALLDATACOPY PUSH1 0x0 SWAP3 ADD SWAP2 SWAP1 SWAP2 MSTORE POP SWAP3 SWAP6 POP PUSH2 0x93D SWAP5 POP POP POP POP POP JUMP JUMPDEST PUSH2 0x26A PUSH1 0x4 DUP1 CALLDATASIZE SUB PUSH1 0x60 DUP2 LT ISZERO PUSH2 0x401 JUMPI PUSH1 0x0 DUP1 REVERT JUMPDEST POP DUP1 CALLDATALOAD SWAP1 PUSH1 0x20 DUP2 ADD CALLDATALOAD SWAP1 PUSH1 0x40 ADD CALLDATALOAD PUSH1 0xFF AND PUSH2 0xBA8 JUMP JUMPDEST PUSH2 0x2B7 PUSH1 0x4 DUP1 CALLDATASIZE SUB PUSH1 0x40 DUP2 LT ISZERO PUSH2 0x42D JUMPI PUSH1 0x0 DUP1 REVERT JUMPDEST POP DUP1 CALLDATALOAD SWAP1 PUSH1 0x20 ADD CALLDATALOAD PUSH2 0xC71 JUMP JUMPDEST PUSH2 0x26A PUSH1 0x4 DUP1 CALLDATASIZE SUB PUSH1 0x60 DUP2 LT ISZERO PUSH2 0x450 JUMPI PUSH1 0x0 DUP1 REVERT JUMPDEST POP DUP1 CALLDATALOAD SWAP1 PUSH1 0x20 DUP2 ADD CALLDATALOAD SWAP1 PUSH1 0x40 ADD CALLDATALOAD PUSH1 0xFF AND PUSH2 0xD07 JUMP JUMPDEST PUSH2 0x2F4 PUSH1 0x4 DUP1 CALLDATASIZE SUB PUSH1 0x20 DUP2 LT ISZERO PUSH2 0x47C JUMPI PUSH1 0x0 DUP1 REVERT JUMPDEST POP CALLDATALOAD PUSH20 0xFFFFFFFFFFFFFFFFFFFFFFFFFFFFFFFFFFFFFFFF AND PUSH2 0xD9E JUMP JUMPDEST PUSH2 0x2F4 PUSH1 0x4 DUP1 CALLDATASIZE SUB PUSH1 0x20 DUP2 LT ISZERO PUSH2 0x4AF JUMPI PUSH1 0x0 DUP1 REVERT JUMPDEST POP CALLDATALOAD PUSH20 0xFFFFFFFFFFFFFFFFFFFFFFFFFFFFFFFFFFFFFFFF AND PUSH2 0xDDD JUMP JUMPDEST PUSH2 0x2F4 PUSH1 0x4 DUP1 CALLDATASIZE SUB PUSH1 0x20 DUP2 LT ISZERO PUSH2 0x4E2 JUMPI PUSH1 0x0 DUP1 REVERT JUMPDEST POP CALLDATALOAD PUSH20 0xFFFFFFFFFFFFFFFFFFFFFFFFFFFFFFFFFFFFFFFF AND PUSH2 0xDFE JUMP JUMPDEST PUSH2 0x532 PUSH1 0x4 DUP1 CALLDATASIZE SUB PUSH1 0x20 DUP2 LT ISZERO PUSH2 0x515 JUMPI PUSH1 0x0 DUP1 REVERT JUMPDEST POP CALLDATALOAD PUSH20 0xFFFFFFFFFFFFFFFFFFFFFFFFFFFFFFFFFFFFFFFF AND PUSH2 0xE1F JUMP JUMPDEST PUSH1 0x40 MLOAD DUP1 DUP4 DUP2 MSTORE PUSH1 0x20 ADD DUP3 PUSH1 0x2 DUP2 GT ISZERO PUSH2 0x548 JUMPI INVALID JUMPDEST PUSH1 0xFF AND DUP2 MSTORE PUSH1 0x20 ADD SWAP3 POP POP POP PUSH1 0x40 MLOAD DUP1 SWAP2 SUB SWAP1 RETURN JUMPDEST PUSH2 0x26A PUSH1 0x4 DUP1 CALLDATASIZE SUB PUSH1 0x20 DUP2 LT ISZERO PUSH2 0x573 JUMPI PUSH1 0x0 DUP1 REVERT JUMPDEST POP CALLDATALOAD PUSH20 0xFFFFFFFFFFFFFFFFFFFFFFFFFFFFFFFFFFFFFFFF AND PUSH2 0xE55 JUMP JUMPDEST PUSH2 0x18F PUSH2 0xE7D JUMP JUMPDEST PUSH2 0x2F4 PUSH2 0xE99 JUMP JUMPDEST PUSH2 0x2B7 PUSH1 0x4 DUP1 CALLDATASIZE SUB PUSH1 0x40 DUP2 LT ISZERO PUSH2 0x5B6 JUMPI PUSH1 0x0 DUP1 REVERT JUMPDEST POP DUP1 CALLDATALOAD SWAP1 PUSH1 0x20 ADD CALLDATALOAD PUSH2 0xEBA JUMP JUMPDEST PUSH2 0x2B7 PUSH1 0x4 DUP1 CALLDATASIZE SUB PUSH1 0x40 DUP2 LT ISZERO PUSH2 0x5D9 JUMPI PUSH1 0x0 DUP1 REVERT JUMPDEST POP DUP1 CALLDATALOAD SWAP1 PUSH1 0x20 ADD CALLDATALOAD PUSH2 0xF4C JUMP JUMPDEST PUSH2 0x18F PUSH2 0xFCF JUMP JUMPDEST PUSH2 0x2B7 PUSH1 0x4 DUP1 CALLDATASIZE SUB PUSH1 0x20 DUP2 LT ISZERO PUSH2 0x604 JUMPI PUSH1 0x0 DUP1 REVERT JUMPDEST DUP2 ADD SWAP1 PUSH1 0x20 DUP2 ADD DUP2 CALLDATALOAD PUSH5 0x100000000 DUP2 GT ISZERO PUSH2 0x61F JUMPI PUSH1 0x0 DUP1 REVERT JUMPDEST DUP3 ADD DUP4 PUSH1 0x20 DUP3 ADD GT ISZERO PUSH2 0x631 JUMPI PUSH1 0x0 DUP1 REVERT JUMPDEST DUP1 CALLDATALOAD SWAP1 PUSH1 0x20 ADD SWAP2 DUP5 PUSH1 0x1 DUP4 MUL DUP5 ADD GT PUSH5 0x100000000 DUP4 GT OR ISZERO PUSH2 0x653 JUMPI PUSH1 0x0 DUP1 REVERT JUMPDEST SWAP2 SWAP1 DUP1 DUP1 PUSH1 0x1F ADD PUSH1 0x20 DUP1 SWAP2 DIV MUL PUSH1 0x20 ADD PUSH1 0x40 MLOAD SWAP1 DUP2 ADD PUSH1 0x40 MSTORE DUP1 SWAP4 SWAP3 SWAP2 SWAP1 DUP2 DUP2 MSTORE PUSH1 0x20 ADD DUP4 DUP4 DUP1 DUP3 DUP5 CALLDATACOPY PUSH1 0x0 SWAP3 ADD SWAP2 SWAP1 SWAP2 MSTORE POP SWAP3 SWAP6 POP PUSH2 0xFEB SWAP5 POP POP POP POP POP JUMP JUMPDEST PUSH2 0x2F4 PUSH1 0x4 DUP1 CALLDATASIZE SUB PUSH1 0x20 DUP2 LT ISZERO PUSH2 0x6AA JUMPI PUSH1 0x0 DUP1 REVERT JUMPDEST POP CALLDATALOAD PUSH20 0xFFFFFFFFFFFFFFFFFFFFFFFFFFFFFFFFFFFFFFFF AND PUSH2 0x1077 JUMP JUMPDEST PUSH1 0x3 SLOAD PUSH1 0x40 DUP1 MLOAD PUSH32 0x6BF7198200000000000000000000000000000000000000000000000000000000 DUP2 MSTORE ADDRESS PUSH1 0x4 DUP3 ADD MSTORE SWAP1 MLOAD PUSH1 0x0 SWAP3 PUSH20 0xFFFFFFFFFFFFFFFFFFFFFFFFFFFFFFFFFFFFFFFF AND SWAP2 PUSH4 0x6BF71982 SWAP2 PUSH1 0x24 DUP1 DUP4 ADD SWAP3 PUSH1 0x20 SWAP3 SWAP2 SWAP1 DUP3 SWAP1 SUB ADD DUP2 DUP7 DUP1 EXTCODESIZE ISZERO DUP1 ISZERO PUSH2 0x738 JUMPI PUSH1 0x0 DUP1 REVERT JUMPDEST POP GAS STATICCALL ISZERO DUP1 ISZERO PUSH2 0x74C JUMPI RETURNDATASIZE PUSH1 0x0 DUP1 RETURNDATACOPY RETURNDATASIZE PUSH1 0x0 REVERT JUMPDEST POP POP POP POP PUSH1 0x40 MLOAD RETURNDATASIZE PUSH1 0x20 DUP2 LT ISZERO PUSH2 0x762 JUMPI PUSH1 0x0 DUP1 REVERT JUMPDEST POP MLOAD SWAP2 SWAP1 POP JUMP JUMPDEST PUSH1 0x0 PUSH2 0x774 CALLER PUSH2 0xDFE JUMP JUMPDEST DUP1 PUSH2 0x783 JUMPI POP PUSH2 0x783 CALLER PUSH2 0x91D JUMP JUMPDEST PUSH2 0x7D8 JUMPI PUSH1 0x40 MLOAD PUSH32 0x8C379A000000000000000000000000000000000000000000000000000000000 DUP2 MSTORE PUSH1 0x4 ADD DUP1 DUP1 PUSH1 0x20 ADD DUP3 DUP2 SUB DUP3 MSTORE PUSH1 0x24 DUP2 MSTORE PUSH1 0x20 ADD DUP1 PUSH2 0x247A PUSH1 0x24 SWAP2 CODECOPY PUSH1 0x40 ADD SWAP2 POP POP PUSH1 0x40 MLOAD DUP1 SWAP2 SUB SWAP1 REVERT JUMPDEST PUSH1 0x4 SLOAD PUSH2 0x7FF SWAP1 CALLER SWAP1 PUSH20 0xFFFFFFFFFFFFFFFFFFFFFFFFFFFFFFFFFFFFFFFF AND DUP7 DUP7 DUP7 PUSH2 0x1081 JUMP JUMPDEST SWAP5 SWAP4 POP POP POP POP JUMP JUMPDEST PUSH20 0x1776E1F26F98B1A5DF9CD347953A26DD3CB46671 SWAP1 JUMP JUMPDEST PUSH2 0x828 CALLER PUSH2 0x91D JUMP JUMPDEST PUSH2 0x893 JUMPI PUSH1 0x40 DUP1 MLOAD PUSH32 0x8C379A000000000000000000000000000000000000000000000000000000000 DUP2 MSTORE PUSH1 0x20 PUSH1 0x4 DUP3 ADD MSTORE PUSH1 0x14 PUSH1 0x24 DUP3 ADD MSTORE PUSH32 0x6F6E6C7920616374697665206F70657261746F72000000000000000000000000 PUSH1 0x44 DUP3 ADD MSTORE SWAP1 MLOAD SWAP1 DUP2 SWAP1 SUB PUSH1 0x64 ADD SWAP1 REVERT JUMPDEST PUSH2 0x89C DUP2 PUSH2 0x12E5 JUMP JUMPDEST POP JUMP JUMPDEST PUSH2 0x8A8 CALLER PUSH2 0x91D JUMP JUMPDEST PUSH2 0x913 JUMPI PUSH1 0x40 DUP1 MLOAD PUSH32 0x8C379A000000000000000000000000000000000000000000000000000000000 DUP2 MSTORE PUSH1 0x20 PUSH1 0x4 DUP3 ADD MSTORE PUSH1 0x14 PUSH1 0x24 DUP3 ADD MSTORE PUSH32 0x6F6E6C7920616374697665206F70657261746F72000000000000000000000000 PUSH1 0x44 DUP3 ADD MSTORE SWAP1 MLOAD SWAP1 DUP2 SWAP1 SUB PUSH1 0x64 ADD SWAP1 REVERT JUMPDEST PUSH2 0x91B PUSH2 0x1372 JUMP JUMPDEST JUMP JUMPDEST PUSH1 0x0 PUSH2 0x928 DUP3 PUSH2 0xD9E JUMP JUMPDEST DUP1 ISZERO PUSH2 0x937 JUMPI POP PUSH2 0x937 PUSH2 0xE99 JUMP JUMPDEST SWAP3 SWAP2 POP POP JUMP JUMPDEST PUSH1 0x3 DUP1 SLOAD PUSH32 0xFFFFFFFFFFFFFFFFFFFFFFFF0000000000000000000000000000000000000000 AND CALLER OR SWAP1 SSTORE ADDRESS EXTCODESIZE PUSH4 0xFFFFFFFF DUP2 AND ISZERO PUSH2 0x9C6 JUMPI PUSH1 0x40 MLOAD PUSH32 0x8C379A000000000000000000000000000000000000000000000000000000000 DUP2 MSTORE PUSH1 0x4 ADD DUP1 DUP1 PUSH1 0x20 ADD DUP3 DUP2 SUB DUP3 MSTORE PUSH1 0x2A DUP2 MSTORE PUSH1 0x20 ADD DUP1 PUSH2 0x24E1 PUSH1 0x2A SWAP2 CODECOPY PUSH1 0x40 ADD SWAP2 POP POP PUSH1 0x40 MLOAD DUP1 SWAP2 SUB SWAP1 REVERT JUMPDEST PUSH1 0x4 DUP1 SLOAD PUSH20 0xFFFFFFFFFFFFFFFFFFFFFFFFFFFFFFFFFFFFFFFF DUP1 DUP10 AND PUSH32 0xFFFFFFFFFFFFFFFFFFFFFFFF0000000000000000000000000000000000000000 SWAP3 DUP4 AND OR SWAP1 SWAP3 SSTORE PUSH1 0x5 DUP1 SLOAD DUP9 DUP5 AND SWAP3 AND SWAP2 SWAP1 SWAP2 OR SWAP1 SSTORE DUP8 AND ISZERO PUSH2 0xA31 JUMPI PUSH2 0xA29 DUP8 PUSH2 0x144A JUMP JUMPDEST PUSH2 0xA31 PUSH2 0x1570 JUMP JUMPDEST PUSH2 0xA3C DUP7 DUP6 DUP6 PUSH2 0x1678 JUMP JUMPDEST DUP2 MLOAD ISZERO PUSH2 0xA4C JUMPI PUSH2 0xA4C DUP3 PUSH2 0x17E6 JUMP JUMPDEST PUSH32 0x4452A6B21D8447AE04B441AC37676250E2BFDC827A149309429A5C640BF71209 DUP8 DUP8 DUP8 DUP8 DUP8 DUP8 PUSH1 0x40 MLOAD DUP1 DUP8 PUSH20 0xFFFFFFFFFFFFFFFFFFFFFFFFFFFFFFFFFFFFFFFF AND PUSH20 0xFFFFFFFFFFFFFFFFFFFFFFFFFFFFFFFFFFFFFFFF AND DUP2 MSTORE PUSH1 0x20 ADD DUP7 PUSH20 0xFFFFFFFFFFFFFFFFFFFFFFFFFFFFFFFFFFFFFFFF AND PUSH20 0xFFFFFFFFFFFFFFFFFFFFFFFFFFFFFFFFFFFFFFFF AND DUP2 MSTORE PUSH1 0x20 ADD DUP6 PUSH20 0xFFFFFFFFFFFFFFFFFFFFFFFFFFFFFFFFFFFFFFFF AND PUSH20 0xFFFFFFFFFFFFFFFFFFFFFFFFFFFFFFFFFFFFFFFF AND DUP2 MSTORE PUSH1 0x20 ADD DUP5 DUP2 MSTORE PUSH1 0x20 ADD DUP4 PUSH1 0x2 DUP2 GT ISZERO PUSH2 0xB1F JUMPI INVALID JUMPDEST PUSH1 0xFF AND DUP2 MSTORE PUSH1 0x20 ADD DUP1 PUSH1 0x20 ADD DUP3 DUP2 SUB DUP3 MSTORE DUP4 DUP2 DUP2 MLOAD DUP2 MSTORE PUSH1 0x20 ADD SWAP2 POP DUP1 MLOAD SWAP1 PUSH1 0x20 ADD SWAP1 DUP1 DUP4 DUP4 PUSH1 0x0 JUMPDEST DUP4 DUP2 LT ISZERO PUSH2 0xB60 JUMPI DUP2 DUP2 ADD MLOAD DUP4 DUP3 ADD MSTORE PUSH1 0x20 ADD PUSH2 0xB48 JUMP JUMPDEST POP POP POP POP SWAP1 POP SWAP1 DUP2 ADD SWAP1 PUSH1 0x1F AND DUP1 ISZERO PUSH2 0xB8D JUMPI DUP1 DUP3 SUB DUP1 MLOAD PUSH1 0x1 DUP4 PUSH1 0x20 SUB PUSH2 0x100 EXP SUB NOT AND DUP2 MSTORE PUSH1 0x20 ADD SWAP2 POP JUMPDEST POP SWAP8 POP POP POP POP POP POP POP POP PUSH1 0x40 MLOAD DUP1 SWAP2 SUB SWAP1 LOG1 POP POP POP POP POP POP POP JUMP JUMPDEST PUSH1 0x0 PUSH1 0x2 DUP3 PUSH1 0x2 DUP2 GT ISZERO PUSH2 0xBB8 JUMPI INVALID JUMPDEST EQ ISZERO PUSH2 0xBE9 JUMPI PUSH8 0xDE0B6B3A7640000 PUSH2 0xBDA PUSH2 0xBD4 DUP6 DUP4 PUSH2 0x1882 JUMP JUMPDEST DUP7 PUSH2 0x18F5 JUMP JUMPDEST DUP2 PUSH2 0xBE1 JUMPI INVALID JUMPDEST DIV SWAP1 POP PUSH2 0xC6A JUMP JUMPDEST PUSH1 0x1 DUP3 PUSH1 0x2 DUP2 GT ISZERO PUSH2 0xBF7 JUMPI INVALID JUMPDEST EQ ISZERO PUSH2 0xC05 JUMPI POP PUSH1 0x0 PUSH2 0xC6A JUMP JUMPDEST PUSH1 0x0 DUP3 PUSH1 0x2 DUP2 GT ISZERO PUSH2 0xC13 JUMPI INVALID JUMPDEST EQ ISZERO PUSH2 0xC6A JUMPI PUSH1 0x40 MLOAD PUSH32 0x8C379A000000000000000000000000000000000000000000000000000000000 DUP2 MSTORE PUSH1 0x4 ADD DUP1 DUP1 PUSH1 0x20 ADD DUP3 DUP2 SUB DUP3 MSTORE PUSH1 0x21 DUP2 MSTORE PUSH1 0x20 ADD DUP1 PUSH2 0x250B PUSH1 0x21 SWAP2 CODECOPY PUSH1 0x40 ADD SWAP2 POP POP PUSH1 0x40 MLOAD DUP1 SWAP2 SUB SWAP1 REVERT JUMPDEST SWAP4 SWAP3 POP POP POP JUMP JUMPDEST PUSH2 0xC7A CALLER PUSH2 0xDFE JUMP JUMPDEST DUP1 PUSH2 0xC89 JUMPI POP PUSH2 0xC89 CALLER PUSH2 0x91D JUMP JUMPDEST PUSH2 0xCDE JUMPI PUSH1 0x40 MLOAD PUSH32 0x8C379A000000000000000000000000000000000000000000000000000000000 DUP2 MSTORE PUSH1 0x4 ADD DUP1 DUP1 PUSH1 0x20 ADD DUP3 DUP2 SUB DUP3 MSTORE PUSH1 0x24 DUP2 MSTORE PUSH1 0x20 ADD DUP1 PUSH2 0x247A PUSH1 0x24 SWAP2 CODECOPY PUSH1 0x40 ADD SWAP2 POP POP PUSH1 0x40 MLOAD DUP1 SWAP2 SUB SWAP1 REVERT JUMPDEST PUSH1 0x4 SLOAD PUSH2 0xD03 SWAP1 PUSH20 0xFFFFFFFFFFFFFFFFFFFFFFFFFFFFFFFFFFFFFFFF AND DUP1 DUP5 DUP5 PUSH2 0x192E JUMP JUMPDEST POP POP JUMP JUMPDEST PUSH1 0x0 PUSH1 0x2 DUP3 PUSH1 0x2 DUP2 GT ISZERO PUSH2 0xD17 JUMPI INVALID JUMPDEST EQ ISZERO PUSH2 0xD39 JUMPI PUSH8 0xDE0B6B3A7640000 PUSH2 0xBDA PUSH2 0xD33 DUP6 DUP4 PUSH2 0x1882 JUMP JUMPDEST DUP7 PUSH2 0x1C4F JUMP JUMPDEST PUSH1 0x1 DUP3 PUSH1 0x2 DUP2 GT ISZERO PUSH2 0xD47 JUMPI INVALID JUMPDEST EQ ISZERO PUSH2 0xC05 JUMPI PUSH1 0x40 MLOAD PUSH32 0x8C379A000000000000000000000000000000000000000000000000000000000 DUP2 MSTORE PUSH1 0x4 ADD DUP1 DUP1 PUSH1 0x20 ADD DUP3 DUP2 SUB DUP3 MSTORE PUSH1 0x21 DUP2 MSTORE PUSH1 0x20 ADD DUP1 PUSH2 0x2437 PUSH1 0x21 SWAP2 CODECOPY PUSH1 0x40 ADD SWAP2 POP POP PUSH1 0x40 MLOAD DUP1 SWAP2 SUB SWAP1 REVERT JUMPDEST PUSH1 0x0 PUSH2 0xDA8 PUSH2 0xFCF JUMP JUMPDEST PUSH20 0xFFFFFFFFFFFFFFFFFFFFFFFFFFFFFFFFFFFFFFFF AND DUP3 PUSH20 0xFFFFFFFFFFFFFFFFFFFFFFFFFFFFFFFFFFFFFFFF AND EQ SWAP1 POP SWAP2 SWAP1 POP JUMP JUMPDEST PUSH1 0x4 SLOAD PUSH20 0xFFFFFFFFFFFFFFFFFFFFFFFFFFFFFFFFFFFFFFFF SWAP2 DUP3 AND SWAP2 AND EQ SWAP1 JUMP JUMPDEST PUSH1 0x5 SLOAD PUSH20 0xFFFFFFFFFFFFFFFFFFFFFFFFFFFFFFFFFFFFFFFF SWAP2 DUP3 AND SWAP2 AND EQ SWAP1 JUMP JUMPDEST PUSH20 0xFFFFFFFFFFFFFFFFFFFFFFFFFFFFFFFFFFFFFFFF AND PUSH1 0x0 SWAP1 DUP2 MSTORE PUSH1 0x1 PUSH1 0x20 DUP2 SWAP1 MSTORE PUSH1 0x40 SWAP1 SWAP2 KECCAK256 DUP1 SLOAD SWAP2 ADD SLOAD SWAP1 SWAP2 PUSH1 0xFF SWAP1 SWAP2 AND SWAP1 JUMP JUMPDEST PUSH20 0xFFFFFFFFFFFFFFFFFFFFFFFFFFFFFFFFFFFFFFFF AND PUSH1 0x0 SWAP1 DUP2 MSTORE PUSH1 0x20 DUP2 SWAP1 MSTORE PUSH1 0x40 SWAP1 KECCAK256 SLOAD SWAP1 JUMP JUMPDEST PUSH1 0x3 SLOAD PUSH20 0xFFFFFFFFFFFFFFFFFFFFFFFFFFFFFFFFFFFFFFFF AND SWAP1 JUMP JUMPDEST PUSH1 0x2 SLOAD PUSH21 0x10000000000000000000000000000000000000000 SWAP1 DIV PUSH1 0xFF AND SWAP1 JUMP JUMPDEST PUSH2 0xEC3 CALLER PUSH2 0xDFE JUMP JUMPDEST DUP1 PUSH2 0xED2 JUMPI POP PUSH2 0xED2 CALLER PUSH2 0x91D JUMP JUMPDEST PUSH2 0xF27 JUMPI PUSH1 0x40 MLOAD PUSH32 0x8C379A000000000000000000000000000000000000000000000000000000000 DUP2 MSTORE PUSH1 0x4 ADD DUP1 DUP1 PUSH1 0x20 ADD DUP3 DUP2 SUB DUP3 MSTORE PUSH1 0x24 DUP2 MSTORE PUSH1 0x20 ADD DUP1 PUSH2 0x247A PUSH1 0x24 SWAP2 CODECOPY PUSH1 0x40 ADD SWAP2 POP POP PUSH1 0x40 MLOAD DUP1 SWAP2 SUB SWAP1 REVERT JUMPDEST PUSH1 0x4 SLOAD PUSH2 0xD03 SWAP1 PUSH20 0xFFFFFFFFFFFFFFFFFFFFFFFFFFFFFFFFFFFFFFFF AND CALLER DUP5 DUP5 PUSH2 0x1C6F JUMP JUMPDEST PUSH2 0xF55 CALLER PUSH2 0xDDD JUMP JUMPDEST DUP1 PUSH2 0xF64 JUMPI POP PUSH2 0xF64 CALLER PUSH2 0x91D JUMP JUMPDEST PUSH2 0xF27 JUMPI PUSH1 0x40 DUP1 MLOAD PUSH32 0x8C379A000000000000000000000000000000000000000000000000000000000 DUP2 MSTORE PUSH1 0x20 PUSH1 0x4 DUP3 ADD MSTORE PUSH1 0x1E PUSH1 0x24 DUP3 ADD MSTORE PUSH32 0x6F6E6C79207374616B6572206F7220616374697665206F70657261746F720000 PUSH1 0x44 DUP3 ADD MSTORE SWAP1 MLOAD SWAP1 DUP2 SWAP1 SUB PUSH1 0x64 ADD SWAP1 REVERT JUMPDEST PUSH1 0x2 SLOAD PUSH20 0xFFFFFFFFFFFFFFFFFFFFFFFFFFFFFFFFFFFFFFFF AND SWAP1 JUMP JUMPDEST PUSH2 0xFF4 CALLER PUSH2 0xDDD JUMP JUMPDEST DUP1 PUSH2 0x1003 JUMPI POP PUSH2 0x1003 CALLER PUSH2 0x91D JUMP JUMPDEST PUSH2 0x106E JUMPI PUSH1 0x40 DUP1 MLOAD PUSH32 0x8C379A000000000000000000000000000000000000000000000000000000000 DUP2 MSTORE PUSH1 0x20 PUSH1 0x4 DUP3 ADD MSTORE PUSH1 0x1E PUSH1 0x24 DUP3 ADD MSTORE PUSH32 0x6F6E6C79207374616B6572206F7220616374697665206F70657261746F720000 PUSH1 0x44 DUP3 ADD MSTORE SWAP1 MLOAD SWAP1 DUP2 SWAP1 SUB PUSH1 0x64 ADD SWAP1 REVERT JUMPDEST PUSH2 0x89C DUP2 PUSH2 0x17E6 JUMP JUMPDEST PUSH1 0x0 PUSH2 0xDA8 PUSH2 0x6C7 JUMP JUMPDEST PUSH1 0x0 PUSH2 0x108C DUP6 PUSH2 0xE55 JUMP JUMPDEST DUP5 GT ISZERO PUSH2 0x10FA JUMPI PUSH1 0x40 DUP1 MLOAD PUSH32 0x8C379A000000000000000000000000000000000000000000000000000000000 DUP2 MSTORE PUSH1 0x20 PUSH1 0x4 DUP3 ADD MSTORE PUSH1 0x17 PUSH1 0x24 DUP3 ADD MSTORE PUSH32 0x63757272656E74207374616B6520696E636F7272656374000000000000000000 PUSH1 0x44 DUP3 ADD MSTORE SWAP1 MLOAD SWAP1 DUP2 SWAP1 SUB PUSH1 0x64 ADD SWAP1 REVERT JUMPDEST PUSH20 0xFFFFFFFFFFFFFFFFFFFFFFFFFFFFFFFFFFFFFFFF DUP6 AND PUSH1 0x0 SWAP1 DUP2 MSTORE PUSH1 0x1 PUSH1 0x20 DUP2 SWAP1 MSTORE PUSH1 0x40 DUP3 KECCAK256 DUP1 SLOAD SWAP2 ADD SLOAD SWAP1 SWAP2 PUSH1 0xFF SWAP1 SWAP2 AND SWAP1 DUP2 PUSH1 0x2 DUP2 GT ISZERO PUSH2 0x113A JUMPI INVALID JUMPDEST EQ ISZERO PUSH2 0x11A7 JUMPI PUSH1 0x40 DUP1 MLOAD PUSH32 0x8C379A000000000000000000000000000000000000000000000000000000000 DUP2 MSTORE PUSH1 0x20 PUSH1 0x4 DUP3 ADD MSTORE PUSH1 0x15 PUSH1 0x24 DUP3 ADD MSTORE PUSH32 0x6E6F2070756E6973686D656E7420616C6C6F7765640000000000000000000000 PUSH1 0x44 DUP3 ADD MSTORE SWAP1 MLOAD SWAP1 DUP2 SWAP1 SUB PUSH1 0x64 ADD SWAP1 REVERT JUMPDEST PUSH2 0x11B2 DUP3 DUP7 DUP4 PUSH2 0xBA8 JUMP JUMPDEST SWAP3 POP PUSH2 0x11BE DUP9 DUP5 PUSH2 0x1F31 JUMP JUMPDEST PUSH2 0x11C9 DUP8 DUP8 DUP8 PUSH2 0x2051 JUMP JUMPDEST PUSH32 0xCA93C648A4546F2AE486B9140F0082CED75A2664A663C8882B8B3545CDDFEEB1 DUP9 DUP9 DUP8 DUP7 DUP9 PUSH1 0x40 MLOAD DUP1 DUP7 PUSH20 0xFFFFFFFFFFFFFFFFFFFFFFFFFFFFFFFFFFFFFFFF AND PUSH20 0xFFFFFFFFFFFFFFFFFFFFFFFFFFFFFFFFFFFFFFFF AND DUP2 MSTORE PUSH1 0x20 ADD DUP6 PUSH20 0xFFFFFFFFFFFFFFFFFFFFFFFFFFFFFFFFFFFFFFFF AND PUSH20 0xFFFFFFFFFFFFFFFFFFFFFFFFFFFFFFFFFFFFFFFF AND DUP2 MSTORE PUSH1 0x20 ADD DUP5 DUP2 MSTORE PUSH1 0x20 ADD DUP4 DUP2 MSTORE PUSH1 0x20 ADD DUP1 PUSH1 0x20 ADD DUP3 DUP2 SUB DUP3 MSTORE DUP4 DUP2 DUP2 MLOAD DUP2 MSTORE PUSH1 0x20 ADD SWAP2 POP DUP1 MLOAD SWAP1 PUSH1 0x20 ADD SWAP1 DUP1 DUP4 DUP4 PUSH1 0x0 JUMPDEST DUP4 DUP2 LT ISZERO PUSH2 0x129C JUMPI DUP2 DUP2 ADD MLOAD DUP4 DUP3 ADD MSTORE PUSH1 0x20 ADD PUSH2 0x1284 JUMP JUMPDEST POP POP POP POP SWAP1 POP SWAP1 DUP2 ADD SWAP1 PUSH1 0x1F AND DUP1 ISZERO PUSH2 0x12C9 JUMPI DUP1 DUP3 SUB DUP1 MLOAD PUSH1 0x1 DUP4 PUSH1 0x20 SUB PUSH2 0x100 EXP SUB NOT AND DUP2 MSTORE PUSH1 0x20 ADD SWAP2 POP JUMPDEST POP SWAP7 POP POP POP POP POP POP POP PUSH1 0x40 MLOAD DUP1 SWAP2 SUB SWAP1 LOG1 POP POP SWAP6 SWAP5 POP POP POP POP POP JUMP JUMPDEST PUSH1 0x2 SLOAD PUSH20 0xFFFFFFFFFFFFFFFFFFFFFFFFFFFFFFFFFFFFFFFF AND PUSH2 0x1369 JUMPI PUSH1 0x40 DUP1 MLOAD PUSH32 0x8C379A000000000000000000000000000000000000000000000000000000000 DUP2 MSTORE PUSH1 0x20 PUSH1 0x4 DUP3 ADD MSTORE PUSH1 0x10 PUSH1 0x24 DUP3 ADD MSTORE PUSH32 0x6F70657261746F72206E6F742073657400000000000000000000000000000000 PUSH1 0x44 DUP3 ADD MSTORE SWAP1 MLOAD SWAP1 DUP2 SWAP1 SUB PUSH1 0x64 ADD SWAP1 REVERT JUMPDEST PUSH2 0x89C DUP2 PUSH2 0x144A JUMP JUMPDEST PUSH2 0x137A PUSH2 0xE99 JUMP JUMPDEST PUSH2 0x13E5 JUMPI PUSH1 0x40 DUP1 MLOAD PUSH32 0x8C379A000000000000000000000000000000000000000000000000000000000 DUP2 MSTORE PUSH1 0x20 PUSH1 0x4 DUP3 ADD MSTORE PUSH1 0x19 PUSH1 0x24 DUP3 ADD MSTORE PUSH32 0x6F6E6C79207768656E206F70657261746F722061637469766500000000000000 PUSH1 0x44 DUP3 ADD MSTORE SWAP1 MLOAD SWAP1 DUP2 SWAP1 SUB PUSH1 0x64 ADD SWAP1 REVERT JUMPDEST PUSH1 0x2 DUP1 SLOAD PUSH32 0xFFFFFFFFFFFFFFFFFFFFFF000000000000000000000000000000000000000000 AND SWAP1 SSTORE PUSH1 0x40 DUP1 MLOAD PUSH1 0x0 DUP1 DUP3 MSTORE PUSH1 0x20 DUP3 ADD MSTORE DUP2 MLOAD PUSH32 0x966C160E1C4DBC7DF8D69AF4ACE01E9297C3CF016397B7914971F2FBFA32672D SWAP3 SWAP2 DUP2 SWAP1 SUB SWAP1 SWAP2 ADD SWAP1 LOG1 JUMP JUMPDEST PUSH1 0x2 SLOAD PUSH20 0xFFFFFFFFFFFFFFFFFFFFFFFFFFFFFFFFFFFFFFFF DUP3 DUP2 AND SWAP2 AND EQ ISZERO PUSH2 0x14D4 JUMPI PUSH1 0x40 DUP1 MLOAD PUSH32 0x8C379A000000000000000000000000000000000000000000000000000000000 DUP2 MSTORE PUSH1 0x20 PUSH1 0x4 DUP3 ADD MSTORE PUSH1 0x18 PUSH1 0x24 DUP3 ADD MSTORE PUSH32 0x63616E6E6F74207365742073616D65206F70657261746F720000000000000000 PUSH1 0x44 DUP3 ADD MSTORE SWAP1 MLOAD SWAP1 DUP2 SWAP1 SUB PUSH1 0x64 ADD SWAP1 REVERT JUMPDEST PUSH1 0x2 DUP1 SLOAD PUSH32 0xFFFFFFFFFFFFFFFFFFFFFFFF0000000000000000000000000000000000000000 AND PUSH20 0xFFFFFFFFFFFFFFFFFFFFFFFFFFFFFFFFFFFFFFFF DUP4 AND OR SWAP1 SSTORE PUSH32 0x966C160E1C4DBC7DF8D69AF4ACE01E9297C3CF016397B7914971F2FBFA32672D DUP2 PUSH2 0x153E PUSH2 0xE99 JUMP JUMPDEST PUSH1 0x40 DUP1 MLOAD PUSH20 0xFFFFFFFFFFFFFFFFFFFFFFFFFFFFFFFFFFFFFFFF SWAP1 SWAP4 AND DUP4 MSTORE SWAP1 ISZERO ISZERO PUSH1 0x20 DUP4 ADD MSTORE DUP1 MLOAD SWAP2 DUP3 SWAP1 SUB ADD SWAP1 LOG1 POP JUMP JUMPDEST PUSH2 0x1578 PUSH2 0xE99 JUMP JUMPDEST ISZERO PUSH2 0x15E4 JUMPI PUSH1 0x40 DUP1 MLOAD PUSH32 0x8C379A000000000000000000000000000000000000000000000000000000000 DUP2 MSTORE PUSH1 0x20 PUSH1 0x4 DUP3 ADD MSTORE PUSH1 0x1D PUSH1 0x24 DUP3 ADD MSTORE PUSH32 0x6F6E6C79207768656E206F70657261746F72206E6F7420616374697665000000 PUSH1 0x44 DUP3 ADD MSTORE SWAP1 MLOAD SWAP1 DUP2 SWAP1 SUB PUSH1 0x64 ADD SWAP1 REVERT JUMPDEST PUSH1 0x2 DUP1 SLOAD PUSH32 0xFFFFFFFFFFFFFFFFFFFFFF00FFFFFFFFFFFFFFFFFFFFFFFFFFFFFFFFFFFFFFFF AND PUSH21 0x10000000000000000000000000000000000000000 OR SWAP1 DUP2 SWAP1 SSTORE PUSH1 0x40 DUP1 MLOAD PUSH20 0xFFFFFFFFFFFFFFFFFFFFFFFFFFFFFFFFFFFFFFFF SWAP1 SWAP3 AND DUP3 MSTORE PUSH1 0x1 PUSH1 0x20 DUP4 ADD MSTORE DUP1 MLOAD PUSH32 0x966C160E1C4DBC7DF8D69AF4ACE01E9297C3CF016397B7914971F2FBFA32672D SWAP3 DUP2 SWAP1 SUB SWAP1 SWAP2 ADD SWAP1 LOG1 JUMP JUMPDEST PUSH1 0x0 DUP2 PUSH1 0x2 DUP2 GT ISZERO PUSH2 0x1686 JUMPI INVALID JUMPDEST EQ DUP1 PUSH2 0x169D JUMPI POP PUSH1 0x1 DUP2 PUSH1 0x2 DUP2 GT ISZERO PUSH2 0x169B JUMPI INVALID JUMPDEST EQ JUMPDEST ISZERO PUSH2 0x16F9 JUMPI DUP2 ISZERO PUSH2 0x16F9 JUMPI PUSH1 0x40 MLOAD PUSH32 0x8C379A000000000000000000000000000000000000000000000000000000000 DUP2 MSTORE PUSH1 0x4 ADD DUP1 DUP1 PUSH1 0x20 ADD DUP3 DUP2 SUB DUP3 MSTORE PUSH1 0x2C DUP2 MSTORE PUSH1 0x20 ADD DUP1 PUSH2 0x252C PUSH1 0x2C SWAP2 CODECOPY PUSH1 0x40 ADD SWAP2 POP POP PUSH1 0x40 MLOAD DUP1 SWAP2 SUB SWAP1 REVERT JUMPDEST PUSH20 0xFFFFFFFFFFFFFFFFFFFFFFFFFFFFFFFFFFFFFFFF DUP4 AND PUSH1 0x0 SWAP1 DUP2 MSTORE PUSH1 0x1 PUSH1 0x20 DUP2 SWAP1 MSTORE PUSH1 0x40 SWAP1 SWAP2 KECCAK256 DUP4 DUP2 SSTORE DUP2 ADD DUP1 SLOAD DUP4 SWAP3 PUSH32 0xFFFFFFFFFFFFFFFFFFFFFFFFFFFFFFFFFFFFFFFFFFFFFFFFFFFFFFFFFFFFFF00 SWAP1 SWAP2 AND SWAP1 DUP4 PUSH1 0x2 DUP2 GT ISZERO PUSH2 0x175B JUMPI INVALID JUMPDEST MUL OR SWAP1 SSTORE POP PUSH32 0xC964ED8AF672F908DC7BA57F61D45A87A7E179CECF5198E7B7D53C920D898F06 DUP4 DUP4 DUP4 PUSH1 0x40 MLOAD DUP1 DUP5 PUSH20 0xFFFFFFFFFFFFFFFFFFFFFFFFFFFFFFFFFFFFFFFF AND PUSH20 0xFFFFFFFFFFFFFFFFFFFFFFFFFFFFFFFFFFFFFFFF AND DUP2 MSTORE PUSH1 0x20 ADD DUP4 DUP2 MSTORE PUSH1 0x20 ADD DUP3 PUSH1 0x2 DUP2 GT ISZERO PUSH2 0x17CC JUMPI INVALID JUMPDEST PUSH1 0xFF AND DUP2 MSTORE PUSH1 0x20 ADD SWAP4 POP POP POP POP PUSH1 0x40 MLOAD DUP1 SWAP2 SUB SWAP1 LOG1 POP POP POP JUMP JUMPDEST PUSH32 0xBB39EBB37E60FB5D606FFDB749D2336E56B88E6C88C4BD6513B308F643186EED DUP2 PUSH1 0x40 MLOAD DUP1 DUP1 PUSH1 0x20 ADD DUP3 DUP2 SUB DUP3 MSTORE DUP4 DUP2 DUP2 MLOAD DUP2 MSTORE PUSH1 0x20 ADD SWAP2 POP DUP1 MLOAD SWAP1 PUSH1 0x20 ADD SWAP1 DUP1 DUP4 DUP4 PUSH1 0x0 JUMPDEST DUP4 DUP2 LT ISZERO PUSH2 0x1845 JUMPI DUP2 DUP2 ADD MLOAD DUP4 DUP3 ADD MSTORE PUSH1 0x20 ADD PUSH2 0x182D JUMP JUMPDEST POP POP POP POP SWAP1 POP SWAP1 DUP2 ADD SWAP1 PUSH1 0x1F AND DUP1 ISZERO PUSH2 0x1872 JUMPI DUP1 DUP3 SUB DUP1 MLOAD PUSH1 0x1 DUP4 PUSH1 0x20 SUB PUSH2 0x100 EXP SUB NOT AND DUP2 MSTORE PUSH1 0x20 ADD SWAP2 POP JUMPDEST POP SWAP3 POP POP POP PUSH1 0x40 MLOAD DUP1 SWAP2 SUB SWAP1 LOG1 POP JUMP JUMPDEST PUSH1 0x0 DUP3 PUSH2 0x1891 JUMPI POP PUSH1 0x0 PUSH2 0x937 JUMP JUMPDEST DUP3 DUP3 MUL DUP3 DUP5 DUP3 DUP2 PUSH2 0x189E JUMPI INVALID JUMPDEST DIV EQ PUSH2 0xC6A JUMPI PUSH1 0x40 MLOAD PUSH32 0x8C379A000000000000000000000000000000000000000000000000000000000 DUP2 MSTORE PUSH1 0x4 ADD DUP1 DUP1 PUSH1 0x20 ADD DUP3 DUP2 SUB DUP3 MSTORE PUSH1 0x21 DUP2 MSTORE PUSH1 0x20 ADD DUP1 PUSH2 0x249E PUSH1 0x21 SWAP2 CODECOPY PUSH1 0x40 ADD SWAP2 POP POP PUSH1 0x40 MLOAD DUP1 SWAP2 SUB SWAP1 REVERT JUMPDEST PUSH1 0x0 PUSH8 0xDE0B6B3A7640000 PUSH2 0x191F PUSH2 0x190D DUP6 DUP6 PUSH2 0x1882 JUMP JUMPDEST PUSH1 0x2 PUSH8 0xDE0B6B3A7640000 JUMPDEST DIV PUSH2 0x224D JUMP JUMPDEST DUP2 PUSH2 0x1926 JUMPI INVALID JUMPDEST DIV SWAP4 SWAP3 POP POP POP JUMP JUMPDEST PUSH20 0xFFFFFFFFFFFFFFFFFFFFFFFFFFFFFFFFFFFFFFFF DUP5 AND PUSH1 0x0 SWAP1 DUP2 MSTORE PUSH1 0x20 DUP2 SWAP1 MSTORE PUSH1 0x40 SWAP1 KECCAK256 SLOAD DUP3 EQ PUSH2 0x19C1 JUMPI PUSH1 0x40 DUP1 MLOAD PUSH32 0x8C379A000000000000000000000000000000000000000000000000000000000 DUP2 MSTORE PUSH1 0x20 PUSH1 0x4 DUP3 ADD MSTORE PUSH1 0x17 PUSH1 0x24 DUP3 ADD MSTORE PUSH32 0x63757272656E74207374616B6520696E636F7272656374000000000000000000 PUSH1 0x44 DUP3 ADD MSTORE SWAP1 MLOAD SWAP1 DUP2 SWAP1 SUB PUSH1 0x64 ADD SWAP1 REVERT JUMPDEST PUSH1 0x0 DUP2 GT PUSH2 0x1A30 JUMPI PUSH1 0x40 DUP1 MLOAD PUSH32 0x8C379A000000000000000000000000000000000000000000000000000000000 DUP2 MSTORE PUSH1 0x20 PUSH1 0x4 DUP3 ADD MSTORE PUSH1 0x10 PUSH1 0x24 DUP3 ADD MSTORE PUSH32 0x6E6F207374616B6520746F2074616B6500000000000000000000000000000000 PUSH1 0x44 DUP3 ADD MSTORE SWAP1 MLOAD SWAP1 DUP2 SWAP1 SUB PUSH1 0x64 ADD SWAP1 REVERT JUMPDEST DUP2 DUP2 GT ISZERO PUSH2 0x1A89 JUMPI PUSH1 0x40 MLOAD PUSH32 0x8C379A000000000000000000000000000000000000000000000000000000000 DUP2 MSTORE PUSH1 0x4 ADD DUP1 DUP1 PUSH1 0x20 ADD DUP3 DUP2 SUB DUP3 MSTORE PUSH1 0x22 DUP2 MSTORE PUSH1 0x20 ADD DUP1 PUSH2 0x2458 PUSH1 0x22 SWAP2 CODECOPY PUSH1 0x40 ADD SWAP2 POP POP PUSH1 0x40 MLOAD DUP1 SWAP2 SUB SWAP1 REVERT JUMPDEST PUSH1 0x0 PUSH2 0x1A9B DUP4 DUP4 PUSH4 0xFFFFFFFF PUSH2 0x22C1 AND JUMP JUMPDEST PUSH20 0xFFFFFFFFFFFFFFFFFFFFFFFFFFFFFFFFFFFFFFFF DUP7 AND PUSH1 0x0 SWAP1 DUP2 MSTORE PUSH1 0x20 DUP2 SWAP1 MSTORE PUSH1 0x40 SWAP1 KECCAK256 DUP2 SWAP1 SSTORE SWAP1 POP PUSH2 0x1ACD PUSH2 0x807 JUMP JUMPDEST PUSH20 0xFFFFFFFFFFFFFFFFFFFFFFFFFFFFFFFFFFFFFFFF AND PUSH4 0xA9059CBB DUP6 DUP5 PUSH1 0x40 MLOAD DUP4 PUSH4 0xFFFFFFFF AND PUSH1 0xE0 SHL DUP2 MSTORE PUSH1 0x4 ADD DUP1 DUP4 PUSH20 0xFFFFFFFFFFFFFFFFFFFFFFFFFFFFFFFFFFFFFFFF AND PUSH20 0xFFFFFFFFFFFFFFFFFFFFFFFFFFFFFFFFFFFFFFFF AND DUP2 MSTORE PUSH1 0x20 ADD DUP3 DUP2 MSTORE PUSH1 0x20 ADD SWAP3 POP POP POP PUSH1 0x20 PUSH1 0x40 MLOAD DUP1 DUP4 SUB DUP2 PUSH1 0x0 DUP8 DUP1 EXTCODESIZE ISZERO DUP1 ISZERO PUSH2 0x1B53 JUMPI PUSH1 0x0 DUP1 REVERT JUMPDEST POP GAS CALL ISZERO DUP1 ISZERO PUSH2 0x1B67 JUMPI RETURNDATASIZE PUSH1 0x0 DUP1 RETURNDATACOPY RETURNDATASIZE PUSH1 0x0 REVERT JUMPDEST POP POP POP POP PUSH1 0x40 MLOAD RETURNDATASIZE PUSH1 0x20 DUP2 LT ISZERO PUSH2 0x1B7D JUMPI PUSH1 0x0 DUP1 REVERT JUMPDEST POP MLOAD PUSH2 0x1BEA JUMPI PUSH1 0x40 DUP1 MLOAD PUSH32 0x8C379A000000000000000000000000000000000000000000000000000000000 DUP2 MSTORE PUSH1 0x20 PUSH1 0x4 DUP3 ADD MSTORE PUSH1 0x15 PUSH1 0x24 DUP3 ADD MSTORE PUSH32 0x746F6B656E207472616E73666572206661696C65640000000000000000000000 PUSH1 0x44 DUP3 ADD MSTORE SWAP1 MLOAD SWAP1 DUP2 SWAP1 SUB PUSH1 0x64 ADD SWAP1 REVERT JUMPDEST PUSH1 0x40 DUP1 MLOAD PUSH20 0xFFFFFFFFFFFFFFFFFFFFFFFFFFFFFFFFFFFFFFFF DUP1 DUP9 AND DUP3 MSTORE DUP7 AND PUSH1 0x20 DUP3 ADD MSTORE DUP1 DUP3 ADD DUP5 SWAP1 MSTORE PUSH1 0x60 DUP2 ADD DUP4 SWAP1 MSTORE SWAP1 MLOAD PUSH32 0x79CB01D8E263C1D344176F9A596B5A6AA14A7DF350A227E2E7DF836A087B5661 SWAP2 DUP2 SWAP1 SUB PUSH1 0x80 ADD SWAP1 LOG1 POP POP POP POP POP JUMP JUMPDEST PUSH1 0x0 DUP2 PUSH2 0x191F PUSH2 0x1C67 DUP6 PUSH8 0xDE0B6B3A7640000 PUSH2 0x1882 JUMP JUMPDEST PUSH1 0x2 DUP6 PUSH2 0x1919 JUMP JUMPDEST PUSH20 0xFFFFFFFFFFFFFFFFFFFFFFFFFFFFFFFFFFFFFFFF DUP5 AND PUSH1 0x0 SWAP1 DUP2 MSTORE PUSH1 0x20 DUP2 SWAP1 MSTORE PUSH1 0x40 SWAP1 KECCAK256 SLOAD DUP3 EQ PUSH2 0x1D02 JUMPI PUSH1 0x40 DUP1 MLOAD PUSH32 0x8C379A000000000000000000000000000000000000000000000000000000000 DUP2 MSTORE PUSH1 0x20 PUSH1 0x4 DUP3 ADD MSTORE PUSH1 0x17 PUSH1 0x24 DUP3 ADD MSTORE PUSH32 0x63757272656E74207374616B6520696E636F7272656374000000000000000000 PUSH1 0x44 DUP3 ADD MSTORE SWAP1 MLOAD SWAP1 DUP2 SWAP1 SUB PUSH1 0x64 ADD SWAP1 REVERT JUMPDEST PUSH1 0x0 DUP2 GT PUSH2 0x1D71 JUMPI PUSH1 0x40 DUP1 MLOAD PUSH32 0x8C379A000000000000000000000000000000000000000000000000000000000 DUP2 MSTORE PUSH1 0x20 PUSH1 0x4 DUP3 ADD MSTORE PUSH1 0xF PUSH1 0x24 DUP3 ADD MSTORE PUSH32 0x6E6F207374616B6520746F206164640000000000000000000000000000000000 PUSH1 0x44 DUP3 ADD MSTORE SWAP1 MLOAD SWAP1 DUP2 SWAP1 SUB PUSH1 0x64 ADD SWAP1 REVERT JUMPDEST PUSH1 0x0 PUSH2 0x1D83 DUP4 DUP4 PUSH4 0xFFFFFFFF PUSH2 0x224D AND JUMP JUMPDEST PUSH20 0xFFFFFFFFFFFFFFFFFFFFFFFFFFFFFFFFFFFFFFFF DUP7 AND PUSH1 0x0 SWAP1 DUP2 MSTORE PUSH1 0x20 DUP2 SWAP1 MSTORE PUSH1 0x40 SWAP1 KECCAK256 DUP2 SWAP1 SSTORE SWAP1 POP PUSH2 0x1DB5 PUSH2 0x807 JUMP JUMPDEST PUSH1 0x40 DUP1 MLOAD PUSH32 0x23B872DD00000000000000000000000000000000000000000000000000000000 DUP2 MSTORE PUSH20 0xFFFFFFFFFFFFFFFFFFFFFFFFFFFFFFFFFFFFFFFF DUP8 DUP2 AND PUSH1 0x4 DUP4 ADD MSTORE ADDRESS PUSH1 0x24 DUP4 ADD MSTORE PUSH1 0x44 DUP3 ADD DUP7 SWAP1 MSTORE SWAP2 MLOAD SWAP3 SWAP1 SWAP2 AND SWAP2 PUSH4 0x23B872DD SWAP2 PUSH1 0x64 DUP1 DUP3 ADD SWAP3 PUSH1 0x20 SWAP3 SWAP1 SWAP2 SWAP1 DUP3 SWAP1 SUB ADD DUP2 PUSH1 0x0 DUP8 DUP1 EXTCODESIZE ISZERO DUP1 ISZERO PUSH2 0x1E35 JUMPI PUSH1 0x0 DUP1 REVERT JUMPDEST POP GAS CALL ISZERO DUP1 ISZERO PUSH2 0x1E49 JUMPI RETURNDATASIZE PUSH1 0x0 DUP1 RETURNDATACOPY RETURNDATASIZE PUSH1 0x0 REVERT JUMPDEST POP POP POP POP PUSH1 0x40 MLOAD RETURNDATASIZE PUSH1 0x20 DUP2 LT ISZERO PUSH2 0x1E5F JUMPI PUSH1 0x0 DUP1 REVERT JUMPDEST POP MLOAD PUSH2 0x1ECC JUMPI PUSH1 0x40 DUP1 MLOAD PUSH32 0x8C379A000000000000000000000000000000000000000000000000000000000 DUP2 MSTORE PUSH1 0x20 PUSH1 0x4 DUP3 ADD MSTORE PUSH1 0x15 PUSH1 0x24 DUP3 ADD MSTORE PUSH32 0x746F6B656E207472616E73666572206661696C65640000000000000000000000 PUSH1 0x44 DUP3 ADD MSTORE SWAP1 MLOAD SWAP1 DUP2 SWAP1 SUB PUSH1 0x64 ADD SWAP1 REVERT JUMPDEST PUSH1 0x40 DUP1 MLOAD PUSH20 0xFFFFFFFFFFFFFFFFFFFFFFFFFFFFFFFFFFFFFFFF DUP1 DUP9 AND DUP3 MSTORE DUP7 AND PUSH1 0x20 DUP3 ADD MSTORE DUP1 DUP3 ADD DUP5 SWAP1 MSTORE PUSH1 0x60 DUP2 ADD DUP4 SWAP1 MSTORE SWAP1 MLOAD PUSH32 0xEF7C8DFEF14CBEFDF829B8F066B068B677992411137321D64B3ED4538C2B3637 SWAP2 DUP2 SWAP1 SUB PUSH1 0x80 ADD SWAP1 LOG1 POP POP POP POP POP JUMP JUMPDEST PUSH1 0x40 DUP1 MLOAD PUSH32 0x7C8D56B800000000000000000000000000000000000000000000000000000000 DUP2 MSTORE PUSH20 0xFFFFFFFFFFFFFFFFFFFFFFFFFFFFFFFFFFFFFFFF DUP5 AND PUSH1 0x4 DUP3 ADD MSTORE PUSH1 0x24 DUP2 ADD DUP4 SWAP1 MSTORE SWAP1 MLOAD PUSH20 0x1776E1F26F98B1A5DF9CD347953A26DD3CB46671 SWAP2 PUSH4 0x7C8D56B8 SWAP2 PUSH1 0x44 DUP1 DUP4 ADD SWAP3 PUSH1 0x20 SWAP3 SWAP2 SWAP1 DUP3 SWAP1 SUB ADD DUP2 PUSH1 0x0 DUP8 DUP1 EXTCODESIZE ISZERO DUP1 ISZERO PUSH2 0x1FBA JUMPI PUSH1 0x0 DUP1 REVERT JUMPDEST POP GAS CALL ISZERO DUP1 ISZERO PUSH2 0x1FCE JUMPI RETURNDATASIZE PUSH1 0x0 DUP1 RETURNDATACOPY RETURNDATASIZE PUSH1 0x0 REVERT JUMPDEST POP POP POP POP PUSH1 0x40 MLOAD RETURNDATASIZE PUSH1 0x20 DUP2 LT ISZERO PUSH2 0x1FE4 JUMPI PUSH1 0x0 DUP1 REVERT JUMPDEST POP MLOAD PUSH2 0xD03 JUMPI PUSH1 0x40 DUP1 MLOAD PUSH32 0x8C379A000000000000000000000000000000000000000000000000000000000 DUP2 MSTORE PUSH1 0x20 PUSH1 0x4 DUP3 ADD MSTORE PUSH1 0x13 PUSH1 0x24 DUP3 ADD MSTORE PUSH32 0x6E6D72206275726E46726F6D206661696C656400000000000000000000000000 PUSH1 0x44 DUP3 ADD MSTORE SWAP1 MLOAD SWAP1 DUP2 SWAP1 SUB PUSH1 0x64 ADD SWAP1 REVERT JUMPDEST PUSH20 0xFFFFFFFFFFFFFFFFFFFFFFFFFFFFFFFFFFFFFFFF DUP4 AND PUSH1 0x0 SWAP1 DUP2 MSTORE PUSH1 0x20 DUP2 SWAP1 MSTORE PUSH1 0x40 SWAP1 KECCAK256 SLOAD DUP3 EQ PUSH2 0x20E4 JUMPI PUSH1 0x40 DUP1 MLOAD PUSH32 0x8C379A000000000000000000000000000000000000000000000000000000000 DUP2 MSTORE PUSH1 0x20 PUSH1 0x4 DUP3 ADD MSTORE PUSH1 0x17 PUSH1 0x24 DUP3 ADD MSTORE PUSH32 0x63757272656E74207374616B6520696E636F7272656374000000000000000000 PUSH1 0x44 DUP3 ADD MSTORE SWAP1 MLOAD SWAP1 DUP2 SWAP1 SUB PUSH1 0x64 ADD SWAP1 REVERT JUMPDEST PUSH1 0x0 DUP2 GT PUSH2 0x2153 JUMPI PUSH1 0x40 DUP1 MLOAD PUSH32 0x8C379A000000000000000000000000000000000000000000000000000000000 DUP2 MSTORE PUSH1 0x20 PUSH1 0x4 DUP3 ADD MSTORE PUSH1 0x10 PUSH1 0x24 DUP3 ADD MSTORE PUSH32 0x6E6F207374616B6520746F206275726E00000000000000000000000000000000 PUSH1 0x44 DUP3 ADD MSTORE SWAP1 MLOAD SWAP1 DUP2 SWAP1 SUB PUSH1 0x64 ADD SWAP1 REVERT JUMPDEST DUP2 DUP2 GT ISZERO PUSH2 0x21AC JUMPI PUSH1 0x40 MLOAD PUSH32 0x8C379A000000000000000000000000000000000000000000000000000000000 DUP2 MSTORE PUSH1 0x4 ADD DUP1 DUP1 PUSH1 0x20 ADD DUP3 DUP2 SUB DUP3 MSTORE PUSH1 0x22 DUP2 MSTORE PUSH1 0x20 ADD DUP1 PUSH2 0x24BF PUSH1 0x22 SWAP2 CODECOPY PUSH1 0x40 ADD SWAP2 POP POP PUSH1 0x40 MLOAD DUP1 SWAP2 SUB SWAP1 REVERT JUMPDEST PUSH1 0x0 PUSH2 0x21BE DUP4 DUP4 PUSH4 0xFFFFFFFF PUSH2 0x22C1 AND JUMP JUMPDEST PUSH20 0xFFFFFFFFFFFFFFFFFFFFFFFFFFFFFFFFFFFFFFFF DUP6 AND PUSH1 0x0 SWAP1 DUP2 MSTORE PUSH1 0x20 DUP2 SWAP1 MSTORE PUSH1 0x40 SWAP1 KECCAK256 DUP2 SWAP1 SSTORE SWAP1 POP PUSH2 0x21F1 DUP3 PUSH2 0x2338 JUMP JUMPDEST PUSH1 0x40 DUP1 MLOAD PUSH20 0xFFFFFFFFFFFFFFFFFFFFFFFFFFFFFFFFFFFFFFFF DUP7 AND DUP2 MSTORE PUSH1 0x20 DUP2 ADD DUP5 SWAP1 MSTORE DUP1 DUP3 ADD DUP4 SWAP1 MSTORE SWAP1 MLOAD PUSH32 0xF470D7F6C239014B63DB190652EBE51433A828B65E06D9972143C34C2E2CA3BC SWAP2 DUP2 SWAP1 SUB PUSH1 0x60 ADD SWAP1 LOG1 POP POP POP POP JUMP JUMPDEST PUSH1 0x0 DUP3 DUP3 ADD DUP4 DUP2 LT ISZERO PUSH2 0xC6A JUMPI PUSH1 0x40 DUP1 MLOAD PUSH32 0x8C379A000000000000000000000000000000000000000000000000000000000 DUP2 MSTORE PUSH1 0x20 PUSH1 0x4 DUP3 ADD MSTORE PUSH1 0x1B PUSH1 0x24 DUP3 ADD MSTORE PUSH32 0x536166654D6174683A206164646974696F6E206F766572666C6F770000000000 PUSH1 0x44 DUP3 ADD MSTORE SWAP1 MLOAD SWAP1 DUP2 SWAP1 SUB PUSH1 0x64 ADD SWAP1 REVERT JUMPDEST PUSH1 0x0 DUP3 DUP3 GT ISZERO PUSH2 0x2332 JUMPI PUSH1 0x40 DUP1 MLOAD PUSH32 0x8C379A000000000000000000000000000000000000000000000000000000000 DUP2 MSTORE PUSH1 0x20 PUSH1 0x4 DUP3 ADD MSTORE PUSH1 0x1E PUSH1 0x24 DUP3 ADD MSTORE PUSH32 0x536166654D6174683A207375627472616374696F6E206F766572666C6F770000 PUSH1 0x44 DUP3 ADD MSTORE SWAP1 MLOAD SWAP1 DUP2 SWAP1 SUB PUSH1 0x64 ADD SWAP1 REVERT JUMPDEST POP SWAP1 SUB SWAP1 JUMP JUMPDEST PUSH20 0x1776E1F26F98B1A5DF9CD347953A26DD3CB46671 PUSH20 0xFFFFFFFFFFFFFFFFFFFFFFFFFFFFFFFFFFFFFFFF AND PUSH4 0xA0712D68 DUP3 PUSH1 0x40 MLOAD DUP3 PUSH4 0xFFFFFFFF AND PUSH1 0xE0 SHL DUP2 MSTORE PUSH1 0x4 ADD DUP1 DUP3 DUP2 MSTORE PUSH1 0x20 ADD SWAP2 POP POP PUSH1 0x20 PUSH1 0x40 MLOAD DUP1 DUP4 SUB DUP2 PUSH1 0x0 DUP8 DUP1 EXTCODESIZE ISZERO DUP1 ISZERO PUSH2 0x239F JUMPI PUSH1 0x0 DUP1 REVERT JUMPDEST POP GAS CALL ISZERO DUP1 ISZERO PUSH2 0x23B3 JUMPI RETURNDATASIZE PUSH1 0x0 DUP1 RETURNDATACOPY RETURNDATASIZE PUSH1 0x0 REVERT JUMPDEST POP POP POP POP PUSH1 0x40 MLOAD RETURNDATASIZE PUSH1 0x20 DUP2 LT ISZERO PUSH2 0x23C9 JUMPI PUSH1 0x0 DUP1 REVERT JUMPDEST POP MLOAD PUSH2 0x89C JUMPI PUSH1 0x40 DUP1 MLOAD PUSH32 0x8C379A000000000000000000000000000000000000000000000000000000000 DUP2 MSTORE PUSH1 0x20 PUSH1 0x4 DUP3 ADD MSTORE PUSH1 0xF PUSH1 0x24 DUP3 ADD MSTORE PUSH32 0x6E6D72206275726E206661696C65640000000000000000000000000000000000 PUSH1 0x44 DUP3 ADD MSTORE SWAP1 MLOAD SWAP1 DUP2 SWAP1 SUB PUSH1 0x64 ADD SWAP1 REVERT INVALID PUSH19 0x6174696F547970652063616E6E6F7420626520 MSTORE PUSH2 0x7469 PUSH16 0x547970652E496E6663616E6E6F742074 PUSH2 0x6B65 KECCAK256 PUSH14 0x6F7265207468616E206375727265 PUSH15 0x745374616B656F6E6C7920636F756E PUSH21 0x65727061727479206F7220616374697665206F7065 PUSH19 0x61746F72536166654D6174683A206D756C7469 PUSH17 0x6C69636174696F6E206F766572666C6F77 PUSH4 0x616E6E6F PUSH21 0x206275726E206D6F7265207468616E206375727265 PUSH15 0x745374616B656D7573742062652063 PUSH2 0x6C6C PUSH6 0x642077697468 PUSH10 0x6E20636F6E7472616374 KECCAK256 PUSH4 0x6F6E7374 PUSH19 0x7563746F72726174696F547970652063616E6E PUSH16 0x7420626520526174696F547970652E4E PUSH2 0x4E72 PUSH2 0x7469 PUSH16 0x206D7573742062652030207768656E20 PUSH19 0x6174696F54797065206973204E614E206F7220 0x49 PUSH15 0x66A265627A7A723158201330984F01 0x48 0x26 0xe6 PUSH7 0xC480B141FD3B35 0x1f 0x2f SWAP8 0xb3 0xb4 REVERT DUP9 0xe1 0x25 EXTCODECOPY 0x4a 0xd2 SWAP8 0x49 0xdb SWAP16 PUSH5 0x736F6C6343 STOP SDIV SIGNEXTEND STOP ORIGIN "
			}
		}
	},
	"sourceTreeHashHex": "0x7afccc58399b665602e38471754c1ab2a153a829cb253bc23abfc98d438ef0fb",
	"compiler": {
		"name": "solc",
		"version": "soljson-v0.5.11+commit.c082d0b4.js",
		"settings": {
			"optimizer": {
				"enabled": true,
				"runs": 999999999
			},
			"outputSelection": {
				"*": {
					"*": [
						"abi",
						"evm.bytecode.object"
					]
				}
			},
			"evmVersion": "constantinople",
			"remappings": []
		}
	}
}