{
  "contractName": "CountdownGriefing_Factory",
  "abi": [
    {
      "inputs": [
        {
          "internalType": "address",
          "name": "instanceRegistry",
          "type": "address"
        },
        {
          "internalType": "address",
          "name": "templateContract",
          "type": "address"
        }
      ],
      "payable": false,
      "stateMutability": "nonpayable",
      "type": "constructor"
    },
    {
      "anonymous": false,
      "inputs": [
        {
          "indexed": true,
          "internalType": "address",
          "name": "instance",
          "type": "address"
        },
        {
          "indexed": true,
          "internalType": "address",
          "name": "creator",
          "type": "address"
        },
        {
          "indexed": false,
          "internalType": "bytes",
          "name": "callData",
          "type": "bytes"
        }
      ],
      "name": "InstanceCreated",
      "type": "event"
    },
    {
      "constant": false,
      "inputs": [
        {
          "internalType": "bytes",
          "name": "callData",
          "type": "bytes"
        }
      ],
      "name": "create",
      "outputs": [
        {
          "internalType": "address",
          "name": "instance",
          "type": "address"
        }
      ],
      "payable": false,
      "stateMutability": "nonpayable",
      "type": "function"
    },
    {
      "constant": false,
      "inputs": [
        {
          "internalType": "bytes",
          "name": "callData",
          "type": "bytes"
        },
        {
          "internalType": "bytes32",
          "name": "salt",
          "type": "bytes32"
        }
      ],
      "name": "createSalty",
      "outputs": [
        {
          "internalType": "address",
          "name": "instance",
          "type": "address"
        }
      ],
      "payable": false,
      "stateMutability": "nonpayable",
      "type": "function"
    },
    {
      "constant": true,
      "inputs": [],
      "name": "getInitSelector",
      "outputs": [
        {
          "internalType": "bytes4",
          "name": "initSelector",
          "type": "bytes4"
        }
      ],
      "payable": false,
      "stateMutability": "view",
      "type": "function"
    },
    {
      "constant": true,
      "inputs": [
        {
          "internalType": "uint256",
          "name": "index",
          "type": "uint256"
        }
      ],
      "name": "getInstance",
      "outputs": [
        {
          "internalType": "address",
          "name": "instance",
          "type": "address"
        }
      ],
      "payable": false,
      "stateMutability": "view",
      "type": "function"
    },
    {
      "constant": true,
      "inputs": [],
      "name": "getInstanceCount",
      "outputs": [
        {
          "internalType": "uint256",
          "name": "count",
          "type": "uint256"
        }
      ],
      "payable": false,
      "stateMutability": "view",
      "type": "function"
    },
    {
      "constant": true,
      "inputs": [
        {
          "internalType": "address",
          "name": "instance",
          "type": "address"
        }
      ],
      "name": "getInstanceCreator",
      "outputs": [
        {
          "internalType": "address",
          "name": "creator",
          "type": "address"
        }
      ],
      "payable": false,
      "stateMutability": "view",
      "type": "function"
    },
    {
      "constant": true,
      "inputs": [],
      "name": "getInstanceRegistry",
      "outputs": [
        {
          "internalType": "address",
          "name": "instanceRegistry",
          "type": "address"
        }
      ],
      "payable": false,
      "stateMutability": "view",
      "type": "function"
    },
    {
      "constant": true,
      "inputs": [],
      "name": "getInstanceType",
      "outputs": [
        {
          "internalType": "bytes4",
          "name": "instanceType",
          "type": "bytes4"
        }
      ],
      "payable": false,
      "stateMutability": "view",
      "type": "function"
    },
    {
      "constant": true,
      "inputs": [],
      "name": "getInstances",
      "outputs": [
        {
          "internalType": "address[]",
          "name": "instances",
          "type": "address[]"
        }
      ],
      "payable": false,
      "stateMutability": "view",
      "type": "function"
    },
    {
      "constant": true,
      "inputs": [
        {
          "internalType": "address",
          "name": "creator",
          "type": "address"
        },
        {
          "internalType": "bytes",
          "name": "callData",
          "type": "bytes"
        }
      ],
      "name": "getNextNonceInstance",
      "outputs": [
        {
          "internalType": "address",
          "name": "target",
          "type": "address"
        }
      ],
      "payable": false,
      "stateMutability": "view",
      "type": "function"
    },
    {
      "constant": true,
      "inputs": [
        {
          "internalType": "uint256",
          "name": "startIndex",
          "type": "uint256"
        },
        {
          "internalType": "uint256",
          "name": "endIndex",
          "type": "uint256"
        }
      ],
      "name": "getPaginatedInstances",
      "outputs": [
        {
          "internalType": "address[]",
          "name": "instances",
          "type": "address[]"
        }
      ],
      "payable": false,
      "stateMutability": "view",
      "type": "function"
    },
    {
      "constant": true,
      "inputs": [
        {
          "internalType": "address",
          "name": "creator",
          "type": "address"
        },
        {
          "internalType": "bytes",
          "name": "callData",
          "type": "bytes"
        },
        {
          "internalType": "bytes32",
          "name": "salt",
          "type": "bytes32"
        }
      ],
      "name": "getSaltyInstance",
      "outputs": [
        {
          "internalType": "address",
          "name": "instance",
          "type": "address"
        },
        {
          "internalType": "bool",
          "name": "validity",
          "type": "bool"
        }
      ],
      "payable": false,
      "stateMutability": "view",
      "type": "function"
    },
    {
      "constant": true,
      "inputs": [],
      "name": "getTemplate",
      "outputs": [
        {
          "internalType": "address",
          "name": "template",
          "type": "address"
        }
      ],
      "payable": false,
      "stateMutability": "view",
      "type": "function"
    }
  ],
  "bytecode": "0x60806040523480156200001157600080fd5b5060405162001e1338038062001e13833981810160405260408110156200003757600080fd5b8101908080519060200190929190805190602001909291905050506000806040518060400160405280600981526020017f41677265656d656e74000000000000000000000000000000000000000000000081525080519060200120905060008273ffffffffffffffffffffffffffffffffffffffff1663b6ef4284905060e01b9050620000d285858484620000dd60201b620015eb1760201c565b5050505050620002d8565b83600360006101000a81548173ffffffffffffffffffffffffffffffffffffffff021916908373ffffffffffffffffffffffffffffffffffffffff16021790555082600260006101000a81548173ffffffffffffffffffffffffffffffffffffffff021916908373ffffffffffffffffffffffffffffffffffffffff16021790555080600260146101000a81548163ffffffff021916908360e01c02179055508373ffffffffffffffffffffffffffffffffffffffff166318c2f4cf6040518163ffffffff1660e01b815260040160206040518083038186803b158015620001c457600080fd5b505afa158015620001d9573d6000803e3d6000fd5b505050506040513d6020811015620001f057600080fd5b81019080805190602001909291905050507bffffffffffffffffffffffffffffffffffffffffffffffffffffffff1916827bffffffffffffffffffffffffffffffffffffffffffffffffffffffff191614620002b4576040517f08c379a00000000000000000000000000000000000000000000000000000000081526004018080602001828103825260178152602001807f696e636f727265637420696e7374616e6365207479706500000000000000000081525060200191505060405180910390fd5b81600360146101000a81548163ffffffff021916908360e01c021790555050505050565b611b2b80620002e86000396000f3fe60806040523480156200001157600080fd5b5060043610620000e25760003560e01c8063897c90841162000099578063b71f2e72116200006f578063b71f2e721462000644578063cf5ba53f14620006d6578063d35fdd7914620007d7578063ebd348de146200083a57620000e2565b8063897c908414620004a2578063a5e1390414620005d8578063ae34325c146200062457620000e2565b806318c2f4cf14620000e7578063321c48f2146200014557806354ed633b14620001915780635ed75de214620001ef5780636bf7198214620002fa5780637a316ff21462000381575b600080fd5b620000f1620008ab565b60405180827bffffffffffffffffffffffffffffffffffffffffffffffffffffffff19167bffffffffffffffffffffffffffffffffffffffffffffffffffffffff1916815260200191505060405180910390f35b6200014f620008c2565b604051808273ffffffffffffffffffffffffffffffffffffffff1673ffffffffffffffffffffffffffffffffffffffff16815260200191505060405180910390f35b6200019b620008ec565b60405180827bffffffffffffffffffffffffffffffffffffffffffffffffffffffff19167bffffffffffffffffffffffffffffffffffffffffffffffffffffffff1916815260200191505060405180910390f35b620002b8600480360360408110156200020757600080fd5b81019080803590602001906401000000008111156200022557600080fd5b8201836020820111156200023857600080fd5b803590602001918460018302840111640100000000831117156200025b57600080fd5b91908080601f016020809104026020016040519081016040528093929190818152602001838380828437600081840152601f19601f8201169050808301925050505050505091929192908035906020019092919050505062000903565b604051808273ffffffffffffffffffffffffffffffffffffffff1673ffffffffffffffffffffffffffffffffffffffff16815260200191505060405180910390f35b6200033f600480360360208110156200031257600080fd5b81019080803573ffffffffffffffffffffffffffffffffffffffff16906020019092919050505062000933565b604051808273ffffffffffffffffffffffffffffffffffffffff1673ffffffffffffffffffffffffffffffffffffffff16815260200191505060405180910390f35b62000460600480360360408110156200039957600080fd5b81019080803573ffffffffffffffffffffffffffffffffffffffff16906020019092919080359060200190640100000000811115620003d757600080fd5b820183602082011115620003ea57600080fd5b803590602001918460018302840111640100000000831117156200040d57600080fd5b91908080601f016020809104026020016040519081016040528093929190818152602001838380828437600081840152601f19601f8201169050808301925050505050505091929192905050506200099c565b604051808273ffffffffffffffffffffffffffffffffffffffff1673ffffffffffffffffffffffffffffffffffffffff16815260200191505060405180910390f35b6200058b60048036036060811015620004ba57600080fd5b81019080803573ffffffffffffffffffffffffffffffffffffffff16906020019092919080359060200190640100000000811115620004f857600080fd5b8201836020820111156200050b57600080fd5b803590602001918460018302840111640100000000831117156200052e57600080fd5b91908080601f016020809104026020016040519081016040528093929190818152602001838380828437600081840152601f19601f82011690508083019250505050505050919291929080359060200190929190505050620009bc565b604051808373ffffffffffffffffffffffffffffffffffffffff1673ffffffffffffffffffffffffffffffffffffffff168152602001821515151581526020019250505060405180910390f35b620005e2620009e2565b604051808273ffffffffffffffffffffffffffffffffffffffff1673ffffffffffffffffffffffffffffffffffffffff16815260200191505060405180910390f35b6200062e62000a0c565b6040518082815260200191505060405180910390f35b6200067d600480360360408110156200065c57600080fd5b81019080803590602001909291908035906020019092919050505062000a18565b6040518080602001828103825283818151815260200191508051906020019060200280838360005b83811015620006c2578082015181840152602081019050620006a5565b505050509050019250505060405180910390f35b6200079560048036036020811015620006ee57600080fd5b81019080803590602001906401000000008111156200070c57600080fd5b8201836020820111156200071f57600080fd5b803590602001918460018302840111640100000000831117156200074257600080fd5b91908080601f016020809104026020016040519081016040528093929190818152602001838380828437600081840152601f19601f82011690508083019250505050505050919291929050505062000bd1565b604051808273ffffffffffffffffffffffffffffffffffffffff1673ffffffffffffffffffffffffffffffffffffffff16815260200191505060405180910390f35b620007e162000bff565b6040518080602001828103825283818151815260200191508051906020019060200280838360005b838110156200082657808201518184015260208101905062000809565b505050509050019250505060405180910390f35b62000869600480360360208110156200085257600080fd5b810190808035906020019092919050505062000c8f565b604051808273ffffffffffffffffffffffffffffffffffffffff1673ffffffffffffffffffffffffffffffffffffffff16815260200191505060405180910390f35b6000600360149054906101000a900460e01b905090565b6000600260009054906101000a900473ffffffffffffffffffffffffffffffffffffffff16905090565b6000600260149054906101000a900460e01b905090565b60006200091c3362000914620008c2565b858562000d4b565b90506200092a818462000df1565b80905092915050565b6000600160008373ffffffffffffffffffffffffffffffffffffffff1673ffffffffffffffffffffffffffffffffffffffff16815260200190815260200160002060009054906101000a900473ffffffffffffffffffffffffffffffffffffffff169050919050565b6000620009b483620009ad620008c2565b846200109d565b905092915050565b600080620009d685620009ce620008c2565b8686620010ce565b91509150935093915050565b6000600360009054906101000a900473ffffffffffffffffffffffffffffffffffffffff16905090565b60008080549050905090565b606081831062000a74576040517f08c379a000000000000000000000000000000000000000000000000000000000815260040180806020018281038252602581526020018062001a7c6025913960400191505060405180910390fd5b60008054905082111562000af0576040517f08c379a00000000000000000000000000000000000000000000000000000000081526004018080602001828103825260168152602001807f656e6420696e646578206f7574206f662072616e67650000000000000000000081525060200191505060405180910390fd5b606083830360405190808252806020026020018201604052801562000b245781602001602082028038833980820191505090505b50905060008490505b8381101562000bc6576000818154811062000b4457fe5b9060005260206000200160009054906101000a900473ffffffffffffffffffffffffffffffffffffffff16828683038151811062000b7e57fe5b602002602001019073ffffffffffffffffffffffffffffffffffffffff16908173ffffffffffffffffffffffffffffffffffffffff1681525050808060010191505062000b2d565b508091505092915050565b600062000be93362000be2620008c2565b846200110c565b905062000bf7818362000df1565b809050919050565b6060600080548060200260200160405190810160405280929190818152602001828054801562000c8557602002820191906000526020600020905b8160009054906101000a900473ffffffffffffffffffffffffffffffffffffffff1673ffffffffffffffffffffffffffffffffffffffff168152602001906001019080831162000c3a575b5050505050905090565b60008080549050821062000d0b576040517f08c379a00000000000000000000000000000000000000000000000000000000081526004018080602001828103825260128152602001807f696e646578206f7574206f662072616e6765000000000000000000000000000081525060200191505060405180910390fd5b6000828154811062000d1957fe5b9060005260206000200160009054906101000a900473ffffffffffffffffffffffffffffffffffffffff169050919050565b60006060600062000d5d868662001153565b8092508193505050600080600062000d778a858962001312565b9250925092508062000dd5576040517f08c379a000000000000000000000000000000000000000000000000000000000815260040180806020018281038252602c81526020018062001acb602c913960400191505060405180910390fd5b62000de2858385620013a4565b95505050505050949350505050565b60008290806001815401808255809150509060018203906000526020600020016000909192909190916101000a81548173ffffffffffffffffffffffffffffffffffffffff021916908373ffffffffffffffffffffffffffffffffffffffff1602179055505033600160008473ffffffffffffffffffffffffffffffffffffffff1673ffffffffffffffffffffffffffffffffffffffff16815260200190815260200160002060006101000a81548173ffffffffffffffffffffffffffffffffffffffff021916908373ffffffffffffffffffffffffffffffffffffffff16021790555062000edf620009e2565b73ffffffffffffffffffffffffffffffffffffffff1663bba83f64833360006040518463ffffffff1660e01b8152600401808473ffffffffffffffffffffffffffffffffffffffff1673ffffffffffffffffffffffffffffffffffffffff1681526020018373ffffffffffffffffffffffffffffffffffffffff1673ffffffffffffffffffffffffffffffffffffffff1681526020018269ffffffffffffffffffff1669ffffffffffffffffffff1681526020019350505050600060405180830381600087803b15801562000fb357600080fd5b505af115801562000fc8573d6000803e3d6000fd5b505050503373ffffffffffffffffffffffffffffffffffffffff168273ffffffffffffffffffffffffffffffffffffffff167fab60131c1462939275d0fd3738e07ab853e22af6296cf75e71bbdf3a497791a2836040518080602001828103825283818151815260200191508051906020019080838360005b838110156200105e57808201518184015260208101905062001041565b50505050905090810190601f1680156200108c5780820380516001836020036101000a031916815260200191505b509250505060405180910390a35050565b600080620010ac848462001153565b905080915050620010be858262001455565b5080925050819150509392505050565b6000806000620010df868662001153565b905080915050620010f287828662001312565b905080935081945050508282925092505094509492505050565b6000606060006200111e858562001153565b809250819350505060008062001135888462001455565b9150915062001146848284620013a4565b9450505050509392505050565b60606000604051806020016200116990620015dd565b6020820181038252601f19601f820116604052508484604051602001808373ffffffffffffffffffffffffffffffffffffffff1673ffffffffffffffffffffffffffffffffffffffff16815260200180602001828103825283818151815260200191508051906020019080838360005b83811015620011f6578082015181840152602081019050620011d9565b50505050905090810190601f168015620012245780820380516001836020036101000a031916815260200191505b5093505050506040516020818303038152906040526040516020018083805190602001908083835b602083106200127157805182526020820191506020810190506020830392506200124c565b6001836020036101000a03801982511681845116808217855250505050505090500182805190602001908083835b60208310620012c457805182526020820191506020810190506020830392506200129f565b6001836020036101000a038019825116818451168082178552505050505050905001925050506040516020818303038152906040529150818051906020012090508181915091509250929050565b60008060008584604051602001808373ffffffffffffffffffffffffffffffffffffffff1673ffffffffffffffffffffffffffffffffffffffff1660601b81526014018281526020019250505060405160208183030381529060405280519060200120915062001383858362001507565b92506200139083620015ca565b905082828292509250925093509350939050565b600083602001845184818334f5925082620013c3573d6000803e3d6000fd5b50508173ffffffffffffffffffffffffffffffffffffffff168173ffffffffffffffffffffffffffffffffffffffff16146200144b576040517f08c379a000000000000000000000000000000000000000000000000000000000815260040180806020018281038252602a81526020018062001aa1602a913960400191505060405180910390fd5b8090509392505050565b60008060008090505b600115620014f9578481604051602001808373ffffffffffffffffffffffffffffffffffffffff1673ffffffffffffffffffffffffffffffffffffffff1660601b815260140182815260200192505050604051602081830303815290604052805190602001209150620014d2848362001507565b9250620014df83620015ca565b15620014eb57620014f9565b80806001019150506200145e565b828292509250509250929050565b600060ff60f81b30838560405160200180857effffffffffffffffffffffffffffffffffffffffffffffffffffffffffffff19167effffffffffffffffffffffffffffffffffffffffffffffffffffffffffffff191681526001018473ffffffffffffffffffffffffffffffffffffffff1673ffffffffffffffffffffffffffffffffffffffff1660601b81526014018381526020018281526020019450505050506040516020818303038152906040528051906020012060001c905092915050565b600080823b905060008114915050919050565b61029580620017e783390190565b83600360006101000a81548173ffffffffffffffffffffffffffffffffffffffff021916908373ffffffffffffffffffffffffffffffffffffffff16021790555082600260006101000a81548173ffffffffffffffffffffffffffffffffffffffff021916908373ffffffffffffffffffffffffffffffffffffffff16021790555080600260146101000a81548163ffffffff021916908360e01c02179055508373ffffffffffffffffffffffffffffffffffffffff166318c2f4cf6040518163ffffffff1660e01b815260040160206040518083038186803b158015620016d257600080fd5b505afa158015620016e7573d6000803e3d6000fd5b505050506040513d6020811015620016fe57600080fd5b81019080805190602001909291905050507bffffffffffffffffffffffffffffffffffffffffffffffffffffffff1916827bffffffffffffffffffffffffffffffffffffffffffffffffffffffff191614620017c2576040517f08c379a00000000000000000000000000000000000000000000000000000000081526004018080602001828103825260178152602001807f696e636f727265637420696e7374616e6365207479706500000000000000000081525060200191505060405180910390fd5b81600360146101000a81548163ffffffff021916908360e01c02179055505050505056fe60806040526040516102953803806102958339818101604052604081101561002657600080fd5b81019080805190602001909291908051604051939291908464010000000082111561005057600080fd5b8382019150602082018581111561006657600080fd5b825186600182028301116401000000008211171561008357600080fd5b8083526020830192505050908051906020019080838360005b838110156100b757808201518184015260208101905061009c565b50505050905090810190601f1680156100e45780820380516001836020036101000a031916815260200191505b5060405250505060008273ffffffffffffffffffffffffffffffffffffffff16826040518082805190602001908083835b602083106101385780518252602082019150602081019050602083039250610115565b6001836020036101000a038019825116818451168082178552505050505050905001915050600060405180830381855af49150503d8060008114610198576040519150601f19603f3d011682016040523d82523d6000602084013e61019d565b606091505b50509050806101b0573d6000803e3d6000fd5b606069363d3d373d3d3d363d7360b01b846e5af43d82803e903d91602b57fd5bf360881b604051602001808475ffffffffffffffffffffffffffffffffffffffffffff191675ffffffffffffffffffffffffffffffffffffffffffff19168152600a018373ffffffffffffffffffffffffffffffffffffffff1673ffffffffffffffffffffffffffffffffffffffff1660601b81526014018270ffffffffffffffffffffffffffffffffff191670ffffffffffffffffffffffffffffffffff19168152600f0193505050506040516020818303038152906040529050602d81602001f3fe7374617274496e646578206d757374206265206c657373207468616e20656e64496e646578617474656d70746564206465706c6f796d656e7420746f20756e65787065637465642061646472657373636f6e747261637420616c7265616479206465706c6f796564207769746820737570706c6965642073616c74a265627a7a7231582047542bba34bd900ffd37aa7ec808fb5736bf562577c7f1975b087826b1accf5464736f6c634300050d0032",
  "source": "pragma solidity ^0.5.13;\n\nimport \"../modules/Factory.sol\";\nimport \"./CountdownGriefing.sol\";\n\n\n/// @title CountdownGriefing_Factory\n/// @author Stephane Gosselin (@thegostep) for Numerai Inc\n/// @dev Security contact: security@numer.ai\n/// @dev Version: 1.2.0\n/// @notice This factory is used to deploy instances of the template contract.\n///         New instances can be created with the following functions:\n///             `function create(bytes calldata initData) external returns (address instance);`\n///             `function createSalty(bytes calldata initData, bytes32 salt) external returns (address instance);`\n///         The `initData` parameter is ABI encoded calldata to use on the initialize function of the instance after creation.\n///         The optional `salt` parameter can be used to deterministically generate the instance address instead of using a nonce.\n///         See documentation of the template for additional details on initialization parameters.\n///         The template contract address can be optained with the following function:\n///             `function getTemplate() external view returns (address template);`\ncontract CountdownGriefing_Factory is Factory {\n\n    constructor(address instanceRegistry, address templateContract) public {\n        CountdownGriefing template;\n\n        // set instance type\n        bytes4 instanceType = bytes4(keccak256(bytes('Agreement')));\n        // set initSelector\n        bytes4 initSelector = template.initialize.selector;\n        // initialize factory params\n        Factory._initialize(instanceRegistry, templateContract, instanceType, initSelector);\n    }\n\n}\n"
}